{
  "abi": [
    {
      "inputs": [
        {
          "internalType": "bytes",
          "name": "soData",
          "type": "bytes"
        }
      ],
      "name": "decodeNormalizedSoData",
      "outputs": [
        {
          "components": [
            {
              "internalType": "bytes",
              "name": "transactionId",
              "type": "bytes"
            },
            {
              "internalType": "bytes",
              "name": "receiver",
              "type": "bytes"
            },
            {
              "internalType": "uint16",
              "name": "sourceChainId",
              "type": "uint16"
            },
            {
              "internalType": "bytes",
              "name": "sendingAssetId",
              "type": "bytes"
            },
            {
              "internalType": "uint16",
              "name": "destinationChainId",
              "type": "uint16"
            },
            {
              "internalType": "bytes",
              "name": "receivingAssetId",
              "type": "bytes"
            },
            {
              "internalType": "uint256",
              "name": "amount",
              "type": "uint256"
            }
          ],
          "internalType": "struct ISo.NormalizedSoData",
          "name": "",
          "type": "tuple"
        }
      ],
      "stateMutability": "pure",
      "type": "function"
    },
    {
      "inputs": [
        {
          "internalType": "bytes",
          "name": "swapData",
          "type": "bytes"
        }
      ],
      "name": "decodeNormalizedSwapData",
      "outputs": [
        {
          "components": [
            {
              "internalType": "bytes",
              "name": "callTo",
              "type": "bytes"
            },
            {
              "internalType": "bytes",
              "name": "approveTo",
              "type": "bytes"
            },
            {
              "internalType": "bytes",
              "name": "sendingAssetId",
              "type": "bytes"
            },
            {
              "internalType": "bytes",
              "name": "receivingAssetId",
              "type": "bytes"
            },
            {
              "internalType": "uint256",
              "name": "fromAmount",
              "type": "uint256"
            },
            {
              "internalType": "bytes",
              "name": "callData",
              "type": "bytes"
            }
          ],
          "internalType": "struct LibSwap.NormalizedSwapData[]",
          "name": "",
          "type": "tuple[]"
        }
      ],
      "stateMutability": "pure",
      "type": "function"
    },
    {
      "inputs": [
        {
          "components": [
            {
              "internalType": "bytes",
              "name": "transactionId",
              "type": "bytes"
            },
            {
              "internalType": "bytes",
              "name": "receiver",
              "type": "bytes"
            },
            {
              "internalType": "uint16",
              "name": "sourceChainId",
              "type": "uint16"
            },
            {
              "internalType": "bytes",
              "name": "sendingAssetId",
              "type": "bytes"
            },
            {
              "internalType": "uint16",
              "name": "destinationChainId",
              "type": "uint16"
            },
            {
              "internalType": "bytes",
              "name": "receivingAssetId",
              "type": "bytes"
            },
            {
              "internalType": "uint256",
              "name": "amount",
              "type": "uint256"
            }
          ],
          "internalType": "struct ISo.NormalizedSoData",
          "name": "data",
          "type": "tuple"
        }
      ],
      "name": "denormalizeSoData",
      "outputs": [
        {
          "components": [
            {
              "internalType": "bytes32",
              "name": "transactionId",
              "type": "bytes32"
            },
            {
              "internalType": "address payable",
              "name": "receiver",
              "type": "address"
            },
            {
              "internalType": "uint16",
              "name": "sourceChainId",
              "type": "uint16"
            },
            {
              "internalType": "address",
              "name": "sendingAssetId",
              "type": "address"
            },
            {
              "internalType": "uint16",
              "name": "destinationChainId",
              "type": "uint16"
            },
            {
              "internalType": "address",
              "name": "receivingAssetId",
              "type": "address"
            },
            {
              "internalType": "uint256",
              "name": "amount",
              "type": "uint256"
            }
          ],
          "internalType": "struct ISo.SoData",
          "name": "",
          "type": "tuple"
        }
      ],
      "stateMutability": "pure",
      "type": "function"
    },
    {
      "inputs": [
        {
          "components": [
            {
              "internalType": "bytes",
              "name": "callTo",
              "type": "bytes"
            },
            {
              "internalType": "bytes",
              "name": "approveTo",
              "type": "bytes"
            },
            {
              "internalType": "bytes",
              "name": "sendingAssetId",
              "type": "bytes"
            },
            {
              "internalType": "bytes",
              "name": "receivingAssetId",
              "type": "bytes"
            },
            {
              "internalType": "uint256",
              "name": "fromAmount",
              "type": "uint256"
            },
            {
              "internalType": "bytes",
              "name": "callData",
              "type": "bytes"
            }
          ],
          "internalType": "struct LibSwap.NormalizedSwapData[]",
          "name": "data",
          "type": "tuple[]"
        }
      ],
      "name": "denormalizeSwapData",
      "outputs": [
        {
          "components": [
            {
              "internalType": "address",
              "name": "callTo",
              "type": "address"
            },
            {
              "internalType": "address",
              "name": "approveTo",
              "type": "address"
            },
            {
              "internalType": "address",
              "name": "sendingAssetId",
              "type": "address"
            },
            {
              "internalType": "address",
              "name": "receivingAssetId",
              "type": "address"
            },
            {
              "internalType": "uint256",
              "name": "fromAmount",
              "type": "uint256"
            },
            {
              "internalType": "bytes",
              "name": "callData",
              "type": "bytes"
            }
          ],
          "internalType": "struct LibSwap.SwapData[]",
          "name": "",
          "type": "tuple[]"
        }
      ],
      "stateMutability": "pure",
      "type": "function"
    },
    {
      "inputs": [
        {
          "internalType": "bytes",
          "name": "data",
          "type": "bytes"
        }
      ],
      "name": "denormalizeU256",
      "outputs": [
        {
          "internalType": "uint256",
          "name": "",
          "type": "uint256"
        }
      ],
      "stateMutability": "pure",
      "type": "function"
    },
    {
      "inputs": [
        {
          "components": [
            {
              "internalType": "bytes",
              "name": "transactionId",
              "type": "bytes"
            },
            {
              "internalType": "bytes",
              "name": "receiver",
              "type": "bytes"
            },
            {
              "internalType": "uint16",
              "name": "sourceChainId",
              "type": "uint16"
            },
            {
              "internalType": "bytes",
              "name": "sendingAssetId",
              "type": "bytes"
            },
            {
              "internalType": "uint16",
              "name": "destinationChainId",
              "type": "uint16"
            },
            {
              "internalType": "bytes",
              "name": "receivingAssetId",
              "type": "bytes"
            },
            {
              "internalType": "uint256",
              "name": "amount",
              "type": "uint256"
            }
          ],
          "internalType": "struct ISo.NormalizedSoData",
          "name": "data",
          "type": "tuple"
        }
      ],
      "name": "encodeNormalizedSoData",
      "outputs": [
        {
          "internalType": "bytes",
          "name": "",
          "type": "bytes"
        }
      ],
      "stateMutability": "pure",
      "type": "function"
    },
    {
      "inputs": [
        {
          "components": [
            {
              "internalType": "bytes",
              "name": "callTo",
              "type": "bytes"
            },
            {
              "internalType": "bytes",
              "name": "approveTo",
              "type": "bytes"
            },
            {
              "internalType": "bytes",
              "name": "sendingAssetId",
              "type": "bytes"
            },
            {
              "internalType": "bytes",
              "name": "receivingAssetId",
              "type": "bytes"
            },
            {
              "internalType": "uint256",
              "name": "fromAmount",
              "type": "uint256"
            },
            {
              "internalType": "bytes",
              "name": "callData",
              "type": "bytes"
            }
          ],
          "internalType": "struct LibSwap.NormalizedSwapData[]",
          "name": "data",
          "type": "tuple[]"
        }
      ],
      "name": "encodeNormalizedSwapData",
      "outputs": [
        {
          "internalType": "bytes",
          "name": "",
          "type": "bytes"
        }
      ],
      "stateMutability": "pure",
      "type": "function"
    },
    {
      "inputs": [
        {
          "components": [
            {
              "internalType": "bytes32",
              "name": "transactionId",
              "type": "bytes32"
            },
            {
              "internalType": "address payable",
              "name": "receiver",
              "type": "address"
            },
            {
              "internalType": "uint16",
              "name": "sourceChainId",
              "type": "uint16"
            },
            {
              "internalType": "address",
              "name": "sendingAssetId",
              "type": "address"
            },
            {
              "internalType": "uint16",
              "name": "destinationChainId",
              "type": "uint16"
            },
            {
              "internalType": "address",
              "name": "receivingAssetId",
              "type": "address"
            },
            {
              "internalType": "uint256",
              "name": "amount",
              "type": "uint256"
            }
          ],
          "internalType": "struct ISo.SoData",
          "name": "soData",
          "type": "tuple"
        }
      ],
      "name": "normalizeSoData",
      "outputs": [
        {
          "components": [
            {
              "internalType": "bytes",
              "name": "transactionId",
              "type": "bytes"
            },
            {
              "internalType": "bytes",
              "name": "receiver",
              "type": "bytes"
            },
            {
              "internalType": "uint16",
              "name": "sourceChainId",
              "type": "uint16"
            },
            {
              "internalType": "bytes",
              "name": "sendingAssetId",
              "type": "bytes"
            },
            {
              "internalType": "uint16",
              "name": "destinationChainId",
              "type": "uint16"
            },
            {
              "internalType": "bytes",
              "name": "receivingAssetId",
              "type": "bytes"
            },
            {
              "internalType": "uint256",
              "name": "amount",
              "type": "uint256"
            }
          ],
          "internalType": "struct ISo.NormalizedSoData",
          "name": "",
          "type": "tuple"
        }
      ],
      "stateMutability": "pure",
      "type": "function"
    },
    {
      "inputs": [
        {
          "components": [
            {
              "internalType": "address",
              "name": "callTo",
              "type": "address"
            },
            {
              "internalType": "address",
              "name": "approveTo",
              "type": "address"
            },
            {
              "internalType": "address",
              "name": "sendingAssetId",
              "type": "address"
            },
            {
              "internalType": "address",
              "name": "receivingAssetId",
              "type": "address"
            },
            {
              "internalType": "uint256",
              "name": "fromAmount",
              "type": "uint256"
            },
            {
              "internalType": "bytes",
              "name": "callData",
              "type": "bytes"
            }
          ],
          "internalType": "struct LibSwap.SwapData[]",
          "name": "swapData",
          "type": "tuple[]"
        }
      ],
      "name": "normalizeSwapData",
      "outputs": [
        {
          "components": [
            {
              "internalType": "bytes",
              "name": "callTo",
              "type": "bytes"
            },
            {
              "internalType": "bytes",
              "name": "approveTo",
              "type": "bytes"
            },
            {
              "internalType": "bytes",
              "name": "sendingAssetId",
              "type": "bytes"
            },
            {
              "internalType": "bytes",
              "name": "receivingAssetId",
              "type": "bytes"
            },
            {
              "internalType": "uint256",
              "name": "fromAmount",
              "type": "uint256"
            },
            {
              "internalType": "bytes",
              "name": "callData",
              "type": "bytes"
            }
          ],
          "internalType": "struct LibSwap.NormalizedSwapData[]",
          "name": "",
          "type": "tuple[]"
        }
      ],
      "stateMutability": "pure",
      "type": "function"
    },
    {
      "inputs": [
        {
          "internalType": "uint256",
          "name": "data",
          "type": "uint256"
        }
      ],
      "name": "normalizeU256",
      "outputs": [
        {
          "internalType": "bytes",
          "name": "",
          "type": "bytes"
        }
      ],
      "stateMutability": "pure",
      "type": "function"
    }
  ],
  "bytecode": "608060405234801561001057600080fd5b506120a9806100206000396000f3fe608060405234801561001057600080fd5b506004361061009e5760003560e01c80639943d550116100665780639943d550146101b0578063b3609519146101c3578063b3dac9a5146101d6578063e865edfc146101e9578063fbc128a3146101fc57600080fd5b806305cabca4146100a35780631154d06d146100cc578063741eab15146100ec5780637f75f81f1461010c578063896a8b501461012c575b600080fd5b6100b66100b136600461166d565b61021d565b6040516100c3919061185b565b60405180910390f35b6100df6100da36600461166d565b61022e565b6040516100c3919061186e565b6100ff6100fa36600461191f565b610239565b6040516100c3919061195b565b61011f61011a36600461191f565b610244565b6040516100c39190611a2f565b61013f61013a366004611af3565b610255565b6040516100c39190600060e08201905082518252602083015160018060a01b0380821660208501526040850151915061ffff8083166040860152816060870151166060860152806080870151166080860152508060a08601511660a0850152505060c083015160c083015292915050565b6100b66101be366004611af3565b610297565b61011f6101d1366004611c1d565b6102a2565b6100b66101e4366004611cc3565b6102b3565b6100ff6101f7366004611cdc565b6102de565b61020f61020a36600461191f565b6102e9565b6040519081526020016100c3565b6060610228826102f5565b92915050565b606061022882610504565b6060610228826107c0565b61024c611506565b61022882610ad3565b6040805160e081018252600080825260208201819052918101829052606081018290526080810182905260a0810182905260c081019190915261022882610c88565b606061022882610d67565b6102aa611506565b61022882610df3565b6060816040516020016102c891815260200190565b6040516020818303038152906040529050919050565b606061022882610ec8565b60006102288282611187565b60408051602081019091526000815281516060919015610346578251604051602001610334919060c09190911b6001600160c01b031916815260080190565b60405160208183030381529060405290505b60005b83518110156104fd5761043884828151811061036757610367611e0e565b6020026020010151600001515185838151811061038657610386611e0e565b6020026020010151600001518684815181106103a4576103a4611e0e565b602002602001015160200151518785815181106103c3576103c3611e0e565b6020026020010151602001518886815181106103e1576103e1611e0e565b6020026020010151604001515189878151811061040057610400611e0e565b60200260200101516040015160405160200161042196959493929190611e24565b60408051601f1981840301815291905283906111e5565b91506104e984828151811061044f5761044f611e0e565b6020026020010151606001515185838151811061046e5761046e611e0e565b60200260200101516060015186848151811061048c5761048c611e0e565b6020026020010151608001518785815181106104aa576104aa611e0e565b602002602001015160a00151518886815181106104c9576104c9611e0e565b602002602001015160a00151604051602001610421959493929190611ea5565b9150806104f581611f1d565b915050610349565b5092915050565b6060600082516001600160401b038111156105215761052161154b565b60405190808252806020026020018201604052801561058357816020015b6040805160c081018252600080825260208083018290529282018190526060808301829052608083019190915260a0820152825260001990920191018161053f5790505b50905060005b81518110156104fd576105c360008583815181106105a9576105a9611e0e565b60200260200101516000015161126290919063ffffffff16565b8282815181106105d5576105d5611e0e565b6020026020010151600001906001600160a01b031690816001600160a01b03168152505061062a600085838151811061061057610610611e0e565b60200260200101516020015161126290919063ffffffff16565b82828151811061063c5761063c611e0e565b6020026020010151602001906001600160a01b031690816001600160a01b031681525050610691600085838151811061067757610677611e0e565b60200260200101516040015161126290919063ffffffff16565b8282815181106106a3576106a3611e0e565b6020026020010151604001906001600160a01b031690816001600160a01b0316815250506106f860008583815181106106de576106de611e0e565b60200260200101516060015161126290919063ffffffff16565b82828151811061070a5761070a611e0e565b6020026020010151606001906001600160a01b031690816001600160a01b03168152505083818151811061074057610740611e0e565b60200260200101516080015182828151811061075e5761075e611e0e565b6020026020010151608001818152505083818151811061078057610780611e0e565b602002602001015160a0015182828151811061079e5761079e611e0e565b602002602001015160a0018190525080806107b890611f1d565b915050610589565b606060006008816107d185826112c7565b6001600160401b031690506107e68284611f36565b92506000816001600160401b038111156108025761080261154b565b60405190808252806020026020018201604052801561086c57816020015b6108596040518060c001604052806060815260200160608152602001606081526020016060815260200160008152602001606081525090565b8152602001906001900390816108205790505b50905060005b82811015610a855761088487866112c7565b6001600160401b0316935061089a600886611f36565b94506108a7878686611324565b8282815181106108b9576108b9611e0e565b6020908102919091010151526108cf8486611f36565b94506108db87866112c7565b6001600160401b031693506108f1600886611f36565b94506108fe878686611324565b82828151811061091057610910611e0e565b60209081029190910181015101526109288486611f36565b945061093487866112c7565b6001600160401b0316935061094a600886611f36565b9450610957878686611324565b82828151811061096957610969611e0e565b6020908102919091010151604001526109828486611f36565b945061098e87866112c7565b6001600160401b031693506109a4600886611f36565b94506109b1878686611324565b8282815181106109c3576109c3611e0e565b6020908102919091010151606001526109dc8486611f36565b9450602093506109ec8786611187565b8282815181106109fe576109fe611e0e565b602090810291909101015160800152610a178486611f36565b9450610a2387866112c7565b6001600160401b03169350610a39600886611f36565b9450610a46878686611324565b828281518110610a5857610a58611e0e565b602090810291909101015160a00152610a718486611f36565b945080610a7d81611f1d565b915050610872565b5085518414610aca5760405162461bcd60e51b815260206004820152600c60248201526b2632b733ba341032b93937b960a11b60448201526064015b60405180910390fd5b95945050505050565b610adb611506565b610ae3611506565b600080610af085826112c7565b6001600160401b03169050610b06600883611f36565b9150610b13858383611324565b8352610b1f8183611f36565b9150610b2b85836112c7565b6001600160401b03169050610b41600883611f36565b9150610b4e858383611324565b6020840152610b5d8183611f36565b915060029050610b6d8583611431565b61ffff166040840152610b808183611f36565b9150610b8c85836112c7565b6001600160401b03169050610ba2600883611f36565b9150610baf858383611324565b6060840152610bbe8183611f36565b915060029050610bce8583611431565b61ffff166080840152610be18183611f36565b9150610bed85836112c7565b6001600160401b03169050610c03600883611f36565b9150610c10858383611324565b60a0840152610c1f8183611f36565b915060209050610c2f8583611187565b60c0840152610c3e8183611f36565b915084518214610c7f5760405162461bcd60e51b815260206004820152600c60248201526b2632b733ba341032b93937b960a11b6044820152606401610ac1565b50909392505050565b6040805160e081018252600080825260208201819052918101829052606081018290526080810182905260a0810182905260c08101919091526040805160e0810190915282518190610cdb90600061148e565b8152602001610ced84602001516114e3565b6001600160a01b03168152602001836040015161ffff168152602001610d216000856060015161126290919063ffffffff16565b6001600160a01b03168152602001836080015161ffff168152602001610d4a8460a001516114e3565b6001600160a01b031681526020018360c001518152509050919050565b8051805160208084015180516040808701519051606096600096610d92969095919493919201611f4e565b60408051601f198184030181529082905260608501518051608087015160a0880151805160c08a0151959750610dec96610dd59694959491929190602001611fc2565b60408051601f1981840301815291905282906111e5565b9392505050565b610dfb611506565b610e03611506565b82516040805160208082019390935281518082038401815290820182528352818501519051610e32920161203a565b60408051601f198184030181529181526020838101929092528481015161ffff168382015260608501519051610e68920161203a565b60408051601f19818403018152918152606083019190915260808085015161ffff169083015260a08401519051610ea2919060200161203a565b60408051601f1981840301815291905260a082015260c092830151928101929092525090565b6060600082516001600160401b03811115610ee557610ee561154b565b604051908082528060200260200182016040528015610f4f57816020015b610f3c6040518060c001604052806060815260200160608152602001606081526020016060815260200160008152602001606081525090565b815260200190600190039081610f035790505b50905060005b83518110156104fd57838181518110610f7057610f70611e0e565b602002602001015160000151604051602001610f8c919061203a565b604051602081830303815290604052828281518110610fad57610fad611e0e565b602002602001015160000181905250838181518110610fce57610fce611e0e565b602002602001015160200151604051602001610fea919061203a565b60405160208183030381529060405282828151811061100b5761100b611e0e565b60200260200101516020018190525083818151811061102c5761102c611e0e565b602002602001015160400151604051602001611048919061203a565b60405160208183030381529060405282828151811061106957611069611e0e565b60200260200101516040018190525083818151811061108a5761108a611e0e565b6020026020010151606001516040516020016110a6919061203a565b6040516020818303038152906040528282815181106110c7576110c7611e0e565b6020026020010151606001819052508381815181106110e8576110e8611e0e565b60200260200101516080015182828151811061110657611106611e0e565b6020026020010151608001818152505083818151811061112857611128611e0e565b602002602001015160a001516040516020016111449190612057565b60405160208183030381529060405282828151811061116557611165611e0e565b602002602001015160a00181905250808061117f90611f1d565b915050610f55565b6000611194826020611f36565b835110156111dc5760405162461bcd60e51b8152602060048201526015602482015274746f55696e743235365f6f75744f66426f756e647360581b6044820152606401610ac1565b50016020015190565b6060806040519050835180825260208201818101602087015b818310156112165780518352602092830192016111fe565b50855184518101855292509050808201602086015b8183101561124357805183526020928301920161122b565b508651929092011591909101601f01601f191660405250905092915050565b600061126f826014611f36565b835110156112b75760405162461bcd60e51b8152602060048201526015602482015274746f416464726573735f6f75744f66426f756e647360581b6044820152606401610ac1565b500160200151600160601b900490565b60006112d4826008611f36565b8351101561131b5760405162461bcd60e51b8152602060048201526014602482015273746f55696e7436345f6f75744f66426f756e647360601b6044820152606401610ac1565b50016008015190565b60608161133281601f611f36565b10156113715760405162461bcd60e51b815260206004820152600e60248201526d736c6963655f6f766572666c6f7760901b6044820152606401610ac1565b61137b8284611f36565b845110156113bf5760405162461bcd60e51b8152602060048201526011602482015270736c6963655f6f75744f66426f756e647360781b6044820152606401610ac1565b6060821580156113de5760405191506000825260208201604052611428565b6040519150601f8416801560200281840101858101878315602002848b0101015b818310156114175780518352602092830192016113ff565b5050858452601f01601f1916604052505b50949350505050565b600061143e826002611f36565b835110156114855760405162461bcd60e51b8152602060048201526014602482015273746f55696e7431365f6f75744f66426f756e647360601b6044820152606401610ac1565b50016002015190565b600061149b826020611f36565b835110156111dc5760405162461bcd60e51b8152602060048201526015602482015274746f427974657333325f6f75744f66426f756e647360581b6044820152606401610ac1565b600081516014036114f957610228826000611262565b506000919050565b919050565b6040518060e001604052806060815260200160608152602001600061ffff16815260200160608152602001600061ffff16815260200160608152602001600081525090565b634e487b7160e01b600052604160045260246000fd5b60405160c081016001600160401b03811182821017156115835761158361154b565b60405290565b60405160e081016001600160401b03811182821017156115835761158361154b565b604051601f8201601f191681016001600160401b03811182821017156115d3576115d361154b565b604052919050565b60006001600160401b038211156115f4576115f461154b565b5060051b60200190565b600082601f83011261160f57600080fd5b81356001600160401b038111156116285761162861154b565b61163b601f8201601f19166020016115ab565b81815284602083860101111561165057600080fd5b816020850160208301376000918101602001919091529392505050565b6000602080838503121561168057600080fd5b82356001600160401b038082111561169757600080fd5b818501915085601f8301126116ab57600080fd5b81356116be6116b9826115db565b6115ab565b81815260059190911b830184019084810190888311156116dd57600080fd5b8585015b838110156117f2578035858111156116f857600080fd5b860160c0818c03601f1901121561170f5760008081fd5b611717611561565b88820135878111156117295760008081fd5b6117378d8b838601016115fe565b8252506040808301358881111561174e5760008081fd5b61175c8e8c838701016115fe565b8b84015250606080840135898111156117755760008081fd5b6117838f8d838801016115fe565b838501525060809150818401358981111561179e5760008081fd5b6117ac8f8d838801016115fe565b82850152505060a0808401358284015260c08401359150888211156117d15760008081fd5b6117df8e8c848701016115fe565b90830152508452509186019186016116e1565b5098975050505050505050565b60005b8381101561181a578181015183820152602001611802565b83811115611829576000848401525b50505050565b600081518084526118478160208601602086016117ff565b601f01601f19169290920160200192915050565b602081526000610dec602083018461182f565b60006020808301818452808551808352604092508286019150828160051b87010184880160005b8381101561191157888303603f19018552815180516001600160a01b0390811685528882015181168986015287820151811688860152606080830151909116908501526080808201519085015260a09081015160c0918501829052906118fd8186018361182f565b968901969450505090860190600101611895565b509098975050505050505050565b60006020828403121561193157600080fd5b81356001600160401b0381111561194757600080fd5b611953848285016115fe565b949350505050565b60006020808301818452808551808352604092508286019150828160051b87010184880160005b8381101561191157603f19898403018552815160c081518186526119a88287018261182f565b915050888201518582038a8701526119c0828261182f565b91505087820151858203898701526119d8828261182f565b915050606080830151868303828801526119f2838261182f565b92505050608080830151818701525060a08083015192508582038187015250611a1b818361182f565b968901969450505090860190600101611982565b602081526000825160e06020840152611a4c61010084018261182f565b90506020840151601f1980858403016040860152611a6a838361182f565b925061ffff60408701511660608601526060860151915080858403016080860152611a95838361182f565b925060808601519150611aae60a086018361ffff169052565b60a08601519150808584030160c086015250611aca828261182f565b91505060c084015160e08401528091505092915050565b803561ffff8116811461150157600080fd5b600060208284031215611b0557600080fd5b81356001600160401b0380821115611b1c57600080fd5b9083019060e08286031215611b3057600080fd5b611b38611589565b823582811115611b4757600080fd5b611b53878286016115fe565b825250602083013582811115611b6857600080fd5b611b74878286016115fe565b602083015250611b8660408401611ae1565b6040820152606083013582811115611b9d57600080fd5b611ba9878286016115fe565b606083015250611bbb60808401611ae1565b608082015260a083013582811115611bd257600080fd5b611bde878286016115fe565b60a08301525060c083013560c082015280935050505092915050565b6001600160a01b0381168114611c0f57600080fd5b50565b803561150181611bfa565b600060e08284031215611c2f57600080fd5b60405160e081018181106001600160401b0382111715611c5157611c5161154b565b604052823581526020830135611c6681611bfa565b6020820152611c7760408401611ae1565b6040820152611c8860608401611c12565b6060820152611c9960808401611ae1565b6080820152611caa60a08401611c12565b60a082015260c083013560c08201528091505092915050565b600060208284031215611cd557600080fd5b5035919050565b60006020808385031215611cef57600080fd5b82356001600160401b0380821115611d0657600080fd5b818501915085601f830112611d1a57600080fd5b8135611d286116b9826115db565b81815260059190911b83018401908481019088831115611d4757600080fd5b8585015b838110156117f257803585811115611d635760008081fd5b860160c0818c03601f1901811315611d7b5760008081fd5b611d83611561565b89830135611d9081611bfa565b8152604083810135611da181611bfa565b828c0152606084810135611db481611bfa565b80838501525060809150611dc9828601611c12565b9083015260a08481013582840152928401359289841115611dec57600091508182fd5b611dfa8f8d868801016115fe565b908301525085525050918601918601611d4b565b634e487b7160e01b600052603260045260246000fd5b60006001600160401b0360c01b808960c01b1683528751611e4c816008860160208c016117ff565b8084019050818860c01b1660088201528651611e6f816010840160208b016117ff565b808201915050818660c01b16601082015284519150611e958260188301602088016117ff565b0160180198975050505050505050565b60006001600160401b0360c01b808860c01b1683528651611ecd816008860160208b016117ff565b8084019050866008820152818660c01b16602882015284519150611ef88260308301602088016117ff565b01603001979650505050505050565b634e487b7160e01b600052601160045260246000fd5b600060018201611f2f57611f2f611f07565b5060010190565b60008219821115611f4957611f49611f07565b500190565b60006001600160401b0360c01b808860c01b1683528651611f76816008860160208b016117ff565b8084019050818760c01b16600882015285519150611f9b8260108301602089016117ff565b60f09490941b6001600160f01b031916601094909101938401525050601201949350505050565b60006001600160401b0360c01b808960c01b1683528751611fea816008860160208c016117ff565b60f088901b6001600160f01b03191660089185019182015260c087901b909116600a8201528451906120238260128301602089016117ff565b016012810193909352505060320195945050505050565b60609190911b6bffffffffffffffffffffffff1916815260140190565b600082516120698184602087016117ff565b919091019291505056fea2646970667358221220638e11e813593f3781946eb37e0011fbc667726043b846b426f8506080b1712964736f6c634300080d0033",
  "bytecodeSha1": "9208815b548cb2c7a5ab4eb6db461df5cb6aa016",
  "compiler": {
    "evm_version": "istanbul",
    "optimizer": {
      "enabled": true,
      "runs": 200
    },
    "version": "0.8.13+commit.abaa5c0e"
  },
  "contractName": "SerdeFacet",
  "language": "Solidity",
  "natspec": {
    "kind": "dev",
    "methods": {},
    "notice": "Provides functionality for encode and decode cross data",
    "title": "Serde Facet",
    "version": 1
  },
  "opcodes": "PUSH1 0x80 PUSH1 0x40 MSTORE CALLVALUE DUP1 ISZERO PUSH2 0x10 JUMPI PUSH1 0x0 DUP1 REVERT JUMPDEST POP PUSH1 0x4 CALLDATASIZE LT PUSH2 0x9E JUMPI PUSH1 0x0 CALLDATALOAD PUSH1 0xE0 SHR DUP1 PUSH4 0x9943D550 GT PUSH2 0x66 JUMPI DUP1 PUSH4 0x9943D550 EQ PUSH2 0x1B0 JUMPI DUP1 PUSH4 0xB3609519 EQ PUSH2 0x1C3 JUMPI DUP1 PUSH4 0xB3DAC9A5 EQ PUSH2 0x1D6 JUMPI DUP1 PUSH4 0xE865EDFC EQ PUSH2 0x1E9 JUMPI DUP1 PUSH4 0xFBC128A3 EQ PUSH2 0x1FC JUMPI PUSH1 0x0 DUP1 REVERT JUMPDEST DUP1 PUSH4 0x5CABCA4 EQ PUSH2 0xA3 JUMPI DUP1 PUSH4 0x1154D06D EQ PUSH2 0xCC JUMPI DUP1 PUSH4 0x741EAB15 EQ PUSH2 0xEC JUMPI DUP1 PUSH4 0x7F75F81F EQ PUSH2 0x10C JUMPI DUP1 PUSH4 0x896A8B50 EQ PUSH2 0x12C JUMPI JUMPDEST PUSH1 0x0 DUP1 REVERT JUMPDEST PUSH2 0xB6 PUSH2 0xB1 CALLDATASIZE PUSH1 0x4 PUSH2 0x166D JUMP JUMPDEST PUSH2 0x21D JUMP JUMPDEST PUSH1 0x40 MLOAD PUSH2 0xC3 SWAP2 SWAP1 PUSH2 0x185B JUMP JUMPDEST PUSH1 0x40 MLOAD DUP1 SWAP2 SUB SWAP1 RETURN JUMPDEST PUSH2 0xDF PUSH2 0xDA CALLDATASIZE PUSH1 0x4 PUSH2 0x166D JUMP JUMPDEST PUSH2 0x22E JUMP JUMPDEST PUSH1 0x40 MLOAD PUSH2 0xC3 SWAP2 SWAP1 PUSH2 0x186E JUMP JUMPDEST PUSH2 0xFF PUSH2 0xFA CALLDATASIZE PUSH1 0x4 PUSH2 0x191F JUMP JUMPDEST PUSH2 0x239 JUMP JUMPDEST PUSH1 0x40 MLOAD PUSH2 0xC3 SWAP2 SWAP1 PUSH2 0x195B JUMP JUMPDEST PUSH2 0x11F PUSH2 0x11A CALLDATASIZE PUSH1 0x4 PUSH2 0x191F JUMP JUMPDEST PUSH2 0x244 JUMP JUMPDEST PUSH1 0x40 MLOAD PUSH2 0xC3 SWAP2 SWAP1 PUSH2 0x1A2F JUMP JUMPDEST PUSH2 0x13F PUSH2 0x13A CALLDATASIZE PUSH1 0x4 PUSH2 0x1AF3 JUMP JUMPDEST PUSH2 0x255 JUMP JUMPDEST PUSH1 0x40 MLOAD PUSH2 0xC3 SWAP2 SWAP1 PUSH1 0x0 PUSH1 0xE0 DUP3 ADD SWAP1 POP DUP3 MLOAD DUP3 MSTORE PUSH1 0x20 DUP4 ADD MLOAD PUSH1 0x1 DUP1 PUSH1 0xA0 SHL SUB DUP1 DUP3 AND PUSH1 0x20 DUP6 ADD MSTORE PUSH1 0x40 DUP6 ADD MLOAD SWAP2 POP PUSH2 0xFFFF DUP1 DUP4 AND PUSH1 0x40 DUP7 ADD MSTORE DUP2 PUSH1 0x60 DUP8 ADD MLOAD AND PUSH1 0x60 DUP7 ADD MSTORE DUP1 PUSH1 0x80 DUP8 ADD MLOAD AND PUSH1 0x80 DUP7 ADD MSTORE POP DUP1 PUSH1 0xA0 DUP7 ADD MLOAD AND PUSH1 0xA0 DUP6 ADD MSTORE POP POP PUSH1 0xC0 DUP4 ADD MLOAD PUSH1 0xC0 DUP4 ADD MSTORE SWAP3 SWAP2 POP POP JUMP JUMPDEST PUSH2 0xB6 PUSH2 0x1BE CALLDATASIZE PUSH1 0x4 PUSH2 0x1AF3 JUMP JUMPDEST PUSH2 0x297 JUMP JUMPDEST PUSH2 0x11F PUSH2 0x1D1 CALLDATASIZE PUSH1 0x4 PUSH2 0x1C1D JUMP JUMPDEST PUSH2 0x2A2 JUMP JUMPDEST PUSH2 0xB6 PUSH2 0x1E4 CALLDATASIZE PUSH1 0x4 PUSH2 0x1CC3 JUMP JUMPDEST PUSH2 0x2B3 JUMP JUMPDEST PUSH2 0xFF PUSH2 0x1F7 CALLDATASIZE PUSH1 0x4 PUSH2 0x1CDC JUMP JUMPDEST PUSH2 0x2DE JUMP JUMPDEST PUSH2 0x20F PUSH2 0x20A CALLDATASIZE PUSH1 0x4 PUSH2 0x191F JUMP JUMPDEST PUSH2 0x2E9 JUMP JUMPDEST PUSH1 0x40 MLOAD SWAP1 DUP2 MSTORE PUSH1 0x20 ADD PUSH2 0xC3 JUMP JUMPDEST PUSH1 0x60 PUSH2 0x228 DUP3 PUSH2 0x2F5 JUMP JUMPDEST SWAP3 SWAP2 POP POP JUMP JUMPDEST PUSH1 0x60 PUSH2 0x228 DUP3 PUSH2 0x504 JUMP JUMPDEST PUSH1 0x60 PUSH2 0x228 DUP3 PUSH2 0x7C0 JUMP JUMPDEST PUSH2 0x24C PUSH2 0x1506 JUMP JUMPDEST PUSH2 0x228 DUP3 PUSH2 0xAD3 JUMP JUMPDEST PUSH1 0x40 DUP1 MLOAD PUSH1 0xE0 DUP2 ADD DUP3 MSTORE PUSH1 0x0 DUP1 DUP3 MSTORE PUSH1 0x20 DUP3 ADD DUP2 SWAP1 MSTORE SWAP2 DUP2 ADD DUP3 SWAP1 MSTORE PUSH1 0x60 DUP2 ADD DUP3 SWAP1 MSTORE PUSH1 0x80 DUP2 ADD DUP3 SWAP1 MSTORE PUSH1 0xA0 DUP2 ADD DUP3 SWAP1 MSTORE PUSH1 0xC0 DUP2 ADD SWAP2 SWAP1 SWAP2 MSTORE PUSH2 0x228 DUP3 PUSH2 0xC88 JUMP JUMPDEST PUSH1 0x60 PUSH2 0x228 DUP3 PUSH2 0xD67 JUMP JUMPDEST PUSH2 0x2AA PUSH2 0x1506 JUMP JUMPDEST PUSH2 0x228 DUP3 PUSH2 0xDF3 JUMP JUMPDEST PUSH1 0x60 DUP2 PUSH1 0x40 MLOAD PUSH1 0x20 ADD PUSH2 0x2C8 SWAP2 DUP2 MSTORE PUSH1 0x20 ADD SWAP1 JUMP JUMPDEST PUSH1 0x40 MLOAD PUSH1 0x20 DUP2 DUP4 SUB SUB DUP2 MSTORE SWAP1 PUSH1 0x40 MSTORE SWAP1 POP SWAP2 SWAP1 POP JUMP JUMPDEST PUSH1 0x60 PUSH2 0x228 DUP3 PUSH2 0xEC8 JUMP JUMPDEST PUSH1 0x0 PUSH2 0x228 DUP3 DUP3 PUSH2 0x1187 JUMP JUMPDEST PUSH1 0x40 DUP1 MLOAD PUSH1 0x20 DUP2 ADD SWAP1 SWAP2 MSTORE PUSH1 0x0 DUP2 MSTORE DUP2 MLOAD PUSH1 0x60 SWAP2 SWAP1 ISZERO PUSH2 0x346 JUMPI DUP3 MLOAD PUSH1 0x40 MLOAD PUSH1 0x20 ADD PUSH2 0x334 SWAP2 SWAP1 PUSH1 0xC0 SWAP2 SWAP1 SWAP2 SHL PUSH1 0x1 PUSH1 0x1 PUSH1 0xC0 SHL SUB NOT AND DUP2 MSTORE PUSH1 0x8 ADD SWAP1 JUMP JUMPDEST PUSH1 0x40 MLOAD PUSH1 0x20 DUP2 DUP4 SUB SUB DUP2 MSTORE SWAP1 PUSH1 0x40 MSTORE SWAP1 POP JUMPDEST PUSH1 0x0 JUMPDEST DUP4 MLOAD DUP2 LT ISZERO PUSH2 0x4FD JUMPI PUSH2 0x438 DUP5 DUP3 DUP2 MLOAD DUP2 LT PUSH2 0x367 JUMPI PUSH2 0x367 PUSH2 0x1E0E JUMP JUMPDEST PUSH1 0x20 MUL PUSH1 0x20 ADD ADD MLOAD PUSH1 0x0 ADD MLOAD MLOAD DUP6 DUP4 DUP2 MLOAD DUP2 LT PUSH2 0x386 JUMPI PUSH2 0x386 PUSH2 0x1E0E JUMP JUMPDEST PUSH1 0x20 MUL PUSH1 0x20 ADD ADD MLOAD PUSH1 0x0 ADD MLOAD DUP7 DUP5 DUP2 MLOAD DUP2 LT PUSH2 0x3A4 JUMPI PUSH2 0x3A4 PUSH2 0x1E0E JUMP JUMPDEST PUSH1 0x20 MUL PUSH1 0x20 ADD ADD MLOAD PUSH1 0x20 ADD MLOAD MLOAD DUP8 DUP6 DUP2 MLOAD DUP2 LT PUSH2 0x3C3 JUMPI PUSH2 0x3C3 PUSH2 0x1E0E JUMP JUMPDEST PUSH1 0x20 MUL PUSH1 0x20 ADD ADD MLOAD PUSH1 0x20 ADD MLOAD DUP9 DUP7 DUP2 MLOAD DUP2 LT PUSH2 0x3E1 JUMPI PUSH2 0x3E1 PUSH2 0x1E0E JUMP JUMPDEST PUSH1 0x20 MUL PUSH1 0x20 ADD ADD MLOAD PUSH1 0x40 ADD MLOAD MLOAD DUP10 DUP8 DUP2 MLOAD DUP2 LT PUSH2 0x400 JUMPI PUSH2 0x400 PUSH2 0x1E0E JUMP JUMPDEST PUSH1 0x20 MUL PUSH1 0x20 ADD ADD MLOAD PUSH1 0x40 ADD MLOAD PUSH1 0x40 MLOAD PUSH1 0x20 ADD PUSH2 0x421 SWAP7 SWAP6 SWAP5 SWAP4 SWAP3 SWAP2 SWAP1 PUSH2 0x1E24 JUMP JUMPDEST PUSH1 0x40 DUP1 MLOAD PUSH1 0x1F NOT DUP2 DUP5 SUB ADD DUP2 MSTORE SWAP2 SWAP1 MSTORE DUP4 SWAP1 PUSH2 0x11E5 JUMP JUMPDEST SWAP2 POP PUSH2 0x4E9 DUP5 DUP3 DUP2 MLOAD DUP2 LT PUSH2 0x44F JUMPI PUSH2 0x44F PUSH2 0x1E0E JUMP JUMPDEST PUSH1 0x20 MUL PUSH1 0x20 ADD ADD MLOAD PUSH1 0x60 ADD MLOAD MLOAD DUP6 DUP4 DUP2 MLOAD DUP2 LT PUSH2 0x46E JUMPI PUSH2 0x46E PUSH2 0x1E0E JUMP JUMPDEST PUSH1 0x20 MUL PUSH1 0x20 ADD ADD MLOAD PUSH1 0x60 ADD MLOAD DUP7 DUP5 DUP2 MLOAD DUP2 LT PUSH2 0x48C JUMPI PUSH2 0x48C PUSH2 0x1E0E JUMP JUMPDEST PUSH1 0x20 MUL PUSH1 0x20 ADD ADD MLOAD PUSH1 0x80 ADD MLOAD DUP8 DUP6 DUP2 MLOAD DUP2 LT PUSH2 0x4AA JUMPI PUSH2 0x4AA PUSH2 0x1E0E JUMP JUMPDEST PUSH1 0x20 MUL PUSH1 0x20 ADD ADD MLOAD PUSH1 0xA0 ADD MLOAD MLOAD DUP9 DUP7 DUP2 MLOAD DUP2 LT PUSH2 0x4C9 JUMPI PUSH2 0x4C9 PUSH2 0x1E0E JUMP JUMPDEST PUSH1 0x20 MUL PUSH1 0x20 ADD ADD MLOAD PUSH1 0xA0 ADD MLOAD PUSH1 0x40 MLOAD PUSH1 0x20 ADD PUSH2 0x421 SWAP6 SWAP5 SWAP4 SWAP3 SWAP2 SWAP1 PUSH2 0x1EA5 JUMP JUMPDEST SWAP2 POP DUP1 PUSH2 0x4F5 DUP2 PUSH2 0x1F1D JUMP JUMPDEST SWAP2 POP POP PUSH2 0x349 JUMP JUMPDEST POP SWAP3 SWAP2 POP POP JUMP JUMPDEST PUSH1 0x60 PUSH1 0x0 DUP3 MLOAD PUSH1 0x1 PUSH1 0x1 PUSH1 0x40 SHL SUB DUP2 GT ISZERO PUSH2 0x521 JUMPI PUSH2 0x521 PUSH2 0x154B JUMP JUMPDEST PUSH1 0x40 MLOAD SWAP1 DUP1 DUP3 MSTORE DUP1 PUSH1 0x20 MUL PUSH1 0x20 ADD DUP3 ADD PUSH1 0x40 MSTORE DUP1 ISZERO PUSH2 0x583 JUMPI DUP2 PUSH1 0x20 ADD JUMPDEST PUSH1 0x40 DUP1 MLOAD PUSH1 0xC0 DUP2 ADD DUP3 MSTORE PUSH1 0x0 DUP1 DUP3 MSTORE PUSH1 0x20 DUP1 DUP4 ADD DUP3 SWAP1 MSTORE SWAP3 DUP3 ADD DUP2 SWAP1 MSTORE PUSH1 0x60 DUP1 DUP4 ADD DUP3 SWAP1 MSTORE PUSH1 0x80 DUP4 ADD SWAP2 SWAP1 SWAP2 MSTORE PUSH1 0xA0 DUP3 ADD MSTORE DUP3 MSTORE PUSH1 0x0 NOT SWAP1 SWAP3 ADD SWAP2 ADD DUP2 PUSH2 0x53F JUMPI SWAP1 POP JUMPDEST POP SWAP1 POP PUSH1 0x0 JUMPDEST DUP2 MLOAD DUP2 LT ISZERO PUSH2 0x4FD JUMPI PUSH2 0x5C3 PUSH1 0x0 DUP6 DUP4 DUP2 MLOAD DUP2 LT PUSH2 0x5A9 JUMPI PUSH2 0x5A9 PUSH2 0x1E0E JUMP JUMPDEST PUSH1 0x20 MUL PUSH1 0x20 ADD ADD MLOAD PUSH1 0x0 ADD MLOAD PUSH2 0x1262 SWAP1 SWAP2 SWAP1 PUSH4 0xFFFFFFFF AND JUMP JUMPDEST DUP3 DUP3 DUP2 MLOAD DUP2 LT PUSH2 0x5D5 JUMPI PUSH2 0x5D5 PUSH2 0x1E0E JUMP JUMPDEST PUSH1 0x20 MUL PUSH1 0x20 ADD ADD MLOAD PUSH1 0x0 ADD SWAP1 PUSH1 0x1 PUSH1 0x1 PUSH1 0xA0 SHL SUB AND SWAP1 DUP2 PUSH1 0x1 PUSH1 0x1 PUSH1 0xA0 SHL SUB AND DUP2 MSTORE POP POP PUSH2 0x62A PUSH1 0x0 DUP6 DUP4 DUP2 MLOAD DUP2 LT PUSH2 0x610 JUMPI PUSH2 0x610 PUSH2 0x1E0E JUMP JUMPDEST PUSH1 0x20 MUL PUSH1 0x20 ADD ADD MLOAD PUSH1 0x20 ADD MLOAD PUSH2 0x1262 SWAP1 SWAP2 SWAP1 PUSH4 0xFFFFFFFF AND JUMP JUMPDEST DUP3 DUP3 DUP2 MLOAD DUP2 LT PUSH2 0x63C JUMPI PUSH2 0x63C PUSH2 0x1E0E JUMP JUMPDEST PUSH1 0x20 MUL PUSH1 0x20 ADD ADD MLOAD PUSH1 0x20 ADD SWAP1 PUSH1 0x1 PUSH1 0x1 PUSH1 0xA0 SHL SUB AND SWAP1 DUP2 PUSH1 0x1 PUSH1 0x1 PUSH1 0xA0 SHL SUB AND DUP2 MSTORE POP POP PUSH2 0x691 PUSH1 0x0 DUP6 DUP4 DUP2 MLOAD DUP2 LT PUSH2 0x677 JUMPI PUSH2 0x677 PUSH2 0x1E0E JUMP JUMPDEST PUSH1 0x20 MUL PUSH1 0x20 ADD ADD MLOAD PUSH1 0x40 ADD MLOAD PUSH2 0x1262 SWAP1 SWAP2 SWAP1 PUSH4 0xFFFFFFFF AND JUMP JUMPDEST DUP3 DUP3 DUP2 MLOAD DUP2 LT PUSH2 0x6A3 JUMPI PUSH2 0x6A3 PUSH2 0x1E0E JUMP JUMPDEST PUSH1 0x20 MUL PUSH1 0x20 ADD ADD MLOAD PUSH1 0x40 ADD SWAP1 PUSH1 0x1 PUSH1 0x1 PUSH1 0xA0 SHL SUB AND SWAP1 DUP2 PUSH1 0x1 PUSH1 0x1 PUSH1 0xA0 SHL SUB AND DUP2 MSTORE POP POP PUSH2 0x6F8 PUSH1 0x0 DUP6 DUP4 DUP2 MLOAD DUP2 LT PUSH2 0x6DE JUMPI PUSH2 0x6DE PUSH2 0x1E0E JUMP JUMPDEST PUSH1 0x20 MUL PUSH1 0x20 ADD ADD MLOAD PUSH1 0x60 ADD MLOAD PUSH2 0x1262 SWAP1 SWAP2 SWAP1 PUSH4 0xFFFFFFFF AND JUMP JUMPDEST DUP3 DUP3 DUP2 MLOAD DUP2 LT PUSH2 0x70A JUMPI PUSH2 0x70A PUSH2 0x1E0E JUMP JUMPDEST PUSH1 0x20 MUL PUSH1 0x20 ADD ADD MLOAD PUSH1 0x60 ADD SWAP1 PUSH1 0x1 PUSH1 0x1 PUSH1 0xA0 SHL SUB AND SWAP1 DUP2 PUSH1 0x1 PUSH1 0x1 PUSH1 0xA0 SHL SUB AND DUP2 MSTORE POP POP DUP4 DUP2 DUP2 MLOAD DUP2 LT PUSH2 0x740 JUMPI PUSH2 0x740 PUSH2 0x1E0E JUMP JUMPDEST PUSH1 0x20 MUL PUSH1 0x20 ADD ADD MLOAD PUSH1 0x80 ADD MLOAD DUP3 DUP3 DUP2 MLOAD DUP2 LT PUSH2 0x75E JUMPI PUSH2 0x75E PUSH2 0x1E0E JUMP JUMPDEST PUSH1 0x20 MUL PUSH1 0x20 ADD ADD MLOAD PUSH1 0x80 ADD DUP2 DUP2 MSTORE POP POP DUP4 DUP2 DUP2 MLOAD DUP2 LT PUSH2 0x780 JUMPI PUSH2 0x780 PUSH2 0x1E0E JUMP JUMPDEST PUSH1 0x20 MUL PUSH1 0x20 ADD ADD MLOAD PUSH1 0xA0 ADD MLOAD DUP3 DUP3 DUP2 MLOAD DUP2 LT PUSH2 0x79E JUMPI PUSH2 0x79E PUSH2 0x1E0E JUMP JUMPDEST PUSH1 0x20 MUL PUSH1 0x20 ADD ADD MLOAD PUSH1 0xA0 ADD DUP2 SWAP1 MSTORE POP DUP1 DUP1 PUSH2 0x7B8 SWAP1 PUSH2 0x1F1D JUMP JUMPDEST SWAP2 POP POP PUSH2 0x589 JUMP JUMPDEST PUSH1 0x60 PUSH1 0x0 PUSH1 0x8 DUP2 PUSH2 0x7D1 DUP6 DUP3 PUSH2 0x12C7 JUMP JUMPDEST PUSH1 0x1 PUSH1 0x1 PUSH1 0x40 SHL SUB AND SWAP1 POP PUSH2 0x7E6 DUP3 DUP5 PUSH2 0x1F36 JUMP JUMPDEST SWAP3 POP PUSH1 0x0 DUP2 PUSH1 0x1 PUSH1 0x1 PUSH1 0x40 SHL SUB DUP2 GT ISZERO PUSH2 0x802 JUMPI PUSH2 0x802 PUSH2 0x154B JUMP JUMPDEST PUSH1 0x40 MLOAD SWAP1 DUP1 DUP3 MSTORE DUP1 PUSH1 0x20 MUL PUSH1 0x20 ADD DUP3 ADD PUSH1 0x40 MSTORE DUP1 ISZERO PUSH2 0x86C JUMPI DUP2 PUSH1 0x20 ADD JUMPDEST PUSH2 0x859 PUSH1 0x40 MLOAD DUP1 PUSH1 0xC0 ADD PUSH1 0x40 MSTORE DUP1 PUSH1 0x60 DUP2 MSTORE PUSH1 0x20 ADD PUSH1 0x60 DUP2 MSTORE PUSH1 0x20 ADD PUSH1 0x60 DUP2 MSTORE PUSH1 0x20 ADD PUSH1 0x60 DUP2 MSTORE PUSH1 0x20 ADD PUSH1 0x0 DUP2 MSTORE PUSH1 0x20 ADD PUSH1 0x60 DUP2 MSTORE POP SWAP1 JUMP JUMPDEST DUP2 MSTORE PUSH1 0x20 ADD SWAP1 PUSH1 0x1 SWAP1 SUB SWAP1 DUP2 PUSH2 0x820 JUMPI SWAP1 POP JUMPDEST POP SWAP1 POP PUSH1 0x0 JUMPDEST DUP3 DUP2 LT ISZERO PUSH2 0xA85 JUMPI PUSH2 0x884 DUP8 DUP7 PUSH2 0x12C7 JUMP JUMPDEST PUSH1 0x1 PUSH1 0x1 PUSH1 0x40 SHL SUB AND SWAP4 POP PUSH2 0x89A PUSH1 0x8 DUP7 PUSH2 0x1F36 JUMP JUMPDEST SWAP5 POP PUSH2 0x8A7 DUP8 DUP7 DUP7 PUSH2 0x1324 JUMP JUMPDEST DUP3 DUP3 DUP2 MLOAD DUP2 LT PUSH2 0x8B9 JUMPI PUSH2 0x8B9 PUSH2 0x1E0E JUMP JUMPDEST PUSH1 0x20 SWAP1 DUP2 MUL SWAP2 SWAP1 SWAP2 ADD ADD MLOAD MSTORE PUSH2 0x8CF DUP5 DUP7 PUSH2 0x1F36 JUMP JUMPDEST SWAP5 POP PUSH2 0x8DB DUP8 DUP7 PUSH2 0x12C7 JUMP JUMPDEST PUSH1 0x1 PUSH1 0x1 PUSH1 0x40 SHL SUB AND SWAP4 POP PUSH2 0x8F1 PUSH1 0x8 DUP7 PUSH2 0x1F36 JUMP JUMPDEST SWAP5 POP PUSH2 0x8FE DUP8 DUP7 DUP7 PUSH2 0x1324 JUMP JUMPDEST DUP3 DUP3 DUP2 MLOAD DUP2 LT PUSH2 0x910 JUMPI PUSH2 0x910 PUSH2 0x1E0E JUMP JUMPDEST PUSH1 0x20 SWAP1 DUP2 MUL SWAP2 SWAP1 SWAP2 ADD DUP2 ADD MLOAD ADD MSTORE PUSH2 0x928 DUP5 DUP7 PUSH2 0x1F36 JUMP JUMPDEST SWAP5 POP PUSH2 0x934 DUP8 DUP7 PUSH2 0x12C7 JUMP JUMPDEST PUSH1 0x1 PUSH1 0x1 PUSH1 0x40 SHL SUB AND SWAP4 POP PUSH2 0x94A PUSH1 0x8 DUP7 PUSH2 0x1F36 JUMP JUMPDEST SWAP5 POP PUSH2 0x957 DUP8 DUP7 DUP7 PUSH2 0x1324 JUMP JUMPDEST DUP3 DUP3 DUP2 MLOAD DUP2 LT PUSH2 0x969 JUMPI PUSH2 0x969 PUSH2 0x1E0E JUMP JUMPDEST PUSH1 0x20 SWAP1 DUP2 MUL SWAP2 SWAP1 SWAP2 ADD ADD MLOAD PUSH1 0x40 ADD MSTORE PUSH2 0x982 DUP5 DUP7 PUSH2 0x1F36 JUMP JUMPDEST SWAP5 POP PUSH2 0x98E DUP8 DUP7 PUSH2 0x12C7 JUMP JUMPDEST PUSH1 0x1 PUSH1 0x1 PUSH1 0x40 SHL SUB AND SWAP4 POP PUSH2 0x9A4 PUSH1 0x8 DUP7 PUSH2 0x1F36 JUMP JUMPDEST SWAP5 POP PUSH2 0x9B1 DUP8 DUP7 DUP7 PUSH2 0x1324 JUMP JUMPDEST DUP3 DUP3 DUP2 MLOAD DUP2 LT PUSH2 0x9C3 JUMPI PUSH2 0x9C3 PUSH2 0x1E0E JUMP JUMPDEST PUSH1 0x20 SWAP1 DUP2 MUL SWAP2 SWAP1 SWAP2 ADD ADD MLOAD PUSH1 0x60 ADD MSTORE PUSH2 0x9DC DUP5 DUP7 PUSH2 0x1F36 JUMP JUMPDEST SWAP5 POP PUSH1 0x20 SWAP4 POP PUSH2 0x9EC DUP8 DUP7 PUSH2 0x1187 JUMP JUMPDEST DUP3 DUP3 DUP2 MLOAD DUP2 LT PUSH2 0x9FE JUMPI PUSH2 0x9FE PUSH2 0x1E0E JUMP JUMPDEST PUSH1 0x20 SWAP1 DUP2 MUL SWAP2 SWAP1 SWAP2 ADD ADD MLOAD PUSH1 0x80 ADD MSTORE PUSH2 0xA17 DUP5 DUP7 PUSH2 0x1F36 JUMP JUMPDEST SWAP5 POP PUSH2 0xA23 DUP8 DUP7 PUSH2 0x12C7 JUMP JUMPDEST PUSH1 0x1 PUSH1 0x1 PUSH1 0x40 SHL SUB AND SWAP4 POP PUSH2 0xA39 PUSH1 0x8 DUP7 PUSH2 0x1F36 JUMP JUMPDEST SWAP5 POP PUSH2 0xA46 DUP8 DUP7 DUP7 PUSH2 0x1324 JUMP JUMPDEST DUP3 DUP3 DUP2 MLOAD DUP2 LT PUSH2 0xA58 JUMPI PUSH2 0xA58 PUSH2 0x1E0E JUMP JUMPDEST PUSH1 0x20 SWAP1 DUP2 MUL SWAP2 SWAP1 SWAP2 ADD ADD MLOAD PUSH1 0xA0 ADD MSTORE PUSH2 0xA71 DUP5 DUP7 PUSH2 0x1F36 JUMP JUMPDEST SWAP5 POP DUP1 PUSH2 0xA7D DUP2 PUSH2 0x1F1D JUMP JUMPDEST SWAP2 POP POP PUSH2 0x872 JUMP JUMPDEST POP DUP6 MLOAD DUP5 EQ PUSH2 0xACA JUMPI PUSH1 0x40 MLOAD PUSH3 0x461BCD PUSH1 0xE5 SHL DUP2 MSTORE PUSH1 0x20 PUSH1 0x4 DUP3 ADD MSTORE PUSH1 0xC PUSH1 0x24 DUP3 ADD MSTORE PUSH12 0x2632B733BA341032B93937B9 PUSH1 0xA1 SHL PUSH1 0x44 DUP3 ADD MSTORE PUSH1 0x64 ADD JUMPDEST PUSH1 0x40 MLOAD DUP1 SWAP2 SUB SWAP1 REVERT JUMPDEST SWAP6 SWAP5 POP POP POP POP POP JUMP JUMPDEST PUSH2 0xADB PUSH2 0x1506 JUMP JUMPDEST PUSH2 0xAE3 PUSH2 0x1506 JUMP JUMPDEST PUSH1 0x0 DUP1 PUSH2 0xAF0 DUP6 DUP3 PUSH2 0x12C7 JUMP JUMPDEST PUSH1 0x1 PUSH1 0x1 PUSH1 0x40 SHL SUB AND SWAP1 POP PUSH2 0xB06 PUSH1 0x8 DUP4 PUSH2 0x1F36 JUMP JUMPDEST SWAP2 POP PUSH2 0xB13 DUP6 DUP4 DUP4 PUSH2 0x1324 JUMP JUMPDEST DUP4 MSTORE PUSH2 0xB1F DUP2 DUP4 PUSH2 0x1F36 JUMP JUMPDEST SWAP2 POP PUSH2 0xB2B DUP6 DUP4 PUSH2 0x12C7 JUMP JUMPDEST PUSH1 0x1 PUSH1 0x1 PUSH1 0x40 SHL SUB AND SWAP1 POP PUSH2 0xB41 PUSH1 0x8 DUP4 PUSH2 0x1F36 JUMP JUMPDEST SWAP2 POP PUSH2 0xB4E DUP6 DUP4 DUP4 PUSH2 0x1324 JUMP JUMPDEST PUSH1 0x20 DUP5 ADD MSTORE PUSH2 0xB5D DUP2 DUP4 PUSH2 0x1F36 JUMP JUMPDEST SWAP2 POP PUSH1 0x2 SWAP1 POP PUSH2 0xB6D DUP6 DUP4 PUSH2 0x1431 JUMP JUMPDEST PUSH2 0xFFFF AND PUSH1 0x40 DUP5 ADD MSTORE PUSH2 0xB80 DUP2 DUP4 PUSH2 0x1F36 JUMP JUMPDEST SWAP2 POP PUSH2 0xB8C DUP6 DUP4 PUSH2 0x12C7 JUMP JUMPDEST PUSH1 0x1 PUSH1 0x1 PUSH1 0x40 SHL SUB AND SWAP1 POP PUSH2 0xBA2 PUSH1 0x8 DUP4 PUSH2 0x1F36 JUMP JUMPDEST SWAP2 POP PUSH2 0xBAF DUP6 DUP4 DUP4 PUSH2 0x1324 JUMP JUMPDEST PUSH1 0x60 DUP5 ADD MSTORE PUSH2 0xBBE DUP2 DUP4 PUSH2 0x1F36 JUMP JUMPDEST SWAP2 POP PUSH1 0x2 SWAP1 POP PUSH2 0xBCE DUP6 DUP4 PUSH2 0x1431 JUMP JUMPDEST PUSH2 0xFFFF AND PUSH1 0x80 DUP5 ADD MSTORE PUSH2 0xBE1 DUP2 DUP4 PUSH2 0x1F36 JUMP JUMPDEST SWAP2 POP PUSH2 0xBED DUP6 DUP4 PUSH2 0x12C7 JUMP JUMPDEST PUSH1 0x1 PUSH1 0x1 PUSH1 0x40 SHL SUB AND SWAP1 POP PUSH2 0xC03 PUSH1 0x8 DUP4 PUSH2 0x1F36 JUMP JUMPDEST SWAP2 POP PUSH2 0xC10 DUP6 DUP4 DUP4 PUSH2 0x1324 JUMP JUMPDEST PUSH1 0xA0 DUP5 ADD MSTORE PUSH2 0xC1F DUP2 DUP4 PUSH2 0x1F36 JUMP JUMPDEST SWAP2 POP PUSH1 0x20 SWAP1 POP PUSH2 0xC2F DUP6 DUP4 PUSH2 0x1187 JUMP JUMPDEST PUSH1 0xC0 DUP5 ADD MSTORE PUSH2 0xC3E DUP2 DUP4 PUSH2 0x1F36 JUMP JUMPDEST SWAP2 POP DUP5 MLOAD DUP3 EQ PUSH2 0xC7F JUMPI PUSH1 0x40 MLOAD PUSH3 0x461BCD PUSH1 0xE5 SHL DUP2 MSTORE PUSH1 0x20 PUSH1 0x4 DUP3 ADD MSTORE PUSH1 0xC PUSH1 0x24 DUP3 ADD MSTORE PUSH12 0x2632B733BA341032B93937B9 PUSH1 0xA1 SHL PUSH1 0x44 DUP3 ADD MSTORE PUSH1 0x64 ADD PUSH2 0xAC1 JUMP JUMPDEST POP SWAP1 SWAP4 SWAP3 POP POP POP JUMP JUMPDEST PUSH1 0x40 DUP1 MLOAD PUSH1 0xE0 DUP2 ADD DUP3 MSTORE PUSH1 0x0 DUP1 DUP3 MSTORE PUSH1 0x20 DUP3 ADD DUP2 SWAP1 MSTORE SWAP2 DUP2 ADD DUP3 SWAP1 MSTORE PUSH1 0x60 DUP2 ADD DUP3 SWAP1 MSTORE PUSH1 0x80 DUP2 ADD DUP3 SWAP1 MSTORE PUSH1 0xA0 DUP2 ADD DUP3 SWAP1 MSTORE PUSH1 0xC0 DUP2 ADD SWAP2 SWAP1 SWAP2 MSTORE PUSH1 0x40 DUP1 MLOAD PUSH1 0xE0 DUP2 ADD SWAP1 SWAP2 MSTORE DUP3 MLOAD DUP2 SWAP1 PUSH2 0xCDB SWAP1 PUSH1 0x0 PUSH2 0x148E JUMP JUMPDEST DUP2 MSTORE PUSH1 0x20 ADD PUSH2 0xCED DUP5 PUSH1 0x20 ADD MLOAD PUSH2 0x14E3 JUMP JUMPDEST PUSH1 0x1 PUSH1 0x1 PUSH1 0xA0 SHL SUB AND DUP2 MSTORE PUSH1 0x20 ADD DUP4 PUSH1 0x40 ADD MLOAD PUSH2 0xFFFF AND DUP2 MSTORE PUSH1 0x20 ADD PUSH2 0xD21 PUSH1 0x0 DUP6 PUSH1 0x60 ADD MLOAD PUSH2 0x1262 SWAP1 SWAP2 SWAP1 PUSH4 0xFFFFFFFF AND JUMP JUMPDEST PUSH1 0x1 PUSH1 0x1 PUSH1 0xA0 SHL SUB AND DUP2 MSTORE PUSH1 0x20 ADD DUP4 PUSH1 0x80 ADD MLOAD PUSH2 0xFFFF AND DUP2 MSTORE PUSH1 0x20 ADD PUSH2 0xD4A DUP5 PUSH1 0xA0 ADD MLOAD PUSH2 0x14E3 JUMP JUMPDEST PUSH1 0x1 PUSH1 0x1 PUSH1 0xA0 SHL SUB AND DUP2 MSTORE PUSH1 0x20 ADD DUP4 PUSH1 0xC0 ADD MLOAD DUP2 MSTORE POP SWAP1 POP SWAP2 SWAP1 POP JUMP JUMPDEST DUP1 MLOAD DUP1 MLOAD PUSH1 0x20 DUP1 DUP5 ADD MLOAD DUP1 MLOAD PUSH1 0x40 DUP1 DUP8 ADD MLOAD SWAP1 MLOAD PUSH1 0x60 SWAP7 PUSH1 0x0 SWAP7 PUSH2 0xD92 SWAP7 SWAP1 SWAP6 SWAP2 SWAP5 SWAP4 SWAP2 SWAP3 ADD PUSH2 0x1F4E JUMP JUMPDEST PUSH1 0x40 DUP1 MLOAD PUSH1 0x1F NOT DUP2 DUP5 SUB ADD DUP2 MSTORE SWAP1 DUP3 SWAP1 MSTORE PUSH1 0x60 DUP6 ADD MLOAD DUP1 MLOAD PUSH1 0x80 DUP8 ADD MLOAD PUSH1 0xA0 DUP9 ADD MLOAD DUP1 MLOAD PUSH1 0xC0 DUP11 ADD MLOAD SWAP6 SWAP8 POP PUSH2 0xDEC SWAP7 PUSH2 0xDD5 SWAP7 SWAP5 SWAP6 SWAP5 SWAP2 SWAP3 SWAP2 SWAP1 PUSH1 0x20 ADD PUSH2 0x1FC2 JUMP JUMPDEST PUSH1 0x40 DUP1 MLOAD PUSH1 0x1F NOT DUP2 DUP5 SUB ADD DUP2 MSTORE SWAP2 SWAP1 MSTORE DUP3 SWAP1 PUSH2 0x11E5 JUMP JUMPDEST SWAP4 SWAP3 POP POP POP JUMP JUMPDEST PUSH2 0xDFB PUSH2 0x1506 JUMP JUMPDEST PUSH2 0xE03 PUSH2 0x1506 JUMP JUMPDEST DUP3 MLOAD PUSH1 0x40 DUP1 MLOAD PUSH1 0x20 DUP1 DUP3 ADD SWAP4 SWAP1 SWAP4 MSTORE DUP2 MLOAD DUP1 DUP3 SUB DUP5 ADD DUP2 MSTORE SWAP1 DUP3 ADD DUP3 MSTORE DUP4 MSTORE DUP2 DUP6 ADD MLOAD SWAP1 MLOAD PUSH2 0xE32 SWAP3 ADD PUSH2 0x203A JUMP JUMPDEST PUSH1 0x40 DUP1 MLOAD PUSH1 0x1F NOT DUP2 DUP5 SUB ADD DUP2 MSTORE SWAP2 DUP2 MSTORE PUSH1 0x20 DUP4 DUP2 ADD SWAP3 SWAP1 SWAP3 MSTORE DUP5 DUP2 ADD MLOAD PUSH2 0xFFFF AND DUP4 DUP3 ADD MSTORE PUSH1 0x60 DUP6 ADD MLOAD SWAP1 MLOAD PUSH2 0xE68 SWAP3 ADD PUSH2 0x203A JUMP JUMPDEST PUSH1 0x40 DUP1 MLOAD PUSH1 0x1F NOT DUP2 DUP5 SUB ADD DUP2 MSTORE SWAP2 DUP2 MSTORE PUSH1 0x60 DUP4 ADD SWAP2 SWAP1 SWAP2 MSTORE PUSH1 0x80 DUP1 DUP6 ADD MLOAD PUSH2 0xFFFF AND SWAP1 DUP4 ADD MSTORE PUSH1 0xA0 DUP5 ADD MLOAD SWAP1 MLOAD PUSH2 0xEA2 SWAP2 SWAP1 PUSH1 0x20 ADD PUSH2 0x203A JUMP JUMPDEST PUSH1 0x40 DUP1 MLOAD PUSH1 0x1F NOT DUP2 DUP5 SUB ADD DUP2 MSTORE SWAP2 SWAP1 MSTORE PUSH1 0xA0 DUP3 ADD MSTORE PUSH1 0xC0 SWAP3 DUP4 ADD MLOAD SWAP3 DUP2 ADD SWAP3 SWAP1 SWAP3 MSTORE POP SWAP1 JUMP JUMPDEST PUSH1 0x60 PUSH1 0x0 DUP3 MLOAD PUSH1 0x1 PUSH1 0x1 PUSH1 0x40 SHL SUB DUP2 GT ISZERO PUSH2 0xEE5 JUMPI PUSH2 0xEE5 PUSH2 0x154B JUMP JUMPDEST PUSH1 0x40 MLOAD SWAP1 DUP1 DUP3 MSTORE DUP1 PUSH1 0x20 MUL PUSH1 0x20 ADD DUP3 ADD PUSH1 0x40 MSTORE DUP1 ISZERO PUSH2 0xF4F JUMPI DUP2 PUSH1 0x20 ADD JUMPDEST PUSH2 0xF3C PUSH1 0x40 MLOAD DUP1 PUSH1 0xC0 ADD PUSH1 0x40 MSTORE DUP1 PUSH1 0x60 DUP2 MSTORE PUSH1 0x20 ADD PUSH1 0x60 DUP2 MSTORE PUSH1 0x20 ADD PUSH1 0x60 DUP2 MSTORE PUSH1 0x20 ADD PUSH1 0x60 DUP2 MSTORE PUSH1 0x20 ADD PUSH1 0x0 DUP2 MSTORE PUSH1 0x20 ADD PUSH1 0x60 DUP2 MSTORE POP SWAP1 JUMP JUMPDEST DUP2 MSTORE PUSH1 0x20 ADD SWAP1 PUSH1 0x1 SWAP1 SUB SWAP1 DUP2 PUSH2 0xF03 JUMPI SWAP1 POP JUMPDEST POP SWAP1 POP PUSH1 0x0 JUMPDEST DUP4 MLOAD DUP2 LT ISZERO PUSH2 0x4FD JUMPI DUP4 DUP2 DUP2 MLOAD DUP2 LT PUSH2 0xF70 JUMPI PUSH2 0xF70 PUSH2 0x1E0E JUMP JUMPDEST PUSH1 0x20 MUL PUSH1 0x20 ADD ADD MLOAD PUSH1 0x0 ADD MLOAD PUSH1 0x40 MLOAD PUSH1 0x20 ADD PUSH2 0xF8C SWAP2 SWAP1 PUSH2 0x203A JUMP JUMPDEST PUSH1 0x40 MLOAD PUSH1 0x20 DUP2 DUP4 SUB SUB DUP2 MSTORE SWAP1 PUSH1 0x40 MSTORE DUP3 DUP3 DUP2 MLOAD DUP2 LT PUSH2 0xFAD JUMPI PUSH2 0xFAD PUSH2 0x1E0E JUMP JUMPDEST PUSH1 0x20 MUL PUSH1 0x20 ADD ADD MLOAD PUSH1 0x0 ADD DUP2 SWAP1 MSTORE POP DUP4 DUP2 DUP2 MLOAD DUP2 LT PUSH2 0xFCE JUMPI PUSH2 0xFCE PUSH2 0x1E0E JUMP JUMPDEST PUSH1 0x20 MUL PUSH1 0x20 ADD ADD MLOAD PUSH1 0x20 ADD MLOAD PUSH1 0x40 MLOAD PUSH1 0x20 ADD PUSH2 0xFEA SWAP2 SWAP1 PUSH2 0x203A JUMP JUMPDEST PUSH1 0x40 MLOAD PUSH1 0x20 DUP2 DUP4 SUB SUB DUP2 MSTORE SWAP1 PUSH1 0x40 MSTORE DUP3 DUP3 DUP2 MLOAD DUP2 LT PUSH2 0x100B JUMPI PUSH2 0x100B PUSH2 0x1E0E JUMP JUMPDEST PUSH1 0x20 MUL PUSH1 0x20 ADD ADD MLOAD PUSH1 0x20 ADD DUP2 SWAP1 MSTORE POP DUP4 DUP2 DUP2 MLOAD DUP2 LT PUSH2 0x102C JUMPI PUSH2 0x102C PUSH2 0x1E0E JUMP JUMPDEST PUSH1 0x20 MUL PUSH1 0x20 ADD ADD MLOAD PUSH1 0x40 ADD MLOAD PUSH1 0x40 MLOAD PUSH1 0x20 ADD PUSH2 0x1048 SWAP2 SWAP1 PUSH2 0x203A JUMP JUMPDEST PUSH1 0x40 MLOAD PUSH1 0x20 DUP2 DUP4 SUB SUB DUP2 MSTORE SWAP1 PUSH1 0x40 MSTORE DUP3 DUP3 DUP2 MLOAD DUP2 LT PUSH2 0x1069 JUMPI PUSH2 0x1069 PUSH2 0x1E0E JUMP JUMPDEST PUSH1 0x20 MUL PUSH1 0x20 ADD ADD MLOAD PUSH1 0x40 ADD DUP2 SWAP1 MSTORE POP DUP4 DUP2 DUP2 MLOAD DUP2 LT PUSH2 0x108A JUMPI PUSH2 0x108A PUSH2 0x1E0E JUMP JUMPDEST PUSH1 0x20 MUL PUSH1 0x20 ADD ADD MLOAD PUSH1 0x60 ADD MLOAD PUSH1 0x40 MLOAD PUSH1 0x20 ADD PUSH2 0x10A6 SWAP2 SWAP1 PUSH2 0x203A JUMP JUMPDEST PUSH1 0x40 MLOAD PUSH1 0x20 DUP2 DUP4 SUB SUB DUP2 MSTORE SWAP1 PUSH1 0x40 MSTORE DUP3 DUP3 DUP2 MLOAD DUP2 LT PUSH2 0x10C7 JUMPI PUSH2 0x10C7 PUSH2 0x1E0E JUMP JUMPDEST PUSH1 0x20 MUL PUSH1 0x20 ADD ADD MLOAD PUSH1 0x60 ADD DUP2 SWAP1 MSTORE POP DUP4 DUP2 DUP2 MLOAD DUP2 LT PUSH2 0x10E8 JUMPI PUSH2 0x10E8 PUSH2 0x1E0E JUMP JUMPDEST PUSH1 0x20 MUL PUSH1 0x20 ADD ADD MLOAD PUSH1 0x80 ADD MLOAD DUP3 DUP3 DUP2 MLOAD DUP2 LT PUSH2 0x1106 JUMPI PUSH2 0x1106 PUSH2 0x1E0E JUMP JUMPDEST PUSH1 0x20 MUL PUSH1 0x20 ADD ADD MLOAD PUSH1 0x80 ADD DUP2 DUP2 MSTORE POP POP DUP4 DUP2 DUP2 MLOAD DUP2 LT PUSH2 0x1128 JUMPI PUSH2 0x1128 PUSH2 0x1E0E JUMP JUMPDEST PUSH1 0x20 MUL PUSH1 0x20 ADD ADD MLOAD PUSH1 0xA0 ADD MLOAD PUSH1 0x40 MLOAD PUSH1 0x20 ADD PUSH2 0x1144 SWAP2 SWAP1 PUSH2 0x2057 JUMP JUMPDEST PUSH1 0x40 MLOAD PUSH1 0x20 DUP2 DUP4 SUB SUB DUP2 MSTORE SWAP1 PUSH1 0x40 MSTORE DUP3 DUP3 DUP2 MLOAD DUP2 LT PUSH2 0x1165 JUMPI PUSH2 0x1165 PUSH2 0x1E0E JUMP JUMPDEST PUSH1 0x20 MUL PUSH1 0x20 ADD ADD MLOAD PUSH1 0xA0 ADD DUP2 SWAP1 MSTORE POP DUP1 DUP1 PUSH2 0x117F SWAP1 PUSH2 0x1F1D JUMP JUMPDEST SWAP2 POP POP PUSH2 0xF55 JUMP JUMPDEST PUSH1 0x0 PUSH2 0x1194 DUP3 PUSH1 0x20 PUSH2 0x1F36 JUMP JUMPDEST DUP4 MLOAD LT ISZERO PUSH2 0x11DC JUMPI PUSH1 0x40 MLOAD PUSH3 0x461BCD PUSH1 0xE5 SHL DUP2 MSTORE PUSH1 0x20 PUSH1 0x4 DUP3 ADD MSTORE PUSH1 0x15 PUSH1 0x24 DUP3 ADD MSTORE PUSH21 0x746F55696E743235365F6F75744F66426F756E6473 PUSH1 0x58 SHL PUSH1 0x44 DUP3 ADD MSTORE PUSH1 0x64 ADD PUSH2 0xAC1 JUMP JUMPDEST POP ADD PUSH1 0x20 ADD MLOAD SWAP1 JUMP JUMPDEST PUSH1 0x60 DUP1 PUSH1 0x40 MLOAD SWAP1 POP DUP4 MLOAD DUP1 DUP3 MSTORE PUSH1 0x20 DUP3 ADD DUP2 DUP2 ADD PUSH1 0x20 DUP8 ADD JUMPDEST DUP2 DUP4 LT ISZERO PUSH2 0x1216 JUMPI DUP1 MLOAD DUP4 MSTORE PUSH1 0x20 SWAP3 DUP4 ADD SWAP3 ADD PUSH2 0x11FE JUMP JUMPDEST POP DUP6 MLOAD DUP5 MLOAD DUP2 ADD DUP6 MSTORE SWAP3 POP SWAP1 POP DUP1 DUP3 ADD PUSH1 0x20 DUP7 ADD JUMPDEST DUP2 DUP4 LT ISZERO PUSH2 0x1243 JUMPI DUP1 MLOAD DUP4 MSTORE PUSH1 0x20 SWAP3 DUP4 ADD SWAP3 ADD PUSH2 0x122B JUMP JUMPDEST POP DUP7 MLOAD SWAP3 SWAP1 SWAP3 ADD ISZERO SWAP2 SWAP1 SWAP2 ADD PUSH1 0x1F ADD PUSH1 0x1F NOT AND PUSH1 0x40 MSTORE POP SWAP1 POP SWAP3 SWAP2 POP POP JUMP JUMPDEST PUSH1 0x0 PUSH2 0x126F DUP3 PUSH1 0x14 PUSH2 0x1F36 JUMP JUMPDEST DUP4 MLOAD LT ISZERO PUSH2 0x12B7 JUMPI PUSH1 0x40 MLOAD PUSH3 0x461BCD PUSH1 0xE5 SHL DUP2 MSTORE PUSH1 0x20 PUSH1 0x4 DUP3 ADD MSTORE PUSH1 0x15 PUSH1 0x24 DUP3 ADD MSTORE PUSH21 0x746F416464726573735F6F75744F66426F756E6473 PUSH1 0x58 SHL PUSH1 0x44 DUP3 ADD MSTORE PUSH1 0x64 ADD PUSH2 0xAC1 JUMP JUMPDEST POP ADD PUSH1 0x20 ADD MLOAD PUSH1 0x1 PUSH1 0x60 SHL SWAP1 DIV SWAP1 JUMP JUMPDEST PUSH1 0x0 PUSH2 0x12D4 DUP3 PUSH1 0x8 PUSH2 0x1F36 JUMP JUMPDEST DUP4 MLOAD LT ISZERO PUSH2 0x131B JUMPI PUSH1 0x40 MLOAD PUSH3 0x461BCD PUSH1 0xE5 SHL DUP2 MSTORE PUSH1 0x20 PUSH1 0x4 DUP3 ADD MSTORE PUSH1 0x14 PUSH1 0x24 DUP3 ADD MSTORE PUSH20 0x746F55696E7436345F6F75744F66426F756E6473 PUSH1 0x60 SHL PUSH1 0x44 DUP3 ADD MSTORE PUSH1 0x64 ADD PUSH2 0xAC1 JUMP JUMPDEST POP ADD PUSH1 0x8 ADD MLOAD SWAP1 JUMP JUMPDEST PUSH1 0x60 DUP2 PUSH2 0x1332 DUP2 PUSH1 0x1F PUSH2 0x1F36 JUMP JUMPDEST LT ISZERO PUSH2 0x1371 JUMPI PUSH1 0x40 MLOAD PUSH3 0x461BCD PUSH1 0xE5 SHL DUP2 MSTORE PUSH1 0x20 PUSH1 0x4 DUP3 ADD MSTORE PUSH1 0xE PUSH1 0x24 DUP3 ADD MSTORE PUSH14 0x736C6963655F6F766572666C6F77 PUSH1 0x90 SHL PUSH1 0x44 DUP3 ADD MSTORE PUSH1 0x64 ADD PUSH2 0xAC1 JUMP JUMPDEST PUSH2 0x137B DUP3 DUP5 PUSH2 0x1F36 JUMP JUMPDEST DUP5 MLOAD LT ISZERO PUSH2 0x13BF JUMPI PUSH1 0x40 MLOAD PUSH3 0x461BCD PUSH1 0xE5 SHL DUP2 MSTORE PUSH1 0x20 PUSH1 0x4 DUP3 ADD MSTORE PUSH1 0x11 PUSH1 0x24 DUP3 ADD MSTORE PUSH17 0x736C6963655F6F75744F66426F756E6473 PUSH1 0x78 SHL PUSH1 0x44 DUP3 ADD MSTORE PUSH1 0x64 ADD PUSH2 0xAC1 JUMP JUMPDEST PUSH1 0x60 DUP3 ISZERO DUP1 ISZERO PUSH2 0x13DE JUMPI PUSH1 0x40 MLOAD SWAP2 POP PUSH1 0x0 DUP3 MSTORE PUSH1 0x20 DUP3 ADD PUSH1 0x40 MSTORE PUSH2 0x1428 JUMP JUMPDEST PUSH1 0x40 MLOAD SWAP2 POP PUSH1 0x1F DUP5 AND DUP1 ISZERO PUSH1 0x20 MUL DUP2 DUP5 ADD ADD DUP6 DUP2 ADD DUP8 DUP4 ISZERO PUSH1 0x20 MUL DUP5 DUP12 ADD ADD ADD JUMPDEST DUP2 DUP4 LT ISZERO PUSH2 0x1417 JUMPI DUP1 MLOAD DUP4 MSTORE PUSH1 0x20 SWAP3 DUP4 ADD SWAP3 ADD PUSH2 0x13FF JUMP JUMPDEST POP POP DUP6 DUP5 MSTORE PUSH1 0x1F ADD PUSH1 0x1F NOT AND PUSH1 0x40 MSTORE POP JUMPDEST POP SWAP5 SWAP4 POP POP POP POP JUMP JUMPDEST PUSH1 0x0 PUSH2 0x143E DUP3 PUSH1 0x2 PUSH2 0x1F36 JUMP JUMPDEST DUP4 MLOAD LT ISZERO PUSH2 0x1485 JUMPI PUSH1 0x40 MLOAD PUSH3 0x461BCD PUSH1 0xE5 SHL DUP2 MSTORE PUSH1 0x20 PUSH1 0x4 DUP3 ADD MSTORE PUSH1 0x14 PUSH1 0x24 DUP3 ADD MSTORE PUSH20 0x746F55696E7431365F6F75744F66426F756E6473 PUSH1 0x60 SHL PUSH1 0x44 DUP3 ADD MSTORE PUSH1 0x64 ADD PUSH2 0xAC1 JUMP JUMPDEST POP ADD PUSH1 0x2 ADD MLOAD SWAP1 JUMP JUMPDEST PUSH1 0x0 PUSH2 0x149B DUP3 PUSH1 0x20 PUSH2 0x1F36 JUMP JUMPDEST DUP4 MLOAD LT ISZERO PUSH2 0x11DC JUMPI PUSH1 0x40 MLOAD PUSH3 0x461BCD PUSH1 0xE5 SHL DUP2 MSTORE PUSH1 0x20 PUSH1 0x4 DUP3 ADD MSTORE PUSH1 0x15 PUSH1 0x24 DUP3 ADD MSTORE PUSH21 0x746F427974657333325F6F75744F66426F756E6473 PUSH1 0x58 SHL PUSH1 0x44 DUP3 ADD MSTORE PUSH1 0x64 ADD PUSH2 0xAC1 JUMP JUMPDEST PUSH1 0x0 DUP2 MLOAD PUSH1 0x14 SUB PUSH2 0x14F9 JUMPI PUSH2 0x228 DUP3 PUSH1 0x0 PUSH2 0x1262 JUMP JUMPDEST POP PUSH1 0x0 SWAP2 SWAP1 POP JUMP JUMPDEST SWAP2 SWAP1 POP JUMP JUMPDEST PUSH1 0x40 MLOAD DUP1 PUSH1 0xE0 ADD PUSH1 0x40 MSTORE DUP1 PUSH1 0x60 DUP2 MSTORE PUSH1 0x20 ADD PUSH1 0x60 DUP2 MSTORE PUSH1 0x20 ADD PUSH1 0x0 PUSH2 0xFFFF AND DUP2 MSTORE PUSH1 0x20 ADD PUSH1 0x60 DUP2 MSTORE PUSH1 0x20 ADD PUSH1 0x0 PUSH2 0xFFFF AND DUP2 MSTORE PUSH1 0x20 ADD PUSH1 0x60 DUP2 MSTORE PUSH1 0x20 ADD PUSH1 0x0 DUP2 MSTORE POP SWAP1 JUMP JUMPDEST PUSH4 0x4E487B71 PUSH1 0xE0 SHL PUSH1 0x0 MSTORE PUSH1 0x41 PUSH1 0x4 MSTORE PUSH1 0x24 PUSH1 0x0 REVERT JUMPDEST PUSH1 0x40 MLOAD PUSH1 0xC0 DUP2 ADD PUSH1 0x1 PUSH1 0x1 PUSH1 0x40 SHL SUB DUP2 GT DUP3 DUP3 LT OR ISZERO PUSH2 0x1583 JUMPI PUSH2 0x1583 PUSH2 0x154B JUMP JUMPDEST PUSH1 0x40 MSTORE SWAP1 JUMP JUMPDEST PUSH1 0x40 MLOAD PUSH1 0xE0 DUP2 ADD PUSH1 0x1 PUSH1 0x1 PUSH1 0x40 SHL SUB DUP2 GT DUP3 DUP3 LT OR ISZERO PUSH2 0x1583 JUMPI PUSH2 0x1583 PUSH2 0x154B JUMP JUMPDEST PUSH1 0x40 MLOAD PUSH1 0x1F DUP3 ADD PUSH1 0x1F NOT AND DUP2 ADD PUSH1 0x1 PUSH1 0x1 PUSH1 0x40 SHL SUB DUP2 GT DUP3 DUP3 LT OR ISZERO PUSH2 0x15D3 JUMPI PUSH2 0x15D3 PUSH2 0x154B JUMP JUMPDEST PUSH1 0x40 MSTORE SWAP2 SWAP1 POP JUMP JUMPDEST PUSH1 0x0 PUSH1 0x1 PUSH1 0x1 PUSH1 0x40 SHL SUB DUP3 GT ISZERO PUSH2 0x15F4 JUMPI PUSH2 0x15F4 PUSH2 0x154B JUMP JUMPDEST POP PUSH1 0x5 SHL PUSH1 0x20 ADD SWAP1 JUMP JUMPDEST PUSH1 0x0 DUP3 PUSH1 0x1F DUP4 ADD SLT PUSH2 0x160F JUMPI PUSH1 0x0 DUP1 REVERT JUMPDEST DUP2 CALLDATALOAD PUSH1 0x1 PUSH1 0x1 PUSH1 0x40 SHL SUB DUP2 GT ISZERO PUSH2 0x1628 JUMPI PUSH2 0x1628 PUSH2 0x154B JUMP JUMPDEST PUSH2 0x163B PUSH1 0x1F DUP3 ADD PUSH1 0x1F NOT AND PUSH1 0x20 ADD PUSH2 0x15AB JUMP JUMPDEST DUP2 DUP2 MSTORE DUP5 PUSH1 0x20 DUP4 DUP7 ADD ADD GT ISZERO PUSH2 0x1650 JUMPI PUSH1 0x0 DUP1 REVERT JUMPDEST DUP2 PUSH1 0x20 DUP6 ADD PUSH1 0x20 DUP4 ADD CALLDATACOPY PUSH1 0x0 SWAP2 DUP2 ADD PUSH1 0x20 ADD SWAP2 SWAP1 SWAP2 MSTORE SWAP4 SWAP3 POP POP POP JUMP JUMPDEST PUSH1 0x0 PUSH1 0x20 DUP1 DUP4 DUP6 SUB SLT ISZERO PUSH2 0x1680 JUMPI PUSH1 0x0 DUP1 REVERT JUMPDEST DUP3 CALLDATALOAD PUSH1 0x1 PUSH1 0x1 PUSH1 0x40 SHL SUB DUP1 DUP3 GT ISZERO PUSH2 0x1697 JUMPI PUSH1 0x0 DUP1 REVERT JUMPDEST DUP2 DUP6 ADD SWAP2 POP DUP6 PUSH1 0x1F DUP4 ADD SLT PUSH2 0x16AB JUMPI PUSH1 0x0 DUP1 REVERT JUMPDEST DUP2 CALLDATALOAD PUSH2 0x16BE PUSH2 0x16B9 DUP3 PUSH2 0x15DB JUMP JUMPDEST PUSH2 0x15AB JUMP JUMPDEST DUP2 DUP2 MSTORE PUSH1 0x5 SWAP2 SWAP1 SWAP2 SHL DUP4 ADD DUP5 ADD SWAP1 DUP5 DUP2 ADD SWAP1 DUP9 DUP4 GT ISZERO PUSH2 0x16DD JUMPI PUSH1 0x0 DUP1 REVERT JUMPDEST DUP6 DUP6 ADD JUMPDEST DUP4 DUP2 LT ISZERO PUSH2 0x17F2 JUMPI DUP1 CALLDATALOAD DUP6 DUP2 GT ISZERO PUSH2 0x16F8 JUMPI PUSH1 0x0 DUP1 REVERT JUMPDEST DUP7 ADD PUSH1 0xC0 DUP2 DUP13 SUB PUSH1 0x1F NOT ADD SLT ISZERO PUSH2 0x170F JUMPI PUSH1 0x0 DUP1 DUP2 REVERT JUMPDEST PUSH2 0x1717 PUSH2 0x1561 JUMP JUMPDEST DUP9 DUP3 ADD CALLDATALOAD DUP8 DUP2 GT ISZERO PUSH2 0x1729 JUMPI PUSH1 0x0 DUP1 DUP2 REVERT JUMPDEST PUSH2 0x1737 DUP14 DUP12 DUP4 DUP7 ADD ADD PUSH2 0x15FE JUMP JUMPDEST DUP3 MSTORE POP PUSH1 0x40 DUP1 DUP4 ADD CALLDATALOAD DUP9 DUP2 GT ISZERO PUSH2 0x174E JUMPI PUSH1 0x0 DUP1 DUP2 REVERT JUMPDEST PUSH2 0x175C DUP15 DUP13 DUP4 DUP8 ADD ADD PUSH2 0x15FE JUMP JUMPDEST DUP12 DUP5 ADD MSTORE POP PUSH1 0x60 DUP1 DUP5 ADD CALLDATALOAD DUP10 DUP2 GT ISZERO PUSH2 0x1775 JUMPI PUSH1 0x0 DUP1 DUP2 REVERT JUMPDEST PUSH2 0x1783 DUP16 DUP14 DUP4 DUP9 ADD ADD PUSH2 0x15FE JUMP JUMPDEST DUP4 DUP6 ADD MSTORE POP PUSH1 0x80 SWAP2 POP DUP2 DUP5 ADD CALLDATALOAD DUP10 DUP2 GT ISZERO PUSH2 0x179E JUMPI PUSH1 0x0 DUP1 DUP2 REVERT JUMPDEST PUSH2 0x17AC DUP16 DUP14 DUP4 DUP9 ADD ADD PUSH2 0x15FE JUMP JUMPDEST DUP3 DUP6 ADD MSTORE POP POP PUSH1 0xA0 DUP1 DUP5 ADD CALLDATALOAD DUP3 DUP5 ADD MSTORE PUSH1 0xC0 DUP5 ADD CALLDATALOAD SWAP2 POP DUP9 DUP3 GT ISZERO PUSH2 0x17D1 JUMPI PUSH1 0x0 DUP1 DUP2 REVERT JUMPDEST PUSH2 0x17DF DUP15 DUP13 DUP5 DUP8 ADD ADD PUSH2 0x15FE JUMP JUMPDEST SWAP1 DUP4 ADD MSTORE POP DUP5 MSTORE POP SWAP2 DUP7 ADD SWAP2 DUP7 ADD PUSH2 0x16E1 JUMP JUMPDEST POP SWAP9 SWAP8 POP POP POP POP POP POP POP POP JUMP JUMPDEST PUSH1 0x0 JUMPDEST DUP4 DUP2 LT ISZERO PUSH2 0x181A JUMPI DUP2 DUP2 ADD MLOAD DUP4 DUP3 ADD MSTORE PUSH1 0x20 ADD PUSH2 0x1802 JUMP JUMPDEST DUP4 DUP2 GT ISZERO PUSH2 0x1829 JUMPI PUSH1 0x0 DUP5 DUP5 ADD MSTORE JUMPDEST POP POP POP POP JUMP JUMPDEST PUSH1 0x0 DUP2 MLOAD DUP1 DUP5 MSTORE PUSH2 0x1847 DUP2 PUSH1 0x20 DUP7 ADD PUSH1 0x20 DUP7 ADD PUSH2 0x17FF JUMP JUMPDEST PUSH1 0x1F ADD PUSH1 0x1F NOT AND SWAP3 SWAP1 SWAP3 ADD PUSH1 0x20 ADD SWAP3 SWAP2 POP POP JUMP JUMPDEST PUSH1 0x20 DUP2 MSTORE PUSH1 0x0 PUSH2 0xDEC PUSH1 0x20 DUP4 ADD DUP5 PUSH2 0x182F JUMP JUMPDEST PUSH1 0x0 PUSH1 0x20 DUP1 DUP4 ADD DUP2 DUP5 MSTORE DUP1 DUP6 MLOAD DUP1 DUP4 MSTORE PUSH1 0x40 SWAP3 POP DUP3 DUP7 ADD SWAP2 POP DUP3 DUP2 PUSH1 0x5 SHL DUP8 ADD ADD DUP5 DUP9 ADD PUSH1 0x0 JUMPDEST DUP4 DUP2 LT ISZERO PUSH2 0x1911 JUMPI DUP9 DUP4 SUB PUSH1 0x3F NOT ADD DUP6 MSTORE DUP2 MLOAD DUP1 MLOAD PUSH1 0x1 PUSH1 0x1 PUSH1 0xA0 SHL SUB SWAP1 DUP2 AND DUP6 MSTORE DUP9 DUP3 ADD MLOAD DUP2 AND DUP10 DUP7 ADD MSTORE DUP8 DUP3 ADD MLOAD DUP2 AND DUP9 DUP7 ADD MSTORE PUSH1 0x60 DUP1 DUP4 ADD MLOAD SWAP1 SWAP2 AND SWAP1 DUP6 ADD MSTORE PUSH1 0x80 DUP1 DUP3 ADD MLOAD SWAP1 DUP6 ADD MSTORE PUSH1 0xA0 SWAP1 DUP2 ADD MLOAD PUSH1 0xC0 SWAP2 DUP6 ADD DUP3 SWAP1 MSTORE SWAP1 PUSH2 0x18FD DUP2 DUP7 ADD DUP4 PUSH2 0x182F JUMP JUMPDEST SWAP7 DUP10 ADD SWAP7 SWAP5 POP POP POP SWAP1 DUP7 ADD SWAP1 PUSH1 0x1 ADD PUSH2 0x1895 JUMP JUMPDEST POP SWAP1 SWAP9 SWAP8 POP POP POP POP POP POP POP POP JUMP JUMPDEST PUSH1 0x0 PUSH1 0x20 DUP3 DUP5 SUB SLT ISZERO PUSH2 0x1931 JUMPI PUSH1 0x0 DUP1 REVERT JUMPDEST DUP2 CALLDATALOAD PUSH1 0x1 PUSH1 0x1 PUSH1 0x40 SHL SUB DUP2 GT ISZERO PUSH2 0x1947 JUMPI PUSH1 0x0 DUP1 REVERT JUMPDEST PUSH2 0x1953 DUP5 DUP3 DUP6 ADD PUSH2 0x15FE JUMP JUMPDEST SWAP5 SWAP4 POP POP POP POP JUMP JUMPDEST PUSH1 0x0 PUSH1 0x20 DUP1 DUP4 ADD DUP2 DUP5 MSTORE DUP1 DUP6 MLOAD DUP1 DUP4 MSTORE PUSH1 0x40 SWAP3 POP DUP3 DUP7 ADD SWAP2 POP DUP3 DUP2 PUSH1 0x5 SHL DUP8 ADD ADD DUP5 DUP9 ADD PUSH1 0x0 JUMPDEST DUP4 DUP2 LT ISZERO PUSH2 0x1911 JUMPI PUSH1 0x3F NOT DUP10 DUP5 SUB ADD DUP6 MSTORE DUP2 MLOAD PUSH1 0xC0 DUP2 MLOAD DUP2 DUP7 MSTORE PUSH2 0x19A8 DUP3 DUP8 ADD DUP3 PUSH2 0x182F JUMP JUMPDEST SWAP2 POP POP DUP9 DUP3 ADD MLOAD DUP6 DUP3 SUB DUP11 DUP8 ADD MSTORE PUSH2 0x19C0 DUP3 DUP3 PUSH2 0x182F JUMP JUMPDEST SWAP2 POP POP DUP8 DUP3 ADD MLOAD DUP6 DUP3 SUB DUP10 DUP8 ADD MSTORE PUSH2 0x19D8 DUP3 DUP3 PUSH2 0x182F JUMP JUMPDEST SWAP2 POP POP PUSH1 0x60 DUP1 DUP4 ADD MLOAD DUP7 DUP4 SUB DUP3 DUP9 ADD MSTORE PUSH2 0x19F2 DUP4 DUP3 PUSH2 0x182F JUMP JUMPDEST SWAP3 POP POP POP PUSH1 0x80 DUP1 DUP4 ADD MLOAD DUP2 DUP8 ADD MSTORE POP PUSH1 0xA0 DUP1 DUP4 ADD MLOAD SWAP3 POP DUP6 DUP3 SUB DUP2 DUP8 ADD MSTORE POP PUSH2 0x1A1B DUP2 DUP4 PUSH2 0x182F JUMP JUMPDEST SWAP7 DUP10 ADD SWAP7 SWAP5 POP POP POP SWAP1 DUP7 ADD SWAP1 PUSH1 0x1 ADD PUSH2 0x1982 JUMP JUMPDEST PUSH1 0x20 DUP2 MSTORE PUSH1 0x0 DUP3 MLOAD PUSH1 0xE0 PUSH1 0x20 DUP5 ADD MSTORE PUSH2 0x1A4C PUSH2 0x100 DUP5 ADD DUP3 PUSH2 0x182F JUMP JUMPDEST SWAP1 POP PUSH1 0x20 DUP5 ADD MLOAD PUSH1 0x1F NOT DUP1 DUP6 DUP5 SUB ADD PUSH1 0x40 DUP7 ADD MSTORE PUSH2 0x1A6A DUP4 DUP4 PUSH2 0x182F JUMP JUMPDEST SWAP3 POP PUSH2 0xFFFF PUSH1 0x40 DUP8 ADD MLOAD AND PUSH1 0x60 DUP7 ADD MSTORE PUSH1 0x60 DUP7 ADD MLOAD SWAP2 POP DUP1 DUP6 DUP5 SUB ADD PUSH1 0x80 DUP7 ADD MSTORE PUSH2 0x1A95 DUP4 DUP4 PUSH2 0x182F JUMP JUMPDEST SWAP3 POP PUSH1 0x80 DUP7 ADD MLOAD SWAP2 POP PUSH2 0x1AAE PUSH1 0xA0 DUP7 ADD DUP4 PUSH2 0xFFFF AND SWAP1 MSTORE JUMP JUMPDEST PUSH1 0xA0 DUP7 ADD MLOAD SWAP2 POP DUP1 DUP6 DUP5 SUB ADD PUSH1 0xC0 DUP7 ADD MSTORE POP PUSH2 0x1ACA DUP3 DUP3 PUSH2 0x182F JUMP JUMPDEST SWAP2 POP POP PUSH1 0xC0 DUP5 ADD MLOAD PUSH1 0xE0 DUP5 ADD MSTORE DUP1 SWAP2 POP POP SWAP3 SWAP2 POP POP JUMP JUMPDEST DUP1 CALLDATALOAD PUSH2 0xFFFF DUP2 AND DUP2 EQ PUSH2 0x1501 JUMPI PUSH1 0x0 DUP1 REVERT JUMPDEST PUSH1 0x0 PUSH1 0x20 DUP3 DUP5 SUB SLT ISZERO PUSH2 0x1B05 JUMPI PUSH1 0x0 DUP1 REVERT JUMPDEST DUP2 CALLDATALOAD PUSH1 0x1 PUSH1 0x1 PUSH1 0x40 SHL SUB DUP1 DUP3 GT ISZERO PUSH2 0x1B1C JUMPI PUSH1 0x0 DUP1 REVERT JUMPDEST SWAP1 DUP4 ADD SWAP1 PUSH1 0xE0 DUP3 DUP7 SUB SLT ISZERO PUSH2 0x1B30 JUMPI PUSH1 0x0 DUP1 REVERT JUMPDEST PUSH2 0x1B38 PUSH2 0x1589 JUMP JUMPDEST DUP3 CALLDATALOAD DUP3 DUP2 GT ISZERO PUSH2 0x1B47 JUMPI PUSH1 0x0 DUP1 REVERT JUMPDEST PUSH2 0x1B53 DUP8 DUP3 DUP7 ADD PUSH2 0x15FE JUMP JUMPDEST DUP3 MSTORE POP PUSH1 0x20 DUP4 ADD CALLDATALOAD DUP3 DUP2 GT ISZERO PUSH2 0x1B68 JUMPI PUSH1 0x0 DUP1 REVERT JUMPDEST PUSH2 0x1B74 DUP8 DUP3 DUP7 ADD PUSH2 0x15FE JUMP JUMPDEST PUSH1 0x20 DUP4 ADD MSTORE POP PUSH2 0x1B86 PUSH1 0x40 DUP5 ADD PUSH2 0x1AE1 JUMP JUMPDEST PUSH1 0x40 DUP3 ADD MSTORE PUSH1 0x60 DUP4 ADD CALLDATALOAD DUP3 DUP2 GT ISZERO PUSH2 0x1B9D JUMPI PUSH1 0x0 DUP1 REVERT JUMPDEST PUSH2 0x1BA9 DUP8 DUP3 DUP7 ADD PUSH2 0x15FE JUMP JUMPDEST PUSH1 0x60 DUP4 ADD MSTORE POP PUSH2 0x1BBB PUSH1 0x80 DUP5 ADD PUSH2 0x1AE1 JUMP JUMPDEST PUSH1 0x80 DUP3 ADD MSTORE PUSH1 0xA0 DUP4 ADD CALLDATALOAD DUP3 DUP2 GT ISZERO PUSH2 0x1BD2 JUMPI PUSH1 0x0 DUP1 REVERT JUMPDEST PUSH2 0x1BDE DUP8 DUP3 DUP7 ADD PUSH2 0x15FE JUMP JUMPDEST PUSH1 0xA0 DUP4 ADD MSTORE POP PUSH1 0xC0 DUP4 ADD CALLDATALOAD PUSH1 0xC0 DUP3 ADD MSTORE DUP1 SWAP4 POP POP POP POP SWAP3 SWAP2 POP POP JUMP JUMPDEST PUSH1 0x1 PUSH1 0x1 PUSH1 0xA0 SHL SUB DUP2 AND DUP2 EQ PUSH2 0x1C0F JUMPI PUSH1 0x0 DUP1 REVERT JUMPDEST POP JUMP JUMPDEST DUP1 CALLDATALOAD PUSH2 0x1501 DUP2 PUSH2 0x1BFA JUMP JUMPDEST PUSH1 0x0 PUSH1 0xE0 DUP3 DUP5 SUB SLT ISZERO PUSH2 0x1C2F JUMPI PUSH1 0x0 DUP1 REVERT JUMPDEST PUSH1 0x40 MLOAD PUSH1 0xE0 DUP2 ADD DUP2 DUP2 LT PUSH1 0x1 PUSH1 0x1 PUSH1 0x40 SHL SUB DUP3 GT OR ISZERO PUSH2 0x1C51 JUMPI PUSH2 0x1C51 PUSH2 0x154B JUMP JUMPDEST PUSH1 0x40 MSTORE DUP3 CALLDATALOAD DUP2 MSTORE PUSH1 0x20 DUP4 ADD CALLDATALOAD PUSH2 0x1C66 DUP2 PUSH2 0x1BFA JUMP JUMPDEST PUSH1 0x20 DUP3 ADD MSTORE PUSH2 0x1C77 PUSH1 0x40 DUP5 ADD PUSH2 0x1AE1 JUMP JUMPDEST PUSH1 0x40 DUP3 ADD MSTORE PUSH2 0x1C88 PUSH1 0x60 DUP5 ADD PUSH2 0x1C12 JUMP JUMPDEST PUSH1 0x60 DUP3 ADD MSTORE PUSH2 0x1C99 PUSH1 0x80 DUP5 ADD PUSH2 0x1AE1 JUMP JUMPDEST PUSH1 0x80 DUP3 ADD MSTORE PUSH2 0x1CAA PUSH1 0xA0 DUP5 ADD PUSH2 0x1C12 JUMP JUMPDEST PUSH1 0xA0 DUP3 ADD MSTORE PUSH1 0xC0 DUP4 ADD CALLDATALOAD PUSH1 0xC0 DUP3 ADD MSTORE DUP1 SWAP2 POP POP SWAP3 SWAP2 POP POP JUMP JUMPDEST PUSH1 0x0 PUSH1 0x20 DUP3 DUP5 SUB SLT ISZERO PUSH2 0x1CD5 JUMPI PUSH1 0x0 DUP1 REVERT JUMPDEST POP CALLDATALOAD SWAP2 SWAP1 POP JUMP JUMPDEST PUSH1 0x0 PUSH1 0x20 DUP1 DUP4 DUP6 SUB SLT ISZERO PUSH2 0x1CEF JUMPI PUSH1 0x0 DUP1 REVERT JUMPDEST DUP3 CALLDATALOAD PUSH1 0x1 PUSH1 0x1 PUSH1 0x40 SHL SUB DUP1 DUP3 GT ISZERO PUSH2 0x1D06 JUMPI PUSH1 0x0 DUP1 REVERT JUMPDEST DUP2 DUP6 ADD SWAP2 POP DUP6 PUSH1 0x1F DUP4 ADD SLT PUSH2 0x1D1A JUMPI PUSH1 0x0 DUP1 REVERT JUMPDEST DUP2 CALLDATALOAD PUSH2 0x1D28 PUSH2 0x16B9 DUP3 PUSH2 0x15DB JUMP JUMPDEST DUP2 DUP2 MSTORE PUSH1 0x5 SWAP2 SWAP1 SWAP2 SHL DUP4 ADD DUP5 ADD SWAP1 DUP5 DUP2 ADD SWAP1 DUP9 DUP4 GT ISZERO PUSH2 0x1D47 JUMPI PUSH1 0x0 DUP1 REVERT JUMPDEST DUP6 DUP6 ADD JUMPDEST DUP4 DUP2 LT ISZERO PUSH2 0x17F2 JUMPI DUP1 CALLDATALOAD DUP6 DUP2 GT ISZERO PUSH2 0x1D63 JUMPI PUSH1 0x0 DUP1 DUP2 REVERT JUMPDEST DUP7 ADD PUSH1 0xC0 DUP2 DUP13 SUB PUSH1 0x1F NOT ADD DUP2 SGT ISZERO PUSH2 0x1D7B JUMPI PUSH1 0x0 DUP1 DUP2 REVERT JUMPDEST PUSH2 0x1D83 PUSH2 0x1561 JUMP JUMPDEST DUP10 DUP4 ADD CALLDATALOAD PUSH2 0x1D90 DUP2 PUSH2 0x1BFA JUMP JUMPDEST DUP2 MSTORE PUSH1 0x40 DUP4 DUP2 ADD CALLDATALOAD PUSH2 0x1DA1 DUP2 PUSH2 0x1BFA JUMP JUMPDEST DUP3 DUP13 ADD MSTORE PUSH1 0x60 DUP5 DUP2 ADD CALLDATALOAD PUSH2 0x1DB4 DUP2 PUSH2 0x1BFA JUMP JUMPDEST DUP1 DUP4 DUP6 ADD MSTORE POP PUSH1 0x80 SWAP2 POP PUSH2 0x1DC9 DUP3 DUP7 ADD PUSH2 0x1C12 JUMP JUMPDEST SWAP1 DUP4 ADD MSTORE PUSH1 0xA0 DUP5 DUP2 ADD CALLDATALOAD DUP3 DUP5 ADD MSTORE SWAP3 DUP5 ADD CALLDATALOAD SWAP3 DUP10 DUP5 GT ISZERO PUSH2 0x1DEC JUMPI PUSH1 0x0 SWAP2 POP DUP2 DUP3 REVERT JUMPDEST PUSH2 0x1DFA DUP16 DUP14 DUP7 DUP9 ADD ADD PUSH2 0x15FE JUMP JUMPDEST SWAP1 DUP4 ADD MSTORE POP DUP6 MSTORE POP POP SWAP2 DUP7 ADD SWAP2 DUP7 ADD PUSH2 0x1D4B JUMP JUMPDEST PUSH4 0x4E487B71 PUSH1 0xE0 SHL PUSH1 0x0 MSTORE PUSH1 0x32 PUSH1 0x4 MSTORE PUSH1 0x24 PUSH1 0x0 REVERT JUMPDEST PUSH1 0x0 PUSH1 0x1 PUSH1 0x1 PUSH1 0x40 SHL SUB PUSH1 0xC0 SHL DUP1 DUP10 PUSH1 0xC0 SHL AND DUP4 MSTORE DUP8 MLOAD PUSH2 0x1E4C DUP2 PUSH1 0x8 DUP7 ADD PUSH1 0x20 DUP13 ADD PUSH2 0x17FF JUMP JUMPDEST DUP1 DUP5 ADD SWAP1 POP DUP2 DUP9 PUSH1 0xC0 SHL AND PUSH1 0x8 DUP3 ADD MSTORE DUP7 MLOAD PUSH2 0x1E6F DUP2 PUSH1 0x10 DUP5 ADD PUSH1 0x20 DUP12 ADD PUSH2 0x17FF JUMP JUMPDEST DUP1 DUP3 ADD SWAP2 POP POP DUP2 DUP7 PUSH1 0xC0 SHL AND PUSH1 0x10 DUP3 ADD MSTORE DUP5 MLOAD SWAP2 POP PUSH2 0x1E95 DUP3 PUSH1 0x18 DUP4 ADD PUSH1 0x20 DUP9 ADD PUSH2 0x17FF JUMP JUMPDEST ADD PUSH1 0x18 ADD SWAP9 SWAP8 POP POP POP POP POP POP POP POP JUMP JUMPDEST PUSH1 0x0 PUSH1 0x1 PUSH1 0x1 PUSH1 0x40 SHL SUB PUSH1 0xC0 SHL DUP1 DUP9 PUSH1 0xC0 SHL AND DUP4 MSTORE DUP7 MLOAD PUSH2 0x1ECD DUP2 PUSH1 0x8 DUP7 ADD PUSH1 0x20 DUP12 ADD PUSH2 0x17FF JUMP JUMPDEST DUP1 DUP5 ADD SWAP1 POP DUP7 PUSH1 0x8 DUP3 ADD MSTORE DUP2 DUP7 PUSH1 0xC0 SHL AND PUSH1 0x28 DUP3 ADD MSTORE DUP5 MLOAD SWAP2 POP PUSH2 0x1EF8 DUP3 PUSH1 0x30 DUP4 ADD PUSH1 0x20 DUP9 ADD PUSH2 0x17FF JUMP JUMPDEST ADD PUSH1 0x30 ADD SWAP8 SWAP7 POP POP POP POP POP POP POP JUMP JUMPDEST PUSH4 0x4E487B71 PUSH1 0xE0 SHL PUSH1 0x0 MSTORE PUSH1 0x11 PUSH1 0x4 MSTORE PUSH1 0x24 PUSH1 0x0 REVERT JUMPDEST PUSH1 0x0 PUSH1 0x1 DUP3 ADD PUSH2 0x1F2F JUMPI PUSH2 0x1F2F PUSH2 0x1F07 JUMP JUMPDEST POP PUSH1 0x1 ADD SWAP1 JUMP JUMPDEST PUSH1 0x0 DUP3 NOT DUP3 GT ISZERO PUSH2 0x1F49 JUMPI PUSH2 0x1F49 PUSH2 0x1F07 JUMP JUMPDEST POP ADD SWAP1 JUMP JUMPDEST PUSH1 0x0 PUSH1 0x1 PUSH1 0x1 PUSH1 0x40 SHL SUB PUSH1 0xC0 SHL DUP1 DUP9 PUSH1 0xC0 SHL AND DUP4 MSTORE DUP7 MLOAD PUSH2 0x1F76 DUP2 PUSH1 0x8 DUP7 ADD PUSH1 0x20 DUP12 ADD PUSH2 0x17FF JUMP JUMPDEST DUP1 DUP5 ADD SWAP1 POP DUP2 DUP8 PUSH1 0xC0 SHL AND PUSH1 0x8 DUP3 ADD MSTORE DUP6 MLOAD SWAP2 POP PUSH2 0x1F9B DUP3 PUSH1 0x10 DUP4 ADD PUSH1 0x20 DUP10 ADD PUSH2 0x17FF JUMP JUMPDEST PUSH1 0xF0 SWAP5 SWAP1 SWAP5 SHL PUSH1 0x1 PUSH1 0x1 PUSH1 0xF0 SHL SUB NOT AND PUSH1 0x10 SWAP5 SWAP1 SWAP2 ADD SWAP4 DUP5 ADD MSTORE POP POP PUSH1 0x12 ADD SWAP5 SWAP4 POP POP POP POP JUMP JUMPDEST PUSH1 0x0 PUSH1 0x1 PUSH1 0x1 PUSH1 0x40 SHL SUB PUSH1 0xC0 SHL DUP1 DUP10 PUSH1 0xC0 SHL AND DUP4 MSTORE DUP8 MLOAD PUSH2 0x1FEA DUP2 PUSH1 0x8 DUP7 ADD PUSH1 0x20 DUP13 ADD PUSH2 0x17FF JUMP JUMPDEST PUSH1 0xF0 DUP9 SWAP1 SHL PUSH1 0x1 PUSH1 0x1 PUSH1 0xF0 SHL SUB NOT AND PUSH1 0x8 SWAP2 DUP6 ADD SWAP2 DUP3 ADD MSTORE PUSH1 0xC0 DUP8 SWAP1 SHL SWAP1 SWAP2 AND PUSH1 0xA DUP3 ADD MSTORE DUP5 MLOAD SWAP1 PUSH2 0x2023 DUP3 PUSH1 0x12 DUP4 ADD PUSH1 0x20 DUP10 ADD PUSH2 0x17FF JUMP JUMPDEST ADD PUSH1 0x12 DUP2 ADD SWAP4 SWAP1 SWAP4 MSTORE POP POP PUSH1 0x32 ADD SWAP6 SWAP5 POP POP POP POP POP JUMP JUMPDEST PUSH1 0x60 SWAP2 SWAP1 SWAP2 SHL PUSH12 0xFFFFFFFFFFFFFFFFFFFFFFFF NOT AND DUP2 MSTORE PUSH1 0x14 ADD SWAP1 JUMP JUMPDEST PUSH1 0x0 DUP3 MLOAD PUSH2 0x2069 DUP2 DUP5 PUSH1 0x20 DUP8 ADD PUSH2 0x17FF JUMP JUMPDEST SWAP2 SWAP1 SWAP2 ADD SWAP3 SWAP2 POP POP JUMP INVALID LOG2 PUSH5 0x6970667358 0x22 SLT KECCAK256 PUSH4 0x8E11E813 MSIZE EXTCODEHASH CALLDATACOPY DUP2 SWAP5 PUSH15 0xB37E0011FBC667726043B846B426F8 POP PUSH1 0x80 0xB1 PUSH18 0x2964736F6C634300080D0033000000000000 ",
  "sha1": "3bed3cc800ae9f2e6cc8c83d6c26f251202c384c",
  "source": "// SPDX-License-Identifier: MIT\npragma solidity 0.8.13;\n\nimport \"../Libraries/LibCross.sol\";\nimport \"../Libraries/LibBytes.sol\";\nimport \"../Interfaces/ISo.sol\";\nimport \"../Libraries/LibSwap.sol\";\n\n/// @title Serde Facet\n/// @notice Provides functionality for encode and decode cross data\ncontract SerdeFacet {\n    using LibBytes for bytes;\n\n    function encodeNormalizedSoData(ISo.NormalizedSoData memory data)\n        external\n        pure\n        returns (bytes memory)\n    {\n        return LibCross.encodeNormalizedSoData(data);\n    }\n\n    function decodeNormalizedSoData(bytes memory soData)\n        external\n        pure\n        returns (ISo.NormalizedSoData memory)\n    {\n        return LibCross.decodeNormalizedSoData(soData);\n    }\n\n    function encodeNormalizedSwapData(LibSwap.NormalizedSwapData[] memory data)\n        external\n        pure\n        returns (bytes memory)\n    {\n        return LibCross.encodeNormalizedSwapData(data);\n    }\n\n    function decodeNormalizedSwapData(bytes memory swapData)\n        external\n        pure\n        returns (LibSwap.NormalizedSwapData[] memory)\n    {\n        return LibCross.decodeNormalizedSwapData(swapData);\n    }\n\n    function normalizeSoData(ISo.SoData memory soData)\n        external\n        pure\n        returns (ISo.NormalizedSoData memory)\n    {\n        return LibCross.normalizeSoData(soData);\n    }\n\n    function denormalizeSoData(ISo.NormalizedSoData memory data)\n        external\n        pure\n        returns (ISo.SoData memory)\n    {\n        return LibCross.denormalizeSoData(data);\n    }\n\n    function normalizeSwapData(LibSwap.SwapData[] memory swapData)\n        external\n        pure\n        returns (LibSwap.NormalizedSwapData[] memory)\n    {\n        return LibCross.normalizeSwapData(swapData);\n    }\n\n    function denormalizeSwapData(LibSwap.NormalizedSwapData[] memory data)\n        external\n        pure\n        returns (LibSwap.SwapData[] memory)\n    {\n        return LibCross.denormalizeSwapData(data);\n    }\n\n    function normalizeU256(uint256 data) external\n        pure\n        returns (bytes memory){\n        return abi.encodePacked(data);\n    }\n\n    function denormalizeU256(bytes memory data) external\n        pure\n        returns (uint256){\n        return data.toUint256(0);\n    }\n}\n",
  "sourcePath": "contracts/Facets/SerdeFacet.sol",
  "type": "contract"
}