{
  "abi": [
    {
      "inputs": [],
      "name": "ContractCallNotAllowed",
      "type": "error"
    },
    {
      "inputs": [],
      "name": "InvalidAmount",
      "type": "error"
    },
    {
      "inputs": [],
      "name": "InvalidContract",
      "type": "error"
    },
    {
      "inputs": [],
      "name": "NativeAssetTransferFailed",
      "type": "error"
    },
    {
      "inputs": [],
      "name": "NoSwapDataProvided",
      "type": "error"
    },
    {
      "inputs": [],
      "name": "NoSwapFromZeroBalance",
      "type": "error"
    },
    {
      "inputs": [],
      "name": "NoTransferToNullAddress",
      "type": "error"
    },
    {
      "inputs": [],
      "name": "NotSupportedSwapRouter",
      "type": "error"
    },
    {
      "inputs": [],
      "name": "NullAddrIsNotAValidSpender",
      "type": "error"
    },
    {
      "inputs": [],
      "name": "NullAddrIsNotAnERC20Token",
      "type": "error"
    },
    {
      "anonymous": false,
      "inputs": [
        {
          "indexed": false,
          "internalType": "address",
          "name": "tokenBridge",
          "type": "address"
        },
        {
          "indexed": false,
          "internalType": "uint16",
          "name": "srcWormholeChainId",
          "type": "uint16"
        }
      ],
      "name": "InitWormholeEvent",
      "type": "event"
    },
    {
      "anonymous": false,
      "inputs": [
        {
          "indexed": true,
          "internalType": "bytes32",
          "name": "transactionId",
          "type": "bytes32"
        },
        {
          "indexed": false,
          "internalType": "address",
          "name": "receivingAssetId",
          "type": "address"
        },
        {
          "indexed": false,
          "internalType": "address",
          "name": "receiver",
          "type": "address"
        },
        {
          "indexed": false,
          "internalType": "uint256",
          "name": "receiveAmount",
          "type": "uint256"
        },
        {
          "indexed": false,
          "internalType": "uint256",
          "name": "timestamp",
          "type": "uint256"
        },
        {
          "components": [
            {
              "internalType": "bytes32",
              "name": "transactionId",
              "type": "bytes32"
            },
            {
              "internalType": "address payable",
              "name": "receiver",
              "type": "address"
            },
            {
              "internalType": "uint16",
              "name": "sourceChainId",
              "type": "uint16"
            },
            {
              "internalType": "address",
              "name": "sendingAssetId",
              "type": "address"
            },
            {
              "internalType": "uint16",
              "name": "destinationChainId",
              "type": "uint16"
            },
            {
              "internalType": "address",
              "name": "receivingAssetId",
              "type": "address"
            },
            {
              "internalType": "uint256",
              "name": "amount",
              "type": "uint256"
            }
          ],
          "indexed": false,
          "internalType": "struct ISo.SoData",
          "name": "soData",
          "type": "tuple"
        }
      ],
      "name": "SoTransferCompleted",
      "type": "event"
    },
    {
      "anonymous": false,
      "inputs": [
        {
          "indexed": true,
          "internalType": "bytes32",
          "name": "transactionId",
          "type": "bytes32"
        },
        {
          "indexed": false,
          "internalType": "string",
          "name": "revertReason",
          "type": "string"
        },
        {
          "indexed": false,
          "internalType": "bytes",
          "name": "otherReason",
          "type": "bytes"
        },
        {
          "components": [
            {
              "internalType": "bytes32",
              "name": "transactionId",
              "type": "bytes32"
            },
            {
              "internalType": "address payable",
              "name": "receiver",
              "type": "address"
            },
            {
              "internalType": "uint16",
              "name": "sourceChainId",
              "type": "uint16"
            },
            {
              "internalType": "address",
              "name": "sendingAssetId",
              "type": "address"
            },
            {
              "internalType": "uint16",
              "name": "destinationChainId",
              "type": "uint16"
            },
            {
              "internalType": "address",
              "name": "receivingAssetId",
              "type": "address"
            },
            {
              "internalType": "uint256",
              "name": "amount",
              "type": "uint256"
            }
          ],
          "indexed": false,
          "internalType": "struct ISo.SoData",
          "name": "soData",
          "type": "tuple"
        }
      ],
      "name": "SoTransferFailed",
      "type": "event"
    },
    {
      "anonymous": false,
      "inputs": [
        {
          "indexed": true,
          "internalType": "bytes32",
          "name": "transactionId",
          "type": "bytes32"
        },
        {
          "indexed": false,
          "internalType": "string",
          "name": "bridge",
          "type": "string"
        },
        {
          "indexed": false,
          "internalType": "bool",
          "name": "hasSourceSwap",
          "type": "bool"
        },
        {
          "indexed": false,
          "internalType": "bool",
          "name": "hasDestinationSwap",
          "type": "bool"
        },
        {
          "components": [
            {
              "internalType": "bytes32",
              "name": "transactionId",
              "type": "bytes32"
            },
            {
              "internalType": "address payable",
              "name": "receiver",
              "type": "address"
            },
            {
              "internalType": "uint16",
              "name": "sourceChainId",
              "type": "uint16"
            },
            {
              "internalType": "address",
              "name": "sendingAssetId",
              "type": "address"
            },
            {
              "internalType": "uint16",
              "name": "destinationChainId",
              "type": "uint16"
            },
            {
              "internalType": "address",
              "name": "receivingAssetId",
              "type": "address"
            },
            {
              "internalType": "uint256",
              "name": "amount",
              "type": "uint256"
            }
          ],
          "indexed": false,
          "internalType": "struct ISo.SoData",
          "name": "soData",
          "type": "tuple"
        }
      ],
      "name": "SoTransferStarted",
      "type": "event"
    },
    {
      "anonymous": false,
      "inputs": [
        {
          "indexed": false,
          "internalType": "uint16",
          "name": "srcWormholeChainId",
          "type": "uint16"
        },
        {
          "indexed": false,
          "internalType": "uint16",
          "name": "dstWormholeChainId",
          "type": "uint16"
        },
        {
          "indexed": false,
          "internalType": "uint64",
          "name": "sequence",
          "type": "uint64"
        }
      ],
      "name": "TransferFromWormhole",
      "type": "event"
    },
    {
      "anonymous": false,
      "inputs": [
        {
          "indexed": false,
          "internalType": "uint16",
          "name": "dstWormholeChainId",
          "type": "uint16"
        },
        {
          "indexed": false,
          "internalType": "uint256",
          "name": "baseGas",
          "type": "uint256"
        },
        {
          "indexed": false,
          "internalType": "uint256",
          "name": "gasPerBytes",
          "type": "uint256"
        }
      ],
      "name": "UpdateWormholeGas",
      "type": "event"
    },
    {
      "anonymous": false,
      "inputs": [
        {
          "indexed": false,
          "internalType": "uint256",
          "name": "actualReserve",
          "type": "uint256"
        },
        {
          "indexed": false,
          "internalType": "uint256",
          "name": "estimateReserve",
          "type": "uint256"
        }
      ],
      "name": "UpdateWormholeReserve",
      "type": "event"
    },
    {
      "inputs": [],
      "name": "RAY",
      "outputs": [
        {
          "internalType": "uint256",
          "name": "",
          "type": "uint256"
        }
      ],
      "stateMutability": "view",
      "type": "function"
    },
    {
      "inputs": [
        {
          "components": [
            {
              "internalType": "bytes",
              "name": "transactionId",
              "type": "bytes"
            },
            {
              "internalType": "bytes",
              "name": "receiver",
              "type": "bytes"
            },
            {
              "internalType": "uint16",
              "name": "sourceChainId",
              "type": "uint16"
            },
            {
              "internalType": "bytes",
              "name": "sendingAssetId",
              "type": "bytes"
            },
            {
              "internalType": "uint16",
              "name": "destinationChainId",
              "type": "uint16"
            },
            {
              "internalType": "bytes",
              "name": "receivingAssetId",
              "type": "bytes"
            },
            {
              "internalType": "uint256",
              "name": "amount",
              "type": "uint256"
            }
          ],
          "internalType": "struct ISo.NormalizedSoData",
          "name": "_soData",
          "type": "tuple"
        },
        {
          "components": [
            {
              "internalType": "uint16",
              "name": "dstWormholeChainId",
              "type": "uint16"
            },
            {
              "internalType": "uint256",
              "name": "dstMaxGasPriceInWeiForRelayer",
              "type": "uint256"
            },
            {
              "internalType": "uint256",
              "name": "wormholeFee",
              "type": "uint256"
            },
            {
              "internalType": "bytes",
              "name": "dstSoDiamond",
              "type": "bytes"
            }
          ],
          "internalType": "struct WormholeFacet.NormalizedWormholeData",
          "name": "_wormholeData",
          "type": "tuple"
        },
        {
          "components": [
            {
              "internalType": "bytes",
              "name": "callTo",
              "type": "bytes"
            },
            {
              "internalType": "bytes",
              "name": "approveTo",
              "type": "bytes"
            },
            {
              "internalType": "bytes",
              "name": "sendingAssetId",
              "type": "bytes"
            },
            {
              "internalType": "bytes",
              "name": "receivingAssetId",
              "type": "bytes"
            },
            {
              "internalType": "uint256",
              "name": "fromAmount",
              "type": "uint256"
            },
            {
              "internalType": "bytes",
              "name": "callData",
              "type": "bytes"
            }
          ],
          "internalType": "struct LibSwap.NormalizedSwapData[]",
          "name": "_swapDataDst",
          "type": "tuple[]"
        }
      ],
      "name": "checkRelayerFee",
      "outputs": [
        {
          "internalType": "bool",
          "name": "",
          "type": "bool"
        },
        {
          "internalType": "uint256",
          "name": "",
          "type": "uint256"
        },
        {
          "internalType": "uint256",
          "name": "",
          "type": "uint256"
        },
        {
          "internalType": "uint256",
          "name": "",
          "type": "uint256"
        }
      ],
      "stateMutability": "nonpayable",
      "type": "function"
    },
    {
      "inputs": [
        {
          "internalType": "bytes",
          "name": "_encodeVm",
          "type": "bytes"
        }
      ],
      "name": "completeSoSwap",
      "outputs": [],
      "stateMutability": "nonpayable",
      "type": "function"
    },
    {
      "inputs": [
        {
          "internalType": "bytes",
          "name": "_encodeVm",
          "type": "bytes"
        }
      ],
      "name": "completeTransferAndUnwrapETHWithPayload",
      "outputs": [],
      "stateMutability": "nonpayable",
      "type": "function"
    },
    {
      "inputs": [
        {
          "internalType": "bytes",
          "name": "_encodeVm",
          "type": "bytes"
        }
      ],
      "name": "completeTransferWithPayload",
      "outputs": [],
      "stateMutability": "nonpayable",
      "type": "function"
    },
    {
      "inputs": [
        {
          "internalType": "bytes",
          "name": "wormholeData",
          "type": "bytes"
        }
      ],
      "name": "decodeNormalizedWormholeData",
      "outputs": [
        {
          "components": [
            {
              "internalType": "uint16",
              "name": "dstWormholeChainId",
              "type": "uint16"
            },
            {
              "internalType": "uint256",
              "name": "dstMaxGasPriceInWeiForRelayer",
              "type": "uint256"
            },
            {
              "internalType": "uint256",
              "name": "wormholeFee",
              "type": "uint256"
            },
            {
              "internalType": "bytes",
              "name": "dstSoDiamond",
              "type": "bytes"
            }
          ],
          "internalType": "struct WormholeFacet.NormalizedWormholeData",
          "name": "",
          "type": "tuple"
        }
      ],
      "stateMutability": "pure",
      "type": "function"
    },
    {
      "inputs": [
        {
          "internalType": "bytes",
          "name": "wormholeData",
          "type": "bytes"
        }
      ],
      "name": "decodeWormholePayload",
      "outputs": [
        {
          "internalType": "uint256",
          "name": "",
          "type": "uint256"
        },
        {
          "internalType": "uint256",
          "name": "",
          "type": "uint256"
        },
        {
          "components": [
            {
              "internalType": "bytes",
              "name": "transactionId",
              "type": "bytes"
            },
            {
              "internalType": "bytes",
              "name": "receiver",
              "type": "bytes"
            },
            {
              "internalType": "uint16",
              "name": "sourceChainId",
              "type": "uint16"
            },
            {
              "internalType": "bytes",
              "name": "sendingAssetId",
              "type": "bytes"
            },
            {
              "internalType": "uint16",
              "name": "destinationChainId",
              "type": "uint16"
            },
            {
              "internalType": "bytes",
              "name": "receivingAssetId",
              "type": "bytes"
            },
            {
              "internalType": "uint256",
              "name": "amount",
              "type": "uint256"
            }
          ],
          "internalType": "struct ISo.NormalizedSoData",
          "name": "",
          "type": "tuple"
        },
        {
          "components": [
            {
              "internalType": "bytes",
              "name": "callTo",
              "type": "bytes"
            },
            {
              "internalType": "bytes",
              "name": "approveTo",
              "type": "bytes"
            },
            {
              "internalType": "bytes",
              "name": "sendingAssetId",
              "type": "bytes"
            },
            {
              "internalType": "bytes",
              "name": "receivingAssetId",
              "type": "bytes"
            },
            {
              "internalType": "uint256",
              "name": "fromAmount",
              "type": "uint256"
            },
            {
              "internalType": "bytes",
              "name": "callData",
              "type": "bytes"
            }
          ],
          "internalType": "struct LibSwap.NormalizedSwapData[]",
          "name": "",
          "type": "tuple[]"
        }
      ],
      "stateMutability": "pure",
      "type": "function"
    },
    {
      "inputs": [
        {
          "internalType": "address",
          "name": "_currentAssetId",
          "type": "address"
        },
        {
          "internalType": "address",
          "name": "_expectAssetId",
          "type": "address"
        },
        {
          "internalType": "uint256",
          "name": "_amount",
          "type": "uint256"
        }
      ],
      "name": "deposit",
      "outputs": [],
      "stateMutability": "payable",
      "type": "function"
    },
    {
      "inputs": [
        {
          "components": [
            {
              "internalType": "uint16",
              "name": "dstWormholeChainId",
              "type": "uint16"
            },
            {
              "internalType": "uint256",
              "name": "dstMaxGasPriceInWeiForRelayer",
              "type": "uint256"
            },
            {
              "internalType": "uint256",
              "name": "wormholeFee",
              "type": "uint256"
            },
            {
              "internalType": "bytes",
              "name": "dstSoDiamond",
              "type": "bytes"
            }
          ],
          "internalType": "struct WormholeFacet.NormalizedWormholeData",
          "name": "data",
          "type": "tuple"
        }
      ],
      "name": "encodeNormalizedWormholeData",
      "outputs": [
        {
          "internalType": "bytes",
          "name": "",
          "type": "bytes"
        }
      ],
      "stateMutability": "pure",
      "type": "function"
    },
    {
      "inputs": [
        {
          "internalType": "uint256",
          "name": "dstMaxGasPrice",
          "type": "uint256"
        },
        {
          "internalType": "uint256",
          "name": "dstMaxGas",
          "type": "uint256"
        },
        {
          "components": [
            {
              "internalType": "bytes",
              "name": "transactionId",
              "type": "bytes"
            },
            {
              "internalType": "bytes",
              "name": "receiver",
              "type": "bytes"
            },
            {
              "internalType": "uint16",
              "name": "sourceChainId",
              "type": "uint16"
            },
            {
              "internalType": "bytes",
              "name": "sendingAssetId",
              "type": "bytes"
            },
            {
              "internalType": "uint16",
              "name": "destinationChainId",
              "type": "uint16"
            },
            {
              "internalType": "bytes",
              "name": "receivingAssetId",
              "type": "bytes"
            },
            {
              "internalType": "uint256",
              "name": "amount",
              "type": "uint256"
            }
          ],
          "internalType": "struct ISo.NormalizedSoData",
          "name": "soData",
          "type": "tuple"
        },
        {
          "components": [
            {
              "internalType": "bytes",
              "name": "callTo",
              "type": "bytes"
            },
            {
              "internalType": "bytes",
              "name": "approveTo",
              "type": "bytes"
            },
            {
              "internalType": "bytes",
              "name": "sendingAssetId",
              "type": "bytes"
            },
            {
              "internalType": "bytes",
              "name": "receivingAssetId",
              "type": "bytes"
            },
            {
              "internalType": "uint256",
              "name": "fromAmount",
              "type": "uint256"
            },
            {
              "internalType": "bytes",
              "name": "callData",
              "type": "bytes"
            }
          ],
          "internalType": "struct LibSwap.NormalizedSwapData[]",
          "name": "swapDataDst",
          "type": "tuple[]"
        }
      ],
      "name": "encodeWormholePayload",
      "outputs": [
        {
          "internalType": "bytes",
          "name": "",
          "type": "bytes"
        }
      ],
      "stateMutability": "pure",
      "type": "function"
    },
    {
      "inputs": [
        {
          "components": [
            {
              "internalType": "bytes",
              "name": "transactionId",
              "type": "bytes"
            },
            {
              "internalType": "bytes",
              "name": "receiver",
              "type": "bytes"
            },
            {
              "internalType": "uint16",
              "name": "sourceChainId",
              "type": "uint16"
            },
            {
              "internalType": "bytes",
              "name": "sendingAssetId",
              "type": "bytes"
            },
            {
              "internalType": "uint16",
              "name": "destinationChainId",
              "type": "uint16"
            },
            {
              "internalType": "bytes",
              "name": "receivingAssetId",
              "type": "bytes"
            },
            {
              "internalType": "uint256",
              "name": "amount",
              "type": "uint256"
            }
          ],
          "internalType": "struct ISo.NormalizedSoData",
          "name": "_soData",
          "type": "tuple"
        },
        {
          "components": [
            {
              "internalType": "uint16",
              "name": "dstWormholeChainId",
              "type": "uint16"
            },
            {
              "internalType": "uint256",
              "name": "dstMaxGasPriceInWeiForRelayer",
              "type": "uint256"
            },
            {
              "internalType": "uint256",
              "name": "wormholeFee",
              "type": "uint256"
            },
            {
              "internalType": "bytes",
              "name": "dstSoDiamond",
              "type": "bytes"
            }
          ],
          "internalType": "struct WormholeFacet.NormalizedWormholeData",
          "name": "_wormholeData",
          "type": "tuple"
        },
        {
          "components": [
            {
              "internalType": "bytes",
              "name": "callTo",
              "type": "bytes"
            },
            {
              "internalType": "bytes",
              "name": "approveTo",
              "type": "bytes"
            },
            {
              "internalType": "bytes",
              "name": "sendingAssetId",
              "type": "bytes"
            },
            {
              "internalType": "bytes",
              "name": "receivingAssetId",
              "type": "bytes"
            },
            {
              "internalType": "uint256",
              "name": "fromAmount",
              "type": "uint256"
            },
            {
              "internalType": "bytes",
              "name": "callData",
              "type": "bytes"
            }
          ],
          "internalType": "struct LibSwap.NormalizedSwapData[]",
          "name": "_swapDataDst",
          "type": "tuple[]"
        }
      ],
      "name": "estimateCompleteSoSwapGas",
      "outputs": [
        {
          "internalType": "uint256",
          "name": "",
          "type": "uint256"
        }
      ],
      "stateMutability": "view",
      "type": "function"
    },
    {
      "inputs": [
        {
          "components": [
            {
              "internalType": "bytes",
              "name": "transactionId",
              "type": "bytes"
            },
            {
              "internalType": "bytes",
              "name": "receiver",
              "type": "bytes"
            },
            {
              "internalType": "uint16",
              "name": "sourceChainId",
              "type": "uint16"
            },
            {
              "internalType": "bytes",
              "name": "sendingAssetId",
              "type": "bytes"
            },
            {
              "internalType": "uint16",
              "name": "destinationChainId",
              "type": "uint16"
            },
            {
              "internalType": "bytes",
              "name": "receivingAssetId",
              "type": "bytes"
            },
            {
              "internalType": "uint256",
              "name": "amount",
              "type": "uint256"
            }
          ],
          "internalType": "struct ISo.NormalizedSoData",
          "name": "_soData",
          "type": "tuple"
        },
        {
          "components": [
            {
              "internalType": "uint16",
              "name": "dstWormholeChainId",
              "type": "uint16"
            },
            {
              "internalType": "uint256",
              "name": "dstMaxGasPriceInWeiForRelayer",
              "type": "uint256"
            },
            {
              "internalType": "uint256",
              "name": "wormholeFee",
              "type": "uint256"
            },
            {
              "internalType": "bytes",
              "name": "dstSoDiamond",
              "type": "bytes"
            }
          ],
          "internalType": "struct WormholeFacet.NormalizedWormholeData",
          "name": "_wormholeData",
          "type": "tuple"
        },
        {
          "components": [
            {
              "internalType": "bytes",
              "name": "callTo",
              "type": "bytes"
            },
            {
              "internalType": "bytes",
              "name": "approveTo",
              "type": "bytes"
            },
            {
              "internalType": "bytes",
              "name": "sendingAssetId",
              "type": "bytes"
            },
            {
              "internalType": "bytes",
              "name": "receivingAssetId",
              "type": "bytes"
            },
            {
              "internalType": "uint256",
              "name": "fromAmount",
              "type": "uint256"
            },
            {
              "internalType": "bytes",
              "name": "callData",
              "type": "bytes"
            }
          ],
          "internalType": "struct LibSwap.NormalizedSwapData[]",
          "name": "_swapDataDst",
          "type": "tuple[]"
        }
      ],
      "name": "estimateRelayerFee",
      "outputs": [
        {
          "internalType": "uint256",
          "name": "",
          "type": "uint256"
        }
      ],
      "stateMutability": "view",
      "type": "function"
    },
    {
      "inputs": [
        {
          "components": [
            {
              "internalType": "bytes32",
              "name": "transactionId",
              "type": "bytes32"
            },
            {
              "internalType": "address payable",
              "name": "receiver",
              "type": "address"
            },
            {
              "internalType": "uint16",
              "name": "sourceChainId",
              "type": "uint16"
            },
            {
              "internalType": "address",
              "name": "sendingAssetId",
              "type": "address"
            },
            {
              "internalType": "uint16",
              "name": "destinationChainId",
              "type": "uint16"
            },
            {
              "internalType": "address",
              "name": "receivingAssetId",
              "type": "address"
            },
            {
              "internalType": "uint256",
              "name": "amount",
              "type": "uint256"
            }
          ],
          "internalType": "struct ISo.SoData",
          "name": "_soData",
          "type": "tuple"
        },
        {
          "components": [
            {
              "internalType": "address",
              "name": "callTo",
              "type": "address"
            },
            {
              "internalType": "address",
              "name": "approveTo",
              "type": "address"
            },
            {
              "internalType": "address",
              "name": "sendingAssetId",
              "type": "address"
            },
            {
              "internalType": "address",
              "name": "receivingAssetId",
              "type": "address"
            },
            {
              "internalType": "uint256",
              "name": "fromAmount",
              "type": "uint256"
            },
            {
              "internalType": "bytes",
              "name": "callData",
              "type": "bytes"
            }
          ],
          "internalType": "struct LibSwap.SwapData[]",
          "name": "_swapData",
          "type": "tuple[]"
        }
      ],
      "name": "executeAndCheckSwaps",
      "outputs": [
        {
          "internalType": "uint256",
          "name": "",
          "type": "uint256"
        }
      ],
      "stateMutability": "nonpayable",
      "type": "function"
    },
    {
      "inputs": [
        {
          "internalType": "bytes",
          "name": "_encodeVm",
          "type": "bytes"
        }
      ],
      "name": "getMaxGasAndPrice",
      "outputs": [
        {
          "internalType": "uint256",
          "name": "",
          "type": "uint256"
        }
      ],
      "stateMutability": "view",
      "type": "function"
    },
    {
      "inputs": [
        {
          "internalType": "uint256",
          "name": "_amount",
          "type": "uint256"
        }
      ],
      "name": "getSoFee",
      "outputs": [
        {
          "internalType": "uint256",
          "name": "",
          "type": "uint256"
        }
      ],
      "stateMutability": "view",
      "type": "function"
    },
    {
      "inputs": [],
      "name": "getWormholeMessageFee",
      "outputs": [
        {
          "internalType": "uint256",
          "name": "",
          "type": "uint256"
        }
      ],
      "stateMutability": "view",
      "type": "function"
    },
    {
      "inputs": [
        {
          "internalType": "address",
          "name": "_tokenBridge",
          "type": "address"
        },
        {
          "internalType": "uint16",
          "name": "_wormholeChainId",
          "type": "uint16"
        }
      ],
      "name": "initWormhole",
      "outputs": [],
      "stateMutability": "nonpayable",
      "type": "function"
    },
    {
      "inputs": [
        {
          "internalType": "uint16",
          "name": "_dstWormholeChainId",
          "type": "uint16"
        },
        {
          "internalType": "uint256",
          "name": "_baseGas",
          "type": "uint256"
        },
        {
          "internalType": "uint256",
          "name": "_gasPerBytes",
          "type": "uint256"
        }
      ],
      "name": "setWormholeGas",
      "outputs": [],
      "stateMutability": "nonpayable",
      "type": "function"
    },
    {
      "inputs": [
        {
          "internalType": "uint256",
          "name": "_actualReserve",
          "type": "uint256"
        },
        {
          "internalType": "uint256",
          "name": "_estimateReserve",
          "type": "uint256"
        }
      ],
      "name": "setWormholeReserve",
      "outputs": [],
      "stateMutability": "nonpayable",
      "type": "function"
    },
    {
      "inputs": [
        {
          "components": [
            {
              "internalType": "bytes",
              "name": "transactionId",
              "type": "bytes"
            },
            {
              "internalType": "bytes",
              "name": "receiver",
              "type": "bytes"
            },
            {
              "internalType": "uint16",
              "name": "sourceChainId",
              "type": "uint16"
            },
            {
              "internalType": "bytes",
              "name": "sendingAssetId",
              "type": "bytes"
            },
            {
              "internalType": "uint16",
              "name": "destinationChainId",
              "type": "uint16"
            },
            {
              "internalType": "bytes",
              "name": "receivingAssetId",
              "type": "bytes"
            },
            {
              "internalType": "uint256",
              "name": "amount",
              "type": "uint256"
            }
          ],
          "internalType": "struct ISo.NormalizedSoData",
          "name": "_soDataNo",
          "type": "tuple"
        },
        {
          "components": [
            {
              "internalType": "bytes",
              "name": "callTo",
              "type": "bytes"
            },
            {
              "internalType": "bytes",
              "name": "approveTo",
              "type": "bytes"
            },
            {
              "internalType": "bytes",
              "name": "sendingAssetId",
              "type": "bytes"
            },
            {
              "internalType": "bytes",
              "name": "receivingAssetId",
              "type": "bytes"
            },
            {
              "internalType": "uint256",
              "name": "fromAmount",
              "type": "uint256"
            },
            {
              "internalType": "bytes",
              "name": "callData",
              "type": "bytes"
            }
          ],
          "internalType": "struct LibSwap.NormalizedSwapData[]",
          "name": "_swapDataSrcNo",
          "type": "tuple[]"
        },
        {
          "components": [
            {
              "internalType": "uint16",
              "name": "dstWormholeChainId",
              "type": "uint16"
            },
            {
              "internalType": "uint256",
              "name": "dstMaxGasPriceInWeiForRelayer",
              "type": "uint256"
            },
            {
              "internalType": "uint256",
              "name": "wormholeFee",
              "type": "uint256"
            },
            {
              "internalType": "bytes",
              "name": "dstSoDiamond",
              "type": "bytes"
            }
          ],
          "internalType": "struct WormholeFacet.NormalizedWormholeData",
          "name": "_wormholeDataNo",
          "type": "tuple"
        },
        {
          "components": [
            {
              "internalType": "bytes",
              "name": "callTo",
              "type": "bytes"
            },
            {
              "internalType": "bytes",
              "name": "approveTo",
              "type": "bytes"
            },
            {
              "internalType": "bytes",
              "name": "sendingAssetId",
              "type": "bytes"
            },
            {
              "internalType": "bytes",
              "name": "receivingAssetId",
              "type": "bytes"
            },
            {
              "internalType": "uint256",
              "name": "fromAmount",
              "type": "uint256"
            },
            {
              "internalType": "bytes",
              "name": "callData",
              "type": "bytes"
            }
          ],
          "internalType": "struct LibSwap.NormalizedSwapData[]",
          "name": "_swapDataDstNo",
          "type": "tuple[]"
        }
      ],
      "name": "soSwapViaWormhole",
      "outputs": [],
      "stateMutability": "payable",
      "type": "function"
    },
    {
      "inputs": [
        {
          "internalType": "address",
          "name": "_currentAssetId",
          "type": "address"
        },
        {
          "internalType": "address",
          "name": "_expectAssetId",
          "type": "address"
        },
        {
          "internalType": "uint256",
          "name": "_amount",
          "type": "uint256"
        },
        {
          "internalType": "address",
          "name": "_receiver",
          "type": "address"
        }
      ],
      "name": "withdraw",
      "outputs": [],
      "stateMutability": "nonpayable",
      "type": "function"
    }
  ],
  "bytecode": "608060405234801561001057600080fd5b5061585d80620000216000396000f3fe60806040526004361061012a5760003560e01c8063552033c4116100ab578063ae6ab3e51161006f578063ae6ab3e51461033b578063b91dfdd61461035b578063c3f511c114610164578063d316cefe1461038b578063d8b886f3146103ab578063e0718403146103cb57600080fd5b8063552033c41461026c578063740dc2b61461028c5780638340f549146102b95780638f66f150146102cc5780638f6d817a146102f957600080fd5b8063272838b8116100f2578063272838b8146101cc5780633620a2b8146101ec5780633729e48c1461020c5780633e76730f1461022c578063519ef92e1461024c57600080fd5b80630e917f761461012f5780631c4469a9146101515780631c8475e41461016457806322dfbee51461018457806323e7af5d146101ac575b600080fd5b34801561013b57600080fd5b5061014f61014a366004613f93565b6103eb565b005b61014f61015f36600461405b565b61056f565b34801561017057600080fd5b5061014f61017f366004614299565b6108f5565b34801561019057600080fd5b50610199610901565b6040519081526020015b60405180910390f35b3480156101b857600080fd5b506101996101c73660046142cd565b6109e5565b3480156101d857600080fd5b506101996101e73660046142cd565b610b5e565b3480156101f857600080fd5b5061014f610207366004614372565b610c1e565b34801561021857600080fd5b506101996102273660046143a7565b610cda565b34801561023857600080fd5b50610199610247366004614299565b610d9b565b34801561025857600080fd5b50610199610267366004614470565b610f25565b34801561027857600080fd5b506101996b033b2e3c9fd0803ce800000081565b34801561029857600080fd5b506102ac6102a7366004614489565b610fcc565b6040516101a3919061457a565b61014f6102c736600461458d565b61100a565b3480156102d857600080fd5b506102ec6102e7366004614299565b61124c565b6040516101a391906145ce565b34801561030557600080fd5b506103196103143660046142cd565b61136f565b60408051941515855260208501939093529183015260608201526080016101a3565b34801561034757600080fd5b5061014f61035636600461460b565b6116d3565b34801561036757600080fd5b5061037b610376366004614299565b611772565b6040516101a39493929190614704565b34801561039757600080fd5b5061014f6103a63660046147cd565b61189e565b3480156103b757600080fd5b506102ac6103c6366004614a5f565b611919565b3480156103d757600080fd5b5061014f6103e6366004614299565b61196d565b6001600160a01b0383166104ab57826001600160a01b0316846001600160a01b0316146104a657604051632e1a7d4d60e01b8152600481018390526001600160a01b03851690632e1a7d4d90602401600060405180830381600087803b15801561045457600080fd5b505af1925050508015610465575060015b6104a65760405162461bcd60e51b815260206004820152600d60248201526c15da5d1a191c985dc819985a5b609a1b60448201526064015b60405180910390fd5b610500565b826001600160a01b0316846001600160a01b0316146105005760405162461bcd60e51b8152602060048201526011602482015270082e6e6cae892c840dcdee840dac2e8c6d607b1b604482015260640161049d565b6001600160a01b0381163014610569578161051a84612180565b101561055e5760405162461bcd60e51b81526020600482015260136024820152720aed2e8d0c8e4c2ee40dcdee840cadcdeeaced606b1b604482015260640161049d565b610569838284612206565b50505050565b826040013534146105ae5760405162461bcd60e51b81526020600482015260096024820152682332b29032b93937b960b91b604482015260640161049d565b61060c604051806101200160405280600015158152602001600081526020016000151581526020016000151581526020016000815260200160006001600160a01b031681526020016000815260200160008152602001606081525090565b600061061f61061a89614ae9565b61222a565b90506000610635610630888a614af5565b612309565b90506106438987878761136f565b60e087015260c0860152602085015215158084526106905760405162461bcd60e51b815260206004820152600a60248201526910da1958dac819985a5b60b21b604482015260640161049d565b60c0830151156106aa576106aa6000338560c00151612206565b6020830151156106cb576106cb60006106c16125cc565b8560200151612206565b60608201516001600160a01b0316156106f0576106f082606001518360c001516125fa565b80516000036107225760608201516001600160a01b031660a084015260c0820151608084015260006040840152610856565b8060008151811061073557610735614b02565b6020026020010151608001518260c00151146107a45760405162461bcd60e51b815260206004820152602860248201527f736f4461746120616e6420737761704461746153726320616d6f756e74206e6f60448201526774206d617463682160c01b606482015260840161049d565b604051630dca792360e21b81523090633729e48c906107c99085908590600401614b77565b6020604051808303816000875af11580156107e8573d6000803e3d6000fd5b505050506040513d601f19601f8201168201806040525081019061080c9190614c3e565b60808401528051819061082190600190614c6d565b8151811061083157610831614b02565b6020908102919091010151606001516001600160a01b031660a0840152600160408401525b61087786602001358460e001518b61086d90614ae9565b6103c6888a614af5565b61010084015280511561088c57600160608401525b6108a5868460a001518560800151866101000151612613565b8151604080850151606086015191517fd607beec64347603c47a525384ab8775ed922f603ecc4098b512a2650d142a6d926108e292918790614c84565b60405180910390a2505050505050505050565b6108fe8161196d565b50565b6000805160206158088339815191528054604080516384acd1bb60e01b81529051600093926001600160a01b0316916384acd1bb9160048083019260209291908290030181865afa15801561095a573d6000803e3d6000fd5b505050506040513d601f19601f8201168201806040525081019061097e9190614cc4565b6001600160a01b0316631a90a2196040518163ffffffff1660e01b8152600401602060405180830381865afa1580156109bb573d6000803e3d6000fd5b505050506040513d601f19601f820116820180604052508101906109df9190614c3e565b91505090565b60008060008051602061580883398151915280546001600160a01b0390811660009081526003602090815260408220549394509290911691829063b0cb3f4f90610a31908a018a614ce1565b6040516001600160e01b031960e084901b16815261ffff90911660048201526024016040805180830381865afa158015610a6f573d6000803e3d6000fd5b505050506040513d601f19601f82011682018060405250810190610a939190614d0e565b5090506000610aa489898989610b5e565b90506000610ab68260208b0135612890565b90506000610b4d6b033b2e3c9fd0803ce8000000610b418860020154610b47896001600160a01b031663552033c46040518163ffffffff1660e01b8152600401602060405180830381865afa158015610b13573d6000803e3d6000fd5b505050506040513d601f19601f82011682018060405250810190610b379190614c3e565b610b41888b612890565b9061289c565b90612890565b96505050505050505b949350505050565b600080610b7d602086013582610b7389614ae9565b6103c68789614af5565b805190915060008051602061580883398151915290610c1390610be5907fd4ca4302bca26785486b2ceec787497a9cf992c36dcf57c306a00c1f881546276000610bca60208c018c614ce1565b61ffff16815260208101919091526040016000205490612890565b600383016000610bf860208b018b614ce1565b61ffff168152602081019190915260400160002054906128a8565b979650505050505050565b610c266128b4565b61ffff831660008181527fd4ca4302bca26785486b2ceec787497a9cf992c36dcf57c306a00c1f88154626602090815260408083208690557fd4ca4302bca26785486b2ceec787497a9cf992c36dcf57c306a00c1f881546278252918290208490558151928352820184905281810183905251600080516020615808833981519152917f0aa61585b805fde53f9144e0b67e73fa5c022a2822052ae5803875f481b511d2919081900360600190a150505050565b600081808203610cfd57604051630503c3ed60e01b815260040160405180910390fd5b60008484610d0c600182614c6d565b818110610d1b57610d1b614b02565b9050602002810190610d2d9190614d3a565b610d3e906080810190606001614d5a565b90506000610d4b82612180565b9050610d5887878761293d565b80610d6283612180565b610d6c9190614c6d565b905080600003610d8f5760405163162908e360e11b815260040160405180910390fd5b925050505b9392505050565b6000805160206158088339815191528054604080516384acd1bb60e01b81529051600093926001600160a01b031691849183916384acd1bb9160048083019260209291908290030181865afa158015610df8573d6000803e3d6000fd5b505050506040513d601f19601f82011682018060405250810190610e1c9190614cc4565b6001600160a01b031663a9e11893866040518263ffffffff1660e01b8152600401610e47919061457a565b600060405180830381865afa158015610e64573d6000803e3d6000fd5b505050506040513d6000823e601f3d908101601f19168201604052610e8c9190810190614edc565b60e0015190506000826001600160a01b031663ea63738d836040518263ffffffff1660e01b8152600401610ec0919061457a565b600060405180830381865afa158015610edd573d6000803e3d6000fd5b505050506040513d6000823e601f3d908101601f19168201604052610f059190810190615000565b90506000610f168260e00151611772565b50919998505050505050505050565b60008051602061580883398151915280546001600160a01b039081166000908152600360205260408120549092911680610f63575060009392505050565b6040516335681b5360e21b8152600481018590526001600160a01b0382169063d5a06d4c90602401602060405180830381865afa158015610fa8573d6000803e3d6000fd5b505050506040513d601f19601f82011682018060405250810190610b569190614c3e565b8051602080830151604080850151606086810151805193519196610ff49690959492016150c8565b6040516020818303038152906040529050919050565b816001600160a01b0316836001600160a01b031603611075578061102d84612180565b10156110705760405162461bcd60e51b8152602060048201526012602482015271088cae0dee6d2e840dcdee840cadcdeeaced60731b604482015260640161049d565b505050565b6001600160a01b03831661110b57816001600160a01b031663d0e30db0826040518263ffffffff1660e01b81526004016000604051808303818588803b1580156110be57600080fd5b505af1935050505080156110d0575060015b6110705760405162461bcd60e51b815260206004820152600c60248201526b11195c1bdcda5d0819985a5b60a21b604482015260640161049d565b816001600160a01b0316836001600160a01b03161461107057604051632e1a7d4d60e01b8152600481018290526001600160a01b03841690632e1a7d4d90602401600060405180830381600087803b15801561116657600080fd5b505af1925050508015611177575060015b6111bb5760405162461bcd60e51b815260206004820152601560248201527411195c1bdcda5d081dda5d1a191c985dc819985a5b605a1b604482015260640161049d565b816001600160a01b031663d0e30db0826040518263ffffffff1660e01b81526004016000604051808303818588803b1580156111f657600080fd5b505af193505050508015611208575060015b6110705760405162461bcd60e51b815260206004820152601560248201527415da5d1a191c985dc819195c1bdcda5d0819985a5b605a1b604482015260640161049d565b61127b6040518060800160405280600061ffff1681526020016000815260200160008152602001606081525090565b6112aa6040518060800160405280600061ffff1681526020016000815260200160008152602001606081525090565b600060026112b88583612b65565b61ffff1683526112c8818361511c565b9150602090506112d88583612bc2565b60208401526112e7818361511c565b9150602090506112f78583612bc2565b6040840152611306818361511c565b91506113128583612c20565b6001600160401b0316905061132860088361511c565b9150611335858383612c7d565b6060840152611344818361511c565b9150845182146113665760405162461bcd60e51b815260040161049d90615134565b50909392505050565b6000806000806113bf604051806101000160405280600081526020016000815260200160008152602001600081526020016000815260200160001515815260200160008152602001600081525090565b60008051602061580883398151915280546001600160a01b039081166000908152600360209081526040909120549091169081906355b95f5890611405908d018d614ce1565b6040516001600160e01b031960e084901b16815261ffff90911660048201526024016020604051808303816000875af1158015611446573d6000803e3d6000fd5b505050506040513d601f19601f8201168201806040525081019061146a9190614c3e565b83526114788b8b8b8b610b5e565b6080840181905261148d9060208c0135612890565b8360400181815250506115236b033b2e3c9fd0803ce8000000610b418460010154610b47856001600160a01b031663552033c46040518163ffffffff1660e01b8152600401602060405180830381865afa1580156114ef573d6000803e3d6000fd5b505050506040513d601f19601f820116820180604052508101906115139190614c3e565b885160408a0151610b4191612890565b602084015261158761157a600061153d60608f018f61515a565b8080601f0160208091040260200160405190810160405280939291908181526020018383808284376000920191909152509293925050612d8a9050565b6001600160a01b03161590565b156115975760c08b013560608401525b60208084015160608501518454604080516384acd1bb60e01b815290516116789561167294936001600160a01b0316926384acd1bb92600480830193928290030181865afa1580156115ed573d6000803e3d6000fd5b505050506040513d601f19601f820116820180604052508101906116119190614cc4565b6001600160a01b0316631a90a2196040518163ffffffff1660e01b8152600401602060405180830381865afa15801561164e573d6000803e3d6000fd5b505050506040513d601f19601f820116820180604052508101906116729190614c3e565b906128a8565b60e0840181905260408b0135106116aa57600160a084015260e08301516116a49060408c013590612def565b60c08401525b505060a0810151602082015160c0830151608090930151919b909a509198509650945050505050565b6116db6128b4565b7fd4ca4302bca26785486b2ceec787497a9cf992c36dcf57c306a00c1f881546248290557fd4ca4302bca26785486b2ceec787497a9cf992c36dcf57c306a00c1f881546258190556040805183815260208101839052600080516020615808833981519152917f47eb9e20f6454ed3771e741f21d26f7f265ae9a1a06d722dd888e4585c0b7e9591015b60405180910390a1505050565b60008061177d613f00565b606060008061178a613f45565b602091506117988884612bc2565b81526117a4828461511c565b9250602091506117b48884612bc2565b60208201526117c3828461511c565b92506117cf8884612c20565b6001600160401b031691506117e560088461511c565b92506117fa6117f5898585612c7d565b612dfb565b6040820152611809828461511c565b92506118158884612c20565b6001600160401b0316915061182b60088461511c565b9250875183101561185b57611849611844898585612c7d565b612f66565b6060820152611858828461511c565b92505b8751831461187b5760405162461bcd60e51b815260040161049d90615134565b805160208201516040830151606090930151919a90995091975095509350505050565b6118a66128b4565b600080516020615808833981519152805461ffff8316600160a01b81026001600160b01b03199092166001600160a01b0386169081179290921783556040805192835260208301919091527fb42c2803db63f6a1bdd8d9d2f1114f85fb270af64df8e69b20abc2ac4b61b95d9101611765565b6060600061192684613255565b90506000611933846132da565b90508686835184845185604051602001611952969594939291906151a0565b60405160208183030381529060405292505050949350505050565b600080516020615808833981519152805460405163c3f511c160e01b81526001600160a01b0390911690600090829063c3f511c1906119b090879060040161457a565b6000604051808303816000875af11580156119cf573d6000803e3d6000fd5b505050506040513d6000823e601f3d908101601f191682016040526119f79190810190615209565b90506000826001600160a01b031663ea63738d836040518263ffffffff1660e01b8152600401611a27919061457a565b600060405180830381865afa158015611a44573d6000803e3d6000fd5b505050506040513d6000823e601f3d908101601f19168201604052611a6c9190810190615000565b9050600080611a7e8360e00151611772565b9350935050506000611a8f8361222a565b90506000611a9c83612309565b9050600080886001600160a01b0316639a8a05926040518163ffffffff1660e01b8152600401602060405180830381865afa158015611adf573d6000803e3d6000fd5b505050506040513d601f19601f82011682018060405250810190611b03919061523d565b61ffff16876060015161ffff1603611b2357505060408501516001611ba2565b60608701516040808901519051630ff8f14360e11b815261ffff909216600483015260248201526001600160a01b038a1690631ff1e28690604401602060405180830381865afa158015611b7b573d6000803e3d6000fd5b505050506040513d601f19601f82011682018060405250810190611b9f9190614cc4565b91505b6000611bad83612180565b905060008111611bec5760405162461bcd60e51b815260206004820152600a6024820152690616d6f756e74203e20360b41b604482015260640161049d565b60008a6001600160a01b031663ad5c46486040518163ffffffff1660e01b8152600401602060405180830381865afa158015611c2c573d6000803e3d6000fd5b505050506040513d601f19601f82011682018060405250810190611c509190614cc4565b9050828015611c705750836001600160a01b0316816001600160a01b0316145b15611cd457604051632e1a7d4d60e01b8152600481018390526001600160a01b03821690632e1a7d4d90602401600060405180830381600087803b158015611cb757600080fd5b505af1158015611ccb573d6000803e3d6000fd5b50505050600093505b6000611cdf83610f25565b9050600081118015611cf057508281105b15611d0257611cff8382612def565b92505b8551600003611ddc578660a001516001600160a01b0316856001600160a01b031614611d5e5760405162461bcd60e51b815260206004820152600b60248201526a3a37b5b2b71032b93937b960a91b604482015260640161049d565b8015611d7a57611d7a8760a00151611d746125cc565b83612206565b611d8d8760a00151886020015185612206565b865160a088015160208901516040517f18acd05157efe71792e50e247cdf5e2725c6f4f63a515c43aa99e548f61db9df92611dcf929091889042908e9061525a565b60405180910390a2612170565b8015611e0c57611e0c86600081518110611df857611df8614b02565b602002602001015160400151611d746125cc565b846001600160a01b031686600081518110611e2957611e29614b02565b6020026020010151604001516001600160a01b031614611e795760405162461bcd60e51b815260206004820152600b60248201526a3a37b5b2b71032b93937b960a91b604482015260640161049d565b8286600081518110611e8d57611e8d614b02565b6020908102919091010151608001526004546001600160a01b03168015611f8057806001600160a01b0316635c70275088600081518110611ed057611ed0614b02565b602002602001015160a0015189600081518110611eef57611eef614b02565b6020026020010151608001516040518363ffffffff1660e01b8152600401611f18929190615298565b600060405180830381865afa158015611f35573d6000803e3d6000fd5b505050506040513d6000823e601f3d908101601f19168201604052611f5d9190810190615209565b87600081518110611f7057611f70614b02565b602002602001015160a001819052505b604051630dca792360e21b81523090633729e48c90611fa5908b908b90600401614b77565b6020604051808303816000875af1925050508015611fe0575060408051601f3d908101601f19168201909252611fdd91810190614c3e565b60015b6120e757611fec6152ba565b806308c379a00361206e57506120006152d5565b8061200b5750612070565b61201e8960a001518a6020015187612206565b8851604080516020810182526000815290517fc7d9d9321c7e3ed428993a0e144fd8847919c4ade4d08e85f8e18217e61ba82e91612060918591908e9061535e565b60405180910390a25061216e565b505b3d80801561209a576040519150601f19603f3d011682016040523d82523d6000602084013e61209f565b606091505b506120b38960a001518a6020015187612206565b88516040517fc7d9d9321c7e3ed428993a0e144fd8847919c4ade4d08e85f8e18217e61ba82e906120609084908d90615396565b6121208860018a516120f99190614c6d565b8151811061210957612109614b02565b6020026020010151606001518a6020015183612206565b88600001517f18acd05157efe71792e50e247cdf5e2725c6f4f63a515c43aa99e548f61db9df8a60a001518b6020015184428e60405161216495949392919061525a565b60405180910390a2505b505b5050505050505050505050505050565b60006001600160a01b038216156121fe576040516370a0823160e01b81523060048201526001600160a01b038316906370a0823190602401602060405180830381865afa1580156121d5573d6000803e3d6000fd5b505050506040513d601f19601f820116820180604052508101906121f99190614c3e565b612200565b475b92915050565b6001600160a01b03831615612220576110708383836134e2565b6110708282613514565b6040805160e081018252600080825260208201819052918101829052606081018290526080810182905260a0810182905260c08101919091526040805160e081019091528251819061227d9060006135af565b815260200161228f8460200151613604565b6001600160a01b03168152602001836040015161ffff1681526020016122c360008560600151612d8a90919063ffffffff16565b6001600160a01b03168152602001836080015161ffff1681526020016122ec8460a00151613604565b6001600160a01b031681526020018360c001518152509050919050565b6060600082516001600160401b0381111561232657612326614113565b60405190808252806020026020018201604052801561238857816020015b6040805160c081018252600080825260208083018290529282018190526060808301829052608083019190915260a082015282526000199092019101816123445790505b50905060005b81518110156125c5576123c860008583815181106123ae576123ae614b02565b602002602001015160000151612d8a90919063ffffffff16565b8282815181106123da576123da614b02565b6020026020010151600001906001600160a01b031690816001600160a01b03168152505061242f600085838151811061241557612415614b02565b602002602001015160200151612d8a90919063ffffffff16565b82828151811061244157612441614b02565b6020026020010151602001906001600160a01b031690816001600160a01b031681525050612496600085838151811061247c5761247c614b02565b602002602001015160400151612d8a90919063ffffffff16565b8282815181106124a8576124a8614b02565b6020026020010151604001906001600160a01b031690816001600160a01b0316815250506124fd60008583815181106124e3576124e3614b02565b602002602001015160600151612d8a90919063ffffffff16565b82828151811061250f5761250f614b02565b6020026020010151606001906001600160a01b031690816001600160a01b03168152505083818151811061254557612545614b02565b60200260200101516080015182828151811061256357612563614b02565b6020026020010151608001818152505083818151811061258557612585614b02565b602002602001015160a001518282815181106125a3576125a3614b02565b602002602001015160a0018190525080806125bd906153ca565b91505061238e565b5092915050565b7fc8fcad8db84d3cc18b4c41d551ea0ee66dd599cde068d998e57d5e09332c1320546001600160a01b031690565b61260f82826001600160a01b03821615613627565b5050565b60008051602061580883398151915280546001600160a01b0316600061263c606088018861515a565b905060140361266757612657600061153d60608a018a61515a565b6001600160a01b031690506126b9565b6126b6600061267960608a018a61515a565b8080601f01602080910402602001604051908101604052809392919081815260200183838082843760009201919091525092939250506135af9050565b90505b6000806126c4610901565b90506001600160a01b038816612767576001600160a01b03841663bee9cdfc6126ed838a61511c565b6126fa60208d018d614ce1565b8660008b6040518663ffffffff1660e01b815260040161271d94939291906153e3565b60206040518083038185885af115801561273b573d6000803e3d6000fd5b50505050506040513d601f19601f820116820180604052508101906127609190615412565b91506127fc565b6127728885896136ba565b6001600160a01b03841663c5a5ebda828a8a61279160208f018f614ce1565b8860008d6040518863ffffffff1660e01b81526004016127b69695949392919061542d565b60206040518083038185885af11580156127d4573d6000803e3d6000fd5b50505050506040513d601f19601f820116820180604052508101906127f99190615412565b91505b600061280789612180565b9050801561281a5761281a893383612206565b85547f54aac47748246a3ab5f96928b15860ffe57608cd8d74364ac38444a9093aa2ea90600160a01b900461ffff1661285660208d018d614ce1565b6040805161ffff93841681529290911660208301526001600160401b0386169082015260600160405180910390a150505050505050505050565b6000610d94828461547c565b6000610d94828461549b565b6000610d94828461511c565b7fc8fcad8db84d3cc18b4c41d551ea0ee66dd599cde068d998e57d5e09332c131c600401546001600160a01b0316331461293b5760405162461bcd60e51b815260206004820152602260248201527f4c69624469616d6f6e643a204d75737420626520636f6e7472616374206f776e60448201526132b960f11b606482015260840161049d565b565b60008282600081811061295257612952614b02565b90506020028101906129649190614d3a565b61296d906154bd565b905060005b82811015612b5e576060820151600061298a82612180565b6020808601516001600160a01b0316600090815290819052604090205490915060ff1680156129d2575083516001600160a01b031660009081526020819052604090205460ff165b8015612a0f5750600060010160006129f18660a001516000600461377f565b6129fa90615570565b815260208101919091526040016000205460ff165b612a2c57604051632514e60160e21b815260040160405180910390fd5b8651612a38908561383d565b80612a4283612180565b612a4c9190614c6d565b905084612a5a84600161511c565b1015612b49578585612a6d85600161511c565b818110612a7c57612a7c614b02565b9050602002810190612a8e9190614d3a565b612a97906154bd565b6004549094506001600160a01b031680612ac4576040516374c37b4360e11b815260040160405180910390fd5b6080850182905260a08501516040516305c7027560e41b81526001600160a01b03831691635c70275091612afd91908690600401615298565b600060405180830381865afa158015612b1a573d6000803e3d6000fd5b505050506040513d6000823e601f3d908101601f19168201604052612b429190810190615209565b60a0860152505b50508080612b56906153ca565b915050612972565b5050505050565b6000612b7282600261511c565b83511015612bb95760405162461bcd60e51b8152602060048201526014602482015273746f55696e7431365f6f75744f66426f756e647360601b604482015260640161049d565b50016002015190565b6000612bcf82602061511c565b83511015612c175760405162461bcd60e51b8152602060048201526015602482015274746f55696e743235365f6f75744f66426f756e647360581b604482015260640161049d565b50016020015190565b6000612c2d82600861511c565b83511015612c745760405162461bcd60e51b8152602060048201526014602482015273746f55696e7436345f6f75744f66426f756e647360601b604482015260640161049d565b50016008015190565b606081612c8b81601f61511c565b1015612cca5760405162461bcd60e51b815260206004820152600e60248201526d736c6963655f6f766572666c6f7760901b604482015260640161049d565b612cd4828461511c565b84511015612d185760405162461bcd60e51b8152602060048201526011602482015270736c6963655f6f75744f66426f756e647360781b604482015260640161049d565b606082158015612d375760405191506000825260208201604052612d81565b6040519150601f8416801560200281840101858101878315602002848b0101015b81831015612d70578051835260209283019201612d58565b5050858452601f01601f1916604052505b50949350505050565b6000612d9782601461511c565b83511015612ddf5760405162461bcd60e51b8152602060048201526015602482015274746f416464726573735f6f75744f66426f756e647360581b604482015260640161049d565b500160200151600160601b900490565b6000610d948284614c6d565b612e03613f00565b612e0b613f00565b600080612e188582612c20565b6001600160401b03169050612e2e60088361511c565b9150612e3b858383612c7d565b8352612e47818361511c565b9150612e538583612c20565b6001600160401b03169050612e6960088361511c565b9150612e76858383612c7d565b6020840152612e85818361511c565b915060029050612e958583612b65565b61ffff166040840152612ea8818361511c565b9150612eb48583612c20565b6001600160401b03169050612eca60088361511c565b9150612ed7858383612c7d565b6060840152612ee6818361511c565b915060029050612ef68583612b65565b61ffff166080840152612f09818361511c565b9150612f158583612c20565b6001600160401b03169050612f2b60088361511c565b9150612f38858383612c7d565b60a0840152612f47818361511c565b915060209050612f578583612bc2565b60c0840152611344818361511c565b60606000600881612f778582612c20565b6001600160401b03169050612f8c828461511c565b92506000816001600160401b03811115612fa857612fa8614113565b60405190808252806020026020018201604052801561301257816020015b612fff6040518060c001604052806060815260200160608152602001606081526020016060815260200160008152602001606081525090565b815260200190600190039081612fc65790505b50905060005b8281101561322b5761302a8786612c20565b6001600160401b0316935061304060088661511c565b945061304d878686612c7d565b82828151811061305f5761305f614b02565b602090810291909101015152613075848661511c565b94506130818786612c20565b6001600160401b0316935061309760088661511c565b94506130a4878686612c7d565b8282815181106130b6576130b6614b02565b60209081029190910181015101526130ce848661511c565b94506130da8786612c20565b6001600160401b031693506130f060088661511c565b94506130fd878686612c7d565b82828151811061310f5761310f614b02565b602090810291909101015160400152613128848661511c565b94506131348786612c20565b6001600160401b0316935061314a60088661511c565b9450613157878686612c7d565b82828151811061316957613169614b02565b602090810291909101015160600152613182848661511c565b9450602093506131928786612bc2565b8282815181106131a4576131a4614b02565b6020908102919091010151608001526131bd848661511c565b94506131c98786612c20565b6001600160401b031693506131df60088661511c565b94506131ec878686612c7d565b8282815181106131fe576131fe614b02565b602090810291909101015160a00152613217848661511c565b945080613223816153ca565b915050613018565b508551841461324c5760405162461bcd60e51b815260040161049d90615134565b95945050505050565b8051805160208084015180516040808701519051606096600096613280969095919493919201615594565b60408051601f198184030181529082905260608501518051608087015160a0880151805160c08a0151959750610d94966132c39694959491929190602001615608565b60408051601f198184030181529190528290613a2c565b6040805160208101909152600081528151606091901561332b578251604051602001613319919060c09190911b6001600160c01b031916815260080190565b60405160208183030381529060405290505b60005b83518110156125c55761341d84828151811061334c5761334c614b02565b6020026020010151600001515185838151811061336b5761336b614b02565b60200260200101516000015186848151811061338957613389614b02565b602002602001015160200151518785815181106133a8576133a8614b02565b6020026020010151602001518886815181106133c6576133c6614b02565b602002602001015160400151518987815181106133e5576133e5614b02565b60200260200101516040015160405160200161340696959493929190615680565b60408051601f198184030181529190528390613a2c565b91506134ce84828151811061343457613434614b02565b6020026020010151606001515185838151811061345357613453614b02565b60200260200101516060015186848151811061347157613471614b02565b60200260200101516080015187858151811061348f5761348f614b02565b602002602001015160a00151518886815181106134ae576134ae614b02565b602002602001015160a00151604051602001613406959493929190615701565b9150806134da816153ca565b91505061332e565b6001600160a01b0383166135095760405163346fafc360e21b815260040160405180910390fd5b611070838383613aa9565b6001600160a01b03821661353b576040516321f7434560e01b815260040160405180910390fd5b6000826001600160a01b03168260405160006040518083038185875af1925050503d8060008114613588576040519150601f19603f3d011682016040523d82523d6000602084013e61358d565b606091505b505090508061107057604051635a04673760e01b815260040160405180910390fd5b60006135bc82602061511c565b83511015612c175760405162461bcd60e51b8152602060048201526015602482015274746f427974657333325f6f75744f66426f756e647360581b604482015260640161049d565b6000815160140361361a57612200826000612d8a565b506000919050565b919050565b816000036136485760405163162908e360e11b815260040160405180910390fd5b801561366e578134146110705760405163162908e360e11b815260040160405180910390fd5b600061367984612180565b905061368784333086613b0c565b828161369286612180565b61369c9190614c6d565b146105695760405163162908e360e11b815260040160405180910390fd5b6001600160a01b0383166136cd57505050565b6001600160a01b0382166136f4576040516363ba9bff60e01b815260040160405180910390fd5b604051636eb1769f60e11b81523060048201526001600160a01b0383811660248301526000919085169063dd62ed3e90604401602060405180830381865afa158015613744573d6000803e3d6000fd5b505050506040513d601f19601f820116820180604052508101906137689190614c3e565b905081811015610569576105698484600019613b66565b60608183108015613791575083518211155b6137d15760405162461bcd60e51b8152602060048201526011602482015270446174614c656e677468206572726f722160781b604482015260640161049d565b604080516020810190915260008152835b83811015612d8157818682815181106137fd576137fd614b02565b602001015160f81c60f81b604051602001613819929190615763565b60405160208183030381529060405291508080613835906153ca565b9150506137e2565b80513b61385d576040516303777f6960e51b815260040160405180910390fd5b608081015160008190036138845760405163391b81e760e21b815260040160405180910390fd5b60408201516060830151600091908261389c83612180565b905060006138a983612180565b905060008683106138bb5760006138c5565b6138c58388614c6d565b90506001600160a01b038516156138fc576138e5858960200151896136ba565b80156138f7576138f785333084613b0c565b613900565b8695505b60008089600001516001600160a01b0316888b60a001516040516139249190615792565b60006040518083038185875af1925050503d8060008114613961576040519150601f19603f3d011682016040523d82523d6000602084013e613966565b606091505b50915091508161399757600061397b82613c7b565b90508060405162461bcd60e51b815260040161049d919061457a565b7f7bfdfdb5e3a3776976e53cb0607060f54c5312701c8cba1155cc4d5394440b388b8b600001518c60400151898d896139cf8d612180565b6139d99190614c6d565b604080519687526001600160a01b0395861660208801529385169386019390935292166060840152608083019190915260a08201524260c082015260e00160405180910390a15050505050505050505050565b6060806040519050835180825260208201818101602087015b81831015613a5d578051835260209283019201613a45565b50855184518101855292509050808201602086015b81831015613a8a578051835260209283019201613a72565b508651929092011591909101601f01601f191660405250905092915050565b6040516001600160a01b03831660248201526044810182905261107090849063a9059cbb60e01b906064015b60408051601f198184030181529190526020810180516001600160e01b03166001600160e01b031990931692909217909152613cf2565b6001600160a01b038416613b335760405163346fafc360e21b815260040160405180910390fd5b6001600160a01b038216613b5a576040516321f7434560e01b815260040160405180910390fd5b61056984848484613dc4565b801580613be05750604051636eb1769f60e11b81523060048201526001600160a01b03838116602483015284169063dd62ed3e90604401602060405180830381865afa158015613bba573d6000803e3d6000fd5b505050506040513d601f19601f82011682018060405250810190613bde9190614c3e565b155b613c4b5760405162461bcd60e51b815260206004820152603660248201527f5361666545524332303a20617070726f76652066726f6d206e6f6e2d7a65726f60448201527520746f206e6f6e2d7a65726f20616c6c6f77616e636560501b606482015260840161049d565b6040516001600160a01b03831660248201526044810182905261107090849063095ea7b360e01b90606401613ad5565b6060604482511015613cc057505060408051808201909152601d81527f5472616e73616374696f6e2072657665727465642073696c656e746c79000000602082015290565b6000613cdc6004808551613cd49190614c6d565b859190612c7d565b905080806020019051810190610d9491906157a4565b6000613d47826040518060400160405280602081526020017f5361666545524332303a206c6f772d6c6576656c2063616c6c206661696c6564815250856001600160a01b0316613dfc9092919063ffffffff16565b8051909150156110705780806020019051810190613d6591906157ec565b6110705760405162461bcd60e51b815260206004820152602a60248201527f5361666545524332303a204552433230206f7065726174696f6e20646964206e6044820152691bdd081cdd58d8d9595960b21b606482015260840161049d565b6040516001600160a01b03808516602483015283166044820152606481018290526105699085906323b872dd60e01b90608401613ad5565b6060610b568484600085856001600160a01b0385163b613e5e5760405162461bcd60e51b815260206004820152601d60248201527f416464726573733a2063616c6c20746f206e6f6e2d636f6e7472616374000000604482015260640161049d565b600080866001600160a01b03168587604051613e7a9190615792565b60006040518083038185875af1925050503d8060008114613eb7576040519150601f19603f3d011682016040523d82523d6000602084013e613ebc565b606091505b5091509150610c1382828660608315613ed6575081610d94565b825115613ee65782518084602001fd5b8160405162461bcd60e51b815260040161049d919061457a565b6040518060e001604052806060815260200160608152602001600061ffff16815260200160608152602001600061ffff16815260200160608152602001600081525090565b60405180608001604052806000815260200160008152602001613f66613f00565b8152602001606081525090565b6001600160a01b03811681146108fe57600080fd5b803561362281613f73565b60008060008060808587031215613fa957600080fd5b8435613fb481613f73565b93506020850135613fc481613f73565b9250604085013591506060850135613fdb81613f73565b939692955090935050565b600060e08284031215613ff857600080fd5b50919050565b60008083601f84011261401057600080fd5b5081356001600160401b0381111561402757600080fd5b6020830191508360208260051b850101111561404257600080fd5b9250929050565b600060808284031215613ff857600080fd5b6000806000806000806080878903121561407457600080fd5b86356001600160401b038082111561408b57600080fd5b6140978a838b01613fe6565b975060208901359150808211156140ad57600080fd5b6140b98a838b01613ffe565b909750955060408901359150808211156140d257600080fd5b6140de8a838b01614049565b945060608901359150808211156140f457600080fd5b5061410189828a01613ffe565b979a9699509497509295939492505050565b634e487b7160e01b600052604160045260246000fd5b60e081018181106001600160401b038211171561414857614148614113565b60405250565b608081018181106001600160401b038211171561414857614148614113565b601f8201601f191681016001600160401b038111828210171561419257614192614113565b6040525050565b6040516141a581614129565b90565b60405160c081016001600160401b03811182821017156141ca576141ca614113565b60405290565b60405161016081016001600160401b03811182821017156141ca576141ca614113565b60405161010081016001600160401b03811182821017156141ca576141ca614113565b60006001600160401b0382111561422f5761422f614113565b50601f01601f191660200190565b600082601f83011261424e57600080fd5b813561425981614216565b604051614266828261416d565b82815285602084870101111561427b57600080fd5b82602086016020830137600092810160200192909252509392505050565b6000602082840312156142ab57600080fd5b81356001600160401b038111156142c157600080fd5b610b568482850161423d565b600080600080606085870312156142e357600080fd5b84356001600160401b03808211156142fa57600080fd5b61430688838901613fe6565b9550602087013591508082111561431c57600080fd5b61432888838901614049565b9450604087013591508082111561433e57600080fd5b5061434b87828801613ffe565b95989497509550505050565b61ffff811681146108fe57600080fd5b803561362281614357565b60008060006060848603121561438757600080fd5b833561439281614357565b95602085013595506040909401359392505050565b60008060008385036101008112156143be57600080fd5b60e08112156143cc57600080fd5b506040516143d981614129565b843581526143e960208601613f88565b60208201526143fa60408601614367565b604082015261440b60608601613f88565b606082015261441c60808601614367565b608082015261442d60a08601613f88565b60a082015260c08581013590820152925060e08401356001600160401b0381111561445757600080fd5b61446386828701613ffe565b9497909650939450505050565b60006020828403121561448257600080fd5b5035919050565b60006020828403121561449b57600080fd5b81356001600160401b03808211156144b257600080fd5b90830190608082860312156144c657600080fd5b6040516144d28161414e565b82356144dd81614357565b80825250602083013560208201526040830135604082015260608301358281111561450757600080fd5b6145138782860161423d565b60608301525095945050505050565b60005b8381101561453d578181015183820152602001614525565b838111156105695750506000910152565b60008151808452614566816020860160208601614522565b601f01601f19169290920160200192915050565b602081526000610d94602083018461454e565b6000806000606084860312156145a257600080fd5b83356145ad81613f73565b925060208401356145bd81613f73565b929592945050506040919091013590565b6020815261ffff8251166020820152602082015160408201526040820151606082015260006060830151608080840152610b5660a084018261454e565b6000806040838503121561461e57600080fd5b50508035926020909101359150565b600081518084526020808501808196508360051b8101915082860160005b858110156146f7578284038952815160c0815181875261466d8288018261454e565b9150508682015186820388880152614685828261454e565b9150506040808301518783038289015261469f838261454e565b92505050606080830151878303828901526146ba838261454e565b92505050608080830151818801525060a080830151925086820381880152506146e3818361454e565b9a87019a955050509084019060010161464b565b5091979650505050505050565b848152836020820152608060408201526000835160e0608084015261472d61016084018261454e565b90506020850151607f19808584030160a086015261474b838361454e565b925061ffff60408801511660c086015260608701519150808584030160e0860152614776838361454e565b92506080870151915061479061010086018361ffff169052565b60a087015191508085840301610120860152506147ad828261454e565b91505060c08501516101408401528281036060840152610c13818561462d565b600080604083850312156147e057600080fd5b82356147eb81613f73565b915060208301356147fb81614357565b809150509250929050565b600060e0828403121561481857600080fd5b614820614199565b905081356001600160401b038082111561483957600080fd5b6148458583860161423d565b8352602084013591508082111561485b57600080fd5b6148678583860161423d565b602084015261487860408501614367565b6040840152606084013591508082111561489157600080fd5b61489d8583860161423d565b60608401526148ae60808501614367565b608084015260a08401359150808211156148c757600080fd5b506148d48482850161423d565b60a08301525060c082013560c082015292915050565b60006001600160401b0382111561490357614903614113565b5060051b60200190565b6000614918836148ea565b60408051614926838261416d565b858152925060208084019250600586901b8501908782111561494757600080fd5b855b82811015614a535780356001600160401b03808211156149695760008081fd5b9088019060c0828c03121561497e5760008081fd5b6149866141a8565b8235828111156149965760008081fd5b6149a28d82860161423d565b82525084830135828111156149b75760008081fd5b6149c38d82860161423d565b868301525086830135828111156149da5760008081fd5b6149e68d82860161423d565b8883015250606080840135838111156149ff5760008081fd5b614a0b8e82870161423d565b828401525050608080840135818301525060a08084013583811115614a305760008081fd5b614a3c8e82870161423d565b918301919091525087525050938101938101614949565b50505050509392505050565b60008060008060808587031215614a7557600080fd5b843593506020850135925060408501356001600160401b0380821115614a9a57600080fd5b614aa688838901614806565b93506060870135915080821115614abc57600080fd5b508501601f81018713614ace57600080fd5b614add8782356020840161490d565b91505092959194509250565b60006122003683614806565b6000610d9436848461490d565b634e487b7160e01b600052603260045260246000fd5b80518252602081015160018060a01b0380821660208501526040830151915061ffff8083166040860152816060850151166060860152806080850151166080860152508060a08401511660a0850152505060c081015160c08301525050565b6000610100808301614b898487614b18565b60e084019190915283519081905261012080840191600581901b850190910190602080870160005b83811015614c305787850361011f19018652815180516001600160a01b03908116875284820151811685880152604080830151821690880152606080830151909116908701526080808201519087015260a09081015160c091870182905290614c1c8188018361454e565b978501979650505090820190600101614bb1565b509298975050505050505050565b600060208284031215614c5057600080fd5b5051919050565b634e487b7160e01b600052601160045260246000fd5b600082821015614c7f57614c7f614c57565b500390565b61014080825260089082015267576f726d686f6c6560c01b610160820152831515602082015282151560408201526101808101610b566060830184614b18565b600060208284031215614cd657600080fd5b8151610d9481613f73565b600060208284031215614cf357600080fd5b8135610d9481614357565b8051801515811461362257600080fd5b60008060408385031215614d2157600080fd5b82519150614d3160208401614cfe565b90509250929050565b6000823560be19833603018112614d5057600080fd5b9190910192915050565b600060208284031215614d6c57600080fd5b8135610d9481613f73565b805160ff8116811461362257600080fd5b805163ffffffff8116811461362257600080fd5b805161362281614357565b80516001600160401b038116811461362257600080fd5b6000614dc983614216565b604051614dd6828261416d565b809250848152858585011115614deb57600080fd5b614df9856020830186614522565b50509392505050565b600082601f830112614e1357600080fd5b610d9483835160208501614dbe565b600082601f830112614e3357600080fd5b81516020614e40826148ea565b60408051614e4e838261416d565b84815260079490941b8601830193838101925087851115614e6e57600080fd5b8387015b85811015614ed0576080818a031215614e8b5760008081fd5b8251614e968161414e565b815181528582015186820152614ead848301614d77565b848201526060614ebe818401614d77565b90820152845292840192608001614e72565b50979650505050505050565b600060208284031215614eee57600080fd5b81516001600160401b0380821115614f0557600080fd5b908301906101608286031215614f1a57600080fd5b614f226141d0565b614f2b83614d77565b8152614f3960208401614d88565b6020820152614f4a60408401614d88565b6040820152614f5b60608401614d9c565b606082015260808301516080820152614f7660a08401614da7565b60a0820152614f8760c08401614d77565b60c082015260e083015182811115614f9e57600080fd5b614faa87828601614e02565b60e083015250610100614fbe818501614d88565b908201526101208381015183811115614fd657600080fd5b614fe288828701614e22565b91830191909152506101409283015192810192909252509392505050565b60006020828403121561501257600080fd5b81516001600160401b038082111561502957600080fd5b90830190610100828603121561503e57600080fd5b6150466141f3565b61504f83614d77565b8152602083015160208201526040830151604082015261507160608401614d9c565b60608201526080830151608082015261508c60a08401614d9c565b60a082015260c083015160c082015260e0830151828111156150ad57600080fd5b6150b987828601614e02565b60e08301525095945050505050565b61ffff60f01b8660f01b1681528460028201528360228201526001600160401b0360c01b8360c01b1660428201526000825161510b81604a850160208701614522565b91909101604a019695505050505050565b6000821982111561512f5761512f614c57565b500190565b6020808252600c908201526b2632b733ba341032b93937b960a11b604082015260600190565b6000808335601e1984360301811261517157600080fd5b8301803591506001600160401b0382111561518b57600080fd5b60200191503681900382131561404257600080fd5b86815285602082015260006001600160401b0360c01b808760c01b16604084015285516151d4816048860160208a01614522565b8084019050818660c01b166048820152845191506151f9826050830160208801614522565b0160500198975050505050505050565b60006020828403121561521b57600080fd5b81516001600160401b0381111561523157600080fd5b610b5684828501614e02565b60006020828403121561524f57600080fd5b8151610d9481614357565b6001600160a01b038681168252851660208201526040810184905260608101839052610160810161528e6080830184614b18565b9695505050505050565b6040815260006152ab604083018561454e565b90508260208301529392505050565b600060033d11156141a55760046000803e5060005160e01c90565b600060443d10156152e35790565b6040516003193d81016004833e81513d6001600160401b03816024840111818411171561531257505050505090565b828501915081518181111561532a5750505050505090565b843d87010160208285010111156153445750505050505090565b6153536020828601018761416d565b509095945050505050565b60006101208083526153728184018761454e565b90508281036020840152615386818661454e565b915050610b566040830184614b18565b6000610120808352600081840152506101408060208401526153ba8184018661454e565b915050610d946040830184614b18565b6000600182016153dc576153dc614c57565b5060010190565b61ffff8516815283602082015263ffffffff8316604082015260806060820152600061528e608083018461454e565b60006020828403121561542457600080fd5b610d9482614da7565b60018060a01b038716815285602082015261ffff8516604082015283606082015263ffffffff8316608082015260c060a0820152600061547060c083018461454e565b98975050505050505050565b600081600019048311821515161561549657615496614c57565b500290565b6000826154b857634e487b7160e01b600052601260045260246000fd5b500490565b600060c082360312156154cf57600080fd5b60405160c081016001600160401b0382821081831117156154f2576154f2614113565b816040528435915061550382613f73565b81835261551260208601613f88565b602084015261552360408601613f88565b604084015261553460608601613f88565b60608401526080850135608084015260a085013591508082111561555757600080fd5b506155643682860161423d565b60a08301525092915050565b80516020808301519190811015613ff85760001960209190910360031b1b16919050565b60006001600160401b0360c01b808860c01b16835286516155bc816008860160208b01614522565b8084019050818760c01b166008820152855191506155e1826010830160208901614522565b60f09490941b6001600160f01b031916601094909101938401525050601201949350505050565b60006001600160401b0360c01b808960c01b1683528751615630816008860160208c01614522565b60f088901b6001600160f01b03191660089185019182015260c087901b909116600a820152845190615669826012830160208901614522565b016012810193909352505060320195945050505050565b60006001600160401b0360c01b808960c01b16835287516156a8816008860160208c01614522565b8084019050818860c01b16600882015286516156cb816010840160208b01614522565b808201915050818660c01b166010820152845191506156f1826018830160208801614522565b0160180198975050505050505050565b60006001600160401b0360c01b808860c01b1683528651615729816008860160208b01614522565b8084019050866008820152818660c01b16602882015284519150615754826030830160208801614522565b01603001979650505050505050565b60008351615775818460208801614522565b6001600160f81b0319939093169190920190815260010192915050565b60008251614d50818460208701614522565b6000602082840312156157b657600080fd5b81516001600160401b038111156157cc57600080fd5b8201601f810184136157dd57600080fd5b610b5684825160208401614dbe565b6000602082840312156157fe57600080fd5b610d9482614cfe56fed4ca4302bca26785486b2ceec787497a9cf992c36dcf57c306a00c1f88154623a2646970667358221220a6ca677d75fb43aad0a271cab7088d4dd949db02a4dd822215d170ba6b5ee9e764736f6c634300080d0033",
  "bytecodeSha1": "39df4dda87646db2a839b1990dccef9fdb21dddc",
  "compiler": {
    "evm_version": "istanbul",
    "optimizer": {
      "enabled": true,
      "runs": 200
    },
    "version": "0.8.13+commit.abaa5c0e"
  },
  "contractName": "WormholeFacet",
  "language": "Solidity",
  "natspec": {
    "author": "OmniBTC",
    "kind": "dev",
    "methods": {
      "completeSoSwap(bytes)": {
        "notice": "complete transfer with payload called by relayer"
      },
      "deposit(address,address,uint256)": {
        "details": "Convert to wrapped eth. As long as it is successful, it must be converted from the currentAssetId to the expectedAssetId of the amount"
      },
      "executeAndCheckSwaps((bytes32,address,uint16,address,uint16,address,uint256),(address,address,address,address,uint256,bytes)[])": {
        "details": "Validates input before executing swaps",
        "params": {
          "_soData": "So tracking data",
          "_swapData": "Array of data used to execute swaps"
        }
      },
      "getMaxGasAndPrice(bytes)": {
        "details": "decode signedVAA to get max gas and price for relayer"
      },
      "getSoFee(uint256)": {
        "details": "Get so fee"
      },
      "initWormhole(address,uint16)": {
        "notice": "init wormhole token bridge"
      },
      "soSwapViaWormhole((bytes,bytes,uint16,bytes,uint16,bytes,uint256),(bytes,bytes,bytes,bytes,uint256,bytes)[],(uint16,uint256,uint256,bytes),(bytes,bytes,bytes,bytes,uint256,bytes)[])": {
        "notice": "transfer with payload"
      },
      "withdraw(address,address,uint256,address)": {
        "details": "Convert wrapped eth to eth and Transfer."
      }
    },
    "notice": "Provides functionality for bridging through Wormhole",
    "title": "Wormhole Facet",
    "version": 1
  },
  "opcodes": "PUSH1 0x80 PUSH1 0x40 MSTORE PUSH1 0x4 CALLDATASIZE LT PUSH2 0x12A JUMPI PUSH1 0x0 CALLDATALOAD PUSH1 0xE0 SHR DUP1 PUSH4 0x552033C4 GT PUSH2 0xAB JUMPI DUP1 PUSH4 0xAE6AB3E5 GT PUSH2 0x6F JUMPI DUP1 PUSH4 0xAE6AB3E5 EQ PUSH2 0x33B JUMPI DUP1 PUSH4 0xB91DFDD6 EQ PUSH2 0x35B JUMPI DUP1 PUSH4 0xC3F511C1 EQ PUSH2 0x164 JUMPI DUP1 PUSH4 0xD316CEFE EQ PUSH2 0x38B JUMPI DUP1 PUSH4 0xD8B886F3 EQ PUSH2 0x3AB JUMPI DUP1 PUSH4 0xE0718403 EQ PUSH2 0x3CB JUMPI PUSH1 0x0 DUP1 REVERT JUMPDEST DUP1 PUSH4 0x552033C4 EQ PUSH2 0x26C JUMPI DUP1 PUSH4 0x740DC2B6 EQ PUSH2 0x28C JUMPI DUP1 PUSH4 0x8340F549 EQ PUSH2 0x2B9 JUMPI DUP1 PUSH4 0x8F66F150 EQ PUSH2 0x2CC JUMPI DUP1 PUSH4 0x8F6D817A EQ PUSH2 0x2F9 JUMPI PUSH1 0x0 DUP1 REVERT JUMPDEST DUP1 PUSH4 0x272838B8 GT PUSH2 0xF2 JUMPI DUP1 PUSH4 0x272838B8 EQ PUSH2 0x1CC JUMPI DUP1 PUSH4 0x3620A2B8 EQ PUSH2 0x1EC JUMPI DUP1 PUSH4 0x3729E48C EQ PUSH2 0x20C JUMPI DUP1 PUSH4 0x3E76730F EQ PUSH2 0x22C JUMPI DUP1 PUSH4 0x519EF92E EQ PUSH2 0x24C JUMPI PUSH1 0x0 DUP1 REVERT JUMPDEST DUP1 PUSH4 0xE917F76 EQ PUSH2 0x12F JUMPI DUP1 PUSH4 0x1C4469A9 EQ PUSH2 0x151 JUMPI DUP1 PUSH4 0x1C8475E4 EQ PUSH2 0x164 JUMPI DUP1 PUSH4 0x22DFBEE5 EQ PUSH2 0x184 JUMPI DUP1 PUSH4 0x23E7AF5D EQ PUSH2 0x1AC JUMPI JUMPDEST PUSH1 0x0 DUP1 REVERT JUMPDEST CALLVALUE DUP1 ISZERO PUSH2 0x13B JUMPI PUSH1 0x0 DUP1 REVERT JUMPDEST POP PUSH2 0x14F PUSH2 0x14A CALLDATASIZE PUSH1 0x4 PUSH2 0x3F93 JUMP JUMPDEST PUSH2 0x3EB JUMP JUMPDEST STOP JUMPDEST PUSH2 0x14F PUSH2 0x15F CALLDATASIZE PUSH1 0x4 PUSH2 0x405B JUMP JUMPDEST PUSH2 0x56F JUMP JUMPDEST CALLVALUE DUP1 ISZERO PUSH2 0x170 JUMPI PUSH1 0x0 DUP1 REVERT JUMPDEST POP PUSH2 0x14F PUSH2 0x17F CALLDATASIZE PUSH1 0x4 PUSH2 0x4299 JUMP JUMPDEST PUSH2 0x8F5 JUMP JUMPDEST CALLVALUE DUP1 ISZERO PUSH2 0x190 JUMPI PUSH1 0x0 DUP1 REVERT JUMPDEST POP PUSH2 0x199 PUSH2 0x901 JUMP JUMPDEST PUSH1 0x40 MLOAD SWAP1 DUP2 MSTORE PUSH1 0x20 ADD JUMPDEST PUSH1 0x40 MLOAD DUP1 SWAP2 SUB SWAP1 RETURN JUMPDEST CALLVALUE DUP1 ISZERO PUSH2 0x1B8 JUMPI PUSH1 0x0 DUP1 REVERT JUMPDEST POP PUSH2 0x199 PUSH2 0x1C7 CALLDATASIZE PUSH1 0x4 PUSH2 0x42CD JUMP JUMPDEST PUSH2 0x9E5 JUMP JUMPDEST CALLVALUE DUP1 ISZERO PUSH2 0x1D8 JUMPI PUSH1 0x0 DUP1 REVERT JUMPDEST POP PUSH2 0x199 PUSH2 0x1E7 CALLDATASIZE PUSH1 0x4 PUSH2 0x42CD JUMP JUMPDEST PUSH2 0xB5E JUMP JUMPDEST CALLVALUE DUP1 ISZERO PUSH2 0x1F8 JUMPI PUSH1 0x0 DUP1 REVERT JUMPDEST POP PUSH2 0x14F PUSH2 0x207 CALLDATASIZE PUSH1 0x4 PUSH2 0x4372 JUMP JUMPDEST PUSH2 0xC1E JUMP JUMPDEST CALLVALUE DUP1 ISZERO PUSH2 0x218 JUMPI PUSH1 0x0 DUP1 REVERT JUMPDEST POP PUSH2 0x199 PUSH2 0x227 CALLDATASIZE PUSH1 0x4 PUSH2 0x43A7 JUMP JUMPDEST PUSH2 0xCDA JUMP JUMPDEST CALLVALUE DUP1 ISZERO PUSH2 0x238 JUMPI PUSH1 0x0 DUP1 REVERT JUMPDEST POP PUSH2 0x199 PUSH2 0x247 CALLDATASIZE PUSH1 0x4 PUSH2 0x4299 JUMP JUMPDEST PUSH2 0xD9B JUMP JUMPDEST CALLVALUE DUP1 ISZERO PUSH2 0x258 JUMPI PUSH1 0x0 DUP1 REVERT JUMPDEST POP PUSH2 0x199 PUSH2 0x267 CALLDATASIZE PUSH1 0x4 PUSH2 0x4470 JUMP JUMPDEST PUSH2 0xF25 JUMP JUMPDEST CALLVALUE DUP1 ISZERO PUSH2 0x278 JUMPI PUSH1 0x0 DUP1 REVERT JUMPDEST POP PUSH2 0x199 PUSH12 0x33B2E3C9FD0803CE8000000 DUP2 JUMP JUMPDEST CALLVALUE DUP1 ISZERO PUSH2 0x298 JUMPI PUSH1 0x0 DUP1 REVERT JUMPDEST POP PUSH2 0x2AC PUSH2 0x2A7 CALLDATASIZE PUSH1 0x4 PUSH2 0x4489 JUMP JUMPDEST PUSH2 0xFCC JUMP JUMPDEST PUSH1 0x40 MLOAD PUSH2 0x1A3 SWAP2 SWAP1 PUSH2 0x457A JUMP JUMPDEST PUSH2 0x14F PUSH2 0x2C7 CALLDATASIZE PUSH1 0x4 PUSH2 0x458D JUMP JUMPDEST PUSH2 0x100A JUMP JUMPDEST CALLVALUE DUP1 ISZERO PUSH2 0x2D8 JUMPI PUSH1 0x0 DUP1 REVERT JUMPDEST POP PUSH2 0x2EC PUSH2 0x2E7 CALLDATASIZE PUSH1 0x4 PUSH2 0x4299 JUMP JUMPDEST PUSH2 0x124C JUMP JUMPDEST PUSH1 0x40 MLOAD PUSH2 0x1A3 SWAP2 SWAP1 PUSH2 0x45CE JUMP JUMPDEST CALLVALUE DUP1 ISZERO PUSH2 0x305 JUMPI PUSH1 0x0 DUP1 REVERT JUMPDEST POP PUSH2 0x319 PUSH2 0x314 CALLDATASIZE PUSH1 0x4 PUSH2 0x42CD JUMP JUMPDEST PUSH2 0x136F JUMP JUMPDEST PUSH1 0x40 DUP1 MLOAD SWAP5 ISZERO ISZERO DUP6 MSTORE PUSH1 0x20 DUP6 ADD SWAP4 SWAP1 SWAP4 MSTORE SWAP2 DUP4 ADD MSTORE PUSH1 0x60 DUP3 ADD MSTORE PUSH1 0x80 ADD PUSH2 0x1A3 JUMP JUMPDEST CALLVALUE DUP1 ISZERO PUSH2 0x347 JUMPI PUSH1 0x0 DUP1 REVERT JUMPDEST POP PUSH2 0x14F PUSH2 0x356 CALLDATASIZE PUSH1 0x4 PUSH2 0x460B JUMP JUMPDEST PUSH2 0x16D3 JUMP JUMPDEST CALLVALUE DUP1 ISZERO PUSH2 0x367 JUMPI PUSH1 0x0 DUP1 REVERT JUMPDEST POP PUSH2 0x37B PUSH2 0x376 CALLDATASIZE PUSH1 0x4 PUSH2 0x4299 JUMP JUMPDEST PUSH2 0x1772 JUMP JUMPDEST PUSH1 0x40 MLOAD PUSH2 0x1A3 SWAP5 SWAP4 SWAP3 SWAP2 SWAP1 PUSH2 0x4704 JUMP JUMPDEST CALLVALUE DUP1 ISZERO PUSH2 0x397 JUMPI PUSH1 0x0 DUP1 REVERT JUMPDEST POP PUSH2 0x14F PUSH2 0x3A6 CALLDATASIZE PUSH1 0x4 PUSH2 0x47CD JUMP JUMPDEST PUSH2 0x189E JUMP JUMPDEST CALLVALUE DUP1 ISZERO PUSH2 0x3B7 JUMPI PUSH1 0x0 DUP1 REVERT JUMPDEST POP PUSH2 0x2AC PUSH2 0x3C6 CALLDATASIZE PUSH1 0x4 PUSH2 0x4A5F JUMP JUMPDEST PUSH2 0x1919 JUMP JUMPDEST CALLVALUE DUP1 ISZERO PUSH2 0x3D7 JUMPI PUSH1 0x0 DUP1 REVERT JUMPDEST POP PUSH2 0x14F PUSH2 0x3E6 CALLDATASIZE PUSH1 0x4 PUSH2 0x4299 JUMP JUMPDEST PUSH2 0x196D JUMP JUMPDEST PUSH1 0x1 PUSH1 0x1 PUSH1 0xA0 SHL SUB DUP4 AND PUSH2 0x4AB JUMPI DUP3 PUSH1 0x1 PUSH1 0x1 PUSH1 0xA0 SHL SUB AND DUP5 PUSH1 0x1 PUSH1 0x1 PUSH1 0xA0 SHL SUB AND EQ PUSH2 0x4A6 JUMPI PUSH1 0x40 MLOAD PUSH4 0x2E1A7D4D PUSH1 0xE0 SHL DUP2 MSTORE PUSH1 0x4 DUP2 ADD DUP4 SWAP1 MSTORE PUSH1 0x1 PUSH1 0x1 PUSH1 0xA0 SHL SUB DUP6 AND SWAP1 PUSH4 0x2E1A7D4D SWAP1 PUSH1 0x24 ADD PUSH1 0x0 PUSH1 0x40 MLOAD DUP1 DUP4 SUB DUP2 PUSH1 0x0 DUP8 DUP1 EXTCODESIZE ISZERO DUP1 ISZERO PUSH2 0x454 JUMPI PUSH1 0x0 DUP1 REVERT JUMPDEST POP GAS CALL SWAP3 POP POP POP DUP1 ISZERO PUSH2 0x465 JUMPI POP PUSH1 0x1 JUMPDEST PUSH2 0x4A6 JUMPI PUSH1 0x40 MLOAD PUSH3 0x461BCD PUSH1 0xE5 SHL DUP2 MSTORE PUSH1 0x20 PUSH1 0x4 DUP3 ADD MSTORE PUSH1 0xD PUSH1 0x24 DUP3 ADD MSTORE PUSH13 0x15DA5D1A191C985DC819985A5B PUSH1 0x9A SHL PUSH1 0x44 DUP3 ADD MSTORE PUSH1 0x64 ADD JUMPDEST PUSH1 0x40 MLOAD DUP1 SWAP2 SUB SWAP1 REVERT JUMPDEST PUSH2 0x500 JUMP JUMPDEST DUP3 PUSH1 0x1 PUSH1 0x1 PUSH1 0xA0 SHL SUB AND DUP5 PUSH1 0x1 PUSH1 0x1 PUSH1 0xA0 SHL SUB AND EQ PUSH2 0x500 JUMPI PUSH1 0x40 MLOAD PUSH3 0x461BCD PUSH1 0xE5 SHL DUP2 MSTORE PUSH1 0x20 PUSH1 0x4 DUP3 ADD MSTORE PUSH1 0x11 PUSH1 0x24 DUP3 ADD MSTORE PUSH17 0x82E6E6CAE892C840DCDEE840DAC2E8C6D PUSH1 0x7B SHL PUSH1 0x44 DUP3 ADD MSTORE PUSH1 0x64 ADD PUSH2 0x49D JUMP JUMPDEST PUSH1 0x1 PUSH1 0x1 PUSH1 0xA0 SHL SUB DUP2 AND ADDRESS EQ PUSH2 0x569 JUMPI DUP2 PUSH2 0x51A DUP5 PUSH2 0x2180 JUMP JUMPDEST LT ISZERO PUSH2 0x55E JUMPI PUSH1 0x40 MLOAD PUSH3 0x461BCD PUSH1 0xE5 SHL DUP2 MSTORE PUSH1 0x20 PUSH1 0x4 DUP3 ADD MSTORE PUSH1 0x13 PUSH1 0x24 DUP3 ADD MSTORE PUSH19 0xAED2E8D0C8E4C2EE40DCDEE840CADCDEEACED PUSH1 0x6B SHL PUSH1 0x44 DUP3 ADD MSTORE PUSH1 0x64 ADD PUSH2 0x49D JUMP JUMPDEST PUSH2 0x569 DUP4 DUP3 DUP5 PUSH2 0x2206 JUMP JUMPDEST POP POP POP POP JUMP JUMPDEST DUP3 PUSH1 0x40 ADD CALLDATALOAD CALLVALUE EQ PUSH2 0x5AE JUMPI PUSH1 0x40 MLOAD PUSH3 0x461BCD PUSH1 0xE5 SHL DUP2 MSTORE PUSH1 0x20 PUSH1 0x4 DUP3 ADD MSTORE PUSH1 0x9 PUSH1 0x24 DUP3 ADD MSTORE PUSH9 0x2332B29032B93937B9 PUSH1 0xB9 SHL PUSH1 0x44 DUP3 ADD MSTORE PUSH1 0x64 ADD PUSH2 0x49D JUMP JUMPDEST PUSH2 0x60C PUSH1 0x40 MLOAD DUP1 PUSH2 0x120 ADD PUSH1 0x40 MSTORE DUP1 PUSH1 0x0 ISZERO ISZERO DUP2 MSTORE PUSH1 0x20 ADD PUSH1 0x0 DUP2 MSTORE PUSH1 0x20 ADD PUSH1 0x0 ISZERO ISZERO DUP2 MSTORE PUSH1 0x20 ADD PUSH1 0x0 ISZERO ISZERO DUP2 MSTORE PUSH1 0x20 ADD PUSH1 0x0 DUP2 MSTORE PUSH1 0x20 ADD PUSH1 0x0 PUSH1 0x1 PUSH1 0x1 PUSH1 0xA0 SHL SUB AND DUP2 MSTORE PUSH1 0x20 ADD PUSH1 0x0 DUP2 MSTORE PUSH1 0x20 ADD PUSH1 0x0 DUP2 MSTORE PUSH1 0x20 ADD PUSH1 0x60 DUP2 MSTORE POP SWAP1 JUMP JUMPDEST PUSH1 0x0 PUSH2 0x61F PUSH2 0x61A DUP10 PUSH2 0x4AE9 JUMP JUMPDEST PUSH2 0x222A JUMP JUMPDEST SWAP1 POP PUSH1 0x0 PUSH2 0x635 PUSH2 0x630 DUP9 DUP11 PUSH2 0x4AF5 JUMP JUMPDEST PUSH2 0x2309 JUMP JUMPDEST SWAP1 POP PUSH2 0x643 DUP10 DUP8 DUP8 DUP8 PUSH2 0x136F JUMP JUMPDEST PUSH1 0xE0 DUP8 ADD MSTORE PUSH1 0xC0 DUP7 ADD MSTORE PUSH1 0x20 DUP6 ADD MSTORE ISZERO ISZERO DUP1 DUP5 MSTORE PUSH2 0x690 JUMPI PUSH1 0x40 MLOAD PUSH3 0x461BCD PUSH1 0xE5 SHL DUP2 MSTORE PUSH1 0x20 PUSH1 0x4 DUP3 ADD MSTORE PUSH1 0xA PUSH1 0x24 DUP3 ADD MSTORE PUSH10 0x10DA1958DAC819985A5B PUSH1 0xB2 SHL PUSH1 0x44 DUP3 ADD MSTORE PUSH1 0x64 ADD PUSH2 0x49D JUMP JUMPDEST PUSH1 0xC0 DUP4 ADD MLOAD ISZERO PUSH2 0x6AA JUMPI PUSH2 0x6AA PUSH1 0x0 CALLER DUP6 PUSH1 0xC0 ADD MLOAD PUSH2 0x2206 JUMP JUMPDEST PUSH1 0x20 DUP4 ADD MLOAD ISZERO PUSH2 0x6CB JUMPI PUSH2 0x6CB PUSH1 0x0 PUSH2 0x6C1 PUSH2 0x25CC JUMP JUMPDEST DUP6 PUSH1 0x20 ADD MLOAD PUSH2 0x2206 JUMP JUMPDEST PUSH1 0x60 DUP3 ADD MLOAD PUSH1 0x1 PUSH1 0x1 PUSH1 0xA0 SHL SUB AND ISZERO PUSH2 0x6F0 JUMPI PUSH2 0x6F0 DUP3 PUSH1 0x60 ADD MLOAD DUP4 PUSH1 0xC0 ADD MLOAD PUSH2 0x25FA JUMP JUMPDEST DUP1 MLOAD PUSH1 0x0 SUB PUSH2 0x722 JUMPI PUSH1 0x60 DUP3 ADD MLOAD PUSH1 0x1 PUSH1 0x1 PUSH1 0xA0 SHL SUB AND PUSH1 0xA0 DUP5 ADD MSTORE PUSH1 0xC0 DUP3 ADD MLOAD PUSH1 0x80 DUP5 ADD MSTORE PUSH1 0x0 PUSH1 0x40 DUP5 ADD MSTORE PUSH2 0x856 JUMP JUMPDEST DUP1 PUSH1 0x0 DUP2 MLOAD DUP2 LT PUSH2 0x735 JUMPI PUSH2 0x735 PUSH2 0x4B02 JUMP JUMPDEST PUSH1 0x20 MUL PUSH1 0x20 ADD ADD MLOAD PUSH1 0x80 ADD MLOAD DUP3 PUSH1 0xC0 ADD MLOAD EQ PUSH2 0x7A4 JUMPI PUSH1 0x40 MLOAD PUSH3 0x461BCD PUSH1 0xE5 SHL DUP2 MSTORE PUSH1 0x20 PUSH1 0x4 DUP3 ADD MSTORE PUSH1 0x28 PUSH1 0x24 DUP3 ADD MSTORE PUSH32 0x736F4461746120616E6420737761704461746153726320616D6F756E74206E6F PUSH1 0x44 DUP3 ADD MSTORE PUSH8 0x74206D6174636821 PUSH1 0xC0 SHL PUSH1 0x64 DUP3 ADD MSTORE PUSH1 0x84 ADD PUSH2 0x49D JUMP JUMPDEST PUSH1 0x40 MLOAD PUSH4 0xDCA7923 PUSH1 0xE2 SHL DUP2 MSTORE ADDRESS SWAP1 PUSH4 0x3729E48C SWAP1 PUSH2 0x7C9 SWAP1 DUP6 SWAP1 DUP6 SWAP1 PUSH1 0x4 ADD PUSH2 0x4B77 JUMP JUMPDEST PUSH1 0x20 PUSH1 0x40 MLOAD DUP1 DUP4 SUB DUP2 PUSH1 0x0 DUP8 GAS CALL ISZERO DUP1 ISZERO PUSH2 0x7E8 JUMPI RETURNDATASIZE PUSH1 0x0 DUP1 RETURNDATACOPY RETURNDATASIZE PUSH1 0x0 REVERT JUMPDEST POP POP POP POP PUSH1 0x40 MLOAD RETURNDATASIZE PUSH1 0x1F NOT PUSH1 0x1F DUP3 ADD AND DUP3 ADD DUP1 PUSH1 0x40 MSTORE POP DUP2 ADD SWAP1 PUSH2 0x80C SWAP2 SWAP1 PUSH2 0x4C3E JUMP JUMPDEST PUSH1 0x80 DUP5 ADD MSTORE DUP1 MLOAD DUP2 SWAP1 PUSH2 0x821 SWAP1 PUSH1 0x1 SWAP1 PUSH2 0x4C6D JUMP JUMPDEST DUP2 MLOAD DUP2 LT PUSH2 0x831 JUMPI PUSH2 0x831 PUSH2 0x4B02 JUMP JUMPDEST PUSH1 0x20 SWAP1 DUP2 MUL SWAP2 SWAP1 SWAP2 ADD ADD MLOAD PUSH1 0x60 ADD MLOAD PUSH1 0x1 PUSH1 0x1 PUSH1 0xA0 SHL SUB AND PUSH1 0xA0 DUP5 ADD MSTORE PUSH1 0x1 PUSH1 0x40 DUP5 ADD MSTORE JUMPDEST PUSH2 0x877 DUP7 PUSH1 0x20 ADD CALLDATALOAD DUP5 PUSH1 0xE0 ADD MLOAD DUP12 PUSH2 0x86D SWAP1 PUSH2 0x4AE9 JUMP JUMPDEST PUSH2 0x3C6 DUP9 DUP11 PUSH2 0x4AF5 JUMP JUMPDEST PUSH2 0x100 DUP5 ADD MSTORE DUP1 MLOAD ISZERO PUSH2 0x88C JUMPI PUSH1 0x1 PUSH1 0x60 DUP5 ADD MSTORE JUMPDEST PUSH2 0x8A5 DUP7 DUP5 PUSH1 0xA0 ADD MLOAD DUP6 PUSH1 0x80 ADD MLOAD DUP7 PUSH2 0x100 ADD MLOAD PUSH2 0x2613 JUMP JUMPDEST DUP2 MLOAD PUSH1 0x40 DUP1 DUP6 ADD MLOAD PUSH1 0x60 DUP7 ADD MLOAD SWAP2 MLOAD PUSH32 0xD607BEEC64347603C47A525384AB8775ED922F603ECC4098B512A2650D142A6D SWAP3 PUSH2 0x8E2 SWAP3 SWAP2 DUP8 SWAP1 PUSH2 0x4C84 JUMP JUMPDEST PUSH1 0x40 MLOAD DUP1 SWAP2 SUB SWAP1 LOG2 POP POP POP POP POP POP POP POP POP JUMP JUMPDEST PUSH2 0x8FE DUP2 PUSH2 0x196D JUMP JUMPDEST POP JUMP JUMPDEST PUSH1 0x0 DUP1 MLOAD PUSH1 0x20 PUSH2 0x5808 DUP4 CODECOPY DUP2 MLOAD SWAP2 MSTORE DUP1 SLOAD PUSH1 0x40 DUP1 MLOAD PUSH4 0x84ACD1BB PUSH1 0xE0 SHL DUP2 MSTORE SWAP1 MLOAD PUSH1 0x0 SWAP4 SWAP3 PUSH1 0x1 PUSH1 0x1 PUSH1 0xA0 SHL SUB AND SWAP2 PUSH4 0x84ACD1BB SWAP2 PUSH1 0x4 DUP1 DUP4 ADD SWAP3 PUSH1 0x20 SWAP3 SWAP2 SWAP1 DUP3 SWAP1 SUB ADD DUP2 DUP7 GAS STATICCALL ISZERO DUP1 ISZERO PUSH2 0x95A JUMPI RETURNDATASIZE PUSH1 0x0 DUP1 RETURNDATACOPY RETURNDATASIZE PUSH1 0x0 REVERT JUMPDEST POP POP POP POP PUSH1 0x40 MLOAD RETURNDATASIZE PUSH1 0x1F NOT PUSH1 0x1F DUP3 ADD AND DUP3 ADD DUP1 PUSH1 0x40 MSTORE POP DUP2 ADD SWAP1 PUSH2 0x97E SWAP2 SWAP1 PUSH2 0x4CC4 JUMP JUMPDEST PUSH1 0x1 PUSH1 0x1 PUSH1 0xA0 SHL SUB AND PUSH4 0x1A90A219 PUSH1 0x40 MLOAD DUP2 PUSH4 0xFFFFFFFF AND PUSH1 0xE0 SHL DUP2 MSTORE PUSH1 0x4 ADD PUSH1 0x20 PUSH1 0x40 MLOAD DUP1 DUP4 SUB DUP2 DUP7 GAS STATICCALL ISZERO DUP1 ISZERO PUSH2 0x9BB JUMPI RETURNDATASIZE PUSH1 0x0 DUP1 RETURNDATACOPY RETURNDATASIZE PUSH1 0x0 REVERT JUMPDEST POP POP POP POP PUSH1 0x40 MLOAD RETURNDATASIZE PUSH1 0x1F NOT PUSH1 0x1F DUP3 ADD AND DUP3 ADD DUP1 PUSH1 0x40 MSTORE POP DUP2 ADD SWAP1 PUSH2 0x9DF SWAP2 SWAP1 PUSH2 0x4C3E JUMP JUMPDEST SWAP2 POP POP SWAP1 JUMP JUMPDEST PUSH1 0x0 DUP1 PUSH1 0x0 DUP1 MLOAD PUSH1 0x20 PUSH2 0x5808 DUP4 CODECOPY DUP2 MLOAD SWAP2 MSTORE DUP1 SLOAD PUSH1 0x1 PUSH1 0x1 PUSH1 0xA0 SHL SUB SWAP1 DUP2 AND PUSH1 0x0 SWAP1 DUP2 MSTORE PUSH1 0x3 PUSH1 0x20 SWAP1 DUP2 MSTORE PUSH1 0x40 DUP3 KECCAK256 SLOAD SWAP4 SWAP5 POP SWAP3 SWAP1 SWAP2 AND SWAP2 DUP3 SWAP1 PUSH4 0xB0CB3F4F SWAP1 PUSH2 0xA31 SWAP1 DUP11 ADD DUP11 PUSH2 0x4CE1 JUMP JUMPDEST PUSH1 0x40 MLOAD PUSH1 0x1 PUSH1 0x1 PUSH1 0xE0 SHL SUB NOT PUSH1 0xE0 DUP5 SWAP1 SHL AND DUP2 MSTORE PUSH2 0xFFFF SWAP1 SWAP2 AND PUSH1 0x4 DUP3 ADD MSTORE PUSH1 0x24 ADD PUSH1 0x40 DUP1 MLOAD DUP1 DUP4 SUB DUP2 DUP7 GAS STATICCALL ISZERO DUP1 ISZERO PUSH2 0xA6F JUMPI RETURNDATASIZE PUSH1 0x0 DUP1 RETURNDATACOPY RETURNDATASIZE PUSH1 0x0 REVERT JUMPDEST POP POP POP POP PUSH1 0x40 MLOAD RETURNDATASIZE PUSH1 0x1F NOT PUSH1 0x1F DUP3 ADD AND DUP3 ADD DUP1 PUSH1 0x40 MSTORE POP DUP2 ADD SWAP1 PUSH2 0xA93 SWAP2 SWAP1 PUSH2 0x4D0E JUMP JUMPDEST POP SWAP1 POP PUSH1 0x0 PUSH2 0xAA4 DUP10 DUP10 DUP10 DUP10 PUSH2 0xB5E JUMP JUMPDEST SWAP1 POP PUSH1 0x0 PUSH2 0xAB6 DUP3 PUSH1 0x20 DUP12 ADD CALLDATALOAD PUSH2 0x2890 JUMP JUMPDEST SWAP1 POP PUSH1 0x0 PUSH2 0xB4D PUSH12 0x33B2E3C9FD0803CE8000000 PUSH2 0xB41 DUP9 PUSH1 0x2 ADD SLOAD PUSH2 0xB47 DUP10 PUSH1 0x1 PUSH1 0x1 PUSH1 0xA0 SHL SUB AND PUSH4 0x552033C4 PUSH1 0x40 MLOAD DUP2 PUSH4 0xFFFFFFFF AND PUSH1 0xE0 SHL DUP2 MSTORE PUSH1 0x4 ADD PUSH1 0x20 PUSH1 0x40 MLOAD DUP1 DUP4 SUB DUP2 DUP7 GAS STATICCALL ISZERO DUP1 ISZERO PUSH2 0xB13 JUMPI RETURNDATASIZE PUSH1 0x0 DUP1 RETURNDATACOPY RETURNDATASIZE PUSH1 0x0 REVERT JUMPDEST POP POP POP POP PUSH1 0x40 MLOAD RETURNDATASIZE PUSH1 0x1F NOT PUSH1 0x1F DUP3 ADD AND DUP3 ADD DUP1 PUSH1 0x40 MSTORE POP DUP2 ADD SWAP1 PUSH2 0xB37 SWAP2 SWAP1 PUSH2 0x4C3E JUMP JUMPDEST PUSH2 0xB41 DUP9 DUP12 PUSH2 0x2890 JUMP JUMPDEST SWAP1 PUSH2 0x289C JUMP JUMPDEST SWAP1 PUSH2 0x2890 JUMP JUMPDEST SWAP7 POP POP POP POP POP POP POP JUMPDEST SWAP5 SWAP4 POP POP POP POP JUMP JUMPDEST PUSH1 0x0 DUP1 PUSH2 0xB7D PUSH1 0x20 DUP7 ADD CALLDATALOAD DUP3 PUSH2 0xB73 DUP10 PUSH2 0x4AE9 JUMP JUMPDEST PUSH2 0x3C6 DUP8 DUP10 PUSH2 0x4AF5 JUMP JUMPDEST DUP1 MLOAD SWAP1 SWAP2 POP PUSH1 0x0 DUP1 MLOAD PUSH1 0x20 PUSH2 0x5808 DUP4 CODECOPY DUP2 MLOAD SWAP2 MSTORE SWAP1 PUSH2 0xC13 SWAP1 PUSH2 0xBE5 SWAP1 PUSH32 0xD4CA4302BCA26785486B2CEEC787497A9CF992C36DCF57C306A00C1F88154627 PUSH1 0x0 PUSH2 0xBCA PUSH1 0x20 DUP13 ADD DUP13 PUSH2 0x4CE1 JUMP JUMPDEST PUSH2 0xFFFF AND DUP2 MSTORE PUSH1 0x20 DUP2 ADD SWAP2 SWAP1 SWAP2 MSTORE PUSH1 0x40 ADD PUSH1 0x0 KECCAK256 SLOAD SWAP1 PUSH2 0x2890 JUMP JUMPDEST PUSH1 0x3 DUP4 ADD PUSH1 0x0 PUSH2 0xBF8 PUSH1 0x20 DUP12 ADD DUP12 PUSH2 0x4CE1 JUMP JUMPDEST PUSH2 0xFFFF AND DUP2 MSTORE PUSH1 0x20 DUP2 ADD SWAP2 SWAP1 SWAP2 MSTORE PUSH1 0x40 ADD PUSH1 0x0 KECCAK256 SLOAD SWAP1 PUSH2 0x28A8 JUMP JUMPDEST SWAP8 SWAP7 POP POP POP POP POP POP POP JUMP JUMPDEST PUSH2 0xC26 PUSH2 0x28B4 JUMP JUMPDEST PUSH2 0xFFFF DUP4 AND PUSH1 0x0 DUP2 DUP2 MSTORE PUSH32 0xD4CA4302BCA26785486B2CEEC787497A9CF992C36DCF57C306A00C1F88154626 PUSH1 0x20 SWAP1 DUP2 MSTORE PUSH1 0x40 DUP1 DUP4 KECCAK256 DUP7 SWAP1 SSTORE PUSH32 0xD4CA4302BCA26785486B2CEEC787497A9CF992C36DCF57C306A00C1F88154627 DUP3 MSTORE SWAP2 DUP3 SWAP1 KECCAK256 DUP5 SWAP1 SSTORE DUP2 MLOAD SWAP3 DUP4 MSTORE DUP3 ADD DUP5 SWAP1 MSTORE DUP2 DUP2 ADD DUP4 SWAP1 MSTORE MLOAD PUSH1 0x0 DUP1 MLOAD PUSH1 0x20 PUSH2 0x5808 DUP4 CODECOPY DUP2 MLOAD SWAP2 MSTORE SWAP2 PUSH32 0xAA61585B805FDE53F9144E0B67E73FA5C022A2822052AE5803875F481B511D2 SWAP2 SWAP1 DUP2 SWAP1 SUB PUSH1 0x60 ADD SWAP1 LOG1 POP POP POP POP JUMP JUMPDEST PUSH1 0x0 DUP2 DUP1 DUP3 SUB PUSH2 0xCFD JUMPI PUSH1 0x40 MLOAD PUSH4 0x503C3ED PUSH1 0xE0 SHL DUP2 MSTORE PUSH1 0x4 ADD PUSH1 0x40 MLOAD DUP1 SWAP2 SUB SWAP1 REVERT JUMPDEST PUSH1 0x0 DUP5 DUP5 PUSH2 0xD0C PUSH1 0x1 DUP3 PUSH2 0x4C6D JUMP JUMPDEST DUP2 DUP2 LT PUSH2 0xD1B JUMPI PUSH2 0xD1B PUSH2 0x4B02 JUMP JUMPDEST SWAP1 POP PUSH1 0x20 MUL DUP2 ADD SWAP1 PUSH2 0xD2D SWAP2 SWAP1 PUSH2 0x4D3A JUMP JUMPDEST PUSH2 0xD3E SWAP1 PUSH1 0x80 DUP2 ADD SWAP1 PUSH1 0x60 ADD PUSH2 0x4D5A JUMP JUMPDEST SWAP1 POP PUSH1 0x0 PUSH2 0xD4B DUP3 PUSH2 0x2180 JUMP JUMPDEST SWAP1 POP PUSH2 0xD58 DUP8 DUP8 DUP8 PUSH2 0x293D JUMP JUMPDEST DUP1 PUSH2 0xD62 DUP4 PUSH2 0x2180 JUMP JUMPDEST PUSH2 0xD6C SWAP2 SWAP1 PUSH2 0x4C6D JUMP JUMPDEST SWAP1 POP DUP1 PUSH1 0x0 SUB PUSH2 0xD8F JUMPI PUSH1 0x40 MLOAD PUSH4 0x162908E3 PUSH1 0xE1 SHL DUP2 MSTORE PUSH1 0x4 ADD PUSH1 0x40 MLOAD DUP1 SWAP2 SUB SWAP1 REVERT JUMPDEST SWAP3 POP POP POP JUMPDEST SWAP4 SWAP3 POP POP POP JUMP JUMPDEST PUSH1 0x0 DUP1 MLOAD PUSH1 0x20 PUSH2 0x5808 DUP4 CODECOPY DUP2 MLOAD SWAP2 MSTORE DUP1 SLOAD PUSH1 0x40 DUP1 MLOAD PUSH4 0x84ACD1BB PUSH1 0xE0 SHL DUP2 MSTORE SWAP1 MLOAD PUSH1 0x0 SWAP4 SWAP3 PUSH1 0x1 PUSH1 0x1 PUSH1 0xA0 SHL SUB AND SWAP2 DUP5 SWAP2 DUP4 SWAP2 PUSH4 0x84ACD1BB SWAP2 PUSH1 0x4 DUP1 DUP4 ADD SWAP3 PUSH1 0x20 SWAP3 SWAP2 SWAP1 DUP3 SWAP1 SUB ADD DUP2 DUP7 GAS STATICCALL ISZERO DUP1 ISZERO PUSH2 0xDF8 JUMPI RETURNDATASIZE PUSH1 0x0 DUP1 RETURNDATACOPY RETURNDATASIZE PUSH1 0x0 REVERT JUMPDEST POP POP POP POP PUSH1 0x40 MLOAD RETURNDATASIZE PUSH1 0x1F NOT PUSH1 0x1F DUP3 ADD AND DUP3 ADD DUP1 PUSH1 0x40 MSTORE POP DUP2 ADD SWAP1 PUSH2 0xE1C SWAP2 SWAP1 PUSH2 0x4CC4 JUMP JUMPDEST PUSH1 0x1 PUSH1 0x1 PUSH1 0xA0 SHL SUB AND PUSH4 0xA9E11893 DUP7 PUSH1 0x40 MLOAD DUP3 PUSH4 0xFFFFFFFF AND PUSH1 0xE0 SHL DUP2 MSTORE PUSH1 0x4 ADD PUSH2 0xE47 SWAP2 SWAP1 PUSH2 0x457A JUMP JUMPDEST PUSH1 0x0 PUSH1 0x40 MLOAD DUP1 DUP4 SUB DUP2 DUP7 GAS STATICCALL ISZERO DUP1 ISZERO PUSH2 0xE64 JUMPI RETURNDATASIZE PUSH1 0x0 DUP1 RETURNDATACOPY RETURNDATASIZE PUSH1 0x0 REVERT JUMPDEST POP POP POP POP PUSH1 0x40 MLOAD RETURNDATASIZE PUSH1 0x0 DUP3 RETURNDATACOPY PUSH1 0x1F RETURNDATASIZE SWAP1 DUP2 ADD PUSH1 0x1F NOT AND DUP3 ADD PUSH1 0x40 MSTORE PUSH2 0xE8C SWAP2 SWAP1 DUP2 ADD SWAP1 PUSH2 0x4EDC JUMP JUMPDEST PUSH1 0xE0 ADD MLOAD SWAP1 POP PUSH1 0x0 DUP3 PUSH1 0x1 PUSH1 0x1 PUSH1 0xA0 SHL SUB AND PUSH4 0xEA63738D DUP4 PUSH1 0x40 MLOAD DUP3 PUSH4 0xFFFFFFFF AND PUSH1 0xE0 SHL DUP2 MSTORE PUSH1 0x4 ADD PUSH2 0xEC0 SWAP2 SWAP1 PUSH2 0x457A JUMP JUMPDEST PUSH1 0x0 PUSH1 0x40 MLOAD DUP1 DUP4 SUB DUP2 DUP7 GAS STATICCALL ISZERO DUP1 ISZERO PUSH2 0xEDD JUMPI RETURNDATASIZE PUSH1 0x0 DUP1 RETURNDATACOPY RETURNDATASIZE PUSH1 0x0 REVERT JUMPDEST POP POP POP POP PUSH1 0x40 MLOAD RETURNDATASIZE PUSH1 0x0 DUP3 RETURNDATACOPY PUSH1 0x1F RETURNDATASIZE SWAP1 DUP2 ADD PUSH1 0x1F NOT AND DUP3 ADD PUSH1 0x40 MSTORE PUSH2 0xF05 SWAP2 SWAP1 DUP2 ADD SWAP1 PUSH2 0x5000 JUMP JUMPDEST SWAP1 POP PUSH1 0x0 PUSH2 0xF16 DUP3 PUSH1 0xE0 ADD MLOAD PUSH2 0x1772 JUMP JUMPDEST POP SWAP2 SWAP10 SWAP9 POP POP POP POP POP POP POP POP POP JUMP JUMPDEST PUSH1 0x0 DUP1 MLOAD PUSH1 0x20 PUSH2 0x5808 DUP4 CODECOPY DUP2 MLOAD SWAP2 MSTORE DUP1 SLOAD PUSH1 0x1 PUSH1 0x1 PUSH1 0xA0 SHL SUB SWAP1 DUP2 AND PUSH1 0x0 SWAP1 DUP2 MSTORE PUSH1 0x3 PUSH1 0x20 MSTORE PUSH1 0x40 DUP2 KECCAK256 SLOAD SWAP1 SWAP3 SWAP2 AND DUP1 PUSH2 0xF63 JUMPI POP PUSH1 0x0 SWAP4 SWAP3 POP POP POP JUMP JUMPDEST PUSH1 0x40 MLOAD PUSH4 0x35681B53 PUSH1 0xE2 SHL DUP2 MSTORE PUSH1 0x4 DUP2 ADD DUP6 SWAP1 MSTORE PUSH1 0x1 PUSH1 0x1 PUSH1 0xA0 SHL SUB DUP3 AND SWAP1 PUSH4 0xD5A06D4C SWAP1 PUSH1 0x24 ADD PUSH1 0x20 PUSH1 0x40 MLOAD DUP1 DUP4 SUB DUP2 DUP7 GAS STATICCALL ISZERO DUP1 ISZERO PUSH2 0xFA8 JUMPI RETURNDATASIZE PUSH1 0x0 DUP1 RETURNDATACOPY RETURNDATASIZE PUSH1 0x0 REVERT JUMPDEST POP POP POP POP PUSH1 0x40 MLOAD RETURNDATASIZE PUSH1 0x1F NOT PUSH1 0x1F DUP3 ADD AND DUP3 ADD DUP1 PUSH1 0x40 MSTORE POP DUP2 ADD SWAP1 PUSH2 0xB56 SWAP2 SWAP1 PUSH2 0x4C3E JUMP JUMPDEST DUP1 MLOAD PUSH1 0x20 DUP1 DUP4 ADD MLOAD PUSH1 0x40 DUP1 DUP6 ADD MLOAD PUSH1 0x60 DUP7 DUP2 ADD MLOAD DUP1 MLOAD SWAP4 MLOAD SWAP2 SWAP7 PUSH2 0xFF4 SWAP7 SWAP1 SWAP6 SWAP5 SWAP3 ADD PUSH2 0x50C8 JUMP JUMPDEST PUSH1 0x40 MLOAD PUSH1 0x20 DUP2 DUP4 SUB SUB DUP2 MSTORE SWAP1 PUSH1 0x40 MSTORE SWAP1 POP SWAP2 SWAP1 POP JUMP JUMPDEST DUP2 PUSH1 0x1 PUSH1 0x1 PUSH1 0xA0 SHL SUB AND DUP4 PUSH1 0x1 PUSH1 0x1 PUSH1 0xA0 SHL SUB AND SUB PUSH2 0x1075 JUMPI DUP1 PUSH2 0x102D DUP5 PUSH2 0x2180 JUMP JUMPDEST LT ISZERO PUSH2 0x1070 JUMPI PUSH1 0x40 MLOAD PUSH3 0x461BCD PUSH1 0xE5 SHL DUP2 MSTORE PUSH1 0x20 PUSH1 0x4 DUP3 ADD MSTORE PUSH1 0x12 PUSH1 0x24 DUP3 ADD MSTORE PUSH18 0x88CAE0DEE6D2E840DCDEE840CADCDEEACED PUSH1 0x73 SHL PUSH1 0x44 DUP3 ADD MSTORE PUSH1 0x64 ADD PUSH2 0x49D JUMP JUMPDEST POP POP POP JUMP JUMPDEST PUSH1 0x1 PUSH1 0x1 PUSH1 0xA0 SHL SUB DUP4 AND PUSH2 0x110B JUMPI DUP2 PUSH1 0x1 PUSH1 0x1 PUSH1 0xA0 SHL SUB AND PUSH4 0xD0E30DB0 DUP3 PUSH1 0x40 MLOAD DUP3 PUSH4 0xFFFFFFFF AND PUSH1 0xE0 SHL DUP2 MSTORE PUSH1 0x4 ADD PUSH1 0x0 PUSH1 0x40 MLOAD DUP1 DUP4 SUB DUP2 DUP6 DUP9 DUP1 EXTCODESIZE ISZERO DUP1 ISZERO PUSH2 0x10BE JUMPI PUSH1 0x0 DUP1 REVERT JUMPDEST POP GAS CALL SWAP4 POP POP POP POP DUP1 ISZERO PUSH2 0x10D0 JUMPI POP PUSH1 0x1 JUMPDEST PUSH2 0x1070 JUMPI PUSH1 0x40 MLOAD PUSH3 0x461BCD PUSH1 0xE5 SHL DUP2 MSTORE PUSH1 0x20 PUSH1 0x4 DUP3 ADD MSTORE PUSH1 0xC PUSH1 0x24 DUP3 ADD MSTORE PUSH12 0x11195C1BDCDA5D0819985A5B PUSH1 0xA2 SHL PUSH1 0x44 DUP3 ADD MSTORE PUSH1 0x64 ADD PUSH2 0x49D JUMP JUMPDEST DUP2 PUSH1 0x1 PUSH1 0x1 PUSH1 0xA0 SHL SUB AND DUP4 PUSH1 0x1 PUSH1 0x1 PUSH1 0xA0 SHL SUB AND EQ PUSH2 0x1070 JUMPI PUSH1 0x40 MLOAD PUSH4 0x2E1A7D4D PUSH1 0xE0 SHL DUP2 MSTORE PUSH1 0x4 DUP2 ADD DUP3 SWAP1 MSTORE PUSH1 0x1 PUSH1 0x1 PUSH1 0xA0 SHL SUB DUP5 AND SWAP1 PUSH4 0x2E1A7D4D SWAP1 PUSH1 0x24 ADD PUSH1 0x0 PUSH1 0x40 MLOAD DUP1 DUP4 SUB DUP2 PUSH1 0x0 DUP8 DUP1 EXTCODESIZE ISZERO DUP1 ISZERO PUSH2 0x1166 JUMPI PUSH1 0x0 DUP1 REVERT JUMPDEST POP GAS CALL SWAP3 POP POP POP DUP1 ISZERO PUSH2 0x1177 JUMPI POP PUSH1 0x1 JUMPDEST PUSH2 0x11BB JUMPI PUSH1 0x40 MLOAD PUSH3 0x461BCD PUSH1 0xE5 SHL DUP2 MSTORE PUSH1 0x20 PUSH1 0x4 DUP3 ADD MSTORE PUSH1 0x15 PUSH1 0x24 DUP3 ADD MSTORE PUSH21 0x11195C1BDCDA5D081DDA5D1A191C985DC819985A5B PUSH1 0x5A SHL PUSH1 0x44 DUP3 ADD MSTORE PUSH1 0x64 ADD PUSH2 0x49D JUMP JUMPDEST DUP2 PUSH1 0x1 PUSH1 0x1 PUSH1 0xA0 SHL SUB AND PUSH4 0xD0E30DB0 DUP3 PUSH1 0x40 MLOAD DUP3 PUSH4 0xFFFFFFFF AND PUSH1 0xE0 SHL DUP2 MSTORE PUSH1 0x4 ADD PUSH1 0x0 PUSH1 0x40 MLOAD DUP1 DUP4 SUB DUP2 DUP6 DUP9 DUP1 EXTCODESIZE ISZERO DUP1 ISZERO PUSH2 0x11F6 JUMPI PUSH1 0x0 DUP1 REVERT JUMPDEST POP GAS CALL SWAP4 POP POP POP POP DUP1 ISZERO PUSH2 0x1208 JUMPI POP PUSH1 0x1 JUMPDEST PUSH2 0x1070 JUMPI PUSH1 0x40 MLOAD PUSH3 0x461BCD PUSH1 0xE5 SHL DUP2 MSTORE PUSH1 0x20 PUSH1 0x4 DUP3 ADD MSTORE PUSH1 0x15 PUSH1 0x24 DUP3 ADD MSTORE PUSH21 0x15DA5D1A191C985DC819195C1BDCDA5D0819985A5B PUSH1 0x5A SHL PUSH1 0x44 DUP3 ADD MSTORE PUSH1 0x64 ADD PUSH2 0x49D JUMP JUMPDEST PUSH2 0x127B PUSH1 0x40 MLOAD DUP1 PUSH1 0x80 ADD PUSH1 0x40 MSTORE DUP1 PUSH1 0x0 PUSH2 0xFFFF AND DUP2 MSTORE PUSH1 0x20 ADD PUSH1 0x0 DUP2 MSTORE PUSH1 0x20 ADD PUSH1 0x0 DUP2 MSTORE PUSH1 0x20 ADD PUSH1 0x60 DUP2 MSTORE POP SWAP1 JUMP JUMPDEST PUSH2 0x12AA PUSH1 0x40 MLOAD DUP1 PUSH1 0x80 ADD PUSH1 0x40 MSTORE DUP1 PUSH1 0x0 PUSH2 0xFFFF AND DUP2 MSTORE PUSH1 0x20 ADD PUSH1 0x0 DUP2 MSTORE PUSH1 0x20 ADD PUSH1 0x0 DUP2 MSTORE PUSH1 0x20 ADD PUSH1 0x60 DUP2 MSTORE POP SWAP1 JUMP JUMPDEST PUSH1 0x0 PUSH1 0x2 PUSH2 0x12B8 DUP6 DUP4 PUSH2 0x2B65 JUMP JUMPDEST PUSH2 0xFFFF AND DUP4 MSTORE PUSH2 0x12C8 DUP2 DUP4 PUSH2 0x511C JUMP JUMPDEST SWAP2 POP PUSH1 0x20 SWAP1 POP PUSH2 0x12D8 DUP6 DUP4 PUSH2 0x2BC2 JUMP JUMPDEST PUSH1 0x20 DUP5 ADD MSTORE PUSH2 0x12E7 DUP2 DUP4 PUSH2 0x511C JUMP JUMPDEST SWAP2 POP PUSH1 0x20 SWAP1 POP PUSH2 0x12F7 DUP6 DUP4 PUSH2 0x2BC2 JUMP JUMPDEST PUSH1 0x40 DUP5 ADD MSTORE PUSH2 0x1306 DUP2 DUP4 PUSH2 0x511C JUMP JUMPDEST SWAP2 POP PUSH2 0x1312 DUP6 DUP4 PUSH2 0x2C20 JUMP JUMPDEST PUSH1 0x1 PUSH1 0x1 PUSH1 0x40 SHL SUB AND SWAP1 POP PUSH2 0x1328 PUSH1 0x8 DUP4 PUSH2 0x511C JUMP JUMPDEST SWAP2 POP PUSH2 0x1335 DUP6 DUP4 DUP4 PUSH2 0x2C7D JUMP JUMPDEST PUSH1 0x60 DUP5 ADD MSTORE PUSH2 0x1344 DUP2 DUP4 PUSH2 0x511C JUMP JUMPDEST SWAP2 POP DUP5 MLOAD DUP3 EQ PUSH2 0x1366 JUMPI PUSH1 0x40 MLOAD PUSH3 0x461BCD PUSH1 0xE5 SHL DUP2 MSTORE PUSH1 0x4 ADD PUSH2 0x49D SWAP1 PUSH2 0x5134 JUMP JUMPDEST POP SWAP1 SWAP4 SWAP3 POP POP POP JUMP JUMPDEST PUSH1 0x0 DUP1 PUSH1 0x0 DUP1 PUSH2 0x13BF PUSH1 0x40 MLOAD DUP1 PUSH2 0x100 ADD PUSH1 0x40 MSTORE DUP1 PUSH1 0x0 DUP2 MSTORE PUSH1 0x20 ADD PUSH1 0x0 DUP2 MSTORE PUSH1 0x20 ADD PUSH1 0x0 DUP2 MSTORE PUSH1 0x20 ADD PUSH1 0x0 DUP2 MSTORE PUSH1 0x20 ADD PUSH1 0x0 DUP2 MSTORE PUSH1 0x20 ADD PUSH1 0x0 ISZERO ISZERO DUP2 MSTORE PUSH1 0x20 ADD PUSH1 0x0 DUP2 MSTORE PUSH1 0x20 ADD PUSH1 0x0 DUP2 MSTORE POP SWAP1 JUMP JUMPDEST PUSH1 0x0 DUP1 MLOAD PUSH1 0x20 PUSH2 0x5808 DUP4 CODECOPY DUP2 MLOAD SWAP2 MSTORE DUP1 SLOAD PUSH1 0x1 PUSH1 0x1 PUSH1 0xA0 SHL SUB SWAP1 DUP2 AND PUSH1 0x0 SWAP1 DUP2 MSTORE PUSH1 0x3 PUSH1 0x20 SWAP1 DUP2 MSTORE PUSH1 0x40 SWAP1 SWAP2 KECCAK256 SLOAD SWAP1 SWAP2 AND SWAP1 DUP2 SWAP1 PUSH4 0x55B95F58 SWAP1 PUSH2 0x1405 SWAP1 DUP14 ADD DUP14 PUSH2 0x4CE1 JUMP JUMPDEST PUSH1 0x40 MLOAD PUSH1 0x1 PUSH1 0x1 PUSH1 0xE0 SHL SUB NOT PUSH1 0xE0 DUP5 SWAP1 SHL AND DUP2 MSTORE PUSH2 0xFFFF SWAP1 SWAP2 AND PUSH1 0x4 DUP3 ADD MSTORE PUSH1 0x24 ADD PUSH1 0x20 PUSH1 0x40 MLOAD DUP1 DUP4 SUB DUP2 PUSH1 0x0 DUP8 GAS CALL ISZERO DUP1 ISZERO PUSH2 0x1446 JUMPI RETURNDATASIZE PUSH1 0x0 DUP1 RETURNDATACOPY RETURNDATASIZE PUSH1 0x0 REVERT JUMPDEST POP POP POP POP PUSH1 0x40 MLOAD RETURNDATASIZE PUSH1 0x1F NOT PUSH1 0x1F DUP3 ADD AND DUP3 ADD DUP1 PUSH1 0x40 MSTORE POP DUP2 ADD SWAP1 PUSH2 0x146A SWAP2 SWAP1 PUSH2 0x4C3E JUMP JUMPDEST DUP4 MSTORE PUSH2 0x1478 DUP12 DUP12 DUP12 DUP12 PUSH2 0xB5E JUMP JUMPDEST PUSH1 0x80 DUP5 ADD DUP2 SWAP1 MSTORE PUSH2 0x148D SWAP1 PUSH1 0x20 DUP13 ADD CALLDATALOAD PUSH2 0x2890 JUMP JUMPDEST DUP4 PUSH1 0x40 ADD DUP2 DUP2 MSTORE POP POP PUSH2 0x1523 PUSH12 0x33B2E3C9FD0803CE8000000 PUSH2 0xB41 DUP5 PUSH1 0x1 ADD SLOAD PUSH2 0xB47 DUP6 PUSH1 0x1 PUSH1 0x1 PUSH1 0xA0 SHL SUB AND PUSH4 0x552033C4 PUSH1 0x40 MLOAD DUP2 PUSH4 0xFFFFFFFF AND PUSH1 0xE0 SHL DUP2 MSTORE PUSH1 0x4 ADD PUSH1 0x20 PUSH1 0x40 MLOAD DUP1 DUP4 SUB DUP2 DUP7 GAS STATICCALL ISZERO DUP1 ISZERO PUSH2 0x14EF JUMPI RETURNDATASIZE PUSH1 0x0 DUP1 RETURNDATACOPY RETURNDATASIZE PUSH1 0x0 REVERT JUMPDEST POP POP POP POP PUSH1 0x40 MLOAD RETURNDATASIZE PUSH1 0x1F NOT PUSH1 0x1F DUP3 ADD AND DUP3 ADD DUP1 PUSH1 0x40 MSTORE POP DUP2 ADD SWAP1 PUSH2 0x1513 SWAP2 SWAP1 PUSH2 0x4C3E JUMP JUMPDEST DUP9 MLOAD PUSH1 0x40 DUP11 ADD MLOAD PUSH2 0xB41 SWAP2 PUSH2 0x2890 JUMP JUMPDEST PUSH1 0x20 DUP5 ADD MSTORE PUSH2 0x1587 PUSH2 0x157A PUSH1 0x0 PUSH2 0x153D PUSH1 0x60 DUP16 ADD DUP16 PUSH2 0x515A JUMP JUMPDEST DUP1 DUP1 PUSH1 0x1F ADD PUSH1 0x20 DUP1 SWAP2 DIV MUL PUSH1 0x20 ADD PUSH1 0x40 MLOAD SWAP1 DUP2 ADD PUSH1 0x40 MSTORE DUP1 SWAP4 SWAP3 SWAP2 SWAP1 DUP2 DUP2 MSTORE PUSH1 0x20 ADD DUP4 DUP4 DUP1 DUP3 DUP5 CALLDATACOPY PUSH1 0x0 SWAP3 ADD SWAP2 SWAP1 SWAP2 MSTORE POP SWAP3 SWAP4 SWAP3 POP POP PUSH2 0x2D8A SWAP1 POP JUMP JUMPDEST PUSH1 0x1 PUSH1 0x1 PUSH1 0xA0 SHL SUB AND ISZERO SWAP1 JUMP JUMPDEST ISZERO PUSH2 0x1597 JUMPI PUSH1 0xC0 DUP12 ADD CALLDATALOAD PUSH1 0x60 DUP5 ADD MSTORE JUMPDEST PUSH1 0x20 DUP1 DUP5 ADD MLOAD PUSH1 0x60 DUP6 ADD MLOAD DUP5 SLOAD PUSH1 0x40 DUP1 MLOAD PUSH4 0x84ACD1BB PUSH1 0xE0 SHL DUP2 MSTORE SWAP1 MLOAD PUSH2 0x1678 SWAP6 PUSH2 0x1672 SWAP5 SWAP4 PUSH1 0x1 PUSH1 0x1 PUSH1 0xA0 SHL SUB AND SWAP3 PUSH4 0x84ACD1BB SWAP3 PUSH1 0x4 DUP1 DUP4 ADD SWAP4 SWAP3 DUP3 SWAP1 SUB ADD DUP2 DUP7 GAS STATICCALL ISZERO DUP1 ISZERO PUSH2 0x15ED JUMPI RETURNDATASIZE PUSH1 0x0 DUP1 RETURNDATACOPY RETURNDATASIZE PUSH1 0x0 REVERT JUMPDEST POP POP POP POP PUSH1 0x40 MLOAD RETURNDATASIZE PUSH1 0x1F NOT PUSH1 0x1F DUP3 ADD AND DUP3 ADD DUP1 PUSH1 0x40 MSTORE POP DUP2 ADD SWAP1 PUSH2 0x1611 SWAP2 SWAP1 PUSH2 0x4CC4 JUMP JUMPDEST PUSH1 0x1 PUSH1 0x1 PUSH1 0xA0 SHL SUB AND PUSH4 0x1A90A219 PUSH1 0x40 MLOAD DUP2 PUSH4 0xFFFFFFFF AND PUSH1 0xE0 SHL DUP2 MSTORE PUSH1 0x4 ADD PUSH1 0x20 PUSH1 0x40 MLOAD DUP1 DUP4 SUB DUP2 DUP7 GAS STATICCALL ISZERO DUP1 ISZERO PUSH2 0x164E JUMPI RETURNDATASIZE PUSH1 0x0 DUP1 RETURNDATACOPY RETURNDATASIZE PUSH1 0x0 REVERT JUMPDEST POP POP POP POP PUSH1 0x40 MLOAD RETURNDATASIZE PUSH1 0x1F NOT PUSH1 0x1F DUP3 ADD AND DUP3 ADD DUP1 PUSH1 0x40 MSTORE POP DUP2 ADD SWAP1 PUSH2 0x1672 SWAP2 SWAP1 PUSH2 0x4C3E JUMP JUMPDEST SWAP1 PUSH2 0x28A8 JUMP JUMPDEST PUSH1 0xE0 DUP5 ADD DUP2 SWAP1 MSTORE PUSH1 0x40 DUP12 ADD CALLDATALOAD LT PUSH2 0x16AA JUMPI PUSH1 0x1 PUSH1 0xA0 DUP5 ADD MSTORE PUSH1 0xE0 DUP4 ADD MLOAD PUSH2 0x16A4 SWAP1 PUSH1 0x40 DUP13 ADD CALLDATALOAD SWAP1 PUSH2 0x2DEF JUMP JUMPDEST PUSH1 0xC0 DUP5 ADD MSTORE JUMPDEST POP POP PUSH1 0xA0 DUP2 ADD MLOAD PUSH1 0x20 DUP3 ADD MLOAD PUSH1 0xC0 DUP4 ADD MLOAD PUSH1 0x80 SWAP1 SWAP4 ADD MLOAD SWAP2 SWAP12 SWAP1 SWAP11 POP SWAP2 SWAP9 POP SWAP7 POP SWAP5 POP POP POP POP POP JUMP JUMPDEST PUSH2 0x16DB PUSH2 0x28B4 JUMP JUMPDEST PUSH32 0xD4CA4302BCA26785486B2CEEC787497A9CF992C36DCF57C306A00C1F88154624 DUP3 SWAP1 SSTORE PUSH32 0xD4CA4302BCA26785486B2CEEC787497A9CF992C36DCF57C306A00C1F88154625 DUP2 SWAP1 SSTORE PUSH1 0x40 DUP1 MLOAD DUP4 DUP2 MSTORE PUSH1 0x20 DUP2 ADD DUP4 SWAP1 MSTORE PUSH1 0x0 DUP1 MLOAD PUSH1 0x20 PUSH2 0x5808 DUP4 CODECOPY DUP2 MLOAD SWAP2 MSTORE SWAP2 PUSH32 0x47EB9E20F6454ED3771E741F21D26F7F265AE9A1A06D722DD888E4585C0B7E95 SWAP2 ADD JUMPDEST PUSH1 0x40 MLOAD DUP1 SWAP2 SUB SWAP1 LOG1 POP POP POP JUMP JUMPDEST PUSH1 0x0 DUP1 PUSH2 0x177D PUSH2 0x3F00 JUMP JUMPDEST PUSH1 0x60 PUSH1 0x0 DUP1 PUSH2 0x178A PUSH2 0x3F45 JUMP JUMPDEST PUSH1 0x20 SWAP2 POP PUSH2 0x1798 DUP9 DUP5 PUSH2 0x2BC2 JUMP JUMPDEST DUP2 MSTORE PUSH2 0x17A4 DUP3 DUP5 PUSH2 0x511C JUMP JUMPDEST SWAP3 POP PUSH1 0x20 SWAP2 POP PUSH2 0x17B4 DUP9 DUP5 PUSH2 0x2BC2 JUMP JUMPDEST PUSH1 0x20 DUP3 ADD MSTORE PUSH2 0x17C3 DUP3 DUP5 PUSH2 0x511C JUMP JUMPDEST SWAP3 POP PUSH2 0x17CF DUP9 DUP5 PUSH2 0x2C20 JUMP JUMPDEST PUSH1 0x1 PUSH1 0x1 PUSH1 0x40 SHL SUB AND SWAP2 POP PUSH2 0x17E5 PUSH1 0x8 DUP5 PUSH2 0x511C JUMP JUMPDEST SWAP3 POP PUSH2 0x17FA PUSH2 0x17F5 DUP10 DUP6 DUP6 PUSH2 0x2C7D JUMP JUMPDEST PUSH2 0x2DFB JUMP JUMPDEST PUSH1 0x40 DUP3 ADD MSTORE PUSH2 0x1809 DUP3 DUP5 PUSH2 0x511C JUMP JUMPDEST SWAP3 POP PUSH2 0x1815 DUP9 DUP5 PUSH2 0x2C20 JUMP JUMPDEST PUSH1 0x1 PUSH1 0x1 PUSH1 0x40 SHL SUB AND SWAP2 POP PUSH2 0x182B PUSH1 0x8 DUP5 PUSH2 0x511C JUMP JUMPDEST SWAP3 POP DUP8 MLOAD DUP4 LT ISZERO PUSH2 0x185B JUMPI PUSH2 0x1849 PUSH2 0x1844 DUP10 DUP6 DUP6 PUSH2 0x2C7D JUMP JUMPDEST PUSH2 0x2F66 JUMP JUMPDEST PUSH1 0x60 DUP3 ADD MSTORE PUSH2 0x1858 DUP3 DUP5 PUSH2 0x511C JUMP JUMPDEST SWAP3 POP JUMPDEST DUP8 MLOAD DUP4 EQ PUSH2 0x187B JUMPI PUSH1 0x40 MLOAD PUSH3 0x461BCD PUSH1 0xE5 SHL DUP2 MSTORE PUSH1 0x4 ADD PUSH2 0x49D SWAP1 PUSH2 0x5134 JUMP JUMPDEST DUP1 MLOAD PUSH1 0x20 DUP3 ADD MLOAD PUSH1 0x40 DUP4 ADD MLOAD PUSH1 0x60 SWAP1 SWAP4 ADD MLOAD SWAP2 SWAP11 SWAP1 SWAP10 POP SWAP2 SWAP8 POP SWAP6 POP SWAP4 POP POP POP POP JUMP JUMPDEST PUSH2 0x18A6 PUSH2 0x28B4 JUMP JUMPDEST PUSH1 0x0 DUP1 MLOAD PUSH1 0x20 PUSH2 0x5808 DUP4 CODECOPY DUP2 MLOAD SWAP2 MSTORE DUP1 SLOAD PUSH2 0xFFFF DUP4 AND PUSH1 0x1 PUSH1 0xA0 SHL DUP2 MUL PUSH1 0x1 PUSH1 0x1 PUSH1 0xB0 SHL SUB NOT SWAP1 SWAP3 AND PUSH1 0x1 PUSH1 0x1 PUSH1 0xA0 SHL SUB DUP7 AND SWAP1 DUP2 OR SWAP3 SWAP1 SWAP3 OR DUP4 SSTORE PUSH1 0x40 DUP1 MLOAD SWAP3 DUP4 MSTORE PUSH1 0x20 DUP4 ADD SWAP2 SWAP1 SWAP2 MSTORE PUSH32 0xB42C2803DB63F6A1BDD8D9D2F1114F85FB270AF64DF8E69B20ABC2AC4B61B95D SWAP2 ADD PUSH2 0x1765 JUMP JUMPDEST PUSH1 0x60 PUSH1 0x0 PUSH2 0x1926 DUP5 PUSH2 0x3255 JUMP JUMPDEST SWAP1 POP PUSH1 0x0 PUSH2 0x1933 DUP5 PUSH2 0x32DA JUMP JUMPDEST SWAP1 POP DUP7 DUP7 DUP4 MLOAD DUP5 DUP5 MLOAD DUP6 PUSH1 0x40 MLOAD PUSH1 0x20 ADD PUSH2 0x1952 SWAP7 SWAP6 SWAP5 SWAP4 SWAP3 SWAP2 SWAP1 PUSH2 0x51A0 JUMP JUMPDEST PUSH1 0x40 MLOAD PUSH1 0x20 DUP2 DUP4 SUB SUB DUP2 MSTORE SWAP1 PUSH1 0x40 MSTORE SWAP3 POP POP POP SWAP5 SWAP4 POP POP POP POP JUMP JUMPDEST PUSH1 0x0 DUP1 MLOAD PUSH1 0x20 PUSH2 0x5808 DUP4 CODECOPY DUP2 MLOAD SWAP2 MSTORE DUP1 SLOAD PUSH1 0x40 MLOAD PUSH4 0xC3F511C1 PUSH1 0xE0 SHL DUP2 MSTORE PUSH1 0x1 PUSH1 0x1 PUSH1 0xA0 SHL SUB SWAP1 SWAP2 AND SWAP1 PUSH1 0x0 SWAP1 DUP3 SWAP1 PUSH4 0xC3F511C1 SWAP1 PUSH2 0x19B0 SWAP1 DUP8 SWAP1 PUSH1 0x4 ADD PUSH2 0x457A JUMP JUMPDEST PUSH1 0x0 PUSH1 0x40 MLOAD DUP1 DUP4 SUB DUP2 PUSH1 0x0 DUP8 GAS CALL ISZERO DUP1 ISZERO PUSH2 0x19CF JUMPI RETURNDATASIZE PUSH1 0x0 DUP1 RETURNDATACOPY RETURNDATASIZE PUSH1 0x0 REVERT JUMPDEST POP POP POP POP PUSH1 0x40 MLOAD RETURNDATASIZE PUSH1 0x0 DUP3 RETURNDATACOPY PUSH1 0x1F RETURNDATASIZE SWAP1 DUP2 ADD PUSH1 0x1F NOT AND DUP3 ADD PUSH1 0x40 MSTORE PUSH2 0x19F7 SWAP2 SWAP1 DUP2 ADD SWAP1 PUSH2 0x5209 JUMP JUMPDEST SWAP1 POP PUSH1 0x0 DUP3 PUSH1 0x1 PUSH1 0x1 PUSH1 0xA0 SHL SUB AND PUSH4 0xEA63738D DUP4 PUSH1 0x40 MLOAD DUP3 PUSH4 0xFFFFFFFF AND PUSH1 0xE0 SHL DUP2 MSTORE PUSH1 0x4 ADD PUSH2 0x1A27 SWAP2 SWAP1 PUSH2 0x457A JUMP JUMPDEST PUSH1 0x0 PUSH1 0x40 MLOAD DUP1 DUP4 SUB DUP2 DUP7 GAS STATICCALL ISZERO DUP1 ISZERO PUSH2 0x1A44 JUMPI RETURNDATASIZE PUSH1 0x0 DUP1 RETURNDATACOPY RETURNDATASIZE PUSH1 0x0 REVERT JUMPDEST POP POP POP POP PUSH1 0x40 MLOAD RETURNDATASIZE PUSH1 0x0 DUP3 RETURNDATACOPY PUSH1 0x1F RETURNDATASIZE SWAP1 DUP2 ADD PUSH1 0x1F NOT AND DUP3 ADD PUSH1 0x40 MSTORE PUSH2 0x1A6C SWAP2 SWAP1 DUP2 ADD SWAP1 PUSH2 0x5000 JUMP JUMPDEST SWAP1 POP PUSH1 0x0 DUP1 PUSH2 0x1A7E DUP4 PUSH1 0xE0 ADD MLOAD PUSH2 0x1772 JUMP JUMPDEST SWAP4 POP SWAP4 POP POP POP PUSH1 0x0 PUSH2 0x1A8F DUP4 PUSH2 0x222A JUMP JUMPDEST SWAP1 POP PUSH1 0x0 PUSH2 0x1A9C DUP4 PUSH2 0x2309 JUMP JUMPDEST SWAP1 POP PUSH1 0x0 DUP1 DUP9 PUSH1 0x1 PUSH1 0x1 PUSH1 0xA0 SHL SUB AND PUSH4 0x9A8A0592 PUSH1 0x40 MLOAD DUP2 PUSH4 0xFFFFFFFF AND PUSH1 0xE0 SHL DUP2 MSTORE PUSH1 0x4 ADD PUSH1 0x20 PUSH1 0x40 MLOAD DUP1 DUP4 SUB DUP2 DUP7 GAS STATICCALL ISZERO DUP1 ISZERO PUSH2 0x1ADF JUMPI RETURNDATASIZE PUSH1 0x0 DUP1 RETURNDATACOPY RETURNDATASIZE PUSH1 0x0 REVERT JUMPDEST POP POP POP POP PUSH1 0x40 MLOAD RETURNDATASIZE PUSH1 0x1F NOT PUSH1 0x1F DUP3 ADD AND DUP3 ADD DUP1 PUSH1 0x40 MSTORE POP DUP2 ADD SWAP1 PUSH2 0x1B03 SWAP2 SWAP1 PUSH2 0x523D JUMP JUMPDEST PUSH2 0xFFFF AND DUP8 PUSH1 0x60 ADD MLOAD PUSH2 0xFFFF AND SUB PUSH2 0x1B23 JUMPI POP POP PUSH1 0x40 DUP6 ADD MLOAD PUSH1 0x1 PUSH2 0x1BA2 JUMP JUMPDEST PUSH1 0x60 DUP8 ADD MLOAD PUSH1 0x40 DUP1 DUP10 ADD MLOAD SWAP1 MLOAD PUSH4 0xFF8F143 PUSH1 0xE1 SHL DUP2 MSTORE PUSH2 0xFFFF SWAP1 SWAP3 AND PUSH1 0x4 DUP4 ADD MSTORE PUSH1 0x24 DUP3 ADD MSTORE PUSH1 0x1 PUSH1 0x1 PUSH1 0xA0 SHL SUB DUP11 AND SWAP1 PUSH4 0x1FF1E286 SWAP1 PUSH1 0x44 ADD PUSH1 0x20 PUSH1 0x40 MLOAD DUP1 DUP4 SUB DUP2 DUP7 GAS STATICCALL ISZERO DUP1 ISZERO PUSH2 0x1B7B JUMPI RETURNDATASIZE PUSH1 0x0 DUP1 RETURNDATACOPY RETURNDATASIZE PUSH1 0x0 REVERT JUMPDEST POP POP POP POP PUSH1 0x40 MLOAD RETURNDATASIZE PUSH1 0x1F NOT PUSH1 0x1F DUP3 ADD AND DUP3 ADD DUP1 PUSH1 0x40 MSTORE POP DUP2 ADD SWAP1 PUSH2 0x1B9F SWAP2 SWAP1 PUSH2 0x4CC4 JUMP JUMPDEST SWAP2 POP JUMPDEST PUSH1 0x0 PUSH2 0x1BAD DUP4 PUSH2 0x2180 JUMP JUMPDEST SWAP1 POP PUSH1 0x0 DUP2 GT PUSH2 0x1BEC JUMPI PUSH1 0x40 MLOAD PUSH3 0x461BCD PUSH1 0xE5 SHL DUP2 MSTORE PUSH1 0x20 PUSH1 0x4 DUP3 ADD MSTORE PUSH1 0xA PUSH1 0x24 DUP3 ADD MSTORE PUSH10 0x616D6F756E74203E203 PUSH1 0xB4 SHL PUSH1 0x44 DUP3 ADD MSTORE PUSH1 0x64 ADD PUSH2 0x49D JUMP JUMPDEST PUSH1 0x0 DUP11 PUSH1 0x1 PUSH1 0x1 PUSH1 0xA0 SHL SUB AND PUSH4 0xAD5C4648 PUSH1 0x40 MLOAD DUP2 PUSH4 0xFFFFFFFF AND PUSH1 0xE0 SHL DUP2 MSTORE PUSH1 0x4 ADD PUSH1 0x20 PUSH1 0x40 MLOAD DUP1 DUP4 SUB DUP2 DUP7 GAS STATICCALL ISZERO DUP1 ISZERO PUSH2 0x1C2C JUMPI RETURNDATASIZE PUSH1 0x0 DUP1 RETURNDATACOPY RETURNDATASIZE PUSH1 0x0 REVERT JUMPDEST POP POP POP POP PUSH1 0x40 MLOAD RETURNDATASIZE PUSH1 0x1F NOT PUSH1 0x1F DUP3 ADD AND DUP3 ADD DUP1 PUSH1 0x40 MSTORE POP DUP2 ADD SWAP1 PUSH2 0x1C50 SWAP2 SWAP1 PUSH2 0x4CC4 JUMP JUMPDEST SWAP1 POP DUP3 DUP1 ISZERO PUSH2 0x1C70 JUMPI POP DUP4 PUSH1 0x1 PUSH1 0x1 PUSH1 0xA0 SHL SUB AND DUP2 PUSH1 0x1 PUSH1 0x1 PUSH1 0xA0 SHL SUB AND EQ JUMPDEST ISZERO PUSH2 0x1CD4 JUMPI PUSH1 0x40 MLOAD PUSH4 0x2E1A7D4D PUSH1 0xE0 SHL DUP2 MSTORE PUSH1 0x4 DUP2 ADD DUP4 SWAP1 MSTORE PUSH1 0x1 PUSH1 0x1 PUSH1 0xA0 SHL SUB DUP3 AND SWAP1 PUSH4 0x2E1A7D4D SWAP1 PUSH1 0x24 ADD PUSH1 0x0 PUSH1 0x40 MLOAD DUP1 DUP4 SUB DUP2 PUSH1 0x0 DUP8 DUP1 EXTCODESIZE ISZERO DUP1 ISZERO PUSH2 0x1CB7 JUMPI PUSH1 0x0 DUP1 REVERT JUMPDEST POP GAS CALL ISZERO DUP1 ISZERO PUSH2 0x1CCB JUMPI RETURNDATASIZE PUSH1 0x0 DUP1 RETURNDATACOPY RETURNDATASIZE PUSH1 0x0 REVERT JUMPDEST POP POP POP POP PUSH1 0x0 SWAP4 POP JUMPDEST PUSH1 0x0 PUSH2 0x1CDF DUP4 PUSH2 0xF25 JUMP JUMPDEST SWAP1 POP PUSH1 0x0 DUP2 GT DUP1 ISZERO PUSH2 0x1CF0 JUMPI POP DUP3 DUP2 LT JUMPDEST ISZERO PUSH2 0x1D02 JUMPI PUSH2 0x1CFF DUP4 DUP3 PUSH2 0x2DEF JUMP JUMPDEST SWAP3 POP JUMPDEST DUP6 MLOAD PUSH1 0x0 SUB PUSH2 0x1DDC JUMPI DUP7 PUSH1 0xA0 ADD MLOAD PUSH1 0x1 PUSH1 0x1 PUSH1 0xA0 SHL SUB AND DUP6 PUSH1 0x1 PUSH1 0x1 PUSH1 0xA0 SHL SUB AND EQ PUSH2 0x1D5E JUMPI PUSH1 0x40 MLOAD PUSH3 0x461BCD PUSH1 0xE5 SHL DUP2 MSTORE PUSH1 0x20 PUSH1 0x4 DUP3 ADD MSTORE PUSH1 0xB PUSH1 0x24 DUP3 ADD MSTORE PUSH11 0x3A37B5B2B71032B93937B9 PUSH1 0xA9 SHL PUSH1 0x44 DUP3 ADD MSTORE PUSH1 0x64 ADD PUSH2 0x49D JUMP JUMPDEST DUP1 ISZERO PUSH2 0x1D7A JUMPI PUSH2 0x1D7A DUP8 PUSH1 0xA0 ADD MLOAD PUSH2 0x1D74 PUSH2 0x25CC JUMP JUMPDEST DUP4 PUSH2 0x2206 JUMP JUMPDEST PUSH2 0x1D8D DUP8 PUSH1 0xA0 ADD MLOAD DUP9 PUSH1 0x20 ADD MLOAD DUP6 PUSH2 0x2206 JUMP JUMPDEST DUP7 MLOAD PUSH1 0xA0 DUP9 ADD MLOAD PUSH1 0x20 DUP10 ADD MLOAD PUSH1 0x40 MLOAD PUSH32 0x18ACD05157EFE71792E50E247CDF5E2725C6F4F63A515C43AA99E548F61DB9DF SWAP3 PUSH2 0x1DCF SWAP3 SWAP1 SWAP2 DUP9 SWAP1 TIMESTAMP SWAP1 DUP15 SWAP1 PUSH2 0x525A JUMP JUMPDEST PUSH1 0x40 MLOAD DUP1 SWAP2 SUB SWAP1 LOG2 PUSH2 0x2170 JUMP JUMPDEST DUP1 ISZERO PUSH2 0x1E0C JUMPI PUSH2 0x1E0C DUP7 PUSH1 0x0 DUP2 MLOAD DUP2 LT PUSH2 0x1DF8 JUMPI PUSH2 0x1DF8 PUSH2 0x4B02 JUMP JUMPDEST PUSH1 0x20 MUL PUSH1 0x20 ADD ADD MLOAD PUSH1 0x40 ADD MLOAD PUSH2 0x1D74 PUSH2 0x25CC JUMP JUMPDEST DUP5 PUSH1 0x1 PUSH1 0x1 PUSH1 0xA0 SHL SUB AND DUP7 PUSH1 0x0 DUP2 MLOAD DUP2 LT PUSH2 0x1E29 JUMPI PUSH2 0x1E29 PUSH2 0x4B02 JUMP JUMPDEST PUSH1 0x20 MUL PUSH1 0x20 ADD ADD MLOAD PUSH1 0x40 ADD MLOAD PUSH1 0x1 PUSH1 0x1 PUSH1 0xA0 SHL SUB AND EQ PUSH2 0x1E79 JUMPI PUSH1 0x40 MLOAD PUSH3 0x461BCD PUSH1 0xE5 SHL DUP2 MSTORE PUSH1 0x20 PUSH1 0x4 DUP3 ADD MSTORE PUSH1 0xB PUSH1 0x24 DUP3 ADD MSTORE PUSH11 0x3A37B5B2B71032B93937B9 PUSH1 0xA9 SHL PUSH1 0x44 DUP3 ADD MSTORE PUSH1 0x64 ADD PUSH2 0x49D JUMP JUMPDEST DUP3 DUP7 PUSH1 0x0 DUP2 MLOAD DUP2 LT PUSH2 0x1E8D JUMPI PUSH2 0x1E8D PUSH2 0x4B02 JUMP JUMPDEST PUSH1 0x20 SWAP1 DUP2 MUL SWAP2 SWAP1 SWAP2 ADD ADD MLOAD PUSH1 0x80 ADD MSTORE PUSH1 0x4 SLOAD PUSH1 0x1 PUSH1 0x1 PUSH1 0xA0 SHL SUB AND DUP1 ISZERO PUSH2 0x1F80 JUMPI DUP1 PUSH1 0x1 PUSH1 0x1 PUSH1 0xA0 SHL SUB AND PUSH4 0x5C702750 DUP9 PUSH1 0x0 DUP2 MLOAD DUP2 LT PUSH2 0x1ED0 JUMPI PUSH2 0x1ED0 PUSH2 0x4B02 JUMP JUMPDEST PUSH1 0x20 MUL PUSH1 0x20 ADD ADD MLOAD PUSH1 0xA0 ADD MLOAD DUP10 PUSH1 0x0 DUP2 MLOAD DUP2 LT PUSH2 0x1EEF JUMPI PUSH2 0x1EEF PUSH2 0x4B02 JUMP JUMPDEST PUSH1 0x20 MUL PUSH1 0x20 ADD ADD MLOAD PUSH1 0x80 ADD MLOAD PUSH1 0x40 MLOAD DUP4 PUSH4 0xFFFFFFFF AND PUSH1 0xE0 SHL DUP2 MSTORE PUSH1 0x4 ADD PUSH2 0x1F18 SWAP3 SWAP2 SWAP1 PUSH2 0x5298 JUMP JUMPDEST PUSH1 0x0 PUSH1 0x40 MLOAD DUP1 DUP4 SUB DUP2 DUP7 GAS STATICCALL ISZERO DUP1 ISZERO PUSH2 0x1F35 JUMPI RETURNDATASIZE PUSH1 0x0 DUP1 RETURNDATACOPY RETURNDATASIZE PUSH1 0x0 REVERT JUMPDEST POP POP POP POP PUSH1 0x40 MLOAD RETURNDATASIZE PUSH1 0x0 DUP3 RETURNDATACOPY PUSH1 0x1F RETURNDATASIZE SWAP1 DUP2 ADD PUSH1 0x1F NOT AND DUP3 ADD PUSH1 0x40 MSTORE PUSH2 0x1F5D SWAP2 SWAP1 DUP2 ADD SWAP1 PUSH2 0x5209 JUMP JUMPDEST DUP8 PUSH1 0x0 DUP2 MLOAD DUP2 LT PUSH2 0x1F70 JUMPI PUSH2 0x1F70 PUSH2 0x4B02 JUMP JUMPDEST PUSH1 0x20 MUL PUSH1 0x20 ADD ADD MLOAD PUSH1 0xA0 ADD DUP2 SWAP1 MSTORE POP JUMPDEST PUSH1 0x40 MLOAD PUSH4 0xDCA7923 PUSH1 0xE2 SHL DUP2 MSTORE ADDRESS SWAP1 PUSH4 0x3729E48C SWAP1 PUSH2 0x1FA5 SWAP1 DUP12 SWAP1 DUP12 SWAP1 PUSH1 0x4 ADD PUSH2 0x4B77 JUMP JUMPDEST PUSH1 0x20 PUSH1 0x40 MLOAD DUP1 DUP4 SUB DUP2 PUSH1 0x0 DUP8 GAS CALL SWAP3 POP POP POP DUP1 ISZERO PUSH2 0x1FE0 JUMPI POP PUSH1 0x40 DUP1 MLOAD PUSH1 0x1F RETURNDATASIZE SWAP1 DUP2 ADD PUSH1 0x1F NOT AND DUP3 ADD SWAP1 SWAP3 MSTORE PUSH2 0x1FDD SWAP2 DUP2 ADD SWAP1 PUSH2 0x4C3E JUMP JUMPDEST PUSH1 0x1 JUMPDEST PUSH2 0x20E7 JUMPI PUSH2 0x1FEC PUSH2 0x52BA JUMP JUMPDEST DUP1 PUSH4 0x8C379A0 SUB PUSH2 0x206E JUMPI POP PUSH2 0x2000 PUSH2 0x52D5 JUMP JUMPDEST DUP1 PUSH2 0x200B JUMPI POP PUSH2 0x2070 JUMP JUMPDEST PUSH2 0x201E DUP10 PUSH1 0xA0 ADD MLOAD DUP11 PUSH1 0x20 ADD MLOAD DUP8 PUSH2 0x2206 JUMP JUMPDEST DUP9 MLOAD PUSH1 0x40 DUP1 MLOAD PUSH1 0x20 DUP2 ADD DUP3 MSTORE PUSH1 0x0 DUP2 MSTORE SWAP1 MLOAD PUSH32 0xC7D9D9321C7E3ED428993A0E144FD8847919C4ADE4D08E85F8E18217E61BA82E SWAP2 PUSH2 0x2060 SWAP2 DUP6 SWAP2 SWAP1 DUP15 SWAP1 PUSH2 0x535E JUMP JUMPDEST PUSH1 0x40 MLOAD DUP1 SWAP2 SUB SWAP1 LOG2 POP PUSH2 0x216E JUMP JUMPDEST POP JUMPDEST RETURNDATASIZE DUP1 DUP1 ISZERO PUSH2 0x209A JUMPI PUSH1 0x40 MLOAD SWAP2 POP PUSH1 0x1F NOT PUSH1 0x3F RETURNDATASIZE ADD AND DUP3 ADD PUSH1 0x40 MSTORE RETURNDATASIZE DUP3 MSTORE RETURNDATASIZE PUSH1 0x0 PUSH1 0x20 DUP5 ADD RETURNDATACOPY PUSH2 0x209F JUMP JUMPDEST PUSH1 0x60 SWAP2 POP JUMPDEST POP PUSH2 0x20B3 DUP10 PUSH1 0xA0 ADD MLOAD DUP11 PUSH1 0x20 ADD MLOAD DUP8 PUSH2 0x2206 JUMP JUMPDEST DUP9 MLOAD PUSH1 0x40 MLOAD PUSH32 0xC7D9D9321C7E3ED428993A0E144FD8847919C4ADE4D08E85F8E18217E61BA82E SWAP1 PUSH2 0x2060 SWAP1 DUP5 SWAP1 DUP14 SWAP1 PUSH2 0x5396 JUMP JUMPDEST PUSH2 0x2120 DUP9 PUSH1 0x1 DUP11 MLOAD PUSH2 0x20F9 SWAP2 SWAP1 PUSH2 0x4C6D JUMP JUMPDEST DUP2 MLOAD DUP2 LT PUSH2 0x2109 JUMPI PUSH2 0x2109 PUSH2 0x4B02 JUMP JUMPDEST PUSH1 0x20 MUL PUSH1 0x20 ADD ADD MLOAD PUSH1 0x60 ADD MLOAD DUP11 PUSH1 0x20 ADD MLOAD DUP4 PUSH2 0x2206 JUMP JUMPDEST DUP9 PUSH1 0x0 ADD MLOAD PUSH32 0x18ACD05157EFE71792E50E247CDF5E2725C6F4F63A515C43AA99E548F61DB9DF DUP11 PUSH1 0xA0 ADD MLOAD DUP12 PUSH1 0x20 ADD MLOAD DUP5 TIMESTAMP DUP15 PUSH1 0x40 MLOAD PUSH2 0x2164 SWAP6 SWAP5 SWAP4 SWAP3 SWAP2 SWAP1 PUSH2 0x525A JUMP JUMPDEST PUSH1 0x40 MLOAD DUP1 SWAP2 SUB SWAP1 LOG2 POP JUMPDEST POP JUMPDEST POP POP POP POP POP POP POP POP POP POP POP POP POP POP JUMP JUMPDEST PUSH1 0x0 PUSH1 0x1 PUSH1 0x1 PUSH1 0xA0 SHL SUB DUP3 AND ISZERO PUSH2 0x21FE JUMPI PUSH1 0x40 MLOAD PUSH4 0x70A08231 PUSH1 0xE0 SHL DUP2 MSTORE ADDRESS PUSH1 0x4 DUP3 ADD MSTORE PUSH1 0x1 PUSH1 0x1 PUSH1 0xA0 SHL SUB DUP4 AND SWAP1 PUSH4 0x70A08231 SWAP1 PUSH1 0x24 ADD PUSH1 0x20 PUSH1 0x40 MLOAD DUP1 DUP4 SUB DUP2 DUP7 GAS STATICCALL ISZERO DUP1 ISZERO PUSH2 0x21D5 JUMPI RETURNDATASIZE PUSH1 0x0 DUP1 RETURNDATACOPY RETURNDATASIZE PUSH1 0x0 REVERT JUMPDEST POP POP POP POP PUSH1 0x40 MLOAD RETURNDATASIZE PUSH1 0x1F NOT PUSH1 0x1F DUP3 ADD AND DUP3 ADD DUP1 PUSH1 0x40 MSTORE POP DUP2 ADD SWAP1 PUSH2 0x21F9 SWAP2 SWAP1 PUSH2 0x4C3E JUMP JUMPDEST PUSH2 0x2200 JUMP JUMPDEST SELFBALANCE JUMPDEST SWAP3 SWAP2 POP POP JUMP JUMPDEST PUSH1 0x1 PUSH1 0x1 PUSH1 0xA0 SHL SUB DUP4 AND ISZERO PUSH2 0x2220 JUMPI PUSH2 0x1070 DUP4 DUP4 DUP4 PUSH2 0x34E2 JUMP JUMPDEST PUSH2 0x1070 DUP3 DUP3 PUSH2 0x3514 JUMP JUMPDEST PUSH1 0x40 DUP1 MLOAD PUSH1 0xE0 DUP2 ADD DUP3 MSTORE PUSH1 0x0 DUP1 DUP3 MSTORE PUSH1 0x20 DUP3 ADD DUP2 SWAP1 MSTORE SWAP2 DUP2 ADD DUP3 SWAP1 MSTORE PUSH1 0x60 DUP2 ADD DUP3 SWAP1 MSTORE PUSH1 0x80 DUP2 ADD DUP3 SWAP1 MSTORE PUSH1 0xA0 DUP2 ADD DUP3 SWAP1 MSTORE PUSH1 0xC0 DUP2 ADD SWAP2 SWAP1 SWAP2 MSTORE PUSH1 0x40 DUP1 MLOAD PUSH1 0xE0 DUP2 ADD SWAP1 SWAP2 MSTORE DUP3 MLOAD DUP2 SWAP1 PUSH2 0x227D SWAP1 PUSH1 0x0 PUSH2 0x35AF JUMP JUMPDEST DUP2 MSTORE PUSH1 0x20 ADD PUSH2 0x228F DUP5 PUSH1 0x20 ADD MLOAD PUSH2 0x3604 JUMP JUMPDEST PUSH1 0x1 PUSH1 0x1 PUSH1 0xA0 SHL SUB AND DUP2 MSTORE PUSH1 0x20 ADD DUP4 PUSH1 0x40 ADD MLOAD PUSH2 0xFFFF AND DUP2 MSTORE PUSH1 0x20 ADD PUSH2 0x22C3 PUSH1 0x0 DUP6 PUSH1 0x60 ADD MLOAD PUSH2 0x2D8A SWAP1 SWAP2 SWAP1 PUSH4 0xFFFFFFFF AND JUMP JUMPDEST PUSH1 0x1 PUSH1 0x1 PUSH1 0xA0 SHL SUB AND DUP2 MSTORE PUSH1 0x20 ADD DUP4 PUSH1 0x80 ADD MLOAD PUSH2 0xFFFF AND DUP2 MSTORE PUSH1 0x20 ADD PUSH2 0x22EC DUP5 PUSH1 0xA0 ADD MLOAD PUSH2 0x3604 JUMP JUMPDEST PUSH1 0x1 PUSH1 0x1 PUSH1 0xA0 SHL SUB AND DUP2 MSTORE PUSH1 0x20 ADD DUP4 PUSH1 0xC0 ADD MLOAD DUP2 MSTORE POP SWAP1 POP SWAP2 SWAP1 POP JUMP JUMPDEST PUSH1 0x60 PUSH1 0x0 DUP3 MLOAD PUSH1 0x1 PUSH1 0x1 PUSH1 0x40 SHL SUB DUP2 GT ISZERO PUSH2 0x2326 JUMPI PUSH2 0x2326 PUSH2 0x4113 JUMP JUMPDEST PUSH1 0x40 MLOAD SWAP1 DUP1 DUP3 MSTORE DUP1 PUSH1 0x20 MUL PUSH1 0x20 ADD DUP3 ADD PUSH1 0x40 MSTORE DUP1 ISZERO PUSH2 0x2388 JUMPI DUP2 PUSH1 0x20 ADD JUMPDEST PUSH1 0x40 DUP1 MLOAD PUSH1 0xC0 DUP2 ADD DUP3 MSTORE PUSH1 0x0 DUP1 DUP3 MSTORE PUSH1 0x20 DUP1 DUP4 ADD DUP3 SWAP1 MSTORE SWAP3 DUP3 ADD DUP2 SWAP1 MSTORE PUSH1 0x60 DUP1 DUP4 ADD DUP3 SWAP1 MSTORE PUSH1 0x80 DUP4 ADD SWAP2 SWAP1 SWAP2 MSTORE PUSH1 0xA0 DUP3 ADD MSTORE DUP3 MSTORE PUSH1 0x0 NOT SWAP1 SWAP3 ADD SWAP2 ADD DUP2 PUSH2 0x2344 JUMPI SWAP1 POP JUMPDEST POP SWAP1 POP PUSH1 0x0 JUMPDEST DUP2 MLOAD DUP2 LT ISZERO PUSH2 0x25C5 JUMPI PUSH2 0x23C8 PUSH1 0x0 DUP6 DUP4 DUP2 MLOAD DUP2 LT PUSH2 0x23AE JUMPI PUSH2 0x23AE PUSH2 0x4B02 JUMP JUMPDEST PUSH1 0x20 MUL PUSH1 0x20 ADD ADD MLOAD PUSH1 0x0 ADD MLOAD PUSH2 0x2D8A SWAP1 SWAP2 SWAP1 PUSH4 0xFFFFFFFF AND JUMP JUMPDEST DUP3 DUP3 DUP2 MLOAD DUP2 LT PUSH2 0x23DA JUMPI PUSH2 0x23DA PUSH2 0x4B02 JUMP JUMPDEST PUSH1 0x20 MUL PUSH1 0x20 ADD ADD MLOAD PUSH1 0x0 ADD SWAP1 PUSH1 0x1 PUSH1 0x1 PUSH1 0xA0 SHL SUB AND SWAP1 DUP2 PUSH1 0x1 PUSH1 0x1 PUSH1 0xA0 SHL SUB AND DUP2 MSTORE POP POP PUSH2 0x242F PUSH1 0x0 DUP6 DUP4 DUP2 MLOAD DUP2 LT PUSH2 0x2415 JUMPI PUSH2 0x2415 PUSH2 0x4B02 JUMP JUMPDEST PUSH1 0x20 MUL PUSH1 0x20 ADD ADD MLOAD PUSH1 0x20 ADD MLOAD PUSH2 0x2D8A SWAP1 SWAP2 SWAP1 PUSH4 0xFFFFFFFF AND JUMP JUMPDEST DUP3 DUP3 DUP2 MLOAD DUP2 LT PUSH2 0x2441 JUMPI PUSH2 0x2441 PUSH2 0x4B02 JUMP JUMPDEST PUSH1 0x20 MUL PUSH1 0x20 ADD ADD MLOAD PUSH1 0x20 ADD SWAP1 PUSH1 0x1 PUSH1 0x1 PUSH1 0xA0 SHL SUB AND SWAP1 DUP2 PUSH1 0x1 PUSH1 0x1 PUSH1 0xA0 SHL SUB AND DUP2 MSTORE POP POP PUSH2 0x2496 PUSH1 0x0 DUP6 DUP4 DUP2 MLOAD DUP2 LT PUSH2 0x247C JUMPI PUSH2 0x247C PUSH2 0x4B02 JUMP JUMPDEST PUSH1 0x20 MUL PUSH1 0x20 ADD ADD MLOAD PUSH1 0x40 ADD MLOAD PUSH2 0x2D8A SWAP1 SWAP2 SWAP1 PUSH4 0xFFFFFFFF AND JUMP JUMPDEST DUP3 DUP3 DUP2 MLOAD DUP2 LT PUSH2 0x24A8 JUMPI PUSH2 0x24A8 PUSH2 0x4B02 JUMP JUMPDEST PUSH1 0x20 MUL PUSH1 0x20 ADD ADD MLOAD PUSH1 0x40 ADD SWAP1 PUSH1 0x1 PUSH1 0x1 PUSH1 0xA0 SHL SUB AND SWAP1 DUP2 PUSH1 0x1 PUSH1 0x1 PUSH1 0xA0 SHL SUB AND DUP2 MSTORE POP POP PUSH2 0x24FD PUSH1 0x0 DUP6 DUP4 DUP2 MLOAD DUP2 LT PUSH2 0x24E3 JUMPI PUSH2 0x24E3 PUSH2 0x4B02 JUMP JUMPDEST PUSH1 0x20 MUL PUSH1 0x20 ADD ADD MLOAD PUSH1 0x60 ADD MLOAD PUSH2 0x2D8A SWAP1 SWAP2 SWAP1 PUSH4 0xFFFFFFFF AND JUMP JUMPDEST DUP3 DUP3 DUP2 MLOAD DUP2 LT PUSH2 0x250F JUMPI PUSH2 0x250F PUSH2 0x4B02 JUMP JUMPDEST PUSH1 0x20 MUL PUSH1 0x20 ADD ADD MLOAD PUSH1 0x60 ADD SWAP1 PUSH1 0x1 PUSH1 0x1 PUSH1 0xA0 SHL SUB AND SWAP1 DUP2 PUSH1 0x1 PUSH1 0x1 PUSH1 0xA0 SHL SUB AND DUP2 MSTORE POP POP DUP4 DUP2 DUP2 MLOAD DUP2 LT PUSH2 0x2545 JUMPI PUSH2 0x2545 PUSH2 0x4B02 JUMP JUMPDEST PUSH1 0x20 MUL PUSH1 0x20 ADD ADD MLOAD PUSH1 0x80 ADD MLOAD DUP3 DUP3 DUP2 MLOAD DUP2 LT PUSH2 0x2563 JUMPI PUSH2 0x2563 PUSH2 0x4B02 JUMP JUMPDEST PUSH1 0x20 MUL PUSH1 0x20 ADD ADD MLOAD PUSH1 0x80 ADD DUP2 DUP2 MSTORE POP POP DUP4 DUP2 DUP2 MLOAD DUP2 LT PUSH2 0x2585 JUMPI PUSH2 0x2585 PUSH2 0x4B02 JUMP JUMPDEST PUSH1 0x20 MUL PUSH1 0x20 ADD ADD MLOAD PUSH1 0xA0 ADD MLOAD DUP3 DUP3 DUP2 MLOAD DUP2 LT PUSH2 0x25A3 JUMPI PUSH2 0x25A3 PUSH2 0x4B02 JUMP JUMPDEST PUSH1 0x20 MUL PUSH1 0x20 ADD ADD MLOAD PUSH1 0xA0 ADD DUP2 SWAP1 MSTORE POP DUP1 DUP1 PUSH2 0x25BD SWAP1 PUSH2 0x53CA JUMP JUMPDEST SWAP2 POP POP PUSH2 0x238E JUMP JUMPDEST POP SWAP3 SWAP2 POP POP JUMP JUMPDEST PUSH32 0xC8FCAD8DB84D3CC18B4C41D551EA0EE66DD599CDE068D998E57D5E09332C1320 SLOAD PUSH1 0x1 PUSH1 0x1 PUSH1 0xA0 SHL SUB AND SWAP1 JUMP JUMPDEST PUSH2 0x260F DUP3 DUP3 PUSH1 0x1 PUSH1 0x1 PUSH1 0xA0 SHL SUB DUP3 AND ISZERO PUSH2 0x3627 JUMP JUMPDEST POP POP JUMP JUMPDEST PUSH1 0x0 DUP1 MLOAD PUSH1 0x20 PUSH2 0x5808 DUP4 CODECOPY DUP2 MLOAD SWAP2 MSTORE DUP1 SLOAD PUSH1 0x1 PUSH1 0x1 PUSH1 0xA0 SHL SUB AND PUSH1 0x0 PUSH2 0x263C PUSH1 0x60 DUP9 ADD DUP9 PUSH2 0x515A JUMP JUMPDEST SWAP1 POP PUSH1 0x14 SUB PUSH2 0x2667 JUMPI PUSH2 0x2657 PUSH1 0x0 PUSH2 0x153D PUSH1 0x60 DUP11 ADD DUP11 PUSH2 0x515A JUMP JUMPDEST PUSH1 0x1 PUSH1 0x1 PUSH1 0xA0 SHL SUB AND SWAP1 POP PUSH2 0x26B9 JUMP JUMPDEST PUSH2 0x26B6 PUSH1 0x0 PUSH2 0x2679 PUSH1 0x60 DUP11 ADD DUP11 PUSH2 0x515A JUMP JUMPDEST DUP1 DUP1 PUSH1 0x1F ADD PUSH1 0x20 DUP1 SWAP2 DIV MUL PUSH1 0x20 ADD PUSH1 0x40 MLOAD SWAP1 DUP2 ADD PUSH1 0x40 MSTORE DUP1 SWAP4 SWAP3 SWAP2 SWAP1 DUP2 DUP2 MSTORE PUSH1 0x20 ADD DUP4 DUP4 DUP1 DUP3 DUP5 CALLDATACOPY PUSH1 0x0 SWAP3 ADD SWAP2 SWAP1 SWAP2 MSTORE POP SWAP3 SWAP4 SWAP3 POP POP PUSH2 0x35AF SWAP1 POP JUMP JUMPDEST SWAP1 POP JUMPDEST PUSH1 0x0 DUP1 PUSH2 0x26C4 PUSH2 0x901 JUMP JUMPDEST SWAP1 POP PUSH1 0x1 PUSH1 0x1 PUSH1 0xA0 SHL SUB DUP9 AND PUSH2 0x2767 JUMPI PUSH1 0x1 PUSH1 0x1 PUSH1 0xA0 SHL SUB DUP5 AND PUSH4 0xBEE9CDFC PUSH2 0x26ED DUP4 DUP11 PUSH2 0x511C JUMP JUMPDEST PUSH2 0x26FA PUSH1 0x20 DUP14 ADD DUP14 PUSH2 0x4CE1 JUMP JUMPDEST DUP7 PUSH1 0x0 DUP12 PUSH1 0x40 MLOAD DUP7 PUSH4 0xFFFFFFFF AND PUSH1 0xE0 SHL DUP2 MSTORE PUSH1 0x4 ADD PUSH2 0x271D SWAP5 SWAP4 SWAP3 SWAP2 SWAP1 PUSH2 0x53E3 JUMP JUMPDEST PUSH1 0x20 PUSH1 0x40 MLOAD DUP1 DUP4 SUB DUP2 DUP6 DUP9 GAS CALL ISZERO DUP1 ISZERO PUSH2 0x273B JUMPI RETURNDATASIZE PUSH1 0x0 DUP1 RETURNDATACOPY RETURNDATASIZE PUSH1 0x0 REVERT JUMPDEST POP POP POP POP POP PUSH1 0x40 MLOAD RETURNDATASIZE PUSH1 0x1F NOT PUSH1 0x1F DUP3 ADD AND DUP3 ADD DUP1 PUSH1 0x40 MSTORE POP DUP2 ADD SWAP1 PUSH2 0x2760 SWAP2 SWAP1 PUSH2 0x5412 JUMP JUMPDEST SWAP2 POP PUSH2 0x27FC JUMP JUMPDEST PUSH2 0x2772 DUP9 DUP6 DUP10 PUSH2 0x36BA JUMP JUMPDEST PUSH1 0x1 PUSH1 0x1 PUSH1 0xA0 SHL SUB DUP5 AND PUSH4 0xC5A5EBDA DUP3 DUP11 DUP11 PUSH2 0x2791 PUSH1 0x20 DUP16 ADD DUP16 PUSH2 0x4CE1 JUMP JUMPDEST DUP9 PUSH1 0x0 DUP14 PUSH1 0x40 MLOAD DUP9 PUSH4 0xFFFFFFFF AND PUSH1 0xE0 SHL DUP2 MSTORE PUSH1 0x4 ADD PUSH2 0x27B6 SWAP7 SWAP6 SWAP5 SWAP4 SWAP3 SWAP2 SWAP1 PUSH2 0x542D JUMP JUMPDEST PUSH1 0x20 PUSH1 0x40 MLOAD DUP1 DUP4 SUB DUP2 DUP6 DUP9 GAS CALL ISZERO DUP1 ISZERO PUSH2 0x27D4 JUMPI RETURNDATASIZE PUSH1 0x0 DUP1 RETURNDATACOPY RETURNDATASIZE PUSH1 0x0 REVERT JUMPDEST POP POP POP POP POP PUSH1 0x40 MLOAD RETURNDATASIZE PUSH1 0x1F NOT PUSH1 0x1F DUP3 ADD AND DUP3 ADD DUP1 PUSH1 0x40 MSTORE POP DUP2 ADD SWAP1 PUSH2 0x27F9 SWAP2 SWAP1 PUSH2 0x5412 JUMP JUMPDEST SWAP2 POP JUMPDEST PUSH1 0x0 PUSH2 0x2807 DUP10 PUSH2 0x2180 JUMP JUMPDEST SWAP1 POP DUP1 ISZERO PUSH2 0x281A JUMPI PUSH2 0x281A DUP10 CALLER DUP4 PUSH2 0x2206 JUMP JUMPDEST DUP6 SLOAD PUSH32 0x54AAC47748246A3AB5F96928B15860FFE57608CD8D74364AC38444A9093AA2EA SWAP1 PUSH1 0x1 PUSH1 0xA0 SHL SWAP1 DIV PUSH2 0xFFFF AND PUSH2 0x2856 PUSH1 0x20 DUP14 ADD DUP14 PUSH2 0x4CE1 JUMP JUMPDEST PUSH1 0x40 DUP1 MLOAD PUSH2 0xFFFF SWAP4 DUP5 AND DUP2 MSTORE SWAP3 SWAP1 SWAP2 AND PUSH1 0x20 DUP4 ADD MSTORE PUSH1 0x1 PUSH1 0x1 PUSH1 0x40 SHL SUB DUP7 AND SWAP1 DUP3 ADD MSTORE PUSH1 0x60 ADD PUSH1 0x40 MLOAD DUP1 SWAP2 SUB SWAP1 LOG1 POP POP POP POP POP POP POP POP POP POP JUMP JUMPDEST PUSH1 0x0 PUSH2 0xD94 DUP3 DUP5 PUSH2 0x547C JUMP JUMPDEST PUSH1 0x0 PUSH2 0xD94 DUP3 DUP5 PUSH2 0x549B JUMP JUMPDEST PUSH1 0x0 PUSH2 0xD94 DUP3 DUP5 PUSH2 0x511C JUMP JUMPDEST PUSH32 0xC8FCAD8DB84D3CC18B4C41D551EA0EE66DD599CDE068D998E57D5E09332C131C PUSH1 0x4 ADD SLOAD PUSH1 0x1 PUSH1 0x1 PUSH1 0xA0 SHL SUB AND CALLER EQ PUSH2 0x293B JUMPI PUSH1 0x40 MLOAD PUSH3 0x461BCD PUSH1 0xE5 SHL DUP2 MSTORE PUSH1 0x20 PUSH1 0x4 DUP3 ADD MSTORE PUSH1 0x22 PUSH1 0x24 DUP3 ADD MSTORE PUSH32 0x4C69624469616D6F6E643A204D75737420626520636F6E7472616374206F776E PUSH1 0x44 DUP3 ADD MSTORE PUSH2 0x32B9 PUSH1 0xF1 SHL PUSH1 0x64 DUP3 ADD MSTORE PUSH1 0x84 ADD PUSH2 0x49D JUMP JUMPDEST JUMP JUMPDEST PUSH1 0x0 DUP3 DUP3 PUSH1 0x0 DUP2 DUP2 LT PUSH2 0x2952 JUMPI PUSH2 0x2952 PUSH2 0x4B02 JUMP JUMPDEST SWAP1 POP PUSH1 0x20 MUL DUP2 ADD SWAP1 PUSH2 0x2964 SWAP2 SWAP1 PUSH2 0x4D3A JUMP JUMPDEST PUSH2 0x296D SWAP1 PUSH2 0x54BD JUMP JUMPDEST SWAP1 POP PUSH1 0x0 JUMPDEST DUP3 DUP2 LT ISZERO PUSH2 0x2B5E JUMPI PUSH1 0x60 DUP3 ADD MLOAD PUSH1 0x0 PUSH2 0x298A DUP3 PUSH2 0x2180 JUMP JUMPDEST PUSH1 0x20 DUP1 DUP7 ADD MLOAD PUSH1 0x1 PUSH1 0x1 PUSH1 0xA0 SHL SUB AND PUSH1 0x0 SWAP1 DUP2 MSTORE SWAP1 DUP2 SWAP1 MSTORE PUSH1 0x40 SWAP1 KECCAK256 SLOAD SWAP1 SWAP2 POP PUSH1 0xFF AND DUP1 ISZERO PUSH2 0x29D2 JUMPI POP DUP4 MLOAD PUSH1 0x1 PUSH1 0x1 PUSH1 0xA0 SHL SUB AND PUSH1 0x0 SWAP1 DUP2 MSTORE PUSH1 0x20 DUP2 SWAP1 MSTORE PUSH1 0x40 SWAP1 KECCAK256 SLOAD PUSH1 0xFF AND JUMPDEST DUP1 ISZERO PUSH2 0x2A0F JUMPI POP PUSH1 0x0 PUSH1 0x1 ADD PUSH1 0x0 PUSH2 0x29F1 DUP7 PUSH1 0xA0 ADD MLOAD PUSH1 0x0 PUSH1 0x4 PUSH2 0x377F JUMP JUMPDEST PUSH2 0x29FA SWAP1 PUSH2 0x5570 JUMP JUMPDEST DUP2 MSTORE PUSH1 0x20 DUP2 ADD SWAP2 SWAP1 SWAP2 MSTORE PUSH1 0x40 ADD PUSH1 0x0 KECCAK256 SLOAD PUSH1 0xFF AND JUMPDEST PUSH2 0x2A2C JUMPI PUSH1 0x40 MLOAD PUSH4 0x2514E601 PUSH1 0xE2 SHL DUP2 MSTORE PUSH1 0x4 ADD PUSH1 0x40 MLOAD DUP1 SWAP2 SUB SWAP1 REVERT JUMPDEST DUP7 MLOAD PUSH2 0x2A38 SWAP1 DUP6 PUSH2 0x383D JUMP JUMPDEST DUP1 PUSH2 0x2A42 DUP4 PUSH2 0x2180 JUMP JUMPDEST PUSH2 0x2A4C SWAP2 SWAP1 PUSH2 0x4C6D JUMP JUMPDEST SWAP1 POP DUP5 PUSH2 0x2A5A DUP5 PUSH1 0x1 PUSH2 0x511C JUMP JUMPDEST LT ISZERO PUSH2 0x2B49 JUMPI DUP6 DUP6 PUSH2 0x2A6D DUP6 PUSH1 0x1 PUSH2 0x511C JUMP JUMPDEST DUP2 DUP2 LT PUSH2 0x2A7C JUMPI PUSH2 0x2A7C PUSH2 0x4B02 JUMP JUMPDEST SWAP1 POP PUSH1 0x20 MUL DUP2 ADD SWAP1 PUSH2 0x2A8E SWAP2 SWAP1 PUSH2 0x4D3A JUMP JUMPDEST PUSH2 0x2A97 SWAP1 PUSH2 0x54BD JUMP JUMPDEST PUSH1 0x4 SLOAD SWAP1 SWAP5 POP PUSH1 0x1 PUSH1 0x1 PUSH1 0xA0 SHL SUB AND DUP1 PUSH2 0x2AC4 JUMPI PUSH1 0x40 MLOAD PUSH4 0x74C37B43 PUSH1 0xE1 SHL DUP2 MSTORE PUSH1 0x4 ADD PUSH1 0x40 MLOAD DUP1 SWAP2 SUB SWAP1 REVERT JUMPDEST PUSH1 0x80 DUP6 ADD DUP3 SWAP1 MSTORE PUSH1 0xA0 DUP6 ADD MLOAD PUSH1 0x40 MLOAD PUSH4 0x5C70275 PUSH1 0xE4 SHL DUP2 MSTORE PUSH1 0x1 PUSH1 0x1 PUSH1 0xA0 SHL SUB DUP4 AND SWAP2 PUSH4 0x5C702750 SWAP2 PUSH2 0x2AFD SWAP2 SWAP1 DUP7 SWAP1 PUSH1 0x4 ADD PUSH2 0x5298 JUMP JUMPDEST PUSH1 0x0 PUSH1 0x40 MLOAD DUP1 DUP4 SUB DUP2 DUP7 GAS STATICCALL ISZERO DUP1 ISZERO PUSH2 0x2B1A JUMPI RETURNDATASIZE PUSH1 0x0 DUP1 RETURNDATACOPY RETURNDATASIZE PUSH1 0x0 REVERT JUMPDEST POP POP POP POP PUSH1 0x40 MLOAD RETURNDATASIZE PUSH1 0x0 DUP3 RETURNDATACOPY PUSH1 0x1F RETURNDATASIZE SWAP1 DUP2 ADD PUSH1 0x1F NOT AND DUP3 ADD PUSH1 0x40 MSTORE PUSH2 0x2B42 SWAP2 SWAP1 DUP2 ADD SWAP1 PUSH2 0x5209 JUMP JUMPDEST PUSH1 0xA0 DUP7 ADD MSTORE POP JUMPDEST POP POP DUP1 DUP1 PUSH2 0x2B56 SWAP1 PUSH2 0x53CA JUMP JUMPDEST SWAP2 POP POP PUSH2 0x2972 JUMP JUMPDEST POP POP POP POP POP JUMP JUMPDEST PUSH1 0x0 PUSH2 0x2B72 DUP3 PUSH1 0x2 PUSH2 0x511C JUMP JUMPDEST DUP4 MLOAD LT ISZERO PUSH2 0x2BB9 JUMPI PUSH1 0x40 MLOAD PUSH3 0x461BCD PUSH1 0xE5 SHL DUP2 MSTORE PUSH1 0x20 PUSH1 0x4 DUP3 ADD MSTORE PUSH1 0x14 PUSH1 0x24 DUP3 ADD MSTORE PUSH20 0x746F55696E7431365F6F75744F66426F756E6473 PUSH1 0x60 SHL PUSH1 0x44 DUP3 ADD MSTORE PUSH1 0x64 ADD PUSH2 0x49D JUMP JUMPDEST POP ADD PUSH1 0x2 ADD MLOAD SWAP1 JUMP JUMPDEST PUSH1 0x0 PUSH2 0x2BCF DUP3 PUSH1 0x20 PUSH2 0x511C JUMP JUMPDEST DUP4 MLOAD LT ISZERO PUSH2 0x2C17 JUMPI PUSH1 0x40 MLOAD PUSH3 0x461BCD PUSH1 0xE5 SHL DUP2 MSTORE PUSH1 0x20 PUSH1 0x4 DUP3 ADD MSTORE PUSH1 0x15 PUSH1 0x24 DUP3 ADD MSTORE PUSH21 0x746F55696E743235365F6F75744F66426F756E6473 PUSH1 0x58 SHL PUSH1 0x44 DUP3 ADD MSTORE PUSH1 0x64 ADD PUSH2 0x49D JUMP JUMPDEST POP ADD PUSH1 0x20 ADD MLOAD SWAP1 JUMP JUMPDEST PUSH1 0x0 PUSH2 0x2C2D DUP3 PUSH1 0x8 PUSH2 0x511C JUMP JUMPDEST DUP4 MLOAD LT ISZERO PUSH2 0x2C74 JUMPI PUSH1 0x40 MLOAD PUSH3 0x461BCD PUSH1 0xE5 SHL DUP2 MSTORE PUSH1 0x20 PUSH1 0x4 DUP3 ADD MSTORE PUSH1 0x14 PUSH1 0x24 DUP3 ADD MSTORE PUSH20 0x746F55696E7436345F6F75744F66426F756E6473 PUSH1 0x60 SHL PUSH1 0x44 DUP3 ADD MSTORE PUSH1 0x64 ADD PUSH2 0x49D JUMP JUMPDEST POP ADD PUSH1 0x8 ADD MLOAD SWAP1 JUMP JUMPDEST PUSH1 0x60 DUP2 PUSH2 0x2C8B DUP2 PUSH1 0x1F PUSH2 0x511C JUMP JUMPDEST LT ISZERO PUSH2 0x2CCA JUMPI PUSH1 0x40 MLOAD PUSH3 0x461BCD PUSH1 0xE5 SHL DUP2 MSTORE PUSH1 0x20 PUSH1 0x4 DUP3 ADD MSTORE PUSH1 0xE PUSH1 0x24 DUP3 ADD MSTORE PUSH14 0x736C6963655F6F766572666C6F77 PUSH1 0x90 SHL PUSH1 0x44 DUP3 ADD MSTORE PUSH1 0x64 ADD PUSH2 0x49D JUMP JUMPDEST PUSH2 0x2CD4 DUP3 DUP5 PUSH2 0x511C JUMP JUMPDEST DUP5 MLOAD LT ISZERO PUSH2 0x2D18 JUMPI PUSH1 0x40 MLOAD PUSH3 0x461BCD PUSH1 0xE5 SHL DUP2 MSTORE PUSH1 0x20 PUSH1 0x4 DUP3 ADD MSTORE PUSH1 0x11 PUSH1 0x24 DUP3 ADD MSTORE PUSH17 0x736C6963655F6F75744F66426F756E6473 PUSH1 0x78 SHL PUSH1 0x44 DUP3 ADD MSTORE PUSH1 0x64 ADD PUSH2 0x49D JUMP JUMPDEST PUSH1 0x60 DUP3 ISZERO DUP1 ISZERO PUSH2 0x2D37 JUMPI PUSH1 0x40 MLOAD SWAP2 POP PUSH1 0x0 DUP3 MSTORE PUSH1 0x20 DUP3 ADD PUSH1 0x40 MSTORE PUSH2 0x2D81 JUMP JUMPDEST PUSH1 0x40 MLOAD SWAP2 POP PUSH1 0x1F DUP5 AND DUP1 ISZERO PUSH1 0x20 MUL DUP2 DUP5 ADD ADD DUP6 DUP2 ADD DUP8 DUP4 ISZERO PUSH1 0x20 MUL DUP5 DUP12 ADD ADD ADD JUMPDEST DUP2 DUP4 LT ISZERO PUSH2 0x2D70 JUMPI DUP1 MLOAD DUP4 MSTORE PUSH1 0x20 SWAP3 DUP4 ADD SWAP3 ADD PUSH2 0x2D58 JUMP JUMPDEST POP POP DUP6 DUP5 MSTORE PUSH1 0x1F ADD PUSH1 0x1F NOT AND PUSH1 0x40 MSTORE POP JUMPDEST POP SWAP5 SWAP4 POP POP POP POP JUMP JUMPDEST PUSH1 0x0 PUSH2 0x2D97 DUP3 PUSH1 0x14 PUSH2 0x511C JUMP JUMPDEST DUP4 MLOAD LT ISZERO PUSH2 0x2DDF JUMPI PUSH1 0x40 MLOAD PUSH3 0x461BCD PUSH1 0xE5 SHL DUP2 MSTORE PUSH1 0x20 PUSH1 0x4 DUP3 ADD MSTORE PUSH1 0x15 PUSH1 0x24 DUP3 ADD MSTORE PUSH21 0x746F416464726573735F6F75744F66426F756E6473 PUSH1 0x58 SHL PUSH1 0x44 DUP3 ADD MSTORE PUSH1 0x64 ADD PUSH2 0x49D JUMP JUMPDEST POP ADD PUSH1 0x20 ADD MLOAD PUSH1 0x1 PUSH1 0x60 SHL SWAP1 DIV SWAP1 JUMP JUMPDEST PUSH1 0x0 PUSH2 0xD94 DUP3 DUP5 PUSH2 0x4C6D JUMP JUMPDEST PUSH2 0x2E03 PUSH2 0x3F00 JUMP JUMPDEST PUSH2 0x2E0B PUSH2 0x3F00 JUMP JUMPDEST PUSH1 0x0 DUP1 PUSH2 0x2E18 DUP6 DUP3 PUSH2 0x2C20 JUMP JUMPDEST PUSH1 0x1 PUSH1 0x1 PUSH1 0x40 SHL SUB AND SWAP1 POP PUSH2 0x2E2E PUSH1 0x8 DUP4 PUSH2 0x511C JUMP JUMPDEST SWAP2 POP PUSH2 0x2E3B DUP6 DUP4 DUP4 PUSH2 0x2C7D JUMP JUMPDEST DUP4 MSTORE PUSH2 0x2E47 DUP2 DUP4 PUSH2 0x511C JUMP JUMPDEST SWAP2 POP PUSH2 0x2E53 DUP6 DUP4 PUSH2 0x2C20 JUMP JUMPDEST PUSH1 0x1 PUSH1 0x1 PUSH1 0x40 SHL SUB AND SWAP1 POP PUSH2 0x2E69 PUSH1 0x8 DUP4 PUSH2 0x511C JUMP JUMPDEST SWAP2 POP PUSH2 0x2E76 DUP6 DUP4 DUP4 PUSH2 0x2C7D JUMP JUMPDEST PUSH1 0x20 DUP5 ADD MSTORE PUSH2 0x2E85 DUP2 DUP4 PUSH2 0x511C JUMP JUMPDEST SWAP2 POP PUSH1 0x2 SWAP1 POP PUSH2 0x2E95 DUP6 DUP4 PUSH2 0x2B65 JUMP JUMPDEST PUSH2 0xFFFF AND PUSH1 0x40 DUP5 ADD MSTORE PUSH2 0x2EA8 DUP2 DUP4 PUSH2 0x511C JUMP JUMPDEST SWAP2 POP PUSH2 0x2EB4 DUP6 DUP4 PUSH2 0x2C20 JUMP JUMPDEST PUSH1 0x1 PUSH1 0x1 PUSH1 0x40 SHL SUB AND SWAP1 POP PUSH2 0x2ECA PUSH1 0x8 DUP4 PUSH2 0x511C JUMP JUMPDEST SWAP2 POP PUSH2 0x2ED7 DUP6 DUP4 DUP4 PUSH2 0x2C7D JUMP JUMPDEST PUSH1 0x60 DUP5 ADD MSTORE PUSH2 0x2EE6 DUP2 DUP4 PUSH2 0x511C JUMP JUMPDEST SWAP2 POP PUSH1 0x2 SWAP1 POP PUSH2 0x2EF6 DUP6 DUP4 PUSH2 0x2B65 JUMP JUMPDEST PUSH2 0xFFFF AND PUSH1 0x80 DUP5 ADD MSTORE PUSH2 0x2F09 DUP2 DUP4 PUSH2 0x511C JUMP JUMPDEST SWAP2 POP PUSH2 0x2F15 DUP6 DUP4 PUSH2 0x2C20 JUMP JUMPDEST PUSH1 0x1 PUSH1 0x1 PUSH1 0x40 SHL SUB AND SWAP1 POP PUSH2 0x2F2B PUSH1 0x8 DUP4 PUSH2 0x511C JUMP JUMPDEST SWAP2 POP PUSH2 0x2F38 DUP6 DUP4 DUP4 PUSH2 0x2C7D JUMP JUMPDEST PUSH1 0xA0 DUP5 ADD MSTORE PUSH2 0x2F47 DUP2 DUP4 PUSH2 0x511C JUMP JUMPDEST SWAP2 POP PUSH1 0x20 SWAP1 POP PUSH2 0x2F57 DUP6 DUP4 PUSH2 0x2BC2 JUMP JUMPDEST PUSH1 0xC0 DUP5 ADD MSTORE PUSH2 0x1344 DUP2 DUP4 PUSH2 0x511C JUMP JUMPDEST PUSH1 0x60 PUSH1 0x0 PUSH1 0x8 DUP2 PUSH2 0x2F77 DUP6 DUP3 PUSH2 0x2C20 JUMP JUMPDEST PUSH1 0x1 PUSH1 0x1 PUSH1 0x40 SHL SUB AND SWAP1 POP PUSH2 0x2F8C DUP3 DUP5 PUSH2 0x511C JUMP JUMPDEST SWAP3 POP PUSH1 0x0 DUP2 PUSH1 0x1 PUSH1 0x1 PUSH1 0x40 SHL SUB DUP2 GT ISZERO PUSH2 0x2FA8 JUMPI PUSH2 0x2FA8 PUSH2 0x4113 JUMP JUMPDEST PUSH1 0x40 MLOAD SWAP1 DUP1 DUP3 MSTORE DUP1 PUSH1 0x20 MUL PUSH1 0x20 ADD DUP3 ADD PUSH1 0x40 MSTORE DUP1 ISZERO PUSH2 0x3012 JUMPI DUP2 PUSH1 0x20 ADD JUMPDEST PUSH2 0x2FFF PUSH1 0x40 MLOAD DUP1 PUSH1 0xC0 ADD PUSH1 0x40 MSTORE DUP1 PUSH1 0x60 DUP2 MSTORE PUSH1 0x20 ADD PUSH1 0x60 DUP2 MSTORE PUSH1 0x20 ADD PUSH1 0x60 DUP2 MSTORE PUSH1 0x20 ADD PUSH1 0x60 DUP2 MSTORE PUSH1 0x20 ADD PUSH1 0x0 DUP2 MSTORE PUSH1 0x20 ADD PUSH1 0x60 DUP2 MSTORE POP SWAP1 JUMP JUMPDEST DUP2 MSTORE PUSH1 0x20 ADD SWAP1 PUSH1 0x1 SWAP1 SUB SWAP1 DUP2 PUSH2 0x2FC6 JUMPI SWAP1 POP JUMPDEST POP SWAP1 POP PUSH1 0x0 JUMPDEST DUP3 DUP2 LT ISZERO PUSH2 0x322B JUMPI PUSH2 0x302A DUP8 DUP7 PUSH2 0x2C20 JUMP JUMPDEST PUSH1 0x1 PUSH1 0x1 PUSH1 0x40 SHL SUB AND SWAP4 POP PUSH2 0x3040 PUSH1 0x8 DUP7 PUSH2 0x511C JUMP JUMPDEST SWAP5 POP PUSH2 0x304D DUP8 DUP7 DUP7 PUSH2 0x2C7D JUMP JUMPDEST DUP3 DUP3 DUP2 MLOAD DUP2 LT PUSH2 0x305F JUMPI PUSH2 0x305F PUSH2 0x4B02 JUMP JUMPDEST PUSH1 0x20 SWAP1 DUP2 MUL SWAP2 SWAP1 SWAP2 ADD ADD MLOAD MSTORE PUSH2 0x3075 DUP5 DUP7 PUSH2 0x511C JUMP JUMPDEST SWAP5 POP PUSH2 0x3081 DUP8 DUP7 PUSH2 0x2C20 JUMP JUMPDEST PUSH1 0x1 PUSH1 0x1 PUSH1 0x40 SHL SUB AND SWAP4 POP PUSH2 0x3097 PUSH1 0x8 DUP7 PUSH2 0x511C JUMP JUMPDEST SWAP5 POP PUSH2 0x30A4 DUP8 DUP7 DUP7 PUSH2 0x2C7D JUMP JUMPDEST DUP3 DUP3 DUP2 MLOAD DUP2 LT PUSH2 0x30B6 JUMPI PUSH2 0x30B6 PUSH2 0x4B02 JUMP JUMPDEST PUSH1 0x20 SWAP1 DUP2 MUL SWAP2 SWAP1 SWAP2 ADD DUP2 ADD MLOAD ADD MSTORE PUSH2 0x30CE DUP5 DUP7 PUSH2 0x511C JUMP JUMPDEST SWAP5 POP PUSH2 0x30DA DUP8 DUP7 PUSH2 0x2C20 JUMP JUMPDEST PUSH1 0x1 PUSH1 0x1 PUSH1 0x40 SHL SUB AND SWAP4 POP PUSH2 0x30F0 PUSH1 0x8 DUP7 PUSH2 0x511C JUMP JUMPDEST SWAP5 POP PUSH2 0x30FD DUP8 DUP7 DUP7 PUSH2 0x2C7D JUMP JUMPDEST DUP3 DUP3 DUP2 MLOAD DUP2 LT PUSH2 0x310F JUMPI PUSH2 0x310F PUSH2 0x4B02 JUMP JUMPDEST PUSH1 0x20 SWAP1 DUP2 MUL SWAP2 SWAP1 SWAP2 ADD ADD MLOAD PUSH1 0x40 ADD MSTORE PUSH2 0x3128 DUP5 DUP7 PUSH2 0x511C JUMP JUMPDEST SWAP5 POP PUSH2 0x3134 DUP8 DUP7 PUSH2 0x2C20 JUMP JUMPDEST PUSH1 0x1 PUSH1 0x1 PUSH1 0x40 SHL SUB AND SWAP4 POP PUSH2 0x314A PUSH1 0x8 DUP7 PUSH2 0x511C JUMP JUMPDEST SWAP5 POP PUSH2 0x3157 DUP8 DUP7 DUP7 PUSH2 0x2C7D JUMP JUMPDEST DUP3 DUP3 DUP2 MLOAD DUP2 LT PUSH2 0x3169 JUMPI PUSH2 0x3169 PUSH2 0x4B02 JUMP JUMPDEST PUSH1 0x20 SWAP1 DUP2 MUL SWAP2 SWAP1 SWAP2 ADD ADD MLOAD PUSH1 0x60 ADD MSTORE PUSH2 0x3182 DUP5 DUP7 PUSH2 0x511C JUMP JUMPDEST SWAP5 POP PUSH1 0x20 SWAP4 POP PUSH2 0x3192 DUP8 DUP7 PUSH2 0x2BC2 JUMP JUMPDEST DUP3 DUP3 DUP2 MLOAD DUP2 LT PUSH2 0x31A4 JUMPI PUSH2 0x31A4 PUSH2 0x4B02 JUMP JUMPDEST PUSH1 0x20 SWAP1 DUP2 MUL SWAP2 SWAP1 SWAP2 ADD ADD MLOAD PUSH1 0x80 ADD MSTORE PUSH2 0x31BD DUP5 DUP7 PUSH2 0x511C JUMP JUMPDEST SWAP5 POP PUSH2 0x31C9 DUP8 DUP7 PUSH2 0x2C20 JUMP JUMPDEST PUSH1 0x1 PUSH1 0x1 PUSH1 0x40 SHL SUB AND SWAP4 POP PUSH2 0x31DF PUSH1 0x8 DUP7 PUSH2 0x511C JUMP JUMPDEST SWAP5 POP PUSH2 0x31EC DUP8 DUP7 DUP7 PUSH2 0x2C7D JUMP JUMPDEST DUP3 DUP3 DUP2 MLOAD DUP2 LT PUSH2 0x31FE JUMPI PUSH2 0x31FE PUSH2 0x4B02 JUMP JUMPDEST PUSH1 0x20 SWAP1 DUP2 MUL SWAP2 SWAP1 SWAP2 ADD ADD MLOAD PUSH1 0xA0 ADD MSTORE PUSH2 0x3217 DUP5 DUP7 PUSH2 0x511C JUMP JUMPDEST SWAP5 POP DUP1 PUSH2 0x3223 DUP2 PUSH2 0x53CA JUMP JUMPDEST SWAP2 POP POP PUSH2 0x3018 JUMP JUMPDEST POP DUP6 MLOAD DUP5 EQ PUSH2 0x324C JUMPI PUSH1 0x40 MLOAD PUSH3 0x461BCD PUSH1 0xE5 SHL DUP2 MSTORE PUSH1 0x4 ADD PUSH2 0x49D SWAP1 PUSH2 0x5134 JUMP JUMPDEST SWAP6 SWAP5 POP POP POP POP POP JUMP JUMPDEST DUP1 MLOAD DUP1 MLOAD PUSH1 0x20 DUP1 DUP5 ADD MLOAD DUP1 MLOAD PUSH1 0x40 DUP1 DUP8 ADD MLOAD SWAP1 MLOAD PUSH1 0x60 SWAP7 PUSH1 0x0 SWAP7 PUSH2 0x3280 SWAP7 SWAP1 SWAP6 SWAP2 SWAP5 SWAP4 SWAP2 SWAP3 ADD PUSH2 0x5594 JUMP JUMPDEST PUSH1 0x40 DUP1 MLOAD PUSH1 0x1F NOT DUP2 DUP5 SUB ADD DUP2 MSTORE SWAP1 DUP3 SWAP1 MSTORE PUSH1 0x60 DUP6 ADD MLOAD DUP1 MLOAD PUSH1 0x80 DUP8 ADD MLOAD PUSH1 0xA0 DUP9 ADD MLOAD DUP1 MLOAD PUSH1 0xC0 DUP11 ADD MLOAD SWAP6 SWAP8 POP PUSH2 0xD94 SWAP7 PUSH2 0x32C3 SWAP7 SWAP5 SWAP6 SWAP5 SWAP2 SWAP3 SWAP2 SWAP1 PUSH1 0x20 ADD PUSH2 0x5608 JUMP JUMPDEST PUSH1 0x40 DUP1 MLOAD PUSH1 0x1F NOT DUP2 DUP5 SUB ADD DUP2 MSTORE SWAP2 SWAP1 MSTORE DUP3 SWAP1 PUSH2 0x3A2C JUMP JUMPDEST PUSH1 0x40 DUP1 MLOAD PUSH1 0x20 DUP2 ADD SWAP1 SWAP2 MSTORE PUSH1 0x0 DUP2 MSTORE DUP2 MLOAD PUSH1 0x60 SWAP2 SWAP1 ISZERO PUSH2 0x332B JUMPI DUP3 MLOAD PUSH1 0x40 MLOAD PUSH1 0x20 ADD PUSH2 0x3319 SWAP2 SWAP1 PUSH1 0xC0 SWAP2 SWAP1 SWAP2 SHL PUSH1 0x1 PUSH1 0x1 PUSH1 0xC0 SHL SUB NOT AND DUP2 MSTORE PUSH1 0x8 ADD SWAP1 JUMP JUMPDEST PUSH1 0x40 MLOAD PUSH1 0x20 DUP2 DUP4 SUB SUB DUP2 MSTORE SWAP1 PUSH1 0x40 MSTORE SWAP1 POP JUMPDEST PUSH1 0x0 JUMPDEST DUP4 MLOAD DUP2 LT ISZERO PUSH2 0x25C5 JUMPI PUSH2 0x341D DUP5 DUP3 DUP2 MLOAD DUP2 LT PUSH2 0x334C JUMPI PUSH2 0x334C PUSH2 0x4B02 JUMP JUMPDEST PUSH1 0x20 MUL PUSH1 0x20 ADD ADD MLOAD PUSH1 0x0 ADD MLOAD MLOAD DUP6 DUP4 DUP2 MLOAD DUP2 LT PUSH2 0x336B JUMPI PUSH2 0x336B PUSH2 0x4B02 JUMP JUMPDEST PUSH1 0x20 MUL PUSH1 0x20 ADD ADD MLOAD PUSH1 0x0 ADD MLOAD DUP7 DUP5 DUP2 MLOAD DUP2 LT PUSH2 0x3389 JUMPI PUSH2 0x3389 PUSH2 0x4B02 JUMP JUMPDEST PUSH1 0x20 MUL PUSH1 0x20 ADD ADD MLOAD PUSH1 0x20 ADD MLOAD MLOAD DUP8 DUP6 DUP2 MLOAD DUP2 LT PUSH2 0x33A8 JUMPI PUSH2 0x33A8 PUSH2 0x4B02 JUMP JUMPDEST PUSH1 0x20 MUL PUSH1 0x20 ADD ADD MLOAD PUSH1 0x20 ADD MLOAD DUP9 DUP7 DUP2 MLOAD DUP2 LT PUSH2 0x33C6 JUMPI PUSH2 0x33C6 PUSH2 0x4B02 JUMP JUMPDEST PUSH1 0x20 MUL PUSH1 0x20 ADD ADD MLOAD PUSH1 0x40 ADD MLOAD MLOAD DUP10 DUP8 DUP2 MLOAD DUP2 LT PUSH2 0x33E5 JUMPI PUSH2 0x33E5 PUSH2 0x4B02 JUMP JUMPDEST PUSH1 0x20 MUL PUSH1 0x20 ADD ADD MLOAD PUSH1 0x40 ADD MLOAD PUSH1 0x40 MLOAD PUSH1 0x20 ADD PUSH2 0x3406 SWAP7 SWAP6 SWAP5 SWAP4 SWAP3 SWAP2 SWAP1 PUSH2 0x5680 JUMP JUMPDEST PUSH1 0x40 DUP1 MLOAD PUSH1 0x1F NOT DUP2 DUP5 SUB ADD DUP2 MSTORE SWAP2 SWAP1 MSTORE DUP4 SWAP1 PUSH2 0x3A2C JUMP JUMPDEST SWAP2 POP PUSH2 0x34CE DUP5 DUP3 DUP2 MLOAD DUP2 LT PUSH2 0x3434 JUMPI PUSH2 0x3434 PUSH2 0x4B02 JUMP JUMPDEST PUSH1 0x20 MUL PUSH1 0x20 ADD ADD MLOAD PUSH1 0x60 ADD MLOAD MLOAD DUP6 DUP4 DUP2 MLOAD DUP2 LT PUSH2 0x3453 JUMPI PUSH2 0x3453 PUSH2 0x4B02 JUMP JUMPDEST PUSH1 0x20 MUL PUSH1 0x20 ADD ADD MLOAD PUSH1 0x60 ADD MLOAD DUP7 DUP5 DUP2 MLOAD DUP2 LT PUSH2 0x3471 JUMPI PUSH2 0x3471 PUSH2 0x4B02 JUMP JUMPDEST PUSH1 0x20 MUL PUSH1 0x20 ADD ADD MLOAD PUSH1 0x80 ADD MLOAD DUP8 DUP6 DUP2 MLOAD DUP2 LT PUSH2 0x348F JUMPI PUSH2 0x348F PUSH2 0x4B02 JUMP JUMPDEST PUSH1 0x20 MUL PUSH1 0x20 ADD ADD MLOAD PUSH1 0xA0 ADD MLOAD MLOAD DUP9 DUP7 DUP2 MLOAD DUP2 LT PUSH2 0x34AE JUMPI PUSH2 0x34AE PUSH2 0x4B02 JUMP JUMPDEST PUSH1 0x20 MUL PUSH1 0x20 ADD ADD MLOAD PUSH1 0xA0 ADD MLOAD PUSH1 0x40 MLOAD PUSH1 0x20 ADD PUSH2 0x3406 SWAP6 SWAP5 SWAP4 SWAP3 SWAP2 SWAP1 PUSH2 0x5701 JUMP JUMPDEST SWAP2 POP DUP1 PUSH2 0x34DA DUP2 PUSH2 0x53CA JUMP JUMPDEST SWAP2 POP POP PUSH2 0x332E JUMP JUMPDEST PUSH1 0x1 PUSH1 0x1 PUSH1 0xA0 SHL SUB DUP4 AND PUSH2 0x3509 JUMPI PUSH1 0x40 MLOAD PUSH4 0x346FAFC3 PUSH1 0xE2 SHL DUP2 MSTORE PUSH1 0x4 ADD PUSH1 0x40 MLOAD DUP1 SWAP2 SUB SWAP1 REVERT JUMPDEST PUSH2 0x1070 DUP4 DUP4 DUP4 PUSH2 0x3AA9 JUMP JUMPDEST PUSH1 0x1 PUSH1 0x1 PUSH1 0xA0 SHL SUB DUP3 AND PUSH2 0x353B JUMPI PUSH1 0x40 MLOAD PUSH4 0x21F74345 PUSH1 0xE0 SHL DUP2 MSTORE PUSH1 0x4 ADD PUSH1 0x40 MLOAD DUP1 SWAP2 SUB SWAP1 REVERT JUMPDEST PUSH1 0x0 DUP3 PUSH1 0x1 PUSH1 0x1 PUSH1 0xA0 SHL SUB AND DUP3 PUSH1 0x40 MLOAD PUSH1 0x0 PUSH1 0x40 MLOAD DUP1 DUP4 SUB DUP2 DUP6 DUP8 GAS CALL SWAP3 POP POP POP RETURNDATASIZE DUP1 PUSH1 0x0 DUP2 EQ PUSH2 0x3588 JUMPI PUSH1 0x40 MLOAD SWAP2 POP PUSH1 0x1F NOT PUSH1 0x3F RETURNDATASIZE ADD AND DUP3 ADD PUSH1 0x40 MSTORE RETURNDATASIZE DUP3 MSTORE RETURNDATASIZE PUSH1 0x0 PUSH1 0x20 DUP5 ADD RETURNDATACOPY PUSH2 0x358D JUMP JUMPDEST PUSH1 0x60 SWAP2 POP JUMPDEST POP POP SWAP1 POP DUP1 PUSH2 0x1070 JUMPI PUSH1 0x40 MLOAD PUSH4 0x5A046737 PUSH1 0xE0 SHL DUP2 MSTORE PUSH1 0x4 ADD PUSH1 0x40 MLOAD DUP1 SWAP2 SUB SWAP1 REVERT JUMPDEST PUSH1 0x0 PUSH2 0x35BC DUP3 PUSH1 0x20 PUSH2 0x511C JUMP JUMPDEST DUP4 MLOAD LT ISZERO PUSH2 0x2C17 JUMPI PUSH1 0x40 MLOAD PUSH3 0x461BCD PUSH1 0xE5 SHL DUP2 MSTORE PUSH1 0x20 PUSH1 0x4 DUP3 ADD MSTORE PUSH1 0x15 PUSH1 0x24 DUP3 ADD MSTORE PUSH21 0x746F427974657333325F6F75744F66426F756E6473 PUSH1 0x58 SHL PUSH1 0x44 DUP3 ADD MSTORE PUSH1 0x64 ADD PUSH2 0x49D JUMP JUMPDEST PUSH1 0x0 DUP2 MLOAD PUSH1 0x14 SUB PUSH2 0x361A JUMPI PUSH2 0x2200 DUP3 PUSH1 0x0 PUSH2 0x2D8A JUMP JUMPDEST POP PUSH1 0x0 SWAP2 SWAP1 POP JUMP JUMPDEST SWAP2 SWAP1 POP JUMP JUMPDEST DUP2 PUSH1 0x0 SUB PUSH2 0x3648 JUMPI PUSH1 0x40 MLOAD PUSH4 0x162908E3 PUSH1 0xE1 SHL DUP2 MSTORE PUSH1 0x4 ADD PUSH1 0x40 MLOAD DUP1 SWAP2 SUB SWAP1 REVERT JUMPDEST DUP1 ISZERO PUSH2 0x366E JUMPI DUP2 CALLVALUE EQ PUSH2 0x1070 JUMPI PUSH1 0x40 MLOAD PUSH4 0x162908E3 PUSH1 0xE1 SHL DUP2 MSTORE PUSH1 0x4 ADD PUSH1 0x40 MLOAD DUP1 SWAP2 SUB SWAP1 REVERT JUMPDEST PUSH1 0x0 PUSH2 0x3679 DUP5 PUSH2 0x2180 JUMP JUMPDEST SWAP1 POP PUSH2 0x3687 DUP5 CALLER ADDRESS DUP7 PUSH2 0x3B0C JUMP JUMPDEST DUP3 DUP2 PUSH2 0x3692 DUP7 PUSH2 0x2180 JUMP JUMPDEST PUSH2 0x369C SWAP2 SWAP1 PUSH2 0x4C6D JUMP JUMPDEST EQ PUSH2 0x569 JUMPI PUSH1 0x40 MLOAD PUSH4 0x162908E3 PUSH1 0xE1 SHL DUP2 MSTORE PUSH1 0x4 ADD PUSH1 0x40 MLOAD DUP1 SWAP2 SUB SWAP1 REVERT JUMPDEST PUSH1 0x1 PUSH1 0x1 PUSH1 0xA0 SHL SUB DUP4 AND PUSH2 0x36CD JUMPI POP POP POP JUMP JUMPDEST PUSH1 0x1 PUSH1 0x1 PUSH1 0xA0 SHL SUB DUP3 AND PUSH2 0x36F4 JUMPI PUSH1 0x40 MLOAD PUSH4 0x63BA9BFF PUSH1 0xE0 SHL DUP2 MSTORE PUSH1 0x4 ADD PUSH1 0x40 MLOAD DUP1 SWAP2 SUB SWAP1 REVERT JUMPDEST PUSH1 0x40 MLOAD PUSH4 0x6EB1769F PUSH1 0xE1 SHL DUP2 MSTORE ADDRESS PUSH1 0x4 DUP3 ADD MSTORE PUSH1 0x1 PUSH1 0x1 PUSH1 0xA0 SHL SUB DUP4 DUP2 AND PUSH1 0x24 DUP4 ADD MSTORE PUSH1 0x0 SWAP2 SWAP1 DUP6 AND SWAP1 PUSH4 0xDD62ED3E SWAP1 PUSH1 0x44 ADD PUSH1 0x20 PUSH1 0x40 MLOAD DUP1 DUP4 SUB DUP2 DUP7 GAS STATICCALL ISZERO DUP1 ISZERO PUSH2 0x3744 JUMPI RETURNDATASIZE PUSH1 0x0 DUP1 RETURNDATACOPY RETURNDATASIZE PUSH1 0x0 REVERT JUMPDEST POP POP POP POP PUSH1 0x40 MLOAD RETURNDATASIZE PUSH1 0x1F NOT PUSH1 0x1F DUP3 ADD AND DUP3 ADD DUP1 PUSH1 0x40 MSTORE POP DUP2 ADD SWAP1 PUSH2 0x3768 SWAP2 SWAP1 PUSH2 0x4C3E JUMP JUMPDEST SWAP1 POP DUP2 DUP2 LT ISZERO PUSH2 0x569 JUMPI PUSH2 0x569 DUP5 DUP5 PUSH1 0x0 NOT PUSH2 0x3B66 JUMP JUMPDEST PUSH1 0x60 DUP2 DUP4 LT DUP1 ISZERO PUSH2 0x3791 JUMPI POP DUP4 MLOAD DUP3 GT ISZERO JUMPDEST PUSH2 0x37D1 JUMPI PUSH1 0x40 MLOAD PUSH3 0x461BCD PUSH1 0xE5 SHL DUP2 MSTORE PUSH1 0x20 PUSH1 0x4 DUP3 ADD MSTORE PUSH1 0x11 PUSH1 0x24 DUP3 ADD MSTORE PUSH17 0x446174614C656E677468206572726F7221 PUSH1 0x78 SHL PUSH1 0x44 DUP3 ADD MSTORE PUSH1 0x64 ADD PUSH2 0x49D JUMP JUMPDEST PUSH1 0x40 DUP1 MLOAD PUSH1 0x20 DUP2 ADD SWAP1 SWAP2 MSTORE PUSH1 0x0 DUP2 MSTORE DUP4 JUMPDEST DUP4 DUP2 LT ISZERO PUSH2 0x2D81 JUMPI DUP2 DUP7 DUP3 DUP2 MLOAD DUP2 LT PUSH2 0x37FD JUMPI PUSH2 0x37FD PUSH2 0x4B02 JUMP JUMPDEST PUSH1 0x20 ADD ADD MLOAD PUSH1 0xF8 SHR PUSH1 0xF8 SHL PUSH1 0x40 MLOAD PUSH1 0x20 ADD PUSH2 0x3819 SWAP3 SWAP2 SWAP1 PUSH2 0x5763 JUMP JUMPDEST PUSH1 0x40 MLOAD PUSH1 0x20 DUP2 DUP4 SUB SUB DUP2 MSTORE SWAP1 PUSH1 0x40 MSTORE SWAP2 POP DUP1 DUP1 PUSH2 0x3835 SWAP1 PUSH2 0x53CA JUMP JUMPDEST SWAP2 POP POP PUSH2 0x37E2 JUMP JUMPDEST DUP1 MLOAD EXTCODESIZE PUSH2 0x385D JUMPI PUSH1 0x40 MLOAD PUSH4 0x3777F69 PUSH1 0xE5 SHL DUP2 MSTORE PUSH1 0x4 ADD PUSH1 0x40 MLOAD DUP1 SWAP2 SUB SWAP1 REVERT JUMPDEST PUSH1 0x80 DUP2 ADD MLOAD PUSH1 0x0 DUP2 SWAP1 SUB PUSH2 0x3884 JUMPI PUSH1 0x40 MLOAD PUSH4 0x391B81E7 PUSH1 0xE2 SHL DUP2 MSTORE PUSH1 0x4 ADD PUSH1 0x40 MLOAD DUP1 SWAP2 SUB SWAP1 REVERT JUMPDEST PUSH1 0x40 DUP3 ADD MLOAD PUSH1 0x60 DUP4 ADD MLOAD PUSH1 0x0 SWAP2 SWAP1 DUP3 PUSH2 0x389C DUP4 PUSH2 0x2180 JUMP JUMPDEST SWAP1 POP PUSH1 0x0 PUSH2 0x38A9 DUP4 PUSH2 0x2180 JUMP JUMPDEST SWAP1 POP PUSH1 0x0 DUP7 DUP4 LT PUSH2 0x38BB JUMPI PUSH1 0x0 PUSH2 0x38C5 JUMP JUMPDEST PUSH2 0x38C5 DUP4 DUP9 PUSH2 0x4C6D JUMP JUMPDEST SWAP1 POP PUSH1 0x1 PUSH1 0x1 PUSH1 0xA0 SHL SUB DUP6 AND ISZERO PUSH2 0x38FC JUMPI PUSH2 0x38E5 DUP6 DUP10 PUSH1 0x20 ADD MLOAD DUP10 PUSH2 0x36BA JUMP JUMPDEST DUP1 ISZERO PUSH2 0x38F7 JUMPI PUSH2 0x38F7 DUP6 CALLER ADDRESS DUP5 PUSH2 0x3B0C JUMP JUMPDEST PUSH2 0x3900 JUMP JUMPDEST DUP7 SWAP6 POP JUMPDEST PUSH1 0x0 DUP1 DUP10 PUSH1 0x0 ADD MLOAD PUSH1 0x1 PUSH1 0x1 PUSH1 0xA0 SHL SUB AND DUP9 DUP12 PUSH1 0xA0 ADD MLOAD PUSH1 0x40 MLOAD PUSH2 0x3924 SWAP2 SWAP1 PUSH2 0x5792 JUMP JUMPDEST PUSH1 0x0 PUSH1 0x40 MLOAD DUP1 DUP4 SUB DUP2 DUP6 DUP8 GAS CALL SWAP3 POP POP POP RETURNDATASIZE DUP1 PUSH1 0x0 DUP2 EQ PUSH2 0x3961 JUMPI PUSH1 0x40 MLOAD SWAP2 POP PUSH1 0x1F NOT PUSH1 0x3F RETURNDATASIZE ADD AND DUP3 ADD PUSH1 0x40 MSTORE RETURNDATASIZE DUP3 MSTORE RETURNDATASIZE PUSH1 0x0 PUSH1 0x20 DUP5 ADD RETURNDATACOPY PUSH2 0x3966 JUMP JUMPDEST PUSH1 0x60 SWAP2 POP JUMPDEST POP SWAP2 POP SWAP2 POP DUP2 PUSH2 0x3997 JUMPI PUSH1 0x0 PUSH2 0x397B DUP3 PUSH2 0x3C7B JUMP JUMPDEST SWAP1 POP DUP1 PUSH1 0x40 MLOAD PUSH3 0x461BCD PUSH1 0xE5 SHL DUP2 MSTORE PUSH1 0x4 ADD PUSH2 0x49D SWAP2 SWAP1 PUSH2 0x457A JUMP JUMPDEST PUSH32 0x7BFDFDB5E3A3776976E53CB0607060F54C5312701C8CBA1155CC4D5394440B38 DUP12 DUP12 PUSH1 0x0 ADD MLOAD DUP13 PUSH1 0x40 ADD MLOAD DUP10 DUP14 DUP10 PUSH2 0x39CF DUP14 PUSH2 0x2180 JUMP JUMPDEST PUSH2 0x39D9 SWAP2 SWAP1 PUSH2 0x4C6D JUMP JUMPDEST PUSH1 0x40 DUP1 MLOAD SWAP7 DUP8 MSTORE PUSH1 0x1 PUSH1 0x1 PUSH1 0xA0 SHL SUB SWAP6 DUP7 AND PUSH1 0x20 DUP9 ADD MSTORE SWAP4 DUP6 AND SWAP4 DUP7 ADD SWAP4 SWAP1 SWAP4 MSTORE SWAP3 AND PUSH1 0x60 DUP5 ADD MSTORE PUSH1 0x80 DUP4 ADD SWAP2 SWAP1 SWAP2 MSTORE PUSH1 0xA0 DUP3 ADD MSTORE TIMESTAMP PUSH1 0xC0 DUP3 ADD MSTORE PUSH1 0xE0 ADD PUSH1 0x40 MLOAD DUP1 SWAP2 SUB SWAP1 LOG1 POP POP POP POP POP POP POP POP POP POP POP JUMP JUMPDEST PUSH1 0x60 DUP1 PUSH1 0x40 MLOAD SWAP1 POP DUP4 MLOAD DUP1 DUP3 MSTORE PUSH1 0x20 DUP3 ADD DUP2 DUP2 ADD PUSH1 0x20 DUP8 ADD JUMPDEST DUP2 DUP4 LT ISZERO PUSH2 0x3A5D JUMPI DUP1 MLOAD DUP4 MSTORE PUSH1 0x20 SWAP3 DUP4 ADD SWAP3 ADD PUSH2 0x3A45 JUMP JUMPDEST POP DUP6 MLOAD DUP5 MLOAD DUP2 ADD DUP6 MSTORE SWAP3 POP SWAP1 POP DUP1 DUP3 ADD PUSH1 0x20 DUP7 ADD JUMPDEST DUP2 DUP4 LT ISZERO PUSH2 0x3A8A JUMPI DUP1 MLOAD DUP4 MSTORE PUSH1 0x20 SWAP3 DUP4 ADD SWAP3 ADD PUSH2 0x3A72 JUMP JUMPDEST POP DUP7 MLOAD SWAP3 SWAP1 SWAP3 ADD ISZERO SWAP2 SWAP1 SWAP2 ADD PUSH1 0x1F ADD PUSH1 0x1F NOT AND PUSH1 0x40 MSTORE POP SWAP1 POP SWAP3 SWAP2 POP POP JUMP JUMPDEST PUSH1 0x40 MLOAD PUSH1 0x1 PUSH1 0x1 PUSH1 0xA0 SHL SUB DUP4 AND PUSH1 0x24 DUP3 ADD MSTORE PUSH1 0x44 DUP2 ADD DUP3 SWAP1 MSTORE PUSH2 0x1070 SWAP1 DUP5 SWAP1 PUSH4 0xA9059CBB PUSH1 0xE0 SHL SWAP1 PUSH1 0x64 ADD JUMPDEST PUSH1 0x40 DUP1 MLOAD PUSH1 0x1F NOT DUP2 DUP5 SUB ADD DUP2 MSTORE SWAP2 SWAP1 MSTORE PUSH1 0x20 DUP2 ADD DUP1 MLOAD PUSH1 0x1 PUSH1 0x1 PUSH1 0xE0 SHL SUB AND PUSH1 0x1 PUSH1 0x1 PUSH1 0xE0 SHL SUB NOT SWAP1 SWAP4 AND SWAP3 SWAP1 SWAP3 OR SWAP1 SWAP2 MSTORE PUSH2 0x3CF2 JUMP JUMPDEST PUSH1 0x1 PUSH1 0x1 PUSH1 0xA0 SHL SUB DUP5 AND PUSH2 0x3B33 JUMPI PUSH1 0x40 MLOAD PUSH4 0x346FAFC3 PUSH1 0xE2 SHL DUP2 MSTORE PUSH1 0x4 ADD PUSH1 0x40 MLOAD DUP1 SWAP2 SUB SWAP1 REVERT JUMPDEST PUSH1 0x1 PUSH1 0x1 PUSH1 0xA0 SHL SUB DUP3 AND PUSH2 0x3B5A JUMPI PUSH1 0x40 MLOAD PUSH4 0x21F74345 PUSH1 0xE0 SHL DUP2 MSTORE PUSH1 0x4 ADD PUSH1 0x40 MLOAD DUP1 SWAP2 SUB SWAP1 REVERT JUMPDEST PUSH2 0x569 DUP5 DUP5 DUP5 DUP5 PUSH2 0x3DC4 JUMP JUMPDEST DUP1 ISZERO DUP1 PUSH2 0x3BE0 JUMPI POP PUSH1 0x40 MLOAD PUSH4 0x6EB1769F PUSH1 0xE1 SHL DUP2 MSTORE ADDRESS PUSH1 0x4 DUP3 ADD MSTORE PUSH1 0x1 PUSH1 0x1 PUSH1 0xA0 SHL SUB DUP4 DUP2 AND PUSH1 0x24 DUP4 ADD MSTORE DUP5 AND SWAP1 PUSH4 0xDD62ED3E SWAP1 PUSH1 0x44 ADD PUSH1 0x20 PUSH1 0x40 MLOAD DUP1 DUP4 SUB DUP2 DUP7 GAS STATICCALL ISZERO DUP1 ISZERO PUSH2 0x3BBA JUMPI RETURNDATASIZE PUSH1 0x0 DUP1 RETURNDATACOPY RETURNDATASIZE PUSH1 0x0 REVERT JUMPDEST POP POP POP POP PUSH1 0x40 MLOAD RETURNDATASIZE PUSH1 0x1F NOT PUSH1 0x1F DUP3 ADD AND DUP3 ADD DUP1 PUSH1 0x40 MSTORE POP DUP2 ADD SWAP1 PUSH2 0x3BDE SWAP2 SWAP1 PUSH2 0x4C3E JUMP JUMPDEST ISZERO JUMPDEST PUSH2 0x3C4B JUMPI PUSH1 0x40 MLOAD PUSH3 0x461BCD PUSH1 0xE5 SHL DUP2 MSTORE PUSH1 0x20 PUSH1 0x4 DUP3 ADD MSTORE PUSH1 0x36 PUSH1 0x24 DUP3 ADD MSTORE PUSH32 0x5361666545524332303A20617070726F76652066726F6D206E6F6E2D7A65726F PUSH1 0x44 DUP3 ADD MSTORE PUSH22 0x20746F206E6F6E2D7A65726F20616C6C6F77616E6365 PUSH1 0x50 SHL PUSH1 0x64 DUP3 ADD MSTORE PUSH1 0x84 ADD PUSH2 0x49D JUMP JUMPDEST PUSH1 0x40 MLOAD PUSH1 0x1 PUSH1 0x1 PUSH1 0xA0 SHL SUB DUP4 AND PUSH1 0x24 DUP3 ADD MSTORE PUSH1 0x44 DUP2 ADD DUP3 SWAP1 MSTORE PUSH2 0x1070 SWAP1 DUP5 SWAP1 PUSH4 0x95EA7B3 PUSH1 0xE0 SHL SWAP1 PUSH1 0x64 ADD PUSH2 0x3AD5 JUMP JUMPDEST PUSH1 0x60 PUSH1 0x44 DUP3 MLOAD LT ISZERO PUSH2 0x3CC0 JUMPI POP POP PUSH1 0x40 DUP1 MLOAD DUP1 DUP3 ADD SWAP1 SWAP2 MSTORE PUSH1 0x1D DUP2 MSTORE PUSH32 0x5472616E73616374696F6E2072657665727465642073696C656E746C79000000 PUSH1 0x20 DUP3 ADD MSTORE SWAP1 JUMP JUMPDEST PUSH1 0x0 PUSH2 0x3CDC PUSH1 0x4 DUP1 DUP6 MLOAD PUSH2 0x3CD4 SWAP2 SWAP1 PUSH2 0x4C6D JUMP JUMPDEST DUP6 SWAP2 SWAP1 PUSH2 0x2C7D JUMP JUMPDEST SWAP1 POP DUP1 DUP1 PUSH1 0x20 ADD SWAP1 MLOAD DUP2 ADD SWAP1 PUSH2 0xD94 SWAP2 SWAP1 PUSH2 0x57A4 JUMP JUMPDEST PUSH1 0x0 PUSH2 0x3D47 DUP3 PUSH1 0x40 MLOAD DUP1 PUSH1 0x40 ADD PUSH1 0x40 MSTORE DUP1 PUSH1 0x20 DUP2 MSTORE PUSH1 0x20 ADD PUSH32 0x5361666545524332303A206C6F772D6C6576656C2063616C6C206661696C6564 DUP2 MSTORE POP DUP6 PUSH1 0x1 PUSH1 0x1 PUSH1 0xA0 SHL SUB AND PUSH2 0x3DFC SWAP1 SWAP3 SWAP2 SWAP1 PUSH4 0xFFFFFFFF AND JUMP JUMPDEST DUP1 MLOAD SWAP1 SWAP2 POP ISZERO PUSH2 0x1070 JUMPI DUP1 DUP1 PUSH1 0x20 ADD SWAP1 MLOAD DUP2 ADD SWAP1 PUSH2 0x3D65 SWAP2 SWAP1 PUSH2 0x57EC JUMP JUMPDEST PUSH2 0x1070 JUMPI PUSH1 0x40 MLOAD PUSH3 0x461BCD PUSH1 0xE5 SHL DUP2 MSTORE PUSH1 0x20 PUSH1 0x4 DUP3 ADD MSTORE PUSH1 0x2A PUSH1 0x24 DUP3 ADD MSTORE PUSH32 0x5361666545524332303A204552433230206F7065726174696F6E20646964206E PUSH1 0x44 DUP3 ADD MSTORE PUSH10 0x1BDD081CDD58D8D95959 PUSH1 0xB2 SHL PUSH1 0x64 DUP3 ADD MSTORE PUSH1 0x84 ADD PUSH2 0x49D JUMP JUMPDEST PUSH1 0x40 MLOAD PUSH1 0x1 PUSH1 0x1 PUSH1 0xA0 SHL SUB DUP1 DUP6 AND PUSH1 0x24 DUP4 ADD MSTORE DUP4 AND PUSH1 0x44 DUP3 ADD MSTORE PUSH1 0x64 DUP2 ADD DUP3 SWAP1 MSTORE PUSH2 0x569 SWAP1 DUP6 SWAP1 PUSH4 0x23B872DD PUSH1 0xE0 SHL SWAP1 PUSH1 0x84 ADD PUSH2 0x3AD5 JUMP JUMPDEST PUSH1 0x60 PUSH2 0xB56 DUP5 DUP5 PUSH1 0x0 DUP6 DUP6 PUSH1 0x1 PUSH1 0x1 PUSH1 0xA0 SHL SUB DUP6 AND EXTCODESIZE PUSH2 0x3E5E JUMPI PUSH1 0x40 MLOAD PUSH3 0x461BCD PUSH1 0xE5 SHL DUP2 MSTORE PUSH1 0x20 PUSH1 0x4 DUP3 ADD MSTORE PUSH1 0x1D PUSH1 0x24 DUP3 ADD MSTORE PUSH32 0x416464726573733A2063616C6C20746F206E6F6E2D636F6E7472616374000000 PUSH1 0x44 DUP3 ADD MSTORE PUSH1 0x64 ADD PUSH2 0x49D JUMP JUMPDEST PUSH1 0x0 DUP1 DUP7 PUSH1 0x1 PUSH1 0x1 PUSH1 0xA0 SHL SUB AND DUP6 DUP8 PUSH1 0x40 MLOAD PUSH2 0x3E7A SWAP2 SWAP1 PUSH2 0x5792 JUMP JUMPDEST PUSH1 0x0 PUSH1 0x40 MLOAD DUP1 DUP4 SUB DUP2 DUP6 DUP8 GAS CALL SWAP3 POP POP POP RETURNDATASIZE DUP1 PUSH1 0x0 DUP2 EQ PUSH2 0x3EB7 JUMPI PUSH1 0x40 MLOAD SWAP2 POP PUSH1 0x1F NOT PUSH1 0x3F RETURNDATASIZE ADD AND DUP3 ADD PUSH1 0x40 MSTORE RETURNDATASIZE DUP3 MSTORE RETURNDATASIZE PUSH1 0x0 PUSH1 0x20 DUP5 ADD RETURNDATACOPY PUSH2 0x3EBC JUMP JUMPDEST PUSH1 0x60 SWAP2 POP JUMPDEST POP SWAP2 POP SWAP2 POP PUSH2 0xC13 DUP3 DUP3 DUP7 PUSH1 0x60 DUP4 ISZERO PUSH2 0x3ED6 JUMPI POP DUP2 PUSH2 0xD94 JUMP JUMPDEST DUP3 MLOAD ISZERO PUSH2 0x3EE6 JUMPI DUP3 MLOAD DUP1 DUP5 PUSH1 0x20 ADD REVERT JUMPDEST DUP2 PUSH1 0x40 MLOAD PUSH3 0x461BCD PUSH1 0xE5 SHL DUP2 MSTORE PUSH1 0x4 ADD PUSH2 0x49D SWAP2 SWAP1 PUSH2 0x457A JUMP JUMPDEST PUSH1 0x40 MLOAD DUP1 PUSH1 0xE0 ADD PUSH1 0x40 MSTORE DUP1 PUSH1 0x60 DUP2 MSTORE PUSH1 0x20 ADD PUSH1 0x60 DUP2 MSTORE PUSH1 0x20 ADD PUSH1 0x0 PUSH2 0xFFFF AND DUP2 MSTORE PUSH1 0x20 ADD PUSH1 0x60 DUP2 MSTORE PUSH1 0x20 ADD PUSH1 0x0 PUSH2 0xFFFF AND DUP2 MSTORE PUSH1 0x20 ADD PUSH1 0x60 DUP2 MSTORE PUSH1 0x20 ADD PUSH1 0x0 DUP2 MSTORE POP SWAP1 JUMP JUMPDEST PUSH1 0x40 MLOAD DUP1 PUSH1 0x80 ADD PUSH1 0x40 MSTORE DUP1 PUSH1 0x0 DUP2 MSTORE PUSH1 0x20 ADD PUSH1 0x0 DUP2 MSTORE PUSH1 0x20 ADD PUSH2 0x3F66 PUSH2 0x3F00 JUMP JUMPDEST DUP2 MSTORE PUSH1 0x20 ADD PUSH1 0x60 DUP2 MSTORE POP SWAP1 JUMP JUMPDEST PUSH1 0x1 PUSH1 0x1 PUSH1 0xA0 SHL SUB DUP2 AND DUP2 EQ PUSH2 0x8FE JUMPI PUSH1 0x0 DUP1 REVERT JUMPDEST DUP1 CALLDATALOAD PUSH2 0x3622 DUP2 PUSH2 0x3F73 JUMP JUMPDEST PUSH1 0x0 DUP1 PUSH1 0x0 DUP1 PUSH1 0x80 DUP6 DUP8 SUB SLT ISZERO PUSH2 0x3FA9 JUMPI PUSH1 0x0 DUP1 REVERT JUMPDEST DUP5 CALLDATALOAD PUSH2 0x3FB4 DUP2 PUSH2 0x3F73 JUMP JUMPDEST SWAP4 POP PUSH1 0x20 DUP6 ADD CALLDATALOAD PUSH2 0x3FC4 DUP2 PUSH2 0x3F73 JUMP JUMPDEST SWAP3 POP PUSH1 0x40 DUP6 ADD CALLDATALOAD SWAP2 POP PUSH1 0x60 DUP6 ADD CALLDATALOAD PUSH2 0x3FDB DUP2 PUSH2 0x3F73 JUMP JUMPDEST SWAP4 SWAP7 SWAP3 SWAP6 POP SWAP1 SWAP4 POP POP JUMP JUMPDEST PUSH1 0x0 PUSH1 0xE0 DUP3 DUP5 SUB SLT ISZERO PUSH2 0x3FF8 JUMPI PUSH1 0x0 DUP1 REVERT JUMPDEST POP SWAP2 SWAP1 POP JUMP JUMPDEST PUSH1 0x0 DUP1 DUP4 PUSH1 0x1F DUP5 ADD SLT PUSH2 0x4010 JUMPI PUSH1 0x0 DUP1 REVERT JUMPDEST POP DUP2 CALLDATALOAD PUSH1 0x1 PUSH1 0x1 PUSH1 0x40 SHL SUB DUP2 GT ISZERO PUSH2 0x4027 JUMPI PUSH1 0x0 DUP1 REVERT JUMPDEST PUSH1 0x20 DUP4 ADD SWAP2 POP DUP4 PUSH1 0x20 DUP3 PUSH1 0x5 SHL DUP6 ADD ADD GT ISZERO PUSH2 0x4042 JUMPI PUSH1 0x0 DUP1 REVERT JUMPDEST SWAP3 POP SWAP3 SWAP1 POP JUMP JUMPDEST PUSH1 0x0 PUSH1 0x80 DUP3 DUP5 SUB SLT ISZERO PUSH2 0x3FF8 JUMPI PUSH1 0x0 DUP1 REVERT JUMPDEST PUSH1 0x0 DUP1 PUSH1 0x0 DUP1 PUSH1 0x0 DUP1 PUSH1 0x80 DUP8 DUP10 SUB SLT ISZERO PUSH2 0x4074 JUMPI PUSH1 0x0 DUP1 REVERT JUMPDEST DUP7 CALLDATALOAD PUSH1 0x1 PUSH1 0x1 PUSH1 0x40 SHL SUB DUP1 DUP3 GT ISZERO PUSH2 0x408B JUMPI PUSH1 0x0 DUP1 REVERT JUMPDEST PUSH2 0x4097 DUP11 DUP4 DUP12 ADD PUSH2 0x3FE6 JUMP JUMPDEST SWAP8 POP PUSH1 0x20 DUP10 ADD CALLDATALOAD SWAP2 POP DUP1 DUP3 GT ISZERO PUSH2 0x40AD JUMPI PUSH1 0x0 DUP1 REVERT JUMPDEST PUSH2 0x40B9 DUP11 DUP4 DUP12 ADD PUSH2 0x3FFE JUMP JUMPDEST SWAP1 SWAP8 POP SWAP6 POP PUSH1 0x40 DUP10 ADD CALLDATALOAD SWAP2 POP DUP1 DUP3 GT ISZERO PUSH2 0x40D2 JUMPI PUSH1 0x0 DUP1 REVERT JUMPDEST PUSH2 0x40DE DUP11 DUP4 DUP12 ADD PUSH2 0x4049 JUMP JUMPDEST SWAP5 POP PUSH1 0x60 DUP10 ADD CALLDATALOAD SWAP2 POP DUP1 DUP3 GT ISZERO PUSH2 0x40F4 JUMPI PUSH1 0x0 DUP1 REVERT JUMPDEST POP PUSH2 0x4101 DUP10 DUP3 DUP11 ADD PUSH2 0x3FFE JUMP JUMPDEST SWAP8 SWAP11 SWAP7 SWAP10 POP SWAP5 SWAP8 POP SWAP3 SWAP6 SWAP4 SWAP5 SWAP3 POP POP POP JUMP JUMPDEST PUSH4 0x4E487B71 PUSH1 0xE0 SHL PUSH1 0x0 MSTORE PUSH1 0x41 PUSH1 0x4 MSTORE PUSH1 0x24 PUSH1 0x0 REVERT JUMPDEST PUSH1 0xE0 DUP2 ADD DUP2 DUP2 LT PUSH1 0x1 PUSH1 0x1 PUSH1 0x40 SHL SUB DUP3 GT OR ISZERO PUSH2 0x4148 JUMPI PUSH2 0x4148 PUSH2 0x4113 JUMP JUMPDEST PUSH1 0x40 MSTORE POP JUMP JUMPDEST PUSH1 0x80 DUP2 ADD DUP2 DUP2 LT PUSH1 0x1 PUSH1 0x1 PUSH1 0x40 SHL SUB DUP3 GT OR ISZERO PUSH2 0x4148 JUMPI PUSH2 0x4148 PUSH2 0x4113 JUMP JUMPDEST PUSH1 0x1F DUP3 ADD PUSH1 0x1F NOT AND DUP2 ADD PUSH1 0x1 PUSH1 0x1 PUSH1 0x40 SHL SUB DUP2 GT DUP3 DUP3 LT OR ISZERO PUSH2 0x4192 JUMPI PUSH2 0x4192 PUSH2 0x4113 JUMP JUMPDEST PUSH1 0x40 MSTORE POP POP JUMP JUMPDEST PUSH1 0x40 MLOAD PUSH2 0x41A5 DUP2 PUSH2 0x4129 JUMP JUMPDEST SWAP1 JUMP JUMPDEST PUSH1 0x40 MLOAD PUSH1 0xC0 DUP2 ADD PUSH1 0x1 PUSH1 0x1 PUSH1 0x40 SHL SUB DUP2 GT DUP3 DUP3 LT OR ISZERO PUSH2 0x41CA JUMPI PUSH2 0x41CA PUSH2 0x4113 JUMP JUMPDEST PUSH1 0x40 MSTORE SWAP1 JUMP JUMPDEST PUSH1 0x40 MLOAD PUSH2 0x160 DUP2 ADD PUSH1 0x1 PUSH1 0x1 PUSH1 0x40 SHL SUB DUP2 GT DUP3 DUP3 LT OR ISZERO PUSH2 0x41CA JUMPI PUSH2 0x41CA PUSH2 0x4113 JUMP JUMPDEST PUSH1 0x40 MLOAD PUSH2 0x100 DUP2 ADD PUSH1 0x1 PUSH1 0x1 PUSH1 0x40 SHL SUB DUP2 GT DUP3 DUP3 LT OR ISZERO PUSH2 0x41CA JUMPI PUSH2 0x41CA PUSH2 0x4113 JUMP JUMPDEST PUSH1 0x0 PUSH1 0x1 PUSH1 0x1 PUSH1 0x40 SHL SUB DUP3 GT ISZERO PUSH2 0x422F JUMPI PUSH2 0x422F PUSH2 0x4113 JUMP JUMPDEST POP PUSH1 0x1F ADD PUSH1 0x1F NOT AND PUSH1 0x20 ADD SWAP1 JUMP JUMPDEST PUSH1 0x0 DUP3 PUSH1 0x1F DUP4 ADD SLT PUSH2 0x424E JUMPI PUSH1 0x0 DUP1 REVERT JUMPDEST DUP2 CALLDATALOAD PUSH2 0x4259 DUP2 PUSH2 0x4216 JUMP JUMPDEST PUSH1 0x40 MLOAD PUSH2 0x4266 DUP3 DUP3 PUSH2 0x416D JUMP JUMPDEST DUP3 DUP2 MSTORE DUP6 PUSH1 0x20 DUP5 DUP8 ADD ADD GT ISZERO PUSH2 0x427B JUMPI PUSH1 0x0 DUP1 REVERT JUMPDEST DUP3 PUSH1 0x20 DUP7 ADD PUSH1 0x20 DUP4 ADD CALLDATACOPY PUSH1 0x0 SWAP3 DUP2 ADD PUSH1 0x20 ADD SWAP3 SWAP1 SWAP3 MSTORE POP SWAP4 SWAP3 POP POP POP JUMP JUMPDEST PUSH1 0x0 PUSH1 0x20 DUP3 DUP5 SUB SLT ISZERO PUSH2 0x42AB JUMPI PUSH1 0x0 DUP1 REVERT JUMPDEST DUP2 CALLDATALOAD PUSH1 0x1 PUSH1 0x1 PUSH1 0x40 SHL SUB DUP2 GT ISZERO PUSH2 0x42C1 JUMPI PUSH1 0x0 DUP1 REVERT JUMPDEST PUSH2 0xB56 DUP5 DUP3 DUP6 ADD PUSH2 0x423D JUMP JUMPDEST PUSH1 0x0 DUP1 PUSH1 0x0 DUP1 PUSH1 0x60 DUP6 DUP8 SUB SLT ISZERO PUSH2 0x42E3 JUMPI PUSH1 0x0 DUP1 REVERT JUMPDEST DUP5 CALLDATALOAD PUSH1 0x1 PUSH1 0x1 PUSH1 0x40 SHL SUB DUP1 DUP3 GT ISZERO PUSH2 0x42FA JUMPI PUSH1 0x0 DUP1 REVERT JUMPDEST PUSH2 0x4306 DUP9 DUP4 DUP10 ADD PUSH2 0x3FE6 JUMP JUMPDEST SWAP6 POP PUSH1 0x20 DUP8 ADD CALLDATALOAD SWAP2 POP DUP1 DUP3 GT ISZERO PUSH2 0x431C JUMPI PUSH1 0x0 DUP1 REVERT JUMPDEST PUSH2 0x4328 DUP9 DUP4 DUP10 ADD PUSH2 0x4049 JUMP JUMPDEST SWAP5 POP PUSH1 0x40 DUP8 ADD CALLDATALOAD SWAP2 POP DUP1 DUP3 GT ISZERO PUSH2 0x433E JUMPI PUSH1 0x0 DUP1 REVERT JUMPDEST POP PUSH2 0x434B DUP8 DUP3 DUP9 ADD PUSH2 0x3FFE JUMP JUMPDEST SWAP6 SWAP9 SWAP5 SWAP8 POP SWAP6 POP POP POP POP JUMP JUMPDEST PUSH2 0xFFFF DUP2 AND DUP2 EQ PUSH2 0x8FE JUMPI PUSH1 0x0 DUP1 REVERT JUMPDEST DUP1 CALLDATALOAD PUSH2 0x3622 DUP2 PUSH2 0x4357 JUMP JUMPDEST PUSH1 0x0 DUP1 PUSH1 0x0 PUSH1 0x60 DUP5 DUP7 SUB SLT ISZERO PUSH2 0x4387 JUMPI PUSH1 0x0 DUP1 REVERT JUMPDEST DUP4 CALLDATALOAD PUSH2 0x4392 DUP2 PUSH2 0x4357 JUMP JUMPDEST SWAP6 PUSH1 0x20 DUP6 ADD CALLDATALOAD SWAP6 POP PUSH1 0x40 SWAP1 SWAP5 ADD CALLDATALOAD SWAP4 SWAP3 POP POP POP JUMP JUMPDEST PUSH1 0x0 DUP1 PUSH1 0x0 DUP4 DUP6 SUB PUSH2 0x100 DUP2 SLT ISZERO PUSH2 0x43BE JUMPI PUSH1 0x0 DUP1 REVERT JUMPDEST PUSH1 0xE0 DUP2 SLT ISZERO PUSH2 0x43CC JUMPI PUSH1 0x0 DUP1 REVERT JUMPDEST POP PUSH1 0x40 MLOAD PUSH2 0x43D9 DUP2 PUSH2 0x4129 JUMP JUMPDEST DUP5 CALLDATALOAD DUP2 MSTORE PUSH2 0x43E9 PUSH1 0x20 DUP7 ADD PUSH2 0x3F88 JUMP JUMPDEST PUSH1 0x20 DUP3 ADD MSTORE PUSH2 0x43FA PUSH1 0x40 DUP7 ADD PUSH2 0x4367 JUMP JUMPDEST PUSH1 0x40 DUP3 ADD MSTORE PUSH2 0x440B PUSH1 0x60 DUP7 ADD PUSH2 0x3F88 JUMP JUMPDEST PUSH1 0x60 DUP3 ADD MSTORE PUSH2 0x441C PUSH1 0x80 DUP7 ADD PUSH2 0x4367 JUMP JUMPDEST PUSH1 0x80 DUP3 ADD MSTORE PUSH2 0x442D PUSH1 0xA0 DUP7 ADD PUSH2 0x3F88 JUMP JUMPDEST PUSH1 0xA0 DUP3 ADD MSTORE PUSH1 0xC0 DUP6 DUP2 ADD CALLDATALOAD SWAP1 DUP3 ADD MSTORE SWAP3 POP PUSH1 0xE0 DUP5 ADD CALLDATALOAD PUSH1 0x1 PUSH1 0x1 PUSH1 0x40 SHL SUB DUP2 GT ISZERO PUSH2 0x4457 JUMPI PUSH1 0x0 DUP1 REVERT JUMPDEST PUSH2 0x4463 DUP7 DUP3 DUP8 ADD PUSH2 0x3FFE JUMP JUMPDEST SWAP5 SWAP8 SWAP1 SWAP7 POP SWAP4 SWAP5 POP POP POP POP JUMP JUMPDEST PUSH1 0x0 PUSH1 0x20 DUP3 DUP5 SUB SLT ISZERO PUSH2 0x4482 JUMPI PUSH1 0x0 DUP1 REVERT JUMPDEST POP CALLDATALOAD SWAP2 SWAP1 POP JUMP JUMPDEST PUSH1 0x0 PUSH1 0x20 DUP3 DUP5 SUB SLT ISZERO PUSH2 0x449B JUMPI PUSH1 0x0 DUP1 REVERT JUMPDEST DUP2 CALLDATALOAD PUSH1 0x1 PUSH1 0x1 PUSH1 0x40 SHL SUB DUP1 DUP3 GT ISZERO PUSH2 0x44B2 JUMPI PUSH1 0x0 DUP1 REVERT JUMPDEST SWAP1 DUP4 ADD SWAP1 PUSH1 0x80 DUP3 DUP7 SUB SLT ISZERO PUSH2 0x44C6 JUMPI PUSH1 0x0 DUP1 REVERT JUMPDEST PUSH1 0x40 MLOAD PUSH2 0x44D2 DUP2 PUSH2 0x414E JUMP JUMPDEST DUP3 CALLDATALOAD PUSH2 0x44DD DUP2 PUSH2 0x4357 JUMP JUMPDEST DUP1 DUP3 MSTORE POP PUSH1 0x20 DUP4 ADD CALLDATALOAD PUSH1 0x20 DUP3 ADD MSTORE PUSH1 0x40 DUP4 ADD CALLDATALOAD PUSH1 0x40 DUP3 ADD MSTORE PUSH1 0x60 DUP4 ADD CALLDATALOAD DUP3 DUP2 GT ISZERO PUSH2 0x4507 JUMPI PUSH1 0x0 DUP1 REVERT JUMPDEST PUSH2 0x4513 DUP8 DUP3 DUP7 ADD PUSH2 0x423D JUMP JUMPDEST PUSH1 0x60 DUP4 ADD MSTORE POP SWAP6 SWAP5 POP POP POP POP POP JUMP JUMPDEST PUSH1 0x0 JUMPDEST DUP4 DUP2 LT ISZERO PUSH2 0x453D JUMPI DUP2 DUP2 ADD MLOAD DUP4 DUP3 ADD MSTORE PUSH1 0x20 ADD PUSH2 0x4525 JUMP JUMPDEST DUP4 DUP2 GT ISZERO PUSH2 0x569 JUMPI POP POP PUSH1 0x0 SWAP2 ADD MSTORE JUMP JUMPDEST PUSH1 0x0 DUP2 MLOAD DUP1 DUP5 MSTORE PUSH2 0x4566 DUP2 PUSH1 0x20 DUP7 ADD PUSH1 0x20 DUP7 ADD PUSH2 0x4522 JUMP JUMPDEST PUSH1 0x1F ADD PUSH1 0x1F NOT AND SWAP3 SWAP1 SWAP3 ADD PUSH1 0x20 ADD SWAP3 SWAP2 POP POP JUMP JUMPDEST PUSH1 0x20 DUP2 MSTORE PUSH1 0x0 PUSH2 0xD94 PUSH1 0x20 DUP4 ADD DUP5 PUSH2 0x454E JUMP JUMPDEST PUSH1 0x0 DUP1 PUSH1 0x0 PUSH1 0x60 DUP5 DUP7 SUB SLT ISZERO PUSH2 0x45A2 JUMPI PUSH1 0x0 DUP1 REVERT JUMPDEST DUP4 CALLDATALOAD PUSH2 0x45AD DUP2 PUSH2 0x3F73 JUMP JUMPDEST SWAP3 POP PUSH1 0x20 DUP5 ADD CALLDATALOAD PUSH2 0x45BD DUP2 PUSH2 0x3F73 JUMP JUMPDEST SWAP3 SWAP6 SWAP3 SWAP5 POP POP POP PUSH1 0x40 SWAP2 SWAP1 SWAP2 ADD CALLDATALOAD SWAP1 JUMP JUMPDEST PUSH1 0x20 DUP2 MSTORE PUSH2 0xFFFF DUP3 MLOAD AND PUSH1 0x20 DUP3 ADD MSTORE PUSH1 0x20 DUP3 ADD MLOAD PUSH1 0x40 DUP3 ADD MSTORE PUSH1 0x40 DUP3 ADD MLOAD PUSH1 0x60 DUP3 ADD MSTORE PUSH1 0x0 PUSH1 0x60 DUP4 ADD MLOAD PUSH1 0x80 DUP1 DUP5 ADD MSTORE PUSH2 0xB56 PUSH1 0xA0 DUP5 ADD DUP3 PUSH2 0x454E JUMP JUMPDEST PUSH1 0x0 DUP1 PUSH1 0x40 DUP4 DUP6 SUB SLT ISZERO PUSH2 0x461E JUMPI PUSH1 0x0 DUP1 REVERT JUMPDEST POP POP DUP1 CALLDATALOAD SWAP3 PUSH1 0x20 SWAP1 SWAP2 ADD CALLDATALOAD SWAP2 POP JUMP JUMPDEST PUSH1 0x0 DUP2 MLOAD DUP1 DUP5 MSTORE PUSH1 0x20 DUP1 DUP6 ADD DUP1 DUP2 SWAP7 POP DUP4 PUSH1 0x5 SHL DUP2 ADD SWAP2 POP DUP3 DUP7 ADD PUSH1 0x0 JUMPDEST DUP6 DUP2 LT ISZERO PUSH2 0x46F7 JUMPI DUP3 DUP5 SUB DUP10 MSTORE DUP2 MLOAD PUSH1 0xC0 DUP2 MLOAD DUP2 DUP8 MSTORE PUSH2 0x466D DUP3 DUP9 ADD DUP3 PUSH2 0x454E JUMP JUMPDEST SWAP2 POP POP DUP7 DUP3 ADD MLOAD DUP7 DUP3 SUB DUP9 DUP9 ADD MSTORE PUSH2 0x4685 DUP3 DUP3 PUSH2 0x454E JUMP JUMPDEST SWAP2 POP POP PUSH1 0x40 DUP1 DUP4 ADD MLOAD DUP8 DUP4 SUB DUP3 DUP10 ADD MSTORE PUSH2 0x469F DUP4 DUP3 PUSH2 0x454E JUMP JUMPDEST SWAP3 POP POP POP PUSH1 0x60 DUP1 DUP4 ADD MLOAD DUP8 DUP4 SUB DUP3 DUP10 ADD MSTORE PUSH2 0x46BA DUP4 DUP3 PUSH2 0x454E JUMP JUMPDEST SWAP3 POP POP POP PUSH1 0x80 DUP1 DUP4 ADD MLOAD DUP2 DUP9 ADD MSTORE POP PUSH1 0xA0 DUP1 DUP4 ADD MLOAD SWAP3 POP DUP7 DUP3 SUB DUP2 DUP9 ADD MSTORE POP PUSH2 0x46E3 DUP2 DUP4 PUSH2 0x454E JUMP JUMPDEST SWAP11 DUP8 ADD SWAP11 SWAP6 POP POP POP SWAP1 DUP5 ADD SWAP1 PUSH1 0x1 ADD PUSH2 0x464B JUMP JUMPDEST POP SWAP2 SWAP8 SWAP7 POP POP POP POP POP POP POP JUMP JUMPDEST DUP5 DUP2 MSTORE DUP4 PUSH1 0x20 DUP3 ADD MSTORE PUSH1 0x80 PUSH1 0x40 DUP3 ADD MSTORE PUSH1 0x0 DUP4 MLOAD PUSH1 0xE0 PUSH1 0x80 DUP5 ADD MSTORE PUSH2 0x472D PUSH2 0x160 DUP5 ADD DUP3 PUSH2 0x454E JUMP JUMPDEST SWAP1 POP PUSH1 0x20 DUP6 ADD MLOAD PUSH1 0x7F NOT DUP1 DUP6 DUP5 SUB ADD PUSH1 0xA0 DUP7 ADD MSTORE PUSH2 0x474B DUP4 DUP4 PUSH2 0x454E JUMP JUMPDEST SWAP3 POP PUSH2 0xFFFF PUSH1 0x40 DUP9 ADD MLOAD AND PUSH1 0xC0 DUP7 ADD MSTORE PUSH1 0x60 DUP8 ADD MLOAD SWAP2 POP DUP1 DUP6 DUP5 SUB ADD PUSH1 0xE0 DUP7 ADD MSTORE PUSH2 0x4776 DUP4 DUP4 PUSH2 0x454E JUMP JUMPDEST SWAP3 POP PUSH1 0x80 DUP8 ADD MLOAD SWAP2 POP PUSH2 0x4790 PUSH2 0x100 DUP7 ADD DUP4 PUSH2 0xFFFF AND SWAP1 MSTORE JUMP JUMPDEST PUSH1 0xA0 DUP8 ADD MLOAD SWAP2 POP DUP1 DUP6 DUP5 SUB ADD PUSH2 0x120 DUP7 ADD MSTORE POP PUSH2 0x47AD DUP3 DUP3 PUSH2 0x454E JUMP JUMPDEST SWAP2 POP POP PUSH1 0xC0 DUP6 ADD MLOAD PUSH2 0x140 DUP5 ADD MSTORE DUP3 DUP2 SUB PUSH1 0x60 DUP5 ADD MSTORE PUSH2 0xC13 DUP2 DUP6 PUSH2 0x462D JUMP JUMPDEST PUSH1 0x0 DUP1 PUSH1 0x40 DUP4 DUP6 SUB SLT ISZERO PUSH2 0x47E0 JUMPI PUSH1 0x0 DUP1 REVERT JUMPDEST DUP3 CALLDATALOAD PUSH2 0x47EB DUP2 PUSH2 0x3F73 JUMP JUMPDEST SWAP2 POP PUSH1 0x20 DUP4 ADD CALLDATALOAD PUSH2 0x47FB DUP2 PUSH2 0x4357 JUMP JUMPDEST DUP1 SWAP2 POP POP SWAP3 POP SWAP3 SWAP1 POP JUMP JUMPDEST PUSH1 0x0 PUSH1 0xE0 DUP3 DUP5 SUB SLT ISZERO PUSH2 0x4818 JUMPI PUSH1 0x0 DUP1 REVERT JUMPDEST PUSH2 0x4820 PUSH2 0x4199 JUMP JUMPDEST SWAP1 POP DUP2 CALLDATALOAD PUSH1 0x1 PUSH1 0x1 PUSH1 0x40 SHL SUB DUP1 DUP3 GT ISZERO PUSH2 0x4839 JUMPI PUSH1 0x0 DUP1 REVERT JUMPDEST PUSH2 0x4845 DUP6 DUP4 DUP7 ADD PUSH2 0x423D JUMP JUMPDEST DUP4 MSTORE PUSH1 0x20 DUP5 ADD CALLDATALOAD SWAP2 POP DUP1 DUP3 GT ISZERO PUSH2 0x485B JUMPI PUSH1 0x0 DUP1 REVERT JUMPDEST PUSH2 0x4867 DUP6 DUP4 DUP7 ADD PUSH2 0x423D JUMP JUMPDEST PUSH1 0x20 DUP5 ADD MSTORE PUSH2 0x4878 PUSH1 0x40 DUP6 ADD PUSH2 0x4367 JUMP JUMPDEST PUSH1 0x40 DUP5 ADD MSTORE PUSH1 0x60 DUP5 ADD CALLDATALOAD SWAP2 POP DUP1 DUP3 GT ISZERO PUSH2 0x4891 JUMPI PUSH1 0x0 DUP1 REVERT JUMPDEST PUSH2 0x489D DUP6 DUP4 DUP7 ADD PUSH2 0x423D JUMP JUMPDEST PUSH1 0x60 DUP5 ADD MSTORE PUSH2 0x48AE PUSH1 0x80 DUP6 ADD PUSH2 0x4367 JUMP JUMPDEST PUSH1 0x80 DUP5 ADD MSTORE PUSH1 0xA0 DUP5 ADD CALLDATALOAD SWAP2 POP DUP1 DUP3 GT ISZERO PUSH2 0x48C7 JUMPI PUSH1 0x0 DUP1 REVERT JUMPDEST POP PUSH2 0x48D4 DUP5 DUP3 DUP6 ADD PUSH2 0x423D JUMP JUMPDEST PUSH1 0xA0 DUP4 ADD MSTORE POP PUSH1 0xC0 DUP3 ADD CALLDATALOAD PUSH1 0xC0 DUP3 ADD MSTORE SWAP3 SWAP2 POP POP JUMP JUMPDEST PUSH1 0x0 PUSH1 0x1 PUSH1 0x1 PUSH1 0x40 SHL SUB DUP3 GT ISZERO PUSH2 0x4903 JUMPI PUSH2 0x4903 PUSH2 0x4113 JUMP JUMPDEST POP PUSH1 0x5 SHL PUSH1 0x20 ADD SWAP1 JUMP JUMPDEST PUSH1 0x0 PUSH2 0x4918 DUP4 PUSH2 0x48EA JUMP JUMPDEST PUSH1 0x40 DUP1 MLOAD PUSH2 0x4926 DUP4 DUP3 PUSH2 0x416D JUMP JUMPDEST DUP6 DUP2 MSTORE SWAP3 POP PUSH1 0x20 DUP1 DUP5 ADD SWAP3 POP PUSH1 0x5 DUP7 SWAP1 SHL DUP6 ADD SWAP1 DUP8 DUP3 GT ISZERO PUSH2 0x4947 JUMPI PUSH1 0x0 DUP1 REVERT JUMPDEST DUP6 JUMPDEST DUP3 DUP2 LT ISZERO PUSH2 0x4A53 JUMPI DUP1 CALLDATALOAD PUSH1 0x1 PUSH1 0x1 PUSH1 0x40 SHL SUB DUP1 DUP3 GT ISZERO PUSH2 0x4969 JUMPI PUSH1 0x0 DUP1 DUP2 REVERT JUMPDEST SWAP1 DUP9 ADD SWAP1 PUSH1 0xC0 DUP3 DUP13 SUB SLT ISZERO PUSH2 0x497E JUMPI PUSH1 0x0 DUP1 DUP2 REVERT JUMPDEST PUSH2 0x4986 PUSH2 0x41A8 JUMP JUMPDEST DUP3 CALLDATALOAD DUP3 DUP2 GT ISZERO PUSH2 0x4996 JUMPI PUSH1 0x0 DUP1 DUP2 REVERT JUMPDEST PUSH2 0x49A2 DUP14 DUP3 DUP7 ADD PUSH2 0x423D JUMP JUMPDEST DUP3 MSTORE POP DUP5 DUP4 ADD CALLDATALOAD DUP3 DUP2 GT ISZERO PUSH2 0x49B7 JUMPI PUSH1 0x0 DUP1 DUP2 REVERT JUMPDEST PUSH2 0x49C3 DUP14 DUP3 DUP7 ADD PUSH2 0x423D JUMP JUMPDEST DUP7 DUP4 ADD MSTORE POP DUP7 DUP4 ADD CALLDATALOAD DUP3 DUP2 GT ISZERO PUSH2 0x49DA JUMPI PUSH1 0x0 DUP1 DUP2 REVERT JUMPDEST PUSH2 0x49E6 DUP14 DUP3 DUP7 ADD PUSH2 0x423D JUMP JUMPDEST DUP9 DUP4 ADD MSTORE POP PUSH1 0x60 DUP1 DUP5 ADD CALLDATALOAD DUP4 DUP2 GT ISZERO PUSH2 0x49FF JUMPI PUSH1 0x0 DUP1 DUP2 REVERT JUMPDEST PUSH2 0x4A0B DUP15 DUP3 DUP8 ADD PUSH2 0x423D JUMP JUMPDEST DUP3 DUP5 ADD MSTORE POP POP PUSH1 0x80 DUP1 DUP5 ADD CALLDATALOAD DUP2 DUP4 ADD MSTORE POP PUSH1 0xA0 DUP1 DUP5 ADD CALLDATALOAD DUP4 DUP2 GT ISZERO PUSH2 0x4A30 JUMPI PUSH1 0x0 DUP1 DUP2 REVERT JUMPDEST PUSH2 0x4A3C DUP15 DUP3 DUP8 ADD PUSH2 0x423D JUMP JUMPDEST SWAP2 DUP4 ADD SWAP2 SWAP1 SWAP2 MSTORE POP DUP8 MSTORE POP POP SWAP4 DUP2 ADD SWAP4 DUP2 ADD PUSH2 0x4949 JUMP JUMPDEST POP POP POP POP POP SWAP4 SWAP3 POP POP POP JUMP JUMPDEST PUSH1 0x0 DUP1 PUSH1 0x0 DUP1 PUSH1 0x80 DUP6 DUP8 SUB SLT ISZERO PUSH2 0x4A75 JUMPI PUSH1 0x0 DUP1 REVERT JUMPDEST DUP5 CALLDATALOAD SWAP4 POP PUSH1 0x20 DUP6 ADD CALLDATALOAD SWAP3 POP PUSH1 0x40 DUP6 ADD CALLDATALOAD PUSH1 0x1 PUSH1 0x1 PUSH1 0x40 SHL SUB DUP1 DUP3 GT ISZERO PUSH2 0x4A9A JUMPI PUSH1 0x0 DUP1 REVERT JUMPDEST PUSH2 0x4AA6 DUP9 DUP4 DUP10 ADD PUSH2 0x4806 JUMP JUMPDEST SWAP4 POP PUSH1 0x60 DUP8 ADD CALLDATALOAD SWAP2 POP DUP1 DUP3 GT ISZERO PUSH2 0x4ABC JUMPI PUSH1 0x0 DUP1 REVERT JUMPDEST POP DUP6 ADD PUSH1 0x1F DUP2 ADD DUP8 SGT PUSH2 0x4ACE JUMPI PUSH1 0x0 DUP1 REVERT JUMPDEST PUSH2 0x4ADD DUP8 DUP3 CALLDATALOAD PUSH1 0x20 DUP5 ADD PUSH2 0x490D JUMP JUMPDEST SWAP2 POP POP SWAP3 SWAP6 SWAP2 SWAP5 POP SWAP3 POP JUMP JUMPDEST PUSH1 0x0 PUSH2 0x2200 CALLDATASIZE DUP4 PUSH2 0x4806 JUMP JUMPDEST PUSH1 0x0 PUSH2 0xD94 CALLDATASIZE DUP5 DUP5 PUSH2 0x490D JUMP JUMPDEST PUSH4 0x4E487B71 PUSH1 0xE0 SHL PUSH1 0x0 MSTORE PUSH1 0x32 PUSH1 0x4 MSTORE PUSH1 0x24 PUSH1 0x0 REVERT JUMPDEST DUP1 MLOAD DUP3 MSTORE PUSH1 0x20 DUP2 ADD MLOAD PUSH1 0x1 DUP1 PUSH1 0xA0 SHL SUB DUP1 DUP3 AND PUSH1 0x20 DUP6 ADD MSTORE PUSH1 0x40 DUP4 ADD MLOAD SWAP2 POP PUSH2 0xFFFF DUP1 DUP4 AND PUSH1 0x40 DUP7 ADD MSTORE DUP2 PUSH1 0x60 DUP6 ADD MLOAD AND PUSH1 0x60 DUP7 ADD MSTORE DUP1 PUSH1 0x80 DUP6 ADD MLOAD AND PUSH1 0x80 DUP7 ADD MSTORE POP DUP1 PUSH1 0xA0 DUP5 ADD MLOAD AND PUSH1 0xA0 DUP6 ADD MSTORE POP POP PUSH1 0xC0 DUP2 ADD MLOAD PUSH1 0xC0 DUP4 ADD MSTORE POP POP JUMP JUMPDEST PUSH1 0x0 PUSH2 0x100 DUP1 DUP4 ADD PUSH2 0x4B89 DUP5 DUP8 PUSH2 0x4B18 JUMP JUMPDEST PUSH1 0xE0 DUP5 ADD SWAP2 SWAP1 SWAP2 MSTORE DUP4 MLOAD SWAP1 DUP2 SWAP1 MSTORE PUSH2 0x120 DUP1 DUP5 ADD SWAP2 PUSH1 0x5 DUP2 SWAP1 SHL DUP6 ADD SWAP1 SWAP2 ADD SWAP1 PUSH1 0x20 DUP1 DUP8 ADD PUSH1 0x0 JUMPDEST DUP4 DUP2 LT ISZERO PUSH2 0x4C30 JUMPI DUP8 DUP6 SUB PUSH2 0x11F NOT ADD DUP7 MSTORE DUP2 MLOAD DUP1 MLOAD PUSH1 0x1 PUSH1 0x1 PUSH1 0xA0 SHL SUB SWAP1 DUP2 AND DUP8 MSTORE DUP5 DUP3 ADD MLOAD DUP2 AND DUP6 DUP9 ADD MSTORE PUSH1 0x40 DUP1 DUP4 ADD MLOAD DUP3 AND SWAP1 DUP9 ADD MSTORE PUSH1 0x60 DUP1 DUP4 ADD MLOAD SWAP1 SWAP2 AND SWAP1 DUP8 ADD MSTORE PUSH1 0x80 DUP1 DUP3 ADD MLOAD SWAP1 DUP8 ADD MSTORE PUSH1 0xA0 SWAP1 DUP2 ADD MLOAD PUSH1 0xC0 SWAP2 DUP8 ADD DUP3 SWAP1 MSTORE SWAP1 PUSH2 0x4C1C DUP2 DUP9 ADD DUP4 PUSH2 0x454E JUMP JUMPDEST SWAP8 DUP6 ADD SWAP8 SWAP7 POP POP POP SWAP1 DUP3 ADD SWAP1 PUSH1 0x1 ADD PUSH2 0x4BB1 JUMP JUMPDEST POP SWAP3 SWAP9 SWAP8 POP POP POP POP POP POP POP POP JUMP JUMPDEST PUSH1 0x0 PUSH1 0x20 DUP3 DUP5 SUB SLT ISZERO PUSH2 0x4C50 JUMPI PUSH1 0x0 DUP1 REVERT JUMPDEST POP MLOAD SWAP2 SWAP1 POP JUMP JUMPDEST PUSH4 0x4E487B71 PUSH1 0xE0 SHL PUSH1 0x0 MSTORE PUSH1 0x11 PUSH1 0x4 MSTORE PUSH1 0x24 PUSH1 0x0 REVERT JUMPDEST PUSH1 0x0 DUP3 DUP3 LT ISZERO PUSH2 0x4C7F JUMPI PUSH2 0x4C7F PUSH2 0x4C57 JUMP JUMPDEST POP SUB SWAP1 JUMP JUMPDEST PUSH2 0x140 DUP1 DUP3 MSTORE PUSH1 0x8 SWAP1 DUP3 ADD MSTORE PUSH8 0x576F726D686F6C65 PUSH1 0xC0 SHL PUSH2 0x160 DUP3 ADD MSTORE DUP4 ISZERO ISZERO PUSH1 0x20 DUP3 ADD MSTORE DUP3 ISZERO ISZERO PUSH1 0x40 DUP3 ADD MSTORE PUSH2 0x180 DUP2 ADD PUSH2 0xB56 PUSH1 0x60 DUP4 ADD DUP5 PUSH2 0x4B18 JUMP JUMPDEST PUSH1 0x0 PUSH1 0x20 DUP3 DUP5 SUB SLT ISZERO PUSH2 0x4CD6 JUMPI PUSH1 0x0 DUP1 REVERT JUMPDEST DUP2 MLOAD PUSH2 0xD94 DUP2 PUSH2 0x3F73 JUMP JUMPDEST PUSH1 0x0 PUSH1 0x20 DUP3 DUP5 SUB SLT ISZERO PUSH2 0x4CF3 JUMPI PUSH1 0x0 DUP1 REVERT JUMPDEST DUP2 CALLDATALOAD PUSH2 0xD94 DUP2 PUSH2 0x4357 JUMP JUMPDEST DUP1 MLOAD DUP1 ISZERO ISZERO DUP2 EQ PUSH2 0x3622 JUMPI PUSH1 0x0 DUP1 REVERT JUMPDEST PUSH1 0x0 DUP1 PUSH1 0x40 DUP4 DUP6 SUB SLT ISZERO PUSH2 0x4D21 JUMPI PUSH1 0x0 DUP1 REVERT JUMPDEST DUP3 MLOAD SWAP2 POP PUSH2 0x4D31 PUSH1 0x20 DUP5 ADD PUSH2 0x4CFE JUMP JUMPDEST SWAP1 POP SWAP3 POP SWAP3 SWAP1 POP JUMP JUMPDEST PUSH1 0x0 DUP3 CALLDATALOAD PUSH1 0xBE NOT DUP4 CALLDATASIZE SUB ADD DUP2 SLT PUSH2 0x4D50 JUMPI PUSH1 0x0 DUP1 REVERT JUMPDEST SWAP2 SWAP1 SWAP2 ADD SWAP3 SWAP2 POP POP JUMP JUMPDEST PUSH1 0x0 PUSH1 0x20 DUP3 DUP5 SUB SLT ISZERO PUSH2 0x4D6C JUMPI PUSH1 0x0 DUP1 REVERT JUMPDEST DUP2 CALLDATALOAD PUSH2 0xD94 DUP2 PUSH2 0x3F73 JUMP JUMPDEST DUP1 MLOAD PUSH1 0xFF DUP2 AND DUP2 EQ PUSH2 0x3622 JUMPI PUSH1 0x0 DUP1 REVERT JUMPDEST DUP1 MLOAD PUSH4 0xFFFFFFFF DUP2 AND DUP2 EQ PUSH2 0x3622 JUMPI PUSH1 0x0 DUP1 REVERT JUMPDEST DUP1 MLOAD PUSH2 0x3622 DUP2 PUSH2 0x4357 JUMP JUMPDEST DUP1 MLOAD PUSH1 0x1 PUSH1 0x1 PUSH1 0x40 SHL SUB DUP2 AND DUP2 EQ PUSH2 0x3622 JUMPI PUSH1 0x0 DUP1 REVERT JUMPDEST PUSH1 0x0 PUSH2 0x4DC9 DUP4 PUSH2 0x4216 JUMP JUMPDEST PUSH1 0x40 MLOAD PUSH2 0x4DD6 DUP3 DUP3 PUSH2 0x416D JUMP JUMPDEST DUP1 SWAP3 POP DUP5 DUP2 MSTORE DUP6 DUP6 DUP6 ADD GT ISZERO PUSH2 0x4DEB JUMPI PUSH1 0x0 DUP1 REVERT JUMPDEST PUSH2 0x4DF9 DUP6 PUSH1 0x20 DUP4 ADD DUP7 PUSH2 0x4522 JUMP JUMPDEST POP POP SWAP4 SWAP3 POP POP POP JUMP JUMPDEST PUSH1 0x0 DUP3 PUSH1 0x1F DUP4 ADD SLT PUSH2 0x4E13 JUMPI PUSH1 0x0 DUP1 REVERT JUMPDEST PUSH2 0xD94 DUP4 DUP4 MLOAD PUSH1 0x20 DUP6 ADD PUSH2 0x4DBE JUMP JUMPDEST PUSH1 0x0 DUP3 PUSH1 0x1F DUP4 ADD SLT PUSH2 0x4E33 JUMPI PUSH1 0x0 DUP1 REVERT JUMPDEST DUP2 MLOAD PUSH1 0x20 PUSH2 0x4E40 DUP3 PUSH2 0x48EA JUMP JUMPDEST PUSH1 0x40 DUP1 MLOAD PUSH2 0x4E4E DUP4 DUP3 PUSH2 0x416D JUMP JUMPDEST DUP5 DUP2 MSTORE PUSH1 0x7 SWAP5 SWAP1 SWAP5 SHL DUP7 ADD DUP4 ADD SWAP4 DUP4 DUP2 ADD SWAP3 POP DUP8 DUP6 GT ISZERO PUSH2 0x4E6E JUMPI PUSH1 0x0 DUP1 REVERT JUMPDEST DUP4 DUP8 ADD JUMPDEST DUP6 DUP2 LT ISZERO PUSH2 0x4ED0 JUMPI PUSH1 0x80 DUP2 DUP11 SUB SLT ISZERO PUSH2 0x4E8B JUMPI PUSH1 0x0 DUP1 DUP2 REVERT JUMPDEST DUP3 MLOAD PUSH2 0x4E96 DUP2 PUSH2 0x414E JUMP JUMPDEST DUP2 MLOAD DUP2 MSTORE DUP6 DUP3 ADD MLOAD DUP7 DUP3 ADD MSTORE PUSH2 0x4EAD DUP5 DUP4 ADD PUSH2 0x4D77 JUMP JUMPDEST DUP5 DUP3 ADD MSTORE PUSH1 0x60 PUSH2 0x4EBE DUP2 DUP5 ADD PUSH2 0x4D77 JUMP JUMPDEST SWAP1 DUP3 ADD MSTORE DUP5 MSTORE SWAP3 DUP5 ADD SWAP3 PUSH1 0x80 ADD PUSH2 0x4E72 JUMP JUMPDEST POP SWAP8 SWAP7 POP POP POP POP POP POP POP JUMP JUMPDEST PUSH1 0x0 PUSH1 0x20 DUP3 DUP5 SUB SLT ISZERO PUSH2 0x4EEE JUMPI PUSH1 0x0 DUP1 REVERT JUMPDEST DUP2 MLOAD PUSH1 0x1 PUSH1 0x1 PUSH1 0x40 SHL SUB DUP1 DUP3 GT ISZERO PUSH2 0x4F05 JUMPI PUSH1 0x0 DUP1 REVERT JUMPDEST SWAP1 DUP4 ADD SWAP1 PUSH2 0x160 DUP3 DUP7 SUB SLT ISZERO PUSH2 0x4F1A JUMPI PUSH1 0x0 DUP1 REVERT JUMPDEST PUSH2 0x4F22 PUSH2 0x41D0 JUMP JUMPDEST PUSH2 0x4F2B DUP4 PUSH2 0x4D77 JUMP JUMPDEST DUP2 MSTORE PUSH2 0x4F39 PUSH1 0x20 DUP5 ADD PUSH2 0x4D88 JUMP JUMPDEST PUSH1 0x20 DUP3 ADD MSTORE PUSH2 0x4F4A PUSH1 0x40 DUP5 ADD PUSH2 0x4D88 JUMP JUMPDEST PUSH1 0x40 DUP3 ADD MSTORE PUSH2 0x4F5B PUSH1 0x60 DUP5 ADD PUSH2 0x4D9C JUMP JUMPDEST PUSH1 0x60 DUP3 ADD MSTORE PUSH1 0x80 DUP4 ADD MLOAD PUSH1 0x80 DUP3 ADD MSTORE PUSH2 0x4F76 PUSH1 0xA0 DUP5 ADD PUSH2 0x4DA7 JUMP JUMPDEST PUSH1 0xA0 DUP3 ADD MSTORE PUSH2 0x4F87 PUSH1 0xC0 DUP5 ADD PUSH2 0x4D77 JUMP JUMPDEST PUSH1 0xC0 DUP3 ADD MSTORE PUSH1 0xE0 DUP4 ADD MLOAD DUP3 DUP2 GT ISZERO PUSH2 0x4F9E JUMPI PUSH1 0x0 DUP1 REVERT JUMPDEST PUSH2 0x4FAA DUP8 DUP3 DUP7 ADD PUSH2 0x4E02 JUMP JUMPDEST PUSH1 0xE0 DUP4 ADD MSTORE POP PUSH2 0x100 PUSH2 0x4FBE DUP2 DUP6 ADD PUSH2 0x4D88 JUMP JUMPDEST SWAP1 DUP3 ADD MSTORE PUSH2 0x120 DUP4 DUP2 ADD MLOAD DUP4 DUP2 GT ISZERO PUSH2 0x4FD6 JUMPI PUSH1 0x0 DUP1 REVERT JUMPDEST PUSH2 0x4FE2 DUP9 DUP3 DUP8 ADD PUSH2 0x4E22 JUMP JUMPDEST SWAP2 DUP4 ADD SWAP2 SWAP1 SWAP2 MSTORE POP PUSH2 0x140 SWAP3 DUP4 ADD MLOAD SWAP3 DUP2 ADD SWAP3 SWAP1 SWAP3 MSTORE POP SWAP4 SWAP3 POP POP POP JUMP JUMPDEST PUSH1 0x0 PUSH1 0x20 DUP3 DUP5 SUB SLT ISZERO PUSH2 0x5012 JUMPI PUSH1 0x0 DUP1 REVERT JUMPDEST DUP2 MLOAD PUSH1 0x1 PUSH1 0x1 PUSH1 0x40 SHL SUB DUP1 DUP3 GT ISZERO PUSH2 0x5029 JUMPI PUSH1 0x0 DUP1 REVERT JUMPDEST SWAP1 DUP4 ADD SWAP1 PUSH2 0x100 DUP3 DUP7 SUB SLT ISZERO PUSH2 0x503E JUMPI PUSH1 0x0 DUP1 REVERT JUMPDEST PUSH2 0x5046 PUSH2 0x41F3 JUMP JUMPDEST PUSH2 0x504F DUP4 PUSH2 0x4D77 JUMP JUMPDEST DUP2 MSTORE PUSH1 0x20 DUP4 ADD MLOAD PUSH1 0x20 DUP3 ADD MSTORE PUSH1 0x40 DUP4 ADD MLOAD PUSH1 0x40 DUP3 ADD MSTORE PUSH2 0x5071 PUSH1 0x60 DUP5 ADD PUSH2 0x4D9C JUMP JUMPDEST PUSH1 0x60 DUP3 ADD MSTORE PUSH1 0x80 DUP4 ADD MLOAD PUSH1 0x80 DUP3 ADD MSTORE PUSH2 0x508C PUSH1 0xA0 DUP5 ADD PUSH2 0x4D9C JUMP JUMPDEST PUSH1 0xA0 DUP3 ADD MSTORE PUSH1 0xC0 DUP4 ADD MLOAD PUSH1 0xC0 DUP3 ADD MSTORE PUSH1 0xE0 DUP4 ADD MLOAD DUP3 DUP2 GT ISZERO PUSH2 0x50AD JUMPI PUSH1 0x0 DUP1 REVERT JUMPDEST PUSH2 0x50B9 DUP8 DUP3 DUP7 ADD PUSH2 0x4E02 JUMP JUMPDEST PUSH1 0xE0 DUP4 ADD MSTORE POP SWAP6 SWAP5 POP POP POP POP POP JUMP JUMPDEST PUSH2 0xFFFF PUSH1 0xF0 SHL DUP7 PUSH1 0xF0 SHL AND DUP2 MSTORE DUP5 PUSH1 0x2 DUP3 ADD MSTORE DUP4 PUSH1 0x22 DUP3 ADD MSTORE PUSH1 0x1 PUSH1 0x1 PUSH1 0x40 SHL SUB PUSH1 0xC0 SHL DUP4 PUSH1 0xC0 SHL AND PUSH1 0x42 DUP3 ADD MSTORE PUSH1 0x0 DUP3 MLOAD PUSH2 0x510B DUP2 PUSH1 0x4A DUP6 ADD PUSH1 0x20 DUP8 ADD PUSH2 0x4522 JUMP JUMPDEST SWAP2 SWAP1 SWAP2 ADD PUSH1 0x4A ADD SWAP7 SWAP6 POP POP POP POP POP POP JUMP JUMPDEST PUSH1 0x0 DUP3 NOT DUP3 GT ISZERO PUSH2 0x512F JUMPI PUSH2 0x512F PUSH2 0x4C57 JUMP JUMPDEST POP ADD SWAP1 JUMP JUMPDEST PUSH1 0x20 DUP1 DUP3 MSTORE PUSH1 0xC SWAP1 DUP3 ADD MSTORE PUSH12 0x2632B733BA341032B93937B9 PUSH1 0xA1 SHL PUSH1 0x40 DUP3 ADD MSTORE PUSH1 0x60 ADD SWAP1 JUMP JUMPDEST PUSH1 0x0 DUP1 DUP4 CALLDATALOAD PUSH1 0x1E NOT DUP5 CALLDATASIZE SUB ADD DUP2 SLT PUSH2 0x5171 JUMPI PUSH1 0x0 DUP1 REVERT JUMPDEST DUP4 ADD DUP1 CALLDATALOAD SWAP2 POP PUSH1 0x1 PUSH1 0x1 PUSH1 0x40 SHL SUB DUP3 GT ISZERO PUSH2 0x518B JUMPI PUSH1 0x0 DUP1 REVERT JUMPDEST PUSH1 0x20 ADD SWAP2 POP CALLDATASIZE DUP2 SWAP1 SUB DUP3 SGT ISZERO PUSH2 0x4042 JUMPI PUSH1 0x0 DUP1 REVERT JUMPDEST DUP7 DUP2 MSTORE DUP6 PUSH1 0x20 DUP3 ADD MSTORE PUSH1 0x0 PUSH1 0x1 PUSH1 0x1 PUSH1 0x40 SHL SUB PUSH1 0xC0 SHL DUP1 DUP8 PUSH1 0xC0 SHL AND PUSH1 0x40 DUP5 ADD MSTORE DUP6 MLOAD PUSH2 0x51D4 DUP2 PUSH1 0x48 DUP7 ADD PUSH1 0x20 DUP11 ADD PUSH2 0x4522 JUMP JUMPDEST DUP1 DUP5 ADD SWAP1 POP DUP2 DUP7 PUSH1 0xC0 SHL AND PUSH1 0x48 DUP3 ADD MSTORE DUP5 MLOAD SWAP2 POP PUSH2 0x51F9 DUP3 PUSH1 0x50 DUP4 ADD PUSH1 0x20 DUP9 ADD PUSH2 0x4522 JUMP JUMPDEST ADD PUSH1 0x50 ADD SWAP9 SWAP8 POP POP POP POP POP POP POP POP JUMP JUMPDEST PUSH1 0x0 PUSH1 0x20 DUP3 DUP5 SUB SLT ISZERO PUSH2 0x521B JUMPI PUSH1 0x0 DUP1 REVERT JUMPDEST DUP2 MLOAD PUSH1 0x1 PUSH1 0x1 PUSH1 0x40 SHL SUB DUP2 GT ISZERO PUSH2 0x5231 JUMPI PUSH1 0x0 DUP1 REVERT JUMPDEST PUSH2 0xB56 DUP5 DUP3 DUP6 ADD PUSH2 0x4E02 JUMP JUMPDEST PUSH1 0x0 PUSH1 0x20 DUP3 DUP5 SUB SLT ISZERO PUSH2 0x524F JUMPI PUSH1 0x0 DUP1 REVERT JUMPDEST DUP2 MLOAD PUSH2 0xD94 DUP2 PUSH2 0x4357 JUMP JUMPDEST PUSH1 0x1 PUSH1 0x1 PUSH1 0xA0 SHL SUB DUP7 DUP2 AND DUP3 MSTORE DUP6 AND PUSH1 0x20 DUP3 ADD MSTORE PUSH1 0x40 DUP2 ADD DUP5 SWAP1 MSTORE PUSH1 0x60 DUP2 ADD DUP4 SWAP1 MSTORE PUSH2 0x160 DUP2 ADD PUSH2 0x528E PUSH1 0x80 DUP4 ADD DUP5 PUSH2 0x4B18 JUMP JUMPDEST SWAP7 SWAP6 POP POP POP POP POP POP JUMP JUMPDEST PUSH1 0x40 DUP2 MSTORE PUSH1 0x0 PUSH2 0x52AB PUSH1 0x40 DUP4 ADD DUP6 PUSH2 0x454E JUMP JUMPDEST SWAP1 POP DUP3 PUSH1 0x20 DUP4 ADD MSTORE SWAP4 SWAP3 POP POP POP JUMP JUMPDEST PUSH1 0x0 PUSH1 0x3 RETURNDATASIZE GT ISZERO PUSH2 0x41A5 JUMPI PUSH1 0x4 PUSH1 0x0 DUP1 RETURNDATACOPY POP PUSH1 0x0 MLOAD PUSH1 0xE0 SHR SWAP1 JUMP JUMPDEST PUSH1 0x0 PUSH1 0x44 RETURNDATASIZE LT ISZERO PUSH2 0x52E3 JUMPI SWAP1 JUMP JUMPDEST PUSH1 0x40 MLOAD PUSH1 0x3 NOT RETURNDATASIZE DUP2 ADD PUSH1 0x4 DUP4 RETURNDATACOPY DUP2 MLOAD RETURNDATASIZE PUSH1 0x1 PUSH1 0x1 PUSH1 0x40 SHL SUB DUP2 PUSH1 0x24 DUP5 ADD GT DUP2 DUP5 GT OR ISZERO PUSH2 0x5312 JUMPI POP POP POP POP POP SWAP1 JUMP JUMPDEST DUP3 DUP6 ADD SWAP2 POP DUP2 MLOAD DUP2 DUP2 GT ISZERO PUSH2 0x532A JUMPI POP POP POP POP POP POP SWAP1 JUMP JUMPDEST DUP5 RETURNDATASIZE DUP8 ADD ADD PUSH1 0x20 DUP3 DUP6 ADD ADD GT ISZERO PUSH2 0x5344 JUMPI POP POP POP POP POP POP SWAP1 JUMP JUMPDEST PUSH2 0x5353 PUSH1 0x20 DUP3 DUP7 ADD ADD DUP8 PUSH2 0x416D JUMP JUMPDEST POP SWAP1 SWAP6 SWAP5 POP POP POP POP POP JUMP JUMPDEST PUSH1 0x0 PUSH2 0x120 DUP1 DUP4 MSTORE PUSH2 0x5372 DUP2 DUP5 ADD DUP8 PUSH2 0x454E JUMP JUMPDEST SWAP1 POP DUP3 DUP2 SUB PUSH1 0x20 DUP5 ADD MSTORE PUSH2 0x5386 DUP2 DUP7 PUSH2 0x454E JUMP JUMPDEST SWAP2 POP POP PUSH2 0xB56 PUSH1 0x40 DUP4 ADD DUP5 PUSH2 0x4B18 JUMP JUMPDEST PUSH1 0x0 PUSH2 0x120 DUP1 DUP4 MSTORE PUSH1 0x0 DUP2 DUP5 ADD MSTORE POP PUSH2 0x140 DUP1 PUSH1 0x20 DUP5 ADD MSTORE PUSH2 0x53BA DUP2 DUP5 ADD DUP7 PUSH2 0x454E JUMP JUMPDEST SWAP2 POP POP PUSH2 0xD94 PUSH1 0x40 DUP4 ADD DUP5 PUSH2 0x4B18 JUMP JUMPDEST PUSH1 0x0 PUSH1 0x1 DUP3 ADD PUSH2 0x53DC JUMPI PUSH2 0x53DC PUSH2 0x4C57 JUMP JUMPDEST POP PUSH1 0x1 ADD SWAP1 JUMP JUMPDEST PUSH2 0xFFFF DUP6 AND DUP2 MSTORE DUP4 PUSH1 0x20 DUP3 ADD MSTORE PUSH4 0xFFFFFFFF DUP4 AND PUSH1 0x40 DUP3 ADD MSTORE PUSH1 0x80 PUSH1 0x60 DUP3 ADD MSTORE PUSH1 0x0 PUSH2 0x528E PUSH1 0x80 DUP4 ADD DUP5 PUSH2 0x454E JUMP JUMPDEST PUSH1 0x0 PUSH1 0x20 DUP3 DUP5 SUB SLT ISZERO PUSH2 0x5424 JUMPI PUSH1 0x0 DUP1 REVERT JUMPDEST PUSH2 0xD94 DUP3 PUSH2 0x4DA7 JUMP JUMPDEST PUSH1 0x1 DUP1 PUSH1 0xA0 SHL SUB DUP8 AND DUP2 MSTORE DUP6 PUSH1 0x20 DUP3 ADD MSTORE PUSH2 0xFFFF DUP6 AND PUSH1 0x40 DUP3 ADD MSTORE DUP4 PUSH1 0x60 DUP3 ADD MSTORE PUSH4 0xFFFFFFFF DUP4 AND PUSH1 0x80 DUP3 ADD MSTORE PUSH1 0xC0 PUSH1 0xA0 DUP3 ADD MSTORE PUSH1 0x0 PUSH2 0x5470 PUSH1 0xC0 DUP4 ADD DUP5 PUSH2 0x454E JUMP JUMPDEST SWAP9 SWAP8 POP POP POP POP POP POP POP POP JUMP JUMPDEST PUSH1 0x0 DUP2 PUSH1 0x0 NOT DIV DUP4 GT DUP3 ISZERO ISZERO AND ISZERO PUSH2 0x5496 JUMPI PUSH2 0x5496 PUSH2 0x4C57 JUMP JUMPDEST POP MUL SWAP1 JUMP JUMPDEST PUSH1 0x0 DUP3 PUSH2 0x54B8 JUMPI PUSH4 0x4E487B71 PUSH1 0xE0 SHL PUSH1 0x0 MSTORE PUSH1 0x12 PUSH1 0x4 MSTORE PUSH1 0x24 PUSH1 0x0 REVERT JUMPDEST POP DIV SWAP1 JUMP JUMPDEST PUSH1 0x0 PUSH1 0xC0 DUP3 CALLDATASIZE SUB SLT ISZERO PUSH2 0x54CF JUMPI PUSH1 0x0 DUP1 REVERT JUMPDEST PUSH1 0x40 MLOAD PUSH1 0xC0 DUP2 ADD PUSH1 0x1 PUSH1 0x1 PUSH1 0x40 SHL SUB DUP3 DUP3 LT DUP2 DUP4 GT OR ISZERO PUSH2 0x54F2 JUMPI PUSH2 0x54F2 PUSH2 0x4113 JUMP JUMPDEST DUP2 PUSH1 0x40 MSTORE DUP5 CALLDATALOAD SWAP2 POP PUSH2 0x5503 DUP3 PUSH2 0x3F73 JUMP JUMPDEST DUP2 DUP4 MSTORE PUSH2 0x5512 PUSH1 0x20 DUP7 ADD PUSH2 0x3F88 JUMP JUMPDEST PUSH1 0x20 DUP5 ADD MSTORE PUSH2 0x5523 PUSH1 0x40 DUP7 ADD PUSH2 0x3F88 JUMP JUMPDEST PUSH1 0x40 DUP5 ADD MSTORE PUSH2 0x5534 PUSH1 0x60 DUP7 ADD PUSH2 0x3F88 JUMP JUMPDEST PUSH1 0x60 DUP5 ADD MSTORE PUSH1 0x80 DUP6 ADD CALLDATALOAD PUSH1 0x80 DUP5 ADD MSTORE PUSH1 0xA0 DUP6 ADD CALLDATALOAD SWAP2 POP DUP1 DUP3 GT ISZERO PUSH2 0x5557 JUMPI PUSH1 0x0 DUP1 REVERT JUMPDEST POP PUSH2 0x5564 CALLDATASIZE DUP3 DUP7 ADD PUSH2 0x423D JUMP JUMPDEST PUSH1 0xA0 DUP4 ADD MSTORE POP SWAP3 SWAP2 POP POP JUMP JUMPDEST DUP1 MLOAD PUSH1 0x20 DUP1 DUP4 ADD MLOAD SWAP2 SWAP1 DUP2 LT ISZERO PUSH2 0x3FF8 JUMPI PUSH1 0x0 NOT PUSH1 0x20 SWAP2 SWAP1 SWAP2 SUB PUSH1 0x3 SHL SHL AND SWAP2 SWAP1 POP JUMP JUMPDEST PUSH1 0x0 PUSH1 0x1 PUSH1 0x1 PUSH1 0x40 SHL SUB PUSH1 0xC0 SHL DUP1 DUP9 PUSH1 0xC0 SHL AND DUP4 MSTORE DUP7 MLOAD PUSH2 0x55BC DUP2 PUSH1 0x8 DUP7 ADD PUSH1 0x20 DUP12 ADD PUSH2 0x4522 JUMP JUMPDEST DUP1 DUP5 ADD SWAP1 POP DUP2 DUP8 PUSH1 0xC0 SHL AND PUSH1 0x8 DUP3 ADD MSTORE DUP6 MLOAD SWAP2 POP PUSH2 0x55E1 DUP3 PUSH1 0x10 DUP4 ADD PUSH1 0x20 DUP10 ADD PUSH2 0x4522 JUMP JUMPDEST PUSH1 0xF0 SWAP5 SWAP1 SWAP5 SHL PUSH1 0x1 PUSH1 0x1 PUSH1 0xF0 SHL SUB NOT AND PUSH1 0x10 SWAP5 SWAP1 SWAP2 ADD SWAP4 DUP5 ADD MSTORE POP POP PUSH1 0x12 ADD SWAP5 SWAP4 POP POP POP POP JUMP JUMPDEST PUSH1 0x0 PUSH1 0x1 PUSH1 0x1 PUSH1 0x40 SHL SUB PUSH1 0xC0 SHL DUP1 DUP10 PUSH1 0xC0 SHL AND DUP4 MSTORE DUP8 MLOAD PUSH2 0x5630 DUP2 PUSH1 0x8 DUP7 ADD PUSH1 0x20 DUP13 ADD PUSH2 0x4522 JUMP JUMPDEST PUSH1 0xF0 DUP9 SWAP1 SHL PUSH1 0x1 PUSH1 0x1 PUSH1 0xF0 SHL SUB NOT AND PUSH1 0x8 SWAP2 DUP6 ADD SWAP2 DUP3 ADD MSTORE PUSH1 0xC0 DUP8 SWAP1 SHL SWAP1 SWAP2 AND PUSH1 0xA DUP3 ADD MSTORE DUP5 MLOAD SWAP1 PUSH2 0x5669 DUP3 PUSH1 0x12 DUP4 ADD PUSH1 0x20 DUP10 ADD PUSH2 0x4522 JUMP JUMPDEST ADD PUSH1 0x12 DUP2 ADD SWAP4 SWAP1 SWAP4 MSTORE POP POP PUSH1 0x32 ADD SWAP6 SWAP5 POP POP POP POP POP JUMP JUMPDEST PUSH1 0x0 PUSH1 0x1 PUSH1 0x1 PUSH1 0x40 SHL SUB PUSH1 0xC0 SHL DUP1 DUP10 PUSH1 0xC0 SHL AND DUP4 MSTORE DUP8 MLOAD PUSH2 0x56A8 DUP2 PUSH1 0x8 DUP7 ADD PUSH1 0x20 DUP13 ADD PUSH2 0x4522 JUMP JUMPDEST DUP1 DUP5 ADD SWAP1 POP DUP2 DUP9 PUSH1 0xC0 SHL AND PUSH1 0x8 DUP3 ADD MSTORE DUP7 MLOAD PUSH2 0x56CB DUP2 PUSH1 0x10 DUP5 ADD PUSH1 0x20 DUP12 ADD PUSH2 0x4522 JUMP JUMPDEST DUP1 DUP3 ADD SWAP2 POP POP DUP2 DUP7 PUSH1 0xC0 SHL AND PUSH1 0x10 DUP3 ADD MSTORE DUP5 MLOAD SWAP2 POP PUSH2 0x56F1 DUP3 PUSH1 0x18 DUP4 ADD PUSH1 0x20 DUP9 ADD PUSH2 0x4522 JUMP JUMPDEST ADD PUSH1 0x18 ADD SWAP9 SWAP8 POP POP POP POP POP POP POP POP JUMP JUMPDEST PUSH1 0x0 PUSH1 0x1 PUSH1 0x1 PUSH1 0x40 SHL SUB PUSH1 0xC0 SHL DUP1 DUP9 PUSH1 0xC0 SHL AND DUP4 MSTORE DUP7 MLOAD PUSH2 0x5729 DUP2 PUSH1 0x8 DUP7 ADD PUSH1 0x20 DUP12 ADD PUSH2 0x4522 JUMP JUMPDEST DUP1 DUP5 ADD SWAP1 POP DUP7 PUSH1 0x8 DUP3 ADD MSTORE DUP2 DUP7 PUSH1 0xC0 SHL AND PUSH1 0x28 DUP3 ADD MSTORE DUP5 MLOAD SWAP2 POP PUSH2 0x5754 DUP3 PUSH1 0x30 DUP4 ADD PUSH1 0x20 DUP9 ADD PUSH2 0x4522 JUMP JUMPDEST ADD PUSH1 0x30 ADD SWAP8 SWAP7 POP POP POP POP POP POP POP JUMP JUMPDEST PUSH1 0x0 DUP4 MLOAD PUSH2 0x5775 DUP2 DUP5 PUSH1 0x20 DUP9 ADD PUSH2 0x4522 JUMP JUMPDEST PUSH1 0x1 PUSH1 0x1 PUSH1 0xF8 SHL SUB NOT SWAP4 SWAP1 SWAP4 AND SWAP2 SWAP1 SWAP3 ADD SWAP1 DUP2 MSTORE PUSH1 0x1 ADD SWAP3 SWAP2 POP POP JUMP JUMPDEST PUSH1 0x0 DUP3 MLOAD PUSH2 0x4D50 DUP2 DUP5 PUSH1 0x20 DUP8 ADD PUSH2 0x4522 JUMP JUMPDEST PUSH1 0x0 PUSH1 0x20 DUP3 DUP5 SUB SLT ISZERO PUSH2 0x57B6 JUMPI PUSH1 0x0 DUP1 REVERT JUMPDEST DUP2 MLOAD PUSH1 0x1 PUSH1 0x1 PUSH1 0x40 SHL SUB DUP2 GT ISZERO PUSH2 0x57CC JUMPI PUSH1 0x0 DUP1 REVERT JUMPDEST DUP3 ADD PUSH1 0x1F DUP2 ADD DUP5 SGT PUSH2 0x57DD JUMPI PUSH1 0x0 DUP1 REVERT JUMPDEST PUSH2 0xB56 DUP5 DUP3 MLOAD PUSH1 0x20 DUP5 ADD PUSH2 0x4DBE JUMP JUMPDEST PUSH1 0x0 PUSH1 0x20 DUP3 DUP5 SUB SLT ISZERO PUSH2 0x57FE JUMPI PUSH1 0x0 DUP1 REVERT JUMPDEST PUSH2 0xD94 DUP3 PUSH2 0x4CFE JUMP INVALID 0xD4 0xCA NUMBER MUL 0xBC LOG2 PUSH8 0x85486B2CEEC78749 PUSH27 0x9CF992C36DCF57C306A00C1F88154623A2646970667358221220A6 0xCA PUSH8 0x7D75FB43AAD0A271 0xCA 0xB7 ADDMOD DUP14 0x4D 0xD9 0x49 0xDB MUL LOG4 0xDD DUP3 0x22 ISZERO 0xD1 PUSH17 0xBA6B5EE9E764736F6C634300080D003300 ",
  "sha1": "57a9ba9fa35a5198f60d6bbdcff22465565eb5c6",
  "source": "// SPDX-License-Identifier: GPLv3\npragma solidity 0.8.13;\n\nimport \"@openzeppelin/contracts/utils/math/SafeMath.sol\";\nimport \"../Libraries/LibDiamond.sol\";\nimport \"../Libraries/LibBytes.sol\";\nimport \"../Libraries/LibCross.sol\";\nimport \"../Interfaces/ISo.sol\";\nimport \"../Interfaces/ILibPrice.sol\";\nimport \"../Helpers/Swapper.sol\";\nimport \"../Interfaces/IWormholeBridge.sol\";\nimport \"../Interfaces/ILibSoFee.sol\";\n\n/// @title Wormhole Facet\n/// @author OmniBTC\n/// @notice Provides functionality for bridging through Wormhole\ncontract WormholeFacet is Swapper {\n    using SafeMath for uint256;\n    using LibBytes for bytes;\n\n    bytes32 internal constant NAMESPACE =\n        hex\"d4ca4302bca26785486b2ceec787497a9cf992c36dcf57c306a00c1f88154623\"; // keccak256(\"com.so.facets.wormhole\")\n\n    uint256 public constant RAY = 1e27;\n\n    struct Storage {\n        address tokenBridge;\n        uint16 srcWormholeChainId;\n        uint256 actualReserve; // [RAY]\n        uint256 estimateReserve; // [RAY]\n        mapping(uint16 => uint256) dstBaseGas;\n        mapping(uint16 => uint256) dstGasPerBytes;\n    }\n\n    /// Events ///\n\n    event InitWormholeEvent(address tokenBridge, uint16 srcWormholeChainId);\n    event UpdateWormholeReserve(uint256 actualReserve, uint256 estimateReserve);\n    event UpdateWormholeGas(\n        uint16 dstWormholeChainId,\n        uint256 baseGas,\n        uint256 gasPerBytes\n    );\n    event TransferFromWormhole(uint16 srcWormholeChainId, uint16 dstWormholeChainId, uint64 sequence);\n\n    /// Types ///\n    struct NormalizedWormholeData {\n        uint16 dstWormholeChainId;\n        uint256 dstMaxGasPriceInWeiForRelayer;\n        uint256 wormholeFee;\n        bytes dstSoDiamond;\n    }\n\n    /// Init ///\n\n    /// init wormhole token bridge\n    function initWormhole(address _tokenBridge, uint16 _wormholeChainId)\n        external\n    {\n        LibDiamond.enforceIsContractOwner();\n        Storage storage s = getStorage();\n        s.tokenBridge = _tokenBridge;\n        s.srcWormholeChainId = _wormholeChainId;\n        emit InitWormholeEvent(_tokenBridge, _wormholeChainId);\n    }\n\n    function setWormholeReserve(\n        uint256 _actualReserve,\n        uint256 _estimateReserve\n    ) external {\n        LibDiamond.enforceIsContractOwner();\n        Storage storage s = getStorage();\n        s.actualReserve = _actualReserve;\n        s.estimateReserve = _estimateReserve;\n        emit UpdateWormholeReserve(_actualReserve, _estimateReserve);\n    }\n\n    function setWormholeGas(\n        uint16 _dstWormholeChainId,\n        uint256 _baseGas,\n        uint256 _gasPerBytes\n    ) external {\n        LibDiamond.enforceIsContractOwner();\n        Storage storage s = getStorage();\n        s.dstBaseGas[_dstWormholeChainId] = _baseGas;\n        s.dstGasPerBytes[_dstWormholeChainId] = _gasPerBytes;\n        emit UpdateWormholeGas(_dstWormholeChainId, _baseGas, _gasPerBytes);\n    }\n\n    /// External Methods ///\n\n    struct CacheSrcSoSwap {\n        bool _flag;\n        uint256 _fee;\n        bool _hasSourceSwap;\n        bool _hasDestinationSwap;\n        uint256 _bridgeAmount;\n        address _bridgeAddress;\n        uint256 returnValue;\n        uint256 dstMaxGas;\n        bytes _payload;\n    }\n\n    /// transfer with payload\n    function soSwapViaWormhole(\n        ISo.NormalizedSoData calldata _soDataNo,\n        LibSwap.NormalizedSwapData[] calldata _swapDataSrcNo,\n        NormalizedWormholeData calldata _wormholeDataNo,\n        LibSwap.NormalizedSwapData[] calldata _swapDataDstNo\n    ) external payable {\n        require(msg.value == _wormholeDataNo.wormholeFee, \"Fee error\");\n\n        CacheSrcSoSwap memory _cache;\n\n        ISo.SoData memory _soData = LibCross.denormalizeSoData(_soDataNo);\n        LibSwap.SwapData[] memory _swapDataSrc = LibCross.denormalizeSwapData(\n            _swapDataSrcNo\n        );\n\n        (\n            _cache._flag,\n            _cache._fee,\n            _cache.returnValue,\n            _cache.dstMaxGas\n        ) = checkRelayerFee(_soDataNo, _wormholeDataNo, _swapDataDstNo);\n\n        require(_cache._flag, \"Check fail\");\n        // return the redundant msg.value\n        if (_cache.returnValue > 0) {\n            LibAsset.transferAsset(\n                LibAsset.NATIVE_ASSETID,\n                payable(msg.sender),\n                _cache.returnValue\n            );\n        }\n\n        if (_cache._fee > 0) {\n            LibAsset.transferAsset(\n                LibAsset.NATIVE_ASSETID,\n                payable(LibDiamond.contractOwner()),\n                _cache._fee\n            );\n        }\n        if (!LibAsset.isNativeAsset(_soData.sendingAssetId)) {\n            LibAsset.depositAsset(_soData.sendingAssetId, _soData.amount);\n        }\n        if (_swapDataSrc.length == 0) {\n            _cache._bridgeAddress = _soData.sendingAssetId;\n            _cache._bridgeAmount = _soData.amount;\n            _cache._hasSourceSwap = false;\n        } else {\n            require(\n                _soData.amount == _swapDataSrc[0].fromAmount,\n                \"soData and swapDataSrc amount not match!\"\n            );\n            _cache._bridgeAmount = this.executeAndCheckSwaps(\n                _soData,\n                _swapDataSrc\n            );\n            _cache._bridgeAddress = _swapDataSrc[_swapDataSrc.length - 1]\n                .receivingAssetId;\n            _cache._hasSourceSwap = true;\n        }\n\n        _cache._payload = encodeWormholePayload(\n            _wormholeDataNo.dstMaxGasPriceInWeiForRelayer,\n            _cache.dstMaxGas,\n            _soDataNo,\n            _swapDataDstNo\n        );\n\n        if (_swapDataSrc.length > 0) {\n            _cache._hasDestinationSwap = true;\n        }\n\n        /// start bridge\n        _startBridge(\n            _wormholeDataNo,\n            _cache._bridgeAddress,\n            _cache._bridgeAmount,\n            _cache._payload\n        );\n\n        emit ISo.SoTransferStarted(\n            _soData.transactionId,\n            \"Wormhole\",\n            _cache._hasSourceSwap,\n            _cache._hasDestinationSwap,\n            _soData\n        );\n    }\n\n    function completeTransferAndUnwrapETHWithPayload(bytes memory _encodeVm)\n        external\n    {\n        completeSoSwap(_encodeVm);\n    }\n\n    function completeTransferWithPayload(bytes memory _encodeVm) external {\n        completeSoSwap(_encodeVm);\n    }\n\n    /// complete transfer with payload\n    /// called by relayer\n    function completeSoSwap(bytes memory _encodeVm) public {\n        Storage storage s = getStorage();\n        address bridge = s.tokenBridge;\n\n        bytes memory payload = IWormholeBridge(bridge)\n            .completeTransferWithPayload(_encodeVm);\n\n        IWormholeBridge.TransferWithPayload\n            memory _wormholePayload = IWormholeBridge(bridge)\n                .parseTransferWithPayload(payload);\n\n        (\n            ,\n            ,\n            ISo.NormalizedSoData memory _soDataNo,\n            LibSwap.NormalizedSwapData[] memory _swapDataDstNo\n        ) = decodeWormholePayload(_wormholePayload.payload);\n\n        ISo.SoData memory _soData = LibCross.denormalizeSoData(_soDataNo);\n        LibSwap.SwapData[] memory _swapDataDst = LibCross.denormalizeSwapData(\n            _swapDataDstNo\n        );\n\n        address _tokenAddress;\n        bool _isOriginChain;\n        if (_wormholePayload.tokenChain == IWormholeBridge(bridge).chainId()) {\n            _tokenAddress = address(\n                uint160(uint256(_wormholePayload.tokenAddress))\n            );\n            _isOriginChain = true;\n        } else {\n            _tokenAddress = IWormholeBridge(bridge).wrappedAsset(\n                _wormholePayload.tokenChain,\n                _wormholePayload.tokenAddress\n            );\n        }\n\n        uint256 amount = LibAsset.getOwnBalance(_tokenAddress);\n        require(amount > 0, \"amount > 0\");\n\n        IWETH _weth = IWormholeBridge(bridge).WETH();\n\n        if (_isOriginChain && address(_weth) == _tokenAddress) {\n            _weth.withdraw(amount);\n            _tokenAddress = LibAsset.NATIVE_ASSETID;\n        }\n\n        uint256 soFee = getSoFee(amount);\n        if (soFee > 0 && soFee < amount) {\n            amount = amount.sub(soFee);\n        }\n\n        if (_swapDataDst.length == 0) {\n            require(_tokenAddress == _soData.receivingAssetId, \"token error\");\n            if (soFee > 0) {\n                LibAsset.transferAsset(\n                    _soData.receivingAssetId,\n                    payable(LibDiamond.contractOwner()),\n                    soFee\n                );\n            }\n            LibAsset.transferAsset(\n                _soData.receivingAssetId,\n                _soData.receiver,\n                amount\n            );\n            emit SoTransferCompleted(\n                _soData.transactionId,\n                _soData.receivingAssetId,\n                _soData.receiver,\n                amount,\n                block.timestamp,\n                _soData\n            );\n        } else {\n            if (soFee > 0) {\n                LibAsset.transferAsset(\n                    _swapDataDst[0].sendingAssetId,\n                    payable(LibDiamond.contractOwner()),\n                    soFee\n                );\n            }\n            require(\n                _swapDataDst[0].sendingAssetId == _tokenAddress,\n                \"token error\"\n            );\n\n            _swapDataDst[0].fromAmount = amount;\n\n            address _correctSwap = appStorage.correctSwapRouterSelectors;\n\n            if (_correctSwap != address(0)) {\n                _swapDataDst[0].callData = ICorrectSwap(_correctSwap)\n                    .correctSwap(\n                        _swapDataDst[0].callData,\n                        _swapDataDst[0].fromAmount\n                    );\n            }\n\n            try this.executeAndCheckSwaps(_soData, _swapDataDst) returns (\n                uint256 _amountFinal\n            ) {\n                LibAsset.transferAsset(\n                    _swapDataDst[_swapDataDst.length - 1].receivingAssetId,\n                    _soData.receiver,\n                    _amountFinal\n                );\n                emit SoTransferCompleted(\n                    _soData.transactionId,\n                    _soData.receivingAssetId,\n                    _soData.receiver,\n                    _amountFinal,\n                    block.timestamp,\n                    _soData\n                );\n            } catch Error(string memory revertReason) {\n                LibAsset.transferAsset(\n                    _soData.receivingAssetId,\n                    _soData.receiver,\n                    amount\n                );\n                emit SoTransferFailed(\n                    _soData.transactionId,\n                    revertReason,\n                    bytes(\"\"),\n                    _soData\n                );\n            } catch (bytes memory returnData) {\n                LibAsset.transferAsset(\n                    _soData.receivingAssetId,\n                    _soData.receiver,\n                    amount\n                );\n                emit SoTransferFailed(\n                    _soData.transactionId,\n                    \"\",\n                    returnData,\n                    _soData\n                );\n            }\n        }\n    }\n\n    function estimateCompleteSoSwapGas(\n        ISo.NormalizedSoData calldata _soData,\n        NormalizedWormholeData calldata _wormholeData,\n        LibSwap.NormalizedSwapData[] calldata _swapDataDst\n    ) public view returns (uint256) {\n        bytes memory _payload = encodeWormholePayload(\n            _wormholeData.dstMaxGasPriceInWeiForRelayer,\n            0,\n            _soData,\n            _swapDataDst\n        );\n        Storage storage s = getStorage();\n        return\n            s.dstBaseGas[_wormholeData.dstWormholeChainId].add(\n                s.dstGasPerBytes[_wormholeData.dstWormholeChainId].mul(\n                    _payload.length\n                )\n            );\n    }\n\n    struct CacheCheck {\n        uint256 _ratio;\n        uint256 _srcFee;\n        uint256 _dstFee;\n        uint256 _userInput;\n        uint256 dstMaxGasForRelayer;\n        bool flag;\n        uint256 returnValue;\n        uint256 consumeValue;\n    }\n\n    function checkRelayerFee(\n        ISo.NormalizedSoData calldata _soData,\n        NormalizedWormholeData calldata _wormholeData,\n        LibSwap.NormalizedSwapData[] calldata _swapDataDst\n    )\n        public\n        returns (\n            bool,\n            uint256,\n            uint256,\n            uint256\n        )\n    {\n        CacheCheck memory data;\n        Storage storage s = getStorage();\n        ILibPrice _oracle = ILibPrice(\n            appStorage.gatewaySoFeeSelectors[s.tokenBridge]\n        );\n        data._ratio = _oracle.updatePriceRatio(\n            _wormholeData.dstWormholeChainId\n        );\n        data.dstMaxGasForRelayer = estimateCompleteSoSwapGas(\n            _soData,\n            _wormholeData,\n            _swapDataDst\n        );\n\n        data._dstFee = data.dstMaxGasForRelayer.mul(\n            _wormholeData.dstMaxGasPriceInWeiForRelayer\n        );\n        data._srcFee = data\n            ._dstFee\n            .mul(data._ratio)\n            .div(_oracle.RAY())\n            .mul(s.actualReserve)\n            .div(RAY);\n\n        if (LibAsset.isNativeAsset(_soData.sendingAssetId.toAddress(0))) {\n            data._userInput = _soData.amount;\n        }\n        data.consumeValue = IWormholeBridge(s.tokenBridge)\n            .wormhole()\n            .messageFee()\n            .add(data._userInput)\n            .add(data._srcFee);\n        if (data.consumeValue <= _wormholeData.wormholeFee) {\n            data.flag = true;\n            data.returnValue = _wormholeData.wormholeFee.sub(data.consumeValue);\n        }\n        return (\n            data.flag,\n            data._srcFee,\n            data.returnValue,\n            data.dstMaxGasForRelayer\n        );\n    }\n\n    function estimateRelayerFee(\n        ISo.NormalizedSoData calldata _soData,\n        NormalizedWormholeData calldata _wormholeData,\n        LibSwap.NormalizedSwapData[] calldata _swapDataDst\n    ) external view returns (uint256) {\n        Storage storage s = getStorage();\n        ILibPrice _oracle = ILibPrice(\n            appStorage.gatewaySoFeeSelectors[s.tokenBridge]\n        );\n        (uint256 _ratio, ) = _oracle.getPriceRatio(\n            _wormholeData.dstWormholeChainId\n        );\n        uint256 dstMaxGasForRelayer = estimateCompleteSoSwapGas(\n            _soData,\n            _wormholeData,\n            _swapDataDst\n        );\n        uint256 _dstFee = dstMaxGasForRelayer.mul(\n            _wormholeData.dstMaxGasPriceInWeiForRelayer\n        );\n        uint256 _srcFee = _dstFee\n            .mul(_ratio)\n            .div(_oracle.RAY())\n            .mul(s.estimateReserve)\n            .div(RAY);\n        return _srcFee;\n    }\n\n    function getWormholeMessageFee() public view returns (uint256) {\n        Storage storage s = getStorage();\n        return IWormholeBridge(s.tokenBridge).wormhole().messageFee();\n    }\n\n    /// @dev Get so fee\n    function getSoFee(uint256 _amount) public view returns (uint256) {\n        Storage storage s = getStorage();\n        address _soFee = appStorage.gatewaySoFeeSelectors[s.tokenBridge];\n        if (_soFee == address(0x0)) {\n            return 0;\n        } else {\n            return ILibSoFee(_soFee).getFees(_amount);\n        }\n    }\n\n    /// @dev decode signedVAA to get max gas and price for relayer\n    function getMaxGasAndPrice(bytes memory _encodeVm)\n        external\n        view\n        returns (uint256)\n    {\n        Storage storage s = getStorage();\n        address bridge = s.tokenBridge;\n        bytes memory payload = IWormholeBridge(bridge)\n            .wormhole()\n            .parseVM(_encodeVm)\n            .payload;\n\n        IWormholeBridge.TransferWithPayload\n            memory _wormholePayload = IWormholeBridge(bridge)\n                .parseTransferWithPayload(payload);\n\n        (uint256 dstMaxGasPriceInWeiForRelayer, , , ) = decodeWormholePayload(\n            _wormholePayload.payload\n        );\n\n        return dstMaxGasPriceInWeiForRelayer;\n    }\n\n    function encodeNormalizedWormholeData(NormalizedWormholeData memory data)\n        public\n        pure\n        returns (bytes memory)\n    {\n        return\n            abi.encodePacked(\n                data.dstWormholeChainId,\n                data.dstMaxGasPriceInWeiForRelayer,\n                data.wormholeFee,\n                uint64(data.dstSoDiamond.length),\n                data.dstSoDiamond\n            );\n    }\n\n    function decodeNormalizedWormholeData(bytes memory wormholeData)\n        public\n        pure\n        returns (NormalizedWormholeData memory)\n    {\n        NormalizedWormholeData memory data;\n        uint256 index;\n        uint256 nextLen;\n\n        nextLen = 2;\n        data.dstWormholeChainId = wormholeData.toUint16(index);\n        index += nextLen;\n\n        nextLen = 32;\n        data.dstMaxGasPriceInWeiForRelayer = wormholeData.toUint256(index);\n        index += nextLen;\n\n        nextLen = 32;\n        data.wormholeFee = wormholeData.toUint256(index);\n        index += nextLen;\n\n        nextLen = uint256(wormholeData.toUint64(index));\n        index += 8;\n        data.dstSoDiamond = wormholeData.slice(index, nextLen);\n        index += nextLen;\n\n        require(index == wormholeData.length, \"Length error\");\n\n        return data;\n    }\n\n    function encodeWormholePayload(\n        uint256 dstMaxGasPrice,\n        uint256 dstMaxGas,\n        ISo.NormalizedSoData memory soData,\n        LibSwap.NormalizedSwapData[] memory swapDataDst\n    ) public pure returns (bytes memory) {\n        bytes memory d1 = LibCross.encodeNormalizedSoData(soData);\n        bytes memory d2 = LibCross.encodeNormalizedSwapData(swapDataDst);\n        return\n            abi.encodePacked(\n                dstMaxGasPrice,\n                dstMaxGas,\n                uint64(d1.length),\n                d1,\n                uint64(d2.length),\n                d2\n            );\n    }\n\n    struct CachePayload {\n        uint256 dstMaxGasPrice;\n        uint256 dstMaxGas;\n        ISo.NormalizedSoData soData;\n        LibSwap.NormalizedSwapData[] swapDataDst;\n    }\n\n    function decodeWormholePayload(bytes memory wormholeData)\n        public\n        pure\n        returns (\n            uint256,\n            uint256,\n            ISo.NormalizedSoData memory,\n            LibSwap.NormalizedSwapData[] memory\n        )\n    {\n        uint256 index;\n        uint256 nextLen;\n        CachePayload memory data;\n\n        nextLen = 32;\n        data.dstMaxGasPrice = uint256(wormholeData.toUint256(index));\n        index += nextLen;\n\n        nextLen = 32;\n        data.dstMaxGas = uint256(wormholeData.toUint256(index));\n        index += nextLen;\n\n        nextLen = uint256(wormholeData.toUint64(index));\n        index += 8;\n        data.soData = LibCross.decodeNormalizedSoData(\n            wormholeData.slice(index, nextLen)\n        );\n        index += nextLen;\n\n        nextLen = uint256(wormholeData.toUint64(index));\n        index += 8;\n        if (index < wormholeData.length) {\n            data.swapDataDst = LibCross.decodeNormalizedSwapData(\n                wormholeData.slice(index, nextLen)\n            );\n            index += nextLen;\n        }\n\n        require(index == wormholeData.length, \"Length error\");\n        return (\n            data.dstMaxGasPrice,\n            data.dstMaxGas,\n            data.soData,\n            data.swapDataDst\n        );\n    }\n\n    /// Internal Methods ///\n\n    function _startBridge(\n        NormalizedWormholeData calldata _wormholeData,\n        address _token,\n        uint256 _amount,\n        bytes memory _payload\n    ) internal {\n        Storage storage s = getStorage();\n        address _bridge = s.tokenBridge;\n\n        bytes32 dstSoDiamond;\n        if (_wormholeData.dstSoDiamond.length == 20) {\n            dstSoDiamond = bytes32(\n                uint256(uint160(_wormholeData.dstSoDiamond.toAddress(0)))\n            );\n        } else {\n            dstSoDiamond = _wormholeData.dstSoDiamond.toBytes32(0);\n        }\n\n        uint64 sequence;\n        uint256 wormhole_msg_fee = getWormholeMessageFee();\n        if (LibAsset.isNativeAsset(_token)) {\n            sequence = IWormholeBridge(_bridge).wrapAndTransferETHWithPayload{\n                value: _amount + wormhole_msg_fee\n            }(_wormholeData.dstWormholeChainId, dstSoDiamond, 0, _payload);\n        } else {\n            LibAsset.maxApproveERC20(IERC20(_token), _bridge, _amount);\n            sequence = IWormholeBridge(_bridge).transferTokensWithPayload{\n                value: wormhole_msg_fee\n            }(\n                _token,\n                _amount,\n                _wormholeData.dstWormholeChainId,\n                dstSoDiamond,\n                0,\n                _payload\n            );\n        }\n\n        uint256 _dust = LibAsset.getOwnBalance(_token);\n        if (_dust > 0) {\n            LibAsset.transferAsset(_token, payable(msg.sender), _dust);\n        }\n\n        emit TransferFromWormhole(s.srcWormholeChainId, _wormholeData.dstWormholeChainId, sequence);\n    }\n\n    /// Private Methods ///\n\n    /// @dev fetch local storage\n    function getStorage() private pure returns (Storage storage s) {\n        bytes32 namespace = NAMESPACE;\n        // solhint-disable-next-line no-inline-assembly\n        assembly {\n            s.slot := namespace\n        }\n    }\n}\n",
  "sourcePath": "contracts/Facets/WormholeFacet.sol",
  "type": "contract"
}